{
	"contracts/1_Storage.sol": {
		"SimpleSwap": {
			"abi": [
				{
					"inputs": [
						{
							"internalType": "address",
							"name": "token",
							"type": "address"
						}
					],
					"name": "SafeERC20FailedOperation",
					"type": "error"
				},
				{
					"inputs": [
						{
							"internalType": "address",
							"name": "tokenA",
							"type": "address"
						},
						{
							"internalType": "address",
							"name": "tokenB",
							"type": "address"
						},
						{
							"internalType": "uint256",
							"name": "amountADesired",
							"type": "uint256"
						},
						{
							"internalType": "uint256",
							"name": "amountBDesired",
							"type": "uint256"
						},
						{
							"internalType": "uint256",
							"name": "amountAMin",
							"type": "uint256"
						},
						{
							"internalType": "uint256",
							"name": "amountBMin",
							"type": "uint256"
						},
						{
							"internalType": "address",
							"name": "to",
							"type": "address"
						},
						{
							"internalType": "uint256",
							"name": "deadline",
							"type": "uint256"
						}
					],
					"name": "addLiquidity",
					"outputs": [
						{
							"internalType": "uint256",
							"name": "amountA",
							"type": "uint256"
						},
						{
							"internalType": "uint256",
							"name": "amountB",
							"type": "uint256"
						},
						{
							"internalType": "uint256",
							"name": "liquidity",
							"type": "uint256"
						}
					],
					"stateMutability": "nonpayable",
					"type": "function"
				},
				{
					"inputs": [
						{
							"internalType": "uint256",
							"name": "amountIn",
							"type": "uint256"
						},
						{
							"internalType": "uint256",
							"name": "reserveIn",
							"type": "uint256"
						},
						{
							"internalType": "uint256",
							"name": "reserveOut",
							"type": "uint256"
						}
					],
					"name": "getAmountOut",
					"outputs": [
						{
							"internalType": "uint256",
							"name": "amountOut",
							"type": "uint256"
						}
					],
					"stateMutability": "pure",
					"type": "function"
				},
				{
					"inputs": [
						{
							"internalType": "address",
							"name": "tokenA",
							"type": "address"
						},
						{
							"internalType": "address",
							"name": "tokenB",
							"type": "address"
						}
					],
					"name": "getPrice",
					"outputs": [
						{
							"internalType": "uint256",
							"name": "price",
							"type": "uint256"
						}
					],
					"stateMutability": "view",
					"type": "function"
				},
				{
					"inputs": [
						{
							"internalType": "bytes32",
							"name": "",
							"type": "bytes32"
						},
						{
							"internalType": "address",
							"name": "",
							"type": "address"
						}
					],
					"name": "liquidityBalance",
					"outputs": [
						{
							"internalType": "uint256",
							"name": "",
							"type": "uint256"
						}
					],
					"stateMutability": "view",
					"type": "function"
				},
				{
					"inputs": [
						{
							"internalType": "address",
							"name": "tokenA",
							"type": "address"
						},
						{
							"internalType": "address",
							"name": "tokenB",
							"type": "address"
						},
						{
							"internalType": "uint256",
							"name": "liquidity",
							"type": "uint256"
						},
						{
							"internalType": "uint256",
							"name": "amountAMin",
							"type": "uint256"
						},
						{
							"internalType": "uint256",
							"name": "amountBMin",
							"type": "uint256"
						},
						{
							"internalType": "address",
							"name": "to",
							"type": "address"
						},
						{
							"internalType": "uint256",
							"name": "deadline",
							"type": "uint256"
						}
					],
					"name": "removeLiquidity",
					"outputs": [
						{
							"internalType": "uint256",
							"name": "amountA",
							"type": "uint256"
						},
						{
							"internalType": "uint256",
							"name": "amountB",
							"type": "uint256"
						}
					],
					"stateMutability": "nonpayable",
					"type": "function"
				},
				{
					"inputs": [
						{
							"internalType": "bytes32",
							"name": "",
							"type": "bytes32"
						}
					],
					"name": "reserves",
					"outputs": [
						{
							"internalType": "uint112",
							"name": "reserveA",
							"type": "uint112"
						},
						{
							"internalType": "uint112",
							"name": "reserveB",
							"type": "uint112"
						}
					],
					"stateMutability": "view",
					"type": "function"
				},
				{
					"inputs": [
						{
							"internalType": "uint256",
							"name": "amountIn",
							"type": "uint256"
						},
						{
							"internalType": "uint256",
							"name": "amountOutMin",
							"type": "uint256"
						},
						{
							"internalType": "address[]",
							"name": "path",
							"type": "address[]"
						},
						{
							"internalType": "address",
							"name": "to",
							"type": "address"
						},
						{
							"internalType": "uint256",
							"name": "deadline",
							"type": "uint256"
						}
					],
					"name": "swapExactTokensForTokens",
					"outputs": [
						{
							"internalType": "uint256[]",
							"name": "amounts",
							"type": "uint256[]"
						}
					],
					"stateMutability": "nonpayable",
					"type": "function"
				},
				{
					"inputs": [
						{
							"internalType": "bytes32",
							"name": "",
							"type": "bytes32"
						}
					],
					"name": "totalLiquidity",
					"outputs": [
						{
							"internalType": "uint256",
							"name": "",
							"type": "uint256"
						}
					],
					"stateMutability": "view",
					"type": "function"
				}
			],
			"devdoc": {
				"author": "Valentino Salguero",
				"custom:dev-run-script": "./scripts/deploy_with_ethers.ts",
				"details": "Inspired by Uniswap, but simplified for educational purposes.",
				"errors": {
					"SafeERC20FailedOperation(address)": [
						{
							"details": "An operation with an ERC-20 token failed."
						}
					]
				},
				"kind": "dev",
				"methods": {
					"addLiquidity(address,address,uint256,uint256,uint256,uint256,address,uint256)": {
						"params": {
							"amountADesired": "Desired amount of token A to add",
							"amountAMin": "Minimum acceptable amount of token A",
							"amountBDesired": "Desired amount of token B to add",
							"amountBMin": "Minimum acceptable amount of token B",
							"deadline": "Timestamp after which the transaction is invalid",
							"to": "Recipient of the liquidity tokens",
							"tokenA": "Address of token A",
							"tokenB": "Address of token B"
						},
						"returns": {
							"amountA": "Actual amount of token A added",
							"amountB": "Actual amount of token B added",
							"liquidity": "Amount of liquidity tokens minted"
						}
					},
					"getAmountOut(uint256,uint256,uint256)": {
						"params": {
							"amountIn": "Input amount",
							"reserveIn": "Reserve of input token",
							"reserveOut": "Reserve of output token"
						},
						"returns": {
							"amountOut": "Amount of output tokens after fee"
						}
					},
					"getPrice(address,address)": {
						"params": {
							"tokenA": "Address of token A",
							"tokenB": "Address of token B"
						},
						"returns": {
							"price": "Price as tokenB/tokenA scaled by 1e18"
						}
					},
					"removeLiquidity(address,address,uint256,uint256,uint256,address,uint256)": {
						"params": {
							"amountAMin": "Minimum acceptable amount of token A",
							"amountBMin": "Minimum acceptable amount of token B",
							"deadline": "Timestamp after which the transaction is invalid",
							"liquidity": "Amount of liquidity tokens to burn",
							"to": "Address to receive withdrawn tokens",
							"tokenA": "Address of token A",
							"tokenB": "Address of token B"
						},
						"returns": {
							"amountA": "Amount of token A received",
							"amountB": "Amount of token B received"
						}
					},
					"swapExactTokensForTokens(uint256,uint256,address[],address,uint256)": {
						"params": {
							"amountIn": "Exact amount of input tokens to swap",
							"amountOutMin": "Minimum amount of output tokens required",
							"deadline": "Timestamp after which the transaction is invalid",
							"path": "Array with [tokenIn, tokenOut]",
							"to": "Address to receive output tokens"
						},
						"returns": {
							"amounts": "Array containing input and output amounts"
						}
					}
				},
				"stateVariables": {
					"liquidityBalance": {
						"details": "Tracks each user's liquidity share in a given pair"
					},
					"reserves": {
						"details": "Maps the hash of a token pair to its reserve data"
					},
					"totalLiquidity": {
						"details": "Maps the pair hash to the total liquidity of the pool"
					}
				},
				"title": "SimpleSwap - A minimal Uniswap-like DEX for ERC-20 tokens",
				"version": 1
			},
			"evm": {
				"assembly": "    /* \"contracts/1_Storage.sol\":543:11468  contract SimpleSwap {... */\n  mstore(0x40, 0x80)\n  callvalue\n  dup1\n  iszero\n  tag_1\n  jumpi\n  revert(0x00, 0x00)\ntag_1:\n  pop\n  dataSize(sub_0)\n  dup1\n  dataOffset(sub_0)\n  0x00\n  codecopy\n  0x00\n  return\nstop\n\nsub_0: assembly {\n        /* \"contracts/1_Storage.sol\":543:11468  contract SimpleSwap {... */\n      mstore(0x40, 0x80)\n      callvalue\n      dup1\n      iszero\n      tag_1\n      jumpi\n      revert(0x00, 0x00)\n    tag_1:\n      pop\n      jumpi(tag_2, lt(calldatasize, 0x04))\n      shr(0xe0, calldataload(0x00))\n      dup1\n      0xac41865a\n      gt\n      tag_11\n      jumpi\n      dup1\n      0xac41865a\n      eq\n      tag_7\n      jumpi\n      dup1\n      0xbaa2abde\n      eq\n      tag_8\n      jumpi\n      dup1\n      0xbb521a30\n      eq\n      tag_9\n      jumpi\n      dup1\n      0xe8e33700\n      eq\n      tag_10\n      jumpi\n      revert(0x00, 0x00)\n    tag_11:\n      dup1\n      0xbbf1e4\n      eq\n      tag_3\n      jumpi\n      dup1\n      0x054d50d4\n      eq\n      tag_4\n      jumpi\n      dup1\n      0x38ed1739\n      eq\n      tag_5\n      jumpi\n      dup1\n      0x54b7a8f7\n      eq\n      tag_6\n      jumpi\n    tag_2:\n      revert(0x00, 0x00)\n        /* \"contracts/1_Storage.sol\":802:845  mapping(bytes32 => Reserve) public reserves */\n    tag_3:\n      tag_12\n      tag_13\n      calldatasize\n      0x04\n      tag_14\n      jump\t// in\n    tag_13:\n      0x00\n      0x20\n      dup2\n      swap1\n      mstore\n      swap1\n      dup2\n      mstore\n      0x40\n      swap1\n      keccak256\n      sload\n      sub(shl(0x70, 0x01), 0x01)\n      dup1\n      dup3\n      and\n      swap2\n      shl(0x70, 0x01)\n      swap1\n      div\n      and\n      dup3\n      jump\n    tag_12:\n      0x40\n      dup1\n      mload\n      sub(shl(0x70, 0x01), 0x01)\n        /* \"#utility.yul\":437:480   */\n      swap4\n      dup5\n      and\n        /* \"#utility.yul\":419:481   */\n      dup2\n      mstore\n        /* \"#utility.yul\":517:560   */\n      swap3\n      swap1\n      swap2\n      and\n        /* \"#utility.yul\":512:514   */\n      0x20\n        /* \"#utility.yul\":497:515   */\n      dup4\n      add\n        /* \"#utility.yul\":490:561   */\n      mstore\n        /* \"#utility.yul\":392:410   */\n      add\n        /* \"contracts/1_Storage.sol\":802:845  mapping(bytes32 => Reserve) public reserves */\n    tag_16:\n      mload(0x40)\n      dup1\n      swap2\n      sub\n      swap1\n      return\n        /* \"contracts/1_Storage.sol\":6878:7301  function getAmountOut(uint amountIn, uint reserveIn, uint reserveOut) public pure returns (uint amountOut) {... */\n    tag_4:\n      tag_18\n      tag_19\n      calldatasize\n      0x04\n      tag_20\n      jump\t// in\n    tag_19:\n      tag_21\n      jump\t// in\n    tag_18:\n      mload(0x40)\n        /* \"#utility.yul\":1189:1214   */\n      swap1\n      dup2\n      mstore\n        /* \"#utility.yul\":1177:1179   */\n      0x20\n        /* \"#utility.yul\":1162:1180   */\n      add\n        /* \"contracts/1_Storage.sol\":6878:7301  function getAmountOut(uint amountIn, uint reserveIn, uint reserveOut) public pure returns (uint amountOut) {... */\n      tag_16\n        /* \"#utility.yul\":1043:1220   */\n      jump\n        /* \"contracts/1_Storage.sol\":5059:5996  function swapExactTokensForTokens(... */\n    tag_5:\n      tag_24\n      tag_25\n      calldatasize\n      0x04\n      tag_26\n      jump\t// in\n    tag_25:\n      tag_27\n      jump\t// in\n    tag_24:\n      mload(0x40)\n      tag_16\n      swap2\n      swap1\n      tag_29\n      jump\t// in\n        /* \"contracts/1_Storage.sol\":919:965  mapping(bytes32 => uint) public totalLiquidity */\n    tag_6:\n      tag_18\n      tag_31\n      calldatasize\n      0x04\n      tag_14\n      jump\t// in\n    tag_31:\n      mstore(0x20, 0x01)\n      0x00\n      swap1\n      dup2\n      mstore\n      0x40\n      swap1\n      keccak256\n      sload\n      dup2\n      jump\n        /* \"contracts/1_Storage.sol\":6207:6596  function getPrice(address tokenA, address tokenB) external view returns (uint price) {... */\n    tag_7:\n      tag_18\n      tag_35\n      calldatasize\n      0x04\n      tag_36\n      jump\t// in\n    tag_35:\n      tag_37\n      jump\t// in\n        /* \"contracts/1_Storage.sol\":3512:4621  function removeLiquidity(... */\n    tag_8:\n      tag_39\n      tag_40\n      calldatasize\n      0x04\n      tag_41\n      jump\t// in\n    tag_40:\n      tag_42\n      jump\t// in\n    tag_39:\n      0x40\n      dup1\n      mload\n        /* \"#utility.yul\":4320:4345   */\n      swap3\n      dup4\n      mstore\n        /* \"#utility.yul\":4376:4378   */\n      0x20\n        /* \"#utility.yul\":4361:4379   */\n      dup4\n      add\n        /* \"#utility.yul\":4354:4388   */\n      swap2\n      swap1\n      swap2\n      mstore\n        /* \"#utility.yul\":4293:4311   */\n      add\n        /* \"contracts/1_Storage.sol\":3512:4621  function removeLiquidity(... */\n      tag_16\n        /* \"#utility.yul\":4146:4394   */\n      jump\n        /* \"contracts/1_Storage.sol\":1036:1104  mapping(bytes32 => mapping(address => uint)) public liquidityBalance */\n    tag_9:\n      tag_18\n      tag_46\n      calldatasize\n      0x04\n      tag_47\n      jump\t// in\n    tag_46:\n      0x02\n      0x20\n      swap1\n      dup2\n      mstore\n      0x00\n      swap3\n      dup4\n      mstore\n      0x40\n      dup1\n      dup5\n      keccak256\n      swap1\n      swap2\n      mstore\n      swap1\n      dup3\n      mstore\n      swap1\n      keccak256\n      sload\n      dup2\n      jump\n        /* \"contracts/1_Storage.sol\":1792:2944  function addLiquidity(... */\n    tag_10:\n      tag_50\n      tag_51\n      calldatasize\n      0x04\n      tag_52\n      jump\t// in\n    tag_51:\n      tag_53\n      jump\t// in\n    tag_50:\n      0x40\n      dup1\n      mload\n        /* \"#utility.yul\":5844:5869   */\n      swap4\n      dup5\n      mstore\n        /* \"#utility.yul\":5900:5902   */\n      0x20\n        /* \"#utility.yul\":5885:5903   */\n      dup5\n      add\n        /* \"#utility.yul\":5878:5912   */\n      swap3\n      swap1\n      swap3\n      mstore\n        /* \"#utility.yul\":5928:5946   */\n      swap1\n      dup3\n      add\n        /* \"#utility.yul\":5921:5955   */\n      mstore\n        /* \"#utility.yul\":5832:5834   */\n      0x60\n        /* \"#utility.yul\":5817:5835   */\n      add\n        /* \"contracts/1_Storage.sol\":1792:2944  function addLiquidity(... */\n      tag_16\n        /* \"#utility.yul\":5642:5961   */\n      jump\n        /* \"contracts/1_Storage.sol\":6878:7301  function getAmountOut(uint amountIn, uint reserveIn, uint reserveOut) public pure returns (uint amountOut) {... */\n    tag_21:\n        /* \"contracts/1_Storage.sol\":6969:6983  uint amountOut */\n      0x00\n        /* \"contracts/1_Storage.sol\":7014:7015  0 */\n      0x00\n        /* \"contracts/1_Storage.sol\":7003:7011  amountIn */\n      dup5\n        /* \"contracts/1_Storage.sol\":7003:7015  amountIn > 0 */\n      gt\n        /* \"contracts/1_Storage.sol\":7003:7032  amountIn > 0 && reserveIn > 0 */\n      dup1\n      iszero\n      tag_57\n      jumpi\n      pop\n        /* \"contracts/1_Storage.sol\":7031:7032  0 */\n      0x00\n        /* \"contracts/1_Storage.sol\":7019:7028  reserveIn */\n      dup4\n        /* \"contracts/1_Storage.sol\":7019:7032  reserveIn > 0 */\n      gt\n        /* \"contracts/1_Storage.sol\":7003:7032  amountIn > 0 && reserveIn > 0 */\n    tag_57:\n        /* \"contracts/1_Storage.sol\":7003:7050  amountIn > 0 && reserveIn > 0 && reserveOut > 0 */\n      dup1\n      iszero\n      tag_58\n      jumpi\n      pop\n        /* \"contracts/1_Storage.sol\":7049:7050  0 */\n      0x00\n        /* \"contracts/1_Storage.sol\":7036:7046  reserveOut */\n      dup3\n        /* \"contracts/1_Storage.sol\":7036:7050  reserveOut > 0 */\n      gt\n        /* \"contracts/1_Storage.sol\":7003:7050  amountIn > 0 && reserveIn > 0 && reserveOut > 0 */\n    tag_58:\n        /* \"contracts/1_Storage.sol\":6995:7071  require(amountIn > 0 && reserveIn > 0 && reserveOut > 0, \"Invalid reserves\") */\n      tag_59\n      jumpi\n      mload(0x40)\n      shl(0xe5, 0x461bcd)\n      dup2\n      mstore\n        /* \"#utility.yul\":6168:6170   */\n      0x20\n        /* \"contracts/1_Storage.sol\":6995:7071  require(amountIn > 0 && reserveIn > 0 && reserveOut > 0, \"Invalid reserves\") */\n      0x04\n      dup3\n      add\n        /* \"#utility.yul\":6150:6171   */\n      mstore\n        /* \"#utility.yul\":6207:6209   */\n      0x10\n        /* \"#utility.yul\":6187:6205   */\n      0x24\n      dup3\n      add\n        /* \"#utility.yul\":6180:6210   */\n      mstore\n      shl(0x80, 0x496e76616c6964207265736572766573)\n        /* \"#utility.yul\":6226:6244   */\n      0x44\n      dup3\n      add\n        /* \"#utility.yul\":6219:6265   */\n      mstore\n        /* \"#utility.yul\":6282:6300   */\n      0x64\n      add\n        /* \"contracts/1_Storage.sol\":6995:7071  require(amountIn > 0 && reserveIn > 0 && reserveOut > 0, \"Invalid reserves\") */\n    tag_60:\n      mload(0x40)\n      dup1\n      swap2\n      sub\n      swap1\n      revert\n    tag_59:\n        /* \"contracts/1_Storage.sol\":7082:7102  uint amountInWithFee */\n      0x00\n        /* \"contracts/1_Storage.sol\":7105:7119  amountIn * 997 */\n      tag_62\n        /* \"contracts/1_Storage.sol\":7105:7113  amountIn */\n      dup6\n        /* \"contracts/1_Storage.sol\":7116:7119  997 */\n      0x03e5\n        /* \"contracts/1_Storage.sol\":7105:7119  amountIn * 997 */\n      tag_63\n      jump\t// in\n    tag_62:\n        /* \"contracts/1_Storage.sol\":7082:7119  uint amountInWithFee = amountIn * 997 */\n      swap1\n      pop\n        /* \"contracts/1_Storage.sol\":7141:7155  uint numerator */\n      0x00\n        /* \"contracts/1_Storage.sol\":7158:7186  amountInWithFee * reserveOut */\n      tag_64\n        /* \"contracts/1_Storage.sol\":7176:7186  reserveOut */\n      dup5\n        /* \"contracts/1_Storage.sol\":7082:7119  uint amountInWithFee = amountIn * 997 */\n      dup4\n        /* \"contracts/1_Storage.sol\":7158:7186  amountInWithFee * reserveOut */\n      tag_63\n      jump\t// in\n    tag_64:\n        /* \"contracts/1_Storage.sol\":7141:7186  uint numerator = amountInWithFee * reserveOut */\n      swap1\n      pop\n        /* \"contracts/1_Storage.sol\":7196:7212  uint denominator */\n      0x00\n        /* \"contracts/1_Storage.sol\":7234:7249  amountInWithFee */\n      dup3\n        /* \"contracts/1_Storage.sol\":7215:7231  reserveIn * 1000 */\n      tag_65\n        /* \"contracts/1_Storage.sol\":7215:7224  reserveIn */\n      dup8\n        /* \"contracts/1_Storage.sol\":7227:7231  1000 */\n      0x03e8\n        /* \"contracts/1_Storage.sol\":7215:7231  reserveIn * 1000 */\n      tag_63\n      jump\t// in\n    tag_65:\n        /* \"contracts/1_Storage.sol\":7215:7249  reserveIn * 1000 + amountInWithFee */\n      tag_66\n      swap2\n      swap1\n      tag_67\n      jump\t// in\n    tag_66:\n        /* \"contracts/1_Storage.sol\":7196:7249  uint denominator = reserveIn * 1000 + amountInWithFee */\n      swap1\n      pop\n        /* \"contracts/1_Storage.sol\":7271:7294  numerator / denominator */\n      tag_68\n        /* \"contracts/1_Storage.sol\":7196:7249  uint denominator = reserveIn * 1000 + amountInWithFee */\n      dup2\n        /* \"contracts/1_Storage.sol\":7271:7280  numerator */\n      dup4\n        /* \"contracts/1_Storage.sol\":7271:7294  numerator / denominator */\n      tag_69\n      jump\t// in\n    tag_68:\n        /* \"contracts/1_Storage.sol\":7259:7294  amountOut = numerator / denominator */\n      swap8\n        /* \"contracts/1_Storage.sol\":6878:7301  function getAmountOut(uint amountIn, uint reserveIn, uint reserveOut) public pure returns (uint amountOut) {... */\n      swap7\n      pop\n      pop\n      pop\n      pop\n      pop\n      pop\n      pop\n      jump\t// out\n        /* \"contracts/1_Storage.sol\":5059:5996  function swapExactTokensForTokens(... */\n    tag_27:\n        /* \"contracts/1_Storage.sol\":5243:5264  uint[] memory amounts */\n      0x60\n        /* \"contracts/1_Storage.sol\":5303:5311  deadline */\n      dup2\n        /* \"contracts/1_Storage.sol\":5284:5299  block.timestamp */\n      timestamp\n        /* \"contracts/1_Storage.sol\":5284:5311  block.timestamp <= deadline */\n      gt\n      iszero\n        /* \"contracts/1_Storage.sol\":5276:5323  require(block.timestamp <= deadline, \"Expired\") */\n      tag_71\n      jumpi\n      mload(0x40)\n      shl(0xe5, 0x461bcd)\n      dup2\n      mstore\n      0x04\n      add\n      tag_60\n      swap1\n      tag_73\n      jump\t// in\n    tag_71:\n        /* \"contracts/1_Storage.sol\":5356:5357  2 */\n      0x02\n        /* \"contracts/1_Storage.sol\":5341:5357  path.length == 2 */\n      dup5\n      eq\n        /* \"contracts/1_Storage.sol\":5333:5389  require(path.length == 2, \"Only 2-token path supported\") */\n      tag_74\n      jumpi\n      mload(0x40)\n      shl(0xe5, 0x461bcd)\n      dup2\n      mstore\n        /* \"#utility.yul\":7505:7507   */\n      0x20\n        /* \"contracts/1_Storage.sol\":5333:5389  require(path.length == 2, \"Only 2-token path supported\") */\n      0x04\n      dup3\n      add\n        /* \"#utility.yul\":7487:7508   */\n      mstore\n        /* \"#utility.yul\":7544:7546   */\n      0x1b\n        /* \"#utility.yul\":7524:7542   */\n      0x24\n      dup3\n      add\n        /* \"#utility.yul\":7517:7547   */\n      mstore\n        /* \"#utility.yul\":7583:7612   */\n      0x4f6e6c7920322d746f6b656e207061746820737570706f727465640000000000\n        /* \"#utility.yul\":7563:7581   */\n      0x44\n      dup3\n      add\n        /* \"#utility.yul\":7556:7613   */\n      mstore\n        /* \"#utility.yul\":7630:7648   */\n      0x64\n      add\n        /* \"contracts/1_Storage.sol\":5333:5389  require(path.length == 2, \"Only 2-token path supported\") */\n      tag_60\n        /* \"#utility.yul\":7303:7654   */\n      jump\n        /* \"contracts/1_Storage.sol\":5333:5389  require(path.length == 2, \"Only 2-token path supported\") */\n    tag_74:\n        /* \"contracts/1_Storage.sol\":5400:5415  address tokenIn */\n      0x00\n        /* \"contracts/1_Storage.sol\":5418:5422  path */\n      dup6\n      dup6\n        /* \"contracts/1_Storage.sol\":5423:5424  0 */\n      0x00\n        /* \"contracts/1_Storage.sol\":5418:5425  path[0] */\n      dup2\n      dup2\n      lt\n      tag_78\n      jumpi\n      tag_78\n      tag_79\n      jump\t// in\n    tag_78:\n      swap1\n      pop\n      0x20\n      mul\n      add\n      0x20\n      dup2\n      add\n      swap1\n      tag_80\n      swap2\n      swap1\n      tag_81\n      jump\t// in\n    tag_80:\n        /* \"contracts/1_Storage.sol\":5400:5425  address tokenIn = path[0] */\n      swap1\n      pop\n        /* \"contracts/1_Storage.sol\":5435:5451  address tokenOut */\n      0x00\n        /* \"contracts/1_Storage.sol\":5454:5458  path */\n      dup7\n      dup7\n        /* \"contracts/1_Storage.sol\":5459:5460  1 */\n      0x01\n        /* \"contracts/1_Storage.sol\":5454:5461  path[1] */\n      dup2\n      dup2\n      lt\n      tag_83\n      jumpi\n      tag_83\n      tag_79\n      jump\t// in\n    tag_83:\n      swap1\n      pop\n      0x20\n      mul\n      add\n      0x20\n      dup2\n      add\n      swap1\n      tag_84\n      swap2\n      swap1\n      tag_81\n      jump\t// in\n    tag_84:\n        /* \"contracts/1_Storage.sol\":5435:5461  address tokenOut = path[1] */\n      swap1\n      pop\n        /* \"contracts/1_Storage.sol\":5511:5525  uint amountOut */\n      0x00\n        /* \"contracts/1_Storage.sol\":5528:5577  _calculateSwapOutput(amountIn, tokenIn, tokenOut) */\n      tag_85\n        /* \"contracts/1_Storage.sol\":5549:5557  amountIn */\n      dup11\n        /* \"contracts/1_Storage.sol\":5559:5566  tokenIn */\n      dup5\n        /* \"contracts/1_Storage.sol\":5568:5576  tokenOut */\n      dup5\n        /* \"contracts/1_Storage.sol\":5528:5548  _calculateSwapOutput */\n      tag_86\n        /* \"contracts/1_Storage.sol\":5528:5577  _calculateSwapOutput(amountIn, tokenIn, tokenOut) */\n      jump\t// in\n    tag_85:\n        /* \"contracts/1_Storage.sol\":5511:5577  uint amountOut = _calculateSwapOutput(amountIn, tokenIn, tokenOut) */\n      swap1\n      pop\n        /* \"contracts/1_Storage.sol\":5608:5620  amountOutMin */\n      dup9\n        /* \"contracts/1_Storage.sol\":5595:5604  amountOut */\n      dup2\n        /* \"contracts/1_Storage.sol\":5595:5620  amountOut >= amountOutMin */\n      lt\n      iszero\n        /* \"contracts/1_Storage.sol\":5587:5644  require(amountOut >= amountOutMin, \"Insufficient output\") */\n      tag_87\n      jumpi\n      mload(0x40)\n      shl(0xe5, 0x461bcd)\n      dup2\n      mstore\n        /* \"#utility.yul\":8184:8186   */\n      0x20\n        /* \"contracts/1_Storage.sol\":5587:5644  require(amountOut >= amountOutMin, \"Insufficient output\") */\n      0x04\n      dup3\n      add\n        /* \"#utility.yul\":8166:8187   */\n      mstore\n        /* \"#utility.yul\":8223:8225   */\n      0x13\n        /* \"#utility.yul\":8203:8221   */\n      0x24\n      dup3\n      add\n        /* \"#utility.yul\":8196:8226   */\n      mstore\n      shl(0x6a, 0x125b9cdd59999a58da595b9d081bdd5d1c1d5d)\n        /* \"#utility.yul\":8242:8260   */\n      0x44\n      dup3\n      add\n        /* \"#utility.yul\":8235:8284   */\n      mstore\n        /* \"#utility.yul\":8301:8319   */\n      0x64\n      add\n        /* \"contracts/1_Storage.sol\":5587:5644  require(amountOut >= amountOutMin, \"Insufficient output\") */\n      tag_60\n        /* \"#utility.yul\":7982:8325   */\n      jump\n        /* \"contracts/1_Storage.sol\":5587:5644  require(amountOut >= amountOutMin, \"Insufficient output\") */\n    tag_87:\n        /* \"contracts/1_Storage.sol\":5689:5754  _performSwapTransfers(tokenIn, tokenOut, amountIn, amountOut, to) */\n      tag_90\n        /* \"contracts/1_Storage.sol\":5711:5718  tokenIn */\n      dup4\n        /* \"contracts/1_Storage.sol\":5720:5728  tokenOut */\n      dup4\n        /* \"contracts/1_Storage.sol\":5730:5738  amountIn */\n      dup13\n        /* \"contracts/1_Storage.sol\":5740:5749  amountOut */\n      dup5\n        /* \"contracts/1_Storage.sol\":5751:5753  to */\n      dup11\n        /* \"contracts/1_Storage.sol\":5689:5710  _performSwapTransfers */\n      tag_91\n        /* \"contracts/1_Storage.sol\":5689:5754  _performSwapTransfers(tokenIn, tokenOut, amountIn, amountOut, to) */\n      jump\t// in\n    tag_90:\n        /* \"contracts/1_Storage.sol\":5792:5856  _updateReservesAfterSwap(tokenIn, tokenOut, amountIn, amountOut) */\n      tag_92\n        /* \"contracts/1_Storage.sol\":5817:5824  tokenIn */\n      dup4\n        /* \"contracts/1_Storage.sol\":5826:5834  tokenOut */\n      dup4\n        /* \"contracts/1_Storage.sol\":5836:5844  amountIn */\n      dup13\n        /* \"contracts/1_Storage.sol\":5846:5855  amountOut */\n      dup5\n        /* \"contracts/1_Storage.sol\":5792:5816  _updateReservesAfterSwap */\n      tag_93\n        /* \"contracts/1_Storage.sol\":5792:5856  _updateReservesAfterSwap(tokenIn, tokenOut, amountIn, amountOut) */\n      jump\t// in\n    tag_92:\n        /* \"contracts/1_Storage.sol\":5913:5926  new uint[](2) */\n      0x40\n      dup1\n      mload\n        /* \"contracts/1_Storage.sol\":5924:5925  2 */\n      0x02\n        /* \"contracts/1_Storage.sol\":5913:5926  new uint[](2) */\n      dup1\n      dup3\n      mstore\n      0x60\n      dup3\n      add\n      dup4\n      mstore\n      swap1\n      swap2\n      0x20\n      dup4\n      add\n      swap1\n      dup1\n      calldatasize\n      dup4\n      calldatacopy\n      add\n      swap1\n      pop\n      pop\n        /* \"contracts/1_Storage.sol\":5903:5926  amounts = new uint[](2) */\n      swap4\n      pop\n        /* \"contracts/1_Storage.sol\":5949:5957  amountIn */\n      dup10\n        /* \"contracts/1_Storage.sol\":5936:5943  amounts */\n      dup5\n        /* \"contracts/1_Storage.sol\":5944:5945  0 */\n      0x00\n        /* \"contracts/1_Storage.sol\":5936:5946  amounts[0] */\n      dup2\n      mload\n      dup2\n      lt\n      tag_99\n      jumpi\n      tag_99\n      tag_79\n      jump\t// in\n    tag_99:\n      0x20\n      mul\n      0x20\n      add\n      add\n        /* \"contracts/1_Storage.sol\":5936:5957  amounts[0] = amountIn */\n      dup2\n      dup2\n      mstore\n      pop\n      pop\n        /* \"contracts/1_Storage.sol\":5980:5989  amountOut */\n      dup1\n        /* \"contracts/1_Storage.sol\":5967:5974  amounts */\n      dup5\n        /* \"contracts/1_Storage.sol\":5975:5976  1 */\n      0x01\n        /* \"contracts/1_Storage.sol\":5967:5977  amounts[1] */\n      dup2\n      mload\n      dup2\n      lt\n      tag_101\n      jumpi\n      tag_101\n      tag_79\n      jump\t// in\n    tag_101:\n      0x20\n      mul\n      0x20\n      add\n      add\n        /* \"contracts/1_Storage.sol\":5967:5989  amounts[1] = amountOut */\n      dup2\n      dup2\n      mstore\n      pop\n      pop\n        /* \"contracts/1_Storage.sol\":5266:5996  {... */\n      pop\n      pop\n      pop\n        /* \"contracts/1_Storage.sol\":5059:5996  function swapExactTokensForTokens(... */\n      swap7\n      swap6\n      pop\n      pop\n      pop\n      pop\n      pop\n      pop\n      jump\t// out\n        /* \"contracts/1_Storage.sol\":6207:6596  function getPrice(address tokenA, address tokenB) external view returns (uint price) {... */\n    tag_37:\n        /* \"contracts/1_Storage.sol\":6280:6290  uint price */\n      0x00\n        /* \"contracts/1_Storage.sol\":6302:6318  bytes32 pairHash */\n      0x00\n        /* \"contracts/1_Storage.sol\":6321:6349  _getPairHash(tokenA, tokenB) */\n      tag_103\n        /* \"contracts/1_Storage.sol\":6334:6340  tokenA */\n      dup5\n        /* \"contracts/1_Storage.sol\":6342:6348  tokenB */\n      dup5\n        /* \"contracts/1_Storage.sol\":6321:6333  _getPairHash */\n      tag_104\n        /* \"contracts/1_Storage.sol\":6321:6349  _getPairHash(tokenA, tokenB) */\n      jump\t// in\n    tag_103:\n        /* \"contracts/1_Storage.sol\":6359:6377  Reserve memory res */\n      0x00\n        /* \"contracts/1_Storage.sol\":6380:6398  reserves[pairHash] */\n      dup2\n      dup2\n      mstore\n      0x20\n      dup2\n      dup2\n      mstore\n      0x40\n      dup1\n      dup4\n      keccak256\n        /* \"contracts/1_Storage.sol\":6359:6398  Reserve memory res = reserves[pairHash] */\n      dup2\n      mload\n      dup1\n      dup4\n      add\n      swap1\n      swap3\n      mstore\n      sload\n      sub(shl(0x70, 0x01), 0x01)\n      dup1\n      dup3\n      and\n      dup4\n      mstore\n      shl(0x70, 0x01)\n      swap1\n      swap2\n      div\n      and\n      swap2\n      dup2\n      add\n      swap2\n      swap1\n      swap2\n      mstore\n        /* \"contracts/1_Storage.sol\":6302:6349  bytes32 pairHash = _getPairHash(tokenA, tokenB) */\n      swap2\n      swap3\n      pop\n        /* \"contracts/1_Storage.sol\":6359:6377  Reserve memory res */\n      dup1\n        /* \"contracts/1_Storage.sol\":6442:6481  _getSortedReserves(tokenA, tokenB, res) */\n      tag_105\n        /* \"contracts/1_Storage.sol\":6461:6467  tokenA */\n      dup8\n        /* \"contracts/1_Storage.sol\":6469:6475  tokenB */\n      dup8\n        /* \"contracts/1_Storage.sol\":6359:6398  Reserve memory res = reserves[pairHash] */\n      dup6\n        /* \"contracts/1_Storage.sol\":6442:6460  _getSortedReserves */\n      tag_106\n        /* \"contracts/1_Storage.sol\":6442:6481  _getSortedReserves(tokenA, tokenB, res) */\n      jump\t// in\n    tag_105:\n        /* \"contracts/1_Storage.sol\":6409:6481  (uint reserveA, uint reserveB) = _getSortedReserves(tokenA, tokenB, res) */\n      swap2\n      pop\n      swap2\n      pop\n        /* \"contracts/1_Storage.sol\":6510:6511  0 */\n      0x00\n        /* \"contracts/1_Storage.sol\":6499:6507  reserveA */\n      dup3\n        /* \"contracts/1_Storage.sol\":6499:6511  reserveA > 0 */\n      gt\n        /* \"contracts/1_Storage.sol\":6499:6527  reserveA > 0 && reserveB > 0 */\n      dup1\n      iszero\n      tag_107\n      jumpi\n      pop\n        /* \"contracts/1_Storage.sol\":6526:6527  0 */\n      0x00\n        /* \"contracts/1_Storage.sol\":6515:6523  reserveB */\n      dup2\n        /* \"contracts/1_Storage.sol\":6515:6527  reserveB > 0 */\n      gt\n        /* \"contracts/1_Storage.sol\":6499:6527  reserveA > 0 && reserveB > 0 */\n    tag_107:\n        /* \"contracts/1_Storage.sol\":6491:6543  require(reserveA > 0 && reserveB > 0, \"No reserves\") */\n      tag_108\n      jumpi\n      mload(0x40)\n      shl(0xe5, 0x461bcd)\n      dup2\n      mstore\n        /* \"#utility.yul\":8664:8666   */\n      0x20\n        /* \"contracts/1_Storage.sol\":6491:6543  require(reserveA > 0 && reserveB > 0, \"No reserves\") */\n      0x04\n      dup3\n      add\n        /* \"#utility.yul\":8646:8667   */\n      mstore\n        /* \"#utility.yul\":8703:8705   */\n      0x0b\n        /* \"#utility.yul\":8683:8701   */\n      0x24\n      dup3\n      add\n        /* \"#utility.yul\":8676:8706   */\n      mstore\n      shl(0xa8, 0x4e6f207265736572766573)\n        /* \"#utility.yul\":8722:8740   */\n      0x44\n      dup3\n      add\n        /* \"#utility.yul\":8715:8756   */\n      mstore\n        /* \"#utility.yul\":8773:8791   */\n      0x64\n      add\n        /* \"contracts/1_Storage.sol\":6491:6543  require(reserveA > 0 && reserveB > 0, \"No reserves\") */\n      tag_60\n        /* \"#utility.yul\":8462:8797   */\n      jump\n        /* \"contracts/1_Storage.sol\":6491:6543  require(reserveA > 0 && reserveB > 0, \"No reserves\") */\n    tag_108:\n        /* \"contracts/1_Storage.sol\":6581:6589  reserveA */\n      dup2\n        /* \"contracts/1_Storage.sol\":6562:6577  reserveB * 1e18 */\n      tag_111\n        /* \"contracts/1_Storage.sol\":6562:6570  reserveB */\n      dup3\n        /* \"contracts/1_Storage.sol\":6573:6577  1e18 */\n      0x0de0b6b3a7640000\n        /* \"contracts/1_Storage.sol\":6562:6577  reserveB * 1e18 */\n      tag_63\n      jump\t// in\n    tag_111:\n        /* \"contracts/1_Storage.sol\":6561:6589  (reserveB * 1e18) / reserveA */\n      tag_68\n      swap2\n      swap1\n      tag_69\n      jump\t// in\n        /* \"contracts/1_Storage.sol\":3512:4621  function removeLiquidity(... */\n    tag_42:\n        /* \"contracts/1_Storage.sol\":3726:3738  uint amountA */\n      0x00\n        /* \"contracts/1_Storage.sol\":3740:3752  uint amountB */\n      0x00\n        /* \"contracts/1_Storage.sol\":3791:3799  deadline */\n      dup3\n        /* \"contracts/1_Storage.sol\":3772:3787  block.timestamp */\n      timestamp\n        /* \"contracts/1_Storage.sol\":3772:3799  block.timestamp <= deadline */\n      gt\n      iszero\n        /* \"contracts/1_Storage.sol\":3764:3811  require(block.timestamp <= deadline, \"Expired\") */\n      tag_114\n      jumpi\n      mload(0x40)\n      shl(0xe5, 0x461bcd)\n      dup2\n      mstore\n      0x04\n      add\n      tag_60\n      swap1\n      tag_73\n      jump\t// in\n    tag_114:\n        /* \"contracts/1_Storage.sol\":3822:3838  bytes32 pairHash */\n      0x00\n        /* \"contracts/1_Storage.sol\":3841:3869  _getPairHash(tokenA, tokenB) */\n      tag_116\n        /* \"contracts/1_Storage.sol\":3854:3860  tokenA */\n      dup11\n        /* \"contracts/1_Storage.sol\":3862:3868  tokenB */\n      dup11\n        /* \"contracts/1_Storage.sol\":3841:3853  _getPairHash */\n      tag_104\n        /* \"contracts/1_Storage.sol\":3841:3869  _getPairHash(tokenA, tokenB) */\n      jump\t// in\n    tag_116:\n        /* \"contracts/1_Storage.sol\":3879:3898  Reserve storage res */\n      0x00\n        /* \"contracts/1_Storage.sol\":3901:3919  reserves[pairHash] */\n      dup2\n      dup2\n      mstore\n      0x20\n      dup2\n      dup2\n      mstore\n      0x40\n      dup1\n      dup4\n      keccak256\n        /* \"contracts/1_Storage.sol\":3942:3956  totalLiquidity */\n      0x01\n        /* \"contracts/1_Storage.sol\":3942:3966  totalLiquidity[pairHash] */\n      swap1\n      swap3\n      mstore\n      swap1\n      swap2\n      keccak256\n      sload\n        /* \"contracts/1_Storage.sol\":3822:3869  bytes32 pairHash = _getPairHash(tokenA, tokenB) */\n      swap2\n      swap3\n      pop\n        /* \"contracts/1_Storage.sol\":3901:3919  reserves[pairHash] */\n      swap1\n        /* \"contracts/1_Storage.sol\":3984:3993  total > 0 */\n      dup1\n        /* \"contracts/1_Storage.sol\":3976:4010  require(total > 0, \"No liquidity\") */\n      tag_117\n      jumpi\n      mload(0x40)\n      shl(0xe5, 0x461bcd)\n      dup2\n      mstore\n        /* \"#utility.yul\":9004:9006   */\n      0x20\n        /* \"contracts/1_Storage.sol\":3976:4010  require(total > 0, \"No liquidity\") */\n      0x04\n      dup3\n      add\n        /* \"#utility.yul\":8986:9007   */\n      mstore\n        /* \"#utility.yul\":9043:9045   */\n      0x0c\n        /* \"#utility.yul\":9023:9041   */\n      0x24\n      dup3\n      add\n        /* \"#utility.yul\":9016:9046   */\n      mstore\n      shl(0xa0, 0x4e6f206c6971756964697479)\n        /* \"#utility.yul\":9062:9080   */\n      0x44\n      dup3\n      add\n        /* \"#utility.yul\":9055:9097   */\n      mstore\n        /* \"#utility.yul\":9114:9132   */\n      0x64\n      add\n        /* \"contracts/1_Storage.sol\":3976:4010  require(total > 0, \"No liquidity\") */\n      tag_60\n        /* \"#utility.yul\":8802:9138   */\n      jump\n        /* \"contracts/1_Storage.sol\":3976:4010  require(total > 0, \"No liquidity\") */\n    tag_117:\n        /* \"contracts/1_Storage.sol\":4077:4089  res.reserveA */\n      dup2\n      sload\n        /* \"contracts/1_Storage.sol\":4104:4109  total */\n      dup2\n      swap1\n        /* \"contracts/1_Storage.sol\":4077:4101  res.reserveA * liquidity */\n      tag_120\n      swap1\n        /* \"contracts/1_Storage.sol\":4092:4101  liquidity */\n      dup13\n      swap1\n      sub(shl(0x70, 0x01), 0x01)\n        /* \"contracts/1_Storage.sol\":4077:4089  res.reserveA */\n      and\n        /* \"contracts/1_Storage.sol\":4077:4101  res.reserveA * liquidity */\n      tag_63\n      jump\t// in\n    tag_120:\n        /* \"contracts/1_Storage.sol\":4077:4109  res.reserveA * liquidity / total */\n      tag_121\n      swap2\n      swap1\n      tag_69\n      jump\t// in\n    tag_121:\n        /* \"contracts/1_Storage.sol\":4129:4141  res.reserveB */\n      dup3\n      sload\n        /* \"contracts/1_Storage.sol\":4067:4109  amountA = res.reserveA * liquidity / total */\n      swap1\n      swap6\n      pop\n        /* \"contracts/1_Storage.sol\":4156:4161  total */\n      dup2\n      swap1\n        /* \"contracts/1_Storage.sol\":4129:4153  res.reserveB * liquidity */\n      tag_122\n      swap1\n        /* \"contracts/1_Storage.sol\":4144:4153  liquidity */\n      dup13\n      swap1\n      shl(0x70, 0x01)\n        /* \"contracts/1_Storage.sol\":4129:4141  res.reserveB */\n      swap1\n      div\n      sub(shl(0x70, 0x01), 0x01)\n      and\n        /* \"contracts/1_Storage.sol\":4129:4153  res.reserveB * liquidity */\n      tag_63\n      jump\t// in\n    tag_122:\n        /* \"contracts/1_Storage.sol\":4129:4161  res.reserveB * liquidity / total */\n      tag_123\n      swap2\n      swap1\n      tag_69\n      jump\t// in\n    tag_123:\n        /* \"contracts/1_Storage.sol\":4119:4161  amountB = res.reserveB * liquidity / total */\n      swap4\n      pop\n        /* \"contracts/1_Storage.sol\":4191:4201  amountAMin */\n      dup9\n        /* \"contracts/1_Storage.sol\":4180:4187  amountA */\n      dup6\n        /* \"contracts/1_Storage.sol\":4180:4201  amountA >= amountAMin */\n      lt\n      iszero\n        /* \"contracts/1_Storage.sol\":4180:4226  amountA >= amountAMin && amountB >= amountBMin */\n      dup1\n      iszero\n      tag_124\n      jumpi\n      pop\n        /* \"contracts/1_Storage.sol\":4216:4226  amountBMin */\n      dup8\n        /* \"contracts/1_Storage.sol\":4205:4212  amountB */\n      dup5\n        /* \"contracts/1_Storage.sol\":4205:4226  amountB >= amountBMin */\n      lt\n      iszero\n        /* \"contracts/1_Storage.sol\":4180:4226  amountA >= amountAMin && amountB >= amountBMin */\n    tag_124:\n        /* \"contracts/1_Storage.sol\":4172:4239  require(amountA >= amountAMin && amountB >= amountBMin, \"Slippage\") */\n      tag_125\n      jumpi\n      mload(0x40)\n      shl(0xe5, 0x461bcd)\n      dup2\n      mstore\n        /* \"#utility.yul\":9345:9347   */\n      0x20\n        /* \"contracts/1_Storage.sol\":4172:4239  require(amountA >= amountAMin && amountB >= amountBMin, \"Slippage\") */\n      0x04\n      dup3\n      add\n        /* \"#utility.yul\":9327:9348   */\n      mstore\n        /* \"#utility.yul\":9384:9385   */\n      0x08\n        /* \"#utility.yul\":9364:9382   */\n      0x24\n      dup3\n      add\n        /* \"#utility.yul\":9357:9386   */\n      mstore\n      shl(0xc0, 0x536c697070616765)\n        /* \"#utility.yul\":9402:9420   */\n      0x44\n      dup3\n      add\n        /* \"#utility.yul\":9395:9433   */\n      mstore\n        /* \"#utility.yul\":9450:9468   */\n      0x64\n      add\n        /* \"contracts/1_Storage.sol\":4172:4239  require(amountA >= amountAMin && amountB >= amountBMin, \"Slippage\") */\n      tag_60\n        /* \"#utility.yul\":9143:9474   */\n      jump\n        /* \"contracts/1_Storage.sol\":4172:4239  require(amountA >= amountAMin && amountB >= amountBMin, \"Slippage\") */\n    tag_125:\n        /* \"contracts/1_Storage.sol\":4295:4321  liquidityBalance[pairHash] */\n      0x00\n      dup4\n      dup2\n      mstore\n        /* \"contracts/1_Storage.sol\":4295:4311  liquidityBalance */\n      0x02\n        /* \"contracts/1_Storage.sol\":4295:4321  liquidityBalance[pairHash] */\n      0x20\n      swap1\n      dup2\n      mstore\n      0x40\n      dup1\n      dup4\n      keccak256\n        /* \"contracts/1_Storage.sol\":4322:4332  msg.sender */\n      caller\n        /* \"contracts/1_Storage.sol\":4295:4333  liquidityBalance[pairHash][msg.sender] */\n      dup5\n      mstore\n      swap1\n      swap2\n      mstore\n      dup2\n      keccak256\n        /* \"contracts/1_Storage.sol\":4295:4346  liquidityBalance[pairHash][msg.sender] -= liquidity */\n      dup1\n      sload\n        /* \"contracts/1_Storage.sol\":4337:4346  liquidity */\n      dup13\n      swap3\n        /* \"contracts/1_Storage.sol\":4295:4321  liquidityBalance[pairHash] */\n      swap1\n        /* \"contracts/1_Storage.sol\":4295:4346  liquidityBalance[pairHash][msg.sender] -= liquidity */\n      tag_128\n      swap1\n        /* \"contracts/1_Storage.sol\":4337:4346  liquidity */\n      dup5\n      swap1\n        /* \"contracts/1_Storage.sol\":4295:4346  liquidityBalance[pairHash][msg.sender] -= liquidity */\n      tag_129\n      jump\t// in\n    tag_128:\n      swap1\n      swap2\n      sstore\n      pop\n      pop\n        /* \"contracts/1_Storage.sol\":4356:4380  totalLiquidity[pairHash] */\n      0x00\n      dup4\n      dup2\n      mstore\n        /* \"contracts/1_Storage.sol\":4356:4370  totalLiquidity */\n      0x01\n        /* \"contracts/1_Storage.sol\":4356:4380  totalLiquidity[pairHash] */\n      0x20\n      mstore\n      0x40\n      dup2\n      keccak256\n        /* \"contracts/1_Storage.sol\":4356:4393  totalLiquidity[pairHash] -= liquidity */\n      dup1\n      sload\n        /* \"contracts/1_Storage.sol\":4384:4393  liquidity */\n      dup13\n      swap3\n        /* \"contracts/1_Storage.sol\":4356:4380  totalLiquidity[pairHash] */\n      swap1\n        /* \"contracts/1_Storage.sol\":4356:4393  totalLiquidity[pairHash] -= liquidity */\n      tag_130\n      swap1\n        /* \"contracts/1_Storage.sol\":4384:4393  liquidity */\n      dup5\n      swap1\n        /* \"contracts/1_Storage.sol\":4356:4393  totalLiquidity[pairHash] -= liquidity */\n      tag_129\n      jump\t// in\n    tag_130:\n      swap1\n      swap2\n      sstore\n      pop\n      pop\n        /* \"contracts/1_Storage.sol\":4403:4435  res.reserveA -= uint112(amountA) */\n      dup2\n      sload\n        /* \"contracts/1_Storage.sol\":4427:4434  amountA */\n      dup6\n      swap1\n        /* \"contracts/1_Storage.sol\":4403:4406  res */\n      dup4\n      swap1\n        /* \"contracts/1_Storage.sol\":4403:4415  res.reserveA */\n      0x00\n      swap1\n        /* \"contracts/1_Storage.sol\":4403:4435  res.reserveA -= uint112(amountA) */\n      tag_131\n      swap1\n        /* \"contracts/1_Storage.sol\":4427:4434  amountA */\n      dup5\n      swap1\n      sub(shl(0x70, 0x01), 0x01)\n        /* \"contracts/1_Storage.sol\":4403:4435  res.reserveA -= uint112(amountA) */\n      and\n      tag_132\n      jump\t// in\n    tag_131:\n      swap3\n      pop\n      0x0100\n      exp\n      dup2\n      sload\n      dup2\n      sub(shl(0x70, 0x01), 0x01)\n      mul\n      not\n      and\n      swap1\n      dup4\n      sub(shl(0x70, 0x01), 0x01)\n      and\n      mul\n      or\n      swap1\n      sstore\n      pop\n        /* \"contracts/1_Storage.sol\":4469:4476  amountB */\n      dup4\n        /* \"contracts/1_Storage.sol\":4445:4448  res */\n      dup3\n        /* \"contracts/1_Storage.sol\":4445:4457  res.reserveB */\n      0x00\n      add\n      0x0e\n        /* \"contracts/1_Storage.sol\":4445:4477  res.reserveB -= uint112(amountB) */\n      dup3\n      dup3\n      dup3\n      swap1\n      sload\n      swap1\n      0x0100\n      exp\n      swap1\n      div\n      sub(shl(0x70, 0x01), 0x01)\n      and\n      tag_133\n      swap2\n      swap1\n      tag_132\n      jump\t// in\n    tag_133:\n      swap3\n      pop\n      0x0100\n      exp\n      dup2\n      sload\n      dup2\n      sub(shl(0x70, 0x01), 0x01)\n      mul\n      not\n      and\n      swap1\n      dup4\n      sub(shl(0x70, 0x01), 0x01)\n      and\n      mul\n      or\n      swap1\n      sstore\n      pop\n        /* \"contracts/1_Storage.sol\":4524:4564  IERC20(tokenA).safeTransfer(to, amountA) */\n      tag_134\n        /* \"contracts/1_Storage.sol\":4552:4554  to */\n      dup8\n        /* \"contracts/1_Storage.sol\":4556:4563  amountA */\n      dup7\n        /* \"contracts/1_Storage.sol\":4531:4537  tokenA */\n      dup15\n      sub(shl(0xa0, 0x01), 0x01)\n        /* \"contracts/1_Storage.sol\":4524:4551  IERC20(tokenA).safeTransfer */\n      and\n      tag_135\n      swap1\n        /* \"contracts/1_Storage.sol\":4524:4564  IERC20(tokenA).safeTransfer(to, amountA) */\n      swap3\n      swap2\n      swap1\n      0xffffffff\n      and\n      jump\t// in\n    tag_134:\n        /* \"contracts/1_Storage.sol\":4574:4614  IERC20(tokenB).safeTransfer(to, amountB) */\n      tag_136\n      sub(shl(0xa0, 0x01), 0x01)\n        /* \"contracts/1_Storage.sol\":4574:4601  IERC20(tokenB).safeTransfer */\n      dup13\n      and\n        /* \"contracts/1_Storage.sol\":4602:4604  to */\n      dup9\n        /* \"contracts/1_Storage.sol\":4606:4613  amountB */\n      dup7\n        /* \"contracts/1_Storage.sol\":4574:4601  IERC20(tokenB).safeTransfer */\n      tag_135\n        /* \"contracts/1_Storage.sol\":4574:4614  IERC20(tokenB).safeTransfer(to, amountB) */\n      jump\t// in\n    tag_136:\n        /* \"contracts/1_Storage.sol\":3754:4621  {... */\n      pop\n      pop\n      pop\n        /* \"contracts/1_Storage.sol\":3512:4621  function removeLiquidity(... */\n      swap8\n      pop\n      swap8\n      swap6\n      pop\n      pop\n      pop\n      pop\n      pop\n      pop\n      jump\t// out\n        /* \"contracts/1_Storage.sol\":1792:2944  function addLiquidity(... */\n    tag_53:\n        /* \"contracts/1_Storage.sol\":2037:2049  uint amountA */\n      0x00\n        /* \"contracts/1_Storage.sol\":2051:2063  uint amountB */\n      0x00\n        /* \"contracts/1_Storage.sol\":2065:2079  uint liquidity */\n      0x00\n        /* \"contracts/1_Storage.sol\":2118:2126  deadline */\n      dup4\n        /* \"contracts/1_Storage.sol\":2099:2114  block.timestamp */\n      timestamp\n        /* \"contracts/1_Storage.sol\":2099:2126  block.timestamp <= deadline */\n      gt\n      iszero\n        /* \"contracts/1_Storage.sol\":2091:2138  require(block.timestamp <= deadline, \"Expired\") */\n      tag_138\n      jumpi\n      mload(0x40)\n      shl(0xe5, 0x461bcd)\n      dup2\n      mstore\n      0x04\n      add\n      tag_60\n      swap1\n      tag_73\n      jump\t// in\n    tag_138:\n        /* \"contracts/1_Storage.sol\":2149:2165  bytes32 pairHash */\n      0x00\n        /* \"contracts/1_Storage.sol\":2168:2196  _getPairHash(tokenA, tokenB) */\n      tag_140\n        /* \"contracts/1_Storage.sol\":2181:2187  tokenA */\n      dup13\n        /* \"contracts/1_Storage.sol\":2189:2195  tokenB */\n      dup13\n        /* \"contracts/1_Storage.sol\":2168:2180  _getPairHash */\n      tag_104\n        /* \"contracts/1_Storage.sol\":2168:2196  _getPairHash(tokenA, tokenB) */\n      jump\t// in\n    tag_140:\n        /* \"contracts/1_Storage.sol\":2206:2225  Reserve storage res */\n      0x00\n        /* \"contracts/1_Storage.sol\":2228:2246  reserves[pairHash] */\n      dup2\n      dup2\n      mstore\n      0x20\n      dup2\n      swap1\n      mstore\n      0x40\n      swap1\n      keccak256\n        /* \"contracts/1_Storage.sol\":2457:2469  res.reserveA */\n      dup1\n      sload\n        /* \"contracts/1_Storage.sol\":2149:2196  bytes32 pairHash = _getPairHash(tokenA, tokenB) */\n      swap2\n      swap3\n      pop\n        /* \"contracts/1_Storage.sol\":2228:2246  reserves[pairHash] */\n      swap1\n        /* \"contracts/1_Storage.sol\":2417:2609  _calculateLiquidityAmounts(... */\n      tag_141\n      swap1\n      sub(shl(0x70, 0x01), 0x01)\n        /* \"contracts/1_Storage.sol\":2457:2469  res.reserveA */\n      dup1\n      dup3\n      and\n      swap2\n      shl(0x70, 0x01)\n        /* \"contracts/1_Storage.sol\":2483:2495  res.reserveB */\n      swap1\n      div\n      and\n        /* \"contracts/1_Storage.sol\":2509:2523  amountADesired */\n      dup14\n        /* \"contracts/1_Storage.sol\":2537:2551  amountBDesired */\n      dup14\n        /* \"contracts/1_Storage.sol\":2565:2575  amountAMin */\n      dup14\n        /* \"contracts/1_Storage.sol\":2589:2599  amountBMin */\n      dup14\n        /* \"contracts/1_Storage.sol\":2417:2443  _calculateLiquidityAmounts */\n      tag_142\n        /* \"contracts/1_Storage.sol\":2417:2609  _calculateLiquidityAmounts(... */\n      jump\t// in\n    tag_141:\n        /* \"contracts/1_Storage.sol\":2396:2609  (amountA, amountB) = _calculateLiquidityAmounts(... */\n      swap1\n      swap6\n      pop\n      swap4\n      pop\n        /* \"contracts/1_Storage.sol\":2655:2718  _performAddLiquidityTransfers(tokenA, tokenB, amountA, amountB) */\n      tag_143\n        /* \"contracts/1_Storage.sol\":2685:2691  tokenA */\n      dup14\n        /* \"contracts/1_Storage.sol\":2693:2699  tokenB */\n      dup14\n        /* \"contracts/1_Storage.sol\":2396:2609  (amountA, amountB) = _calculateLiquidityAmounts(... */\n      dup8\n      dup8\n        /* \"contracts/1_Storage.sol\":2655:2684  _performAddLiquidityTransfers */\n      tag_144\n        /* \"contracts/1_Storage.sol\":2655:2718  _performAddLiquidityTransfers(tokenA, tokenB, amountA, amountB) */\n      jump\t// in\n    tag_143:\n        /* \"contracts/1_Storage.sol\":2869:2937  _mintLiquidityAndUpdateReserves(pairHash, amountA, amountB, to, res) */\n      tag_145\n        /* \"contracts/1_Storage.sol\":2901:2909  pairHash */\n      dup3\n        /* \"contracts/1_Storage.sol\":2911:2918  amountA */\n      dup7\n        /* \"contracts/1_Storage.sol\":2920:2927  amountB */\n      dup7\n        /* \"contracts/1_Storage.sol\":2929:2931  to */\n      dup11\n        /* \"contracts/1_Storage.sol\":2933:2936  res */\n      dup6\n        /* \"contracts/1_Storage.sol\":2869:2900  _mintLiquidityAndUpdateReserves */\n      tag_146\n        /* \"contracts/1_Storage.sol\":2869:2937  _mintLiquidityAndUpdateReserves(pairHash, amountA, amountB, to, res) */\n      jump\t// in\n    tag_145:\n        /* \"contracts/1_Storage.sol\":2857:2937  liquidity = _mintLiquidityAndUpdateReserves(pairHash, amountA, amountB, to, res) */\n      swap3\n      pop\n        /* \"contracts/1_Storage.sol\":2081:2944  {... */\n      pop\n      pop\n        /* \"contracts/1_Storage.sol\":1792:2944  function addLiquidity(... */\n      swap9\n      pop\n      swap9\n      pop\n      swap9\n      swap6\n      pop\n      pop\n      pop\n      pop\n      pop\n      pop\n      jump\t// out\n        /* \"contracts/1_Storage.sol\":9656:10031  function _calculateSwapOutput(uint amountIn, address tokenIn, address tokenOut) internal view returns (uint) {... */\n    tag_86:\n        /* \"contracts/1_Storage.sol\":9759:9763  uint */\n      0x00\n        /* \"contracts/1_Storage.sol\":9775:9791  bytes32 pairHash */\n      0x00\n        /* \"contracts/1_Storage.sol\":9794:9825  _getPairHash(tokenIn, tokenOut) */\n      tag_148\n        /* \"contracts/1_Storage.sol\":9807:9814  tokenIn */\n      dup5\n        /* \"contracts/1_Storage.sol\":9816:9824  tokenOut */\n      dup5\n        /* \"contracts/1_Storage.sol\":9794:9806  _getPairHash */\n      tag_104\n        /* \"contracts/1_Storage.sol\":9794:9825  _getPairHash(tokenIn, tokenOut) */\n      jump\t// in\n    tag_148:\n        /* \"contracts/1_Storage.sol\":9835:9853  Reserve memory res */\n      0x00\n        /* \"contracts/1_Storage.sol\":9856:9874  reserves[pairHash] */\n      dup2\n      dup2\n      mstore\n      0x20\n      dup2\n      dup2\n      mstore\n      0x40\n      dup1\n      dup4\n      keccak256\n        /* \"contracts/1_Storage.sol\":9835:9874  Reserve memory res = reserves[pairHash] */\n      dup2\n      mload\n      dup1\n      dup4\n      add\n      swap1\n      swap3\n      mstore\n      sload\n      sub(shl(0x70, 0x01), 0x01)\n      dup1\n      dup3\n      and\n      dup4\n      mstore\n      shl(0x70, 0x01)\n      swap1\n      swap2\n      div\n      and\n      swap2\n      dup2\n      add\n      swap2\n      swap1\n      swap2\n      mstore\n        /* \"contracts/1_Storage.sol\":9775:9825  bytes32 pairHash = _getPairHash(tokenIn, tokenOut) */\n      swap2\n      swap3\n      pop\n        /* \"contracts/1_Storage.sol\":9835:9853  Reserve memory res */\n      dup1\n        /* \"contracts/1_Storage.sol\":9920:9962  _getSortedReserves(tokenIn, tokenOut, res) */\n      tag_149\n        /* \"contracts/1_Storage.sol\":9939:9946  tokenIn */\n      dup8\n        /* \"contracts/1_Storage.sol\":9948:9956  tokenOut */\n      dup8\n        /* \"contracts/1_Storage.sol\":9835:9874  Reserve memory res = reserves[pairHash] */\n      dup6\n        /* \"contracts/1_Storage.sol\":9920:9938  _getSortedReserves */\n      tag_106\n        /* \"contracts/1_Storage.sol\":9920:9962  _getSortedReserves(tokenIn, tokenOut, res) */\n      jump\t// in\n    tag_149:\n        /* \"contracts/1_Storage.sol\":9884:9962  (uint reserveIn, uint reserveOut) = _getSortedReserves(tokenIn, tokenOut, res) */\n      swap2\n      pop\n      swap2\n      pop\n        /* \"contracts/1_Storage.sol\":9979:10024  getAmountOut(amountIn, reserveIn, reserveOut) */\n      tag_150\n        /* \"contracts/1_Storage.sol\":9992:10000  amountIn */\n      dup9\n        /* \"contracts/1_Storage.sol\":10002:10011  reserveIn */\n      dup4\n        /* \"contracts/1_Storage.sol\":10013:10023  reserveOut */\n      dup4\n        /* \"contracts/1_Storage.sol\":9979:9991  getAmountOut */\n      tag_21\n        /* \"contracts/1_Storage.sol\":9979:10024  getAmountOut(amountIn, reserveIn, reserveOut) */\n      jump\t// in\n    tag_150:\n        /* \"contracts/1_Storage.sol\":9972:10024  return getAmountOut(amountIn, reserveIn, reserveOut) */\n      swap9\n        /* \"contracts/1_Storage.sol\":9656:10031  function _calculateSwapOutput(uint amountIn, address tokenIn, address tokenOut) internal view returns (uint) {... */\n      swap8\n      pop\n      pop\n      pop\n      pop\n      pop\n      pop\n      pop\n      pop\n      jump\t// out\n        /* \"contracts/1_Storage.sol\":10104:10362  function _performSwapTransfers(address tokenIn, address tokenOut, uint amountIn, uint amountOut, address to) internal {... */\n    tag_91:\n        /* \"contracts/1_Storage.sol\":10232:10301  IERC20(tokenIn).safeTransferFrom(msg.sender, address(this), amountIn) */\n      tag_152\n      sub(shl(0xa0, 0x01), 0x01)\n        /* \"contracts/1_Storage.sol\":10232:10264  IERC20(tokenIn).safeTransferFrom */\n      dup7\n      and\n        /* \"contracts/1_Storage.sol\":10265:10275  msg.sender */\n      caller\n        /* \"contracts/1_Storage.sol\":10285:10289  this */\n      address\n        /* \"contracts/1_Storage.sol\":10292:10300  amountIn */\n      dup7\n        /* \"contracts/1_Storage.sol\":10232:10264  IERC20(tokenIn).safeTransferFrom */\n      tag_153\n        /* \"contracts/1_Storage.sol\":10232:10301  IERC20(tokenIn).safeTransferFrom(msg.sender, address(this), amountIn) */\n      jump\t// in\n    tag_152:\n        /* \"contracts/1_Storage.sol\":10311:10355  IERC20(tokenOut).safeTransfer(to, amountOut) */\n      tag_154\n      sub(shl(0xa0, 0x01), 0x01)\n        /* \"contracts/1_Storage.sol\":10311:10340  IERC20(tokenOut).safeTransfer */\n      dup6\n      and\n        /* \"contracts/1_Storage.sol\":10341:10343  to */\n      dup3\n        /* \"contracts/1_Storage.sol\":10345:10354  amountOut */\n      dup5\n        /* \"contracts/1_Storage.sol\":10311:10340  IERC20(tokenOut).safeTransfer */\n      tag_135\n        /* \"contracts/1_Storage.sol\":10311:10355  IERC20(tokenOut).safeTransfer(to, amountOut) */\n      jump\t// in\n    tag_154:\n        /* \"contracts/1_Storage.sol\":10104:10362  function _performSwapTransfers(address tokenIn, address tokenOut, uint amountIn, uint amountOut, address to) internal {... */\n      pop\n      pop\n      pop\n      pop\n      pop\n      jump\t// out\n        /* \"contracts/1_Storage.sol\":10429:10906  function _updateReservesAfterSwap(address tokenIn, address tokenOut, uint amountIn, uint amountOut) internal {... */\n    tag_93:\n        /* \"contracts/1_Storage.sol\":10548:10564  bytes32 pairHash */\n      0x00\n        /* \"contracts/1_Storage.sol\":10567:10598  _getPairHash(tokenIn, tokenOut) */\n      tag_156\n        /* \"contracts/1_Storage.sol\":10580:10587  tokenIn */\n      dup6\n        /* \"contracts/1_Storage.sol\":10589:10597  tokenOut */\n      dup6\n        /* \"contracts/1_Storage.sol\":10567:10579  _getPairHash */\n      tag_104\n        /* \"contracts/1_Storage.sol\":10567:10598  _getPairHash(tokenIn, tokenOut) */\n      jump\t// in\n    tag_156:\n        /* \"contracts/1_Storage.sol\":10608:10627  Reserve storage res */\n      0x00\n        /* \"contracts/1_Storage.sol\":10630:10648  reserves[pairHash] */\n      dup2\n      dup2\n      mstore\n      0x20\n      dup2\n      swap1\n      mstore\n      0x40\n      swap1\n      keccak256\n        /* \"contracts/1_Storage.sol\":10548:10598  bytes32 pairHash = _getPairHash(tokenIn, tokenOut) */\n      swap1\n      swap2\n      pop\n      sub(shl(0xa0, 0x01), 0x01)\n        /* \"contracts/1_Storage.sol\":10662:10680  tokenIn < tokenOut */\n      dup1\n      dup7\n      and\n      swap1\n      dup8\n      and\n      lt\n        /* \"contracts/1_Storage.sol\":10658:10900  if (tokenIn < tokenOut) {... */\n      iszero\n      tag_157\n      jumpi\n        /* \"contracts/1_Storage.sol\":10696:10729  res.reserveA += uint112(amountIn) */\n      dup1\n      sload\n        /* \"contracts/1_Storage.sol\":10720:10728  amountIn */\n      dup5\n      swap1\n        /* \"contracts/1_Storage.sol\":10696:10699  res */\n      dup3\n      swap1\n        /* \"contracts/1_Storage.sol\":10696:10708  res.reserveA */\n      0x00\n      swap1\n        /* \"contracts/1_Storage.sol\":10696:10729  res.reserveA += uint112(amountIn) */\n      tag_158\n      swap1\n        /* \"contracts/1_Storage.sol\":10720:10728  amountIn */\n      dup5\n      swap1\n      sub(shl(0x70, 0x01), 0x01)\n        /* \"contracts/1_Storage.sol\":10696:10729  res.reserveA += uint112(amountIn) */\n      and\n      tag_159\n      jump\t// in\n    tag_158:\n      swap3\n      pop\n      0x0100\n      exp\n      dup2\n      sload\n      dup2\n      sub(shl(0x70, 0x01), 0x01)\n      mul\n      not\n      and\n      swap1\n      dup4\n      sub(shl(0x70, 0x01), 0x01)\n      and\n      mul\n      or\n      swap1\n      sstore\n      pop\n        /* \"contracts/1_Storage.sol\":10767:10776  amountOut */\n      dup3\n        /* \"contracts/1_Storage.sol\":10743:10746  res */\n      dup2\n        /* \"contracts/1_Storage.sol\":10743:10755  res.reserveB */\n      0x00\n      add\n      0x0e\n        /* \"contracts/1_Storage.sol\":10743:10777  res.reserveB -= uint112(amountOut) */\n      dup3\n      dup3\n      dup3\n      swap1\n      sload\n      swap1\n      0x0100\n      exp\n      swap1\n      div\n      sub(shl(0x70, 0x01), 0x01)\n      and\n      tag_160\n      swap2\n      swap1\n      tag_132\n      jump\t// in\n    tag_160:\n      swap3\n      pop\n      0x0100\n      exp\n      dup2\n      sload\n      dup2\n      sub(shl(0x70, 0x01), 0x01)\n      mul\n      not\n      and\n      swap1\n      dup4\n      sub(shl(0x70, 0x01), 0x01)\n      and\n      mul\n      or\n      swap1\n      sstore\n      pop\n        /* \"contracts/1_Storage.sol\":10658:10900  if (tokenIn < tokenOut) {... */\n      jump(tag_161)\n    tag_157:\n        /* \"contracts/1_Storage.sol\":10808:10841  res.reserveB += uint112(amountIn) */\n      dup1\n      sload\n        /* \"contracts/1_Storage.sol\":10832:10840  amountIn */\n      dup5\n      swap1\n        /* \"contracts/1_Storage.sol\":10808:10841  res.reserveB += uint112(amountIn) */\n      dup3\n      swap1\n        /* \"contracts/1_Storage.sol\":10808:10820  res.reserveB */\n      0x0e\n      swap1\n        /* \"contracts/1_Storage.sol\":10808:10841  res.reserveB += uint112(amountIn) */\n      tag_162\n      swap1\n        /* \"contracts/1_Storage.sol\":10832:10840  amountIn */\n      dup5\n      swap1\n      shl(0x70, 0x01)\n        /* \"contracts/1_Storage.sol\":10808:10841  res.reserveB += uint112(amountIn) */\n      swap1\n      div\n      sub(shl(0x70, 0x01), 0x01)\n      and\n      tag_159\n      jump\t// in\n    tag_162:\n      swap3\n      pop\n      0x0100\n      exp\n      dup2\n      sload\n      dup2\n      sub(shl(0x70, 0x01), 0x01)\n      mul\n      not\n      and\n      swap1\n      dup4\n      sub(shl(0x70, 0x01), 0x01)\n      and\n      mul\n      or\n      swap1\n      sstore\n      pop\n        /* \"contracts/1_Storage.sol\":10879:10888  amountOut */\n      dup3\n        /* \"contracts/1_Storage.sol\":10855:10858  res */\n      dup2\n        /* \"contracts/1_Storage.sol\":10855:10867  res.reserveA */\n      0x00\n      add\n      0x00\n        /* \"contracts/1_Storage.sol\":10855:10889  res.reserveA -= uint112(amountOut) */\n      dup3\n      dup3\n      dup3\n      swap1\n      sload\n      swap1\n      0x0100\n      exp\n      swap1\n      div\n      sub(shl(0x70, 0x01), 0x01)\n      and\n      tag_163\n      swap2\n      swap1\n      tag_132\n      jump\t// in\n    tag_163:\n      swap3\n      pop\n      0x0100\n      exp\n      dup2\n      sload\n      dup2\n      sub(shl(0x70, 0x01), 0x01)\n      mul\n      not\n      and\n      swap1\n      dup4\n      sub(shl(0x70, 0x01), 0x01)\n      and\n      mul\n      or\n      swap1\n      sstore\n      pop\n        /* \"contracts/1_Storage.sol\":10658:10900  if (tokenIn < tokenOut) {... */\n    tag_161:\n        /* \"contracts/1_Storage.sol\":10538:10906  {... */\n      pop\n      pop\n        /* \"contracts/1_Storage.sol\":10429:10906  function _updateReservesAfterSwap(address tokenIn, address tokenOut, uint amountIn, uint amountOut) internal {... */\n      pop\n      pop\n      pop\n      pop\n      jump\t// out\n        /* \"contracts/1_Storage.sol\":10976:11183  function _getPairHash(address tokenA, address tokenB) internal pure returns (bytes32) {... */\n    tag_104:\n        /* \"contracts/1_Storage.sol\":11053:11060  bytes32 */\n      0x00\n        /* \"contracts/1_Storage.sol\":11115:11121  tokenB */\n      dup2\n      sub(shl(0xa0, 0x01), 0x01)\n        /* \"contracts/1_Storage.sol\":11106:11121  tokenA < tokenB */\n      and\n        /* \"contracts/1_Storage.sol\":11106:11112  tokenA */\n      dup4\n      sub(shl(0xa0, 0x01), 0x01)\n        /* \"contracts/1_Storage.sol\":11106:11121  tokenA < tokenB */\n      and\n      lt\n        /* \"contracts/1_Storage.sol\":11106:11139  tokenA < tokenB ? tokenA : tokenB */\n      tag_165\n      jumpi\n        /* \"contracts/1_Storage.sol\":11133:11139  tokenB */\n      dup2\n        /* \"contracts/1_Storage.sol\":11106:11139  tokenA < tokenB ? tokenA : tokenB */\n      jump(tag_166)\n    tag_165:\n        /* \"contracts/1_Storage.sol\":11124:11130  tokenA */\n      dup3\n        /* \"contracts/1_Storage.sol\":11106:11139  tokenA < tokenB ? tokenA : tokenB */\n    tag_166:\n        /* \"contracts/1_Storage.sol\":11150:11156  tokenB */\n      dup3\n      sub(shl(0xa0, 0x01), 0x01)\n        /* \"contracts/1_Storage.sol\":11141:11156  tokenA < tokenB */\n      and\n        /* \"contracts/1_Storage.sol\":11141:11147  tokenA */\n      dup5\n      sub(shl(0xa0, 0x01), 0x01)\n        /* \"contracts/1_Storage.sol\":11141:11156  tokenA < tokenB */\n      and\n      lt\n        /* \"contracts/1_Storage.sol\":11141:11174  tokenA < tokenB ? tokenB : tokenA */\n      tag_167\n      jumpi\n        /* \"contracts/1_Storage.sol\":11168:11174  tokenA */\n      dup4\n        /* \"contracts/1_Storage.sol\":11141:11174  tokenA < tokenB ? tokenB : tokenA */\n      jump(tag_168)\n    tag_167:\n        /* \"contracts/1_Storage.sol\":11159:11165  tokenB */\n      dup3\n        /* \"contracts/1_Storage.sol\":11141:11174  tokenA < tokenB ? tokenB : tokenA */\n    tag_168:\n        /* \"contracts/1_Storage.sol\":11089:11175  abi.encodePacked(tokenA < tokenB ? tokenA : tokenB, tokenA < tokenB ? tokenB : tokenA) */\n      mload(0x40)\n      not(0xffffffffffffffffffffffff)\n        /* \"#utility.yul\":10258:10260   */\n      0x60\n        /* \"#utility.yul\":10254:10269   */\n      swap4\n      dup5\n      shl\n        /* \"#utility.yul\":10250:10303   */\n      dup2\n      and\n        /* \"contracts/1_Storage.sol\":11089:11175  abi.encodePacked(tokenA < tokenB ? tokenA : tokenB, tokenA < tokenB ? tokenB : tokenA) */\n      0x20\n      dup4\n      add\n        /* \"#utility.yul\":10238:10304   */\n      mstore\n        /* \"#utility.yul\":10338:10353   */\n      swap2\n      swap1\n      swap3\n      shl\n        /* \"#utility.yul\":10334:10387   */\n      and\n        /* \"#utility.yul\":10320:10332   */\n      0x34\n      dup3\n      add\n        /* \"#utility.yul\":10313:10388   */\n      mstore\n        /* \"#utility.yul\":10404:10416   */\n      0x48\n      add\n        /* \"contracts/1_Storage.sol\":11089:11175  abi.encodePacked(tokenA < tokenB ? tokenA : tokenB, tokenA < tokenB ? tokenB : tokenA) */\n      mload(0x40)\n      0x20\n      dup2\n      dup4\n      sub\n      sub\n      dup2\n      mstore\n      swap1\n      0x40\n      mstore\n        /* \"contracts/1_Storage.sol\":11079:11176  keccak256(abi.encodePacked(tokenA < tokenB ? tokenA : tokenB, tokenA < tokenB ? tokenB : tokenA)) */\n      dup1\n      mload\n      swap1\n      0x20\n      add\n      keccak256\n        /* \"contracts/1_Storage.sol\":11072:11176  return keccak256(abi.encodePacked(tokenA < tokenB ? tokenA : tokenB, tokenA < tokenB ? tokenB : tokenA)) */\n      swap1\n      pop\n        /* \"contracts/1_Storage.sol\":10976:11183  function _getPairHash(address tokenA, address tokenB) internal pure returns (bytes32) {... */\n    tag_164:\n      swap3\n      swap2\n      pop\n      pop\n      jump\t// out\n        /* \"contracts/1_Storage.sol\":11250:11466  function _getSortedReserves(address tokenA, address tokenB, Reserve memory res) internal pure returns (uint, uint) {... */\n    tag_106:\n        /* \"contracts/1_Storage.sol\":11353:11357  uint */\n      0x00\n        /* \"contracts/1_Storage.sol\":11359:11363  uint */\n      0x00\n        /* \"contracts/1_Storage.sol\":11391:11397  tokenB */\n      dup4\n      sub(shl(0xa0, 0x01), 0x01)\n        /* \"contracts/1_Storage.sol\":11382:11397  tokenA < tokenB */\n      and\n        /* \"contracts/1_Storage.sol\":11382:11388  tokenA */\n      dup6\n      sub(shl(0xa0, 0x01), 0x01)\n        /* \"contracts/1_Storage.sol\":11382:11397  tokenA < tokenB */\n      and\n      lt\n        /* \"contracts/1_Storage.sol\":11382:11459  tokenA < tokenB ? (res.reserveA, res.reserveB) : (res.reserveB, res.reserveA) */\n      tag_172\n      jumpi\n        /* \"contracts/1_Storage.sol\":11432:11444  res.reserveB */\n      0x20\n      dup4\n      add\n      mload\n        /* \"contracts/1_Storage.sol\":11446:11458  res.reserveA */\n      dup4\n      mload\n        /* \"contracts/1_Storage.sol\":11382:11459  tokenA < tokenB ? (res.reserveA, res.reserveB) : (res.reserveB, res.reserveA) */\n      jump(tag_173)\n    tag_172:\n        /* \"contracts/1_Storage.sol\":11401:11413  res.reserveA */\n      dup3\n      mload\n        /* \"contracts/1_Storage.sol\":11415:11427  res.reserveB */\n      0x20\n      dup5\n      add\n      mload\n        /* \"contracts/1_Storage.sol\":11382:11459  tokenA < tokenB ? (res.reserveA, res.reserveB) : (res.reserveB, res.reserveA) */\n    tag_173:\n      sub(shl(0x70, 0x01), 0x01)\n        /* \"contracts/1_Storage.sol\":11375:11459  return tokenA < tokenB ? (res.reserveA, res.reserveB) : (res.reserveB, res.reserveA) */\n      swap2\n      dup3\n      and\n      swap8\n      swap2\n      and\n      swap6\n      pop\n        /* \"contracts/1_Storage.sol\":11250:11466  function _getSortedReserves(address tokenA, address tokenB, Reserve memory res) internal pure returns (uint, uint) {... */\n      swap4\n      pop\n      pop\n      pop\n      pop\n      jump\t// out\n        /* \"@openzeppelin/contracts/token/ERC20/utils/SafeERC20.sol\":1219:1379  function safeTransfer(IERC20 token, address to, uint256 value) internal {... */\n    tag_135:\n        /* \"@openzeppelin/contracts/token/ERC20/utils/SafeERC20.sol\":1328:1371  abi.encodeCall(token.transfer, (to, value)) */\n      mload(0x40)\n      sub(shl(0xa0, 0x01), 0x01)\n        /* \"#utility.yul\":10619:10651   */\n      dup4\n      dup2\n      and\n        /* \"@openzeppelin/contracts/token/ERC20/utils/SafeERC20.sol\":1328:1371  abi.encodeCall(token.transfer, (to, value)) */\n      0x24\n      dup4\n      add\n        /* \"#utility.yul\":10601:10652   */\n      mstore\n        /* \"#utility.yul\":10668:10686   */\n      0x44\n      dup3\n      add\n        /* \"#utility.yul\":10661:10695   */\n      dup4\n      swap1\n      mstore\n        /* \"@openzeppelin/contracts/token/ERC20/utils/SafeERC20.sol\":1301:1372  _callOptionalReturn(token, abi.encodeCall(token.transfer, (to, value))) */\n      tag_175\n      swap2\n        /* \"@openzeppelin/contracts/token/ERC20/utils/SafeERC20.sol\":1321:1326  token */\n      dup6\n      swap2\n        /* \"@openzeppelin/contracts/token/ERC20/utils/SafeERC20.sol\":1343:1357  token.transfer */\n      dup3\n      and\n      swap1\n      0xa9059cbb\n      swap1\n        /* \"#utility.yul\":10574:10592   */\n      0x64\n      add\n        /* \"@openzeppelin/contracts/token/ERC20/utils/SafeERC20.sol\":1328:1371  abi.encodeCall(token.transfer, (to, value)) */\n    tag_176:\n      mload(0x40)\n      0x20\n      dup2\n      dup4\n      sub\n      sub\n      dup2\n      mstore\n      swap1\n      0x40\n      mstore\n      swap2\n      pop\n      0xe0\n      shl\n      0x20\n      dup3\n      add\n      dup1\n      mload\n      sub(shl(0xe0, 0x01), 0x01)\n      dup4\n      dup2\n      dup4\n      and\n      or\n      dup4\n      mstore\n      pop\n      pop\n      pop\n      pop\n        /* \"@openzeppelin/contracts/token/ERC20/utils/SafeERC20.sol\":1301:1320  _callOptionalReturn */\n      tag_178\n        /* \"@openzeppelin/contracts/token/ERC20/utils/SafeERC20.sol\":1301:1372  _callOptionalReturn(token, abi.encodeCall(token.transfer, (to, value))) */\n      jump\t// in\n    tag_175:\n        /* \"@openzeppelin/contracts/token/ERC20/utils/SafeERC20.sol\":1219:1379  function safeTransfer(IERC20 token, address to, uint256 value) internal {... */\n      pop\n      pop\n      pop\n      jump\t// out\n        /* \"contracts/1_Storage.sol\":7446:8605  function _calculateLiquidityAmounts(... */\n    tag_142:\n        /* \"contracts/1_Storage.sol\":7685:7707  uint calculatedAmountA */\n      0x00\n      dup1\n      sub(shl(0x70, 0x01), 0x01)\n        /* \"contracts/1_Storage.sol\":7747:7767  currentReserveA == 0 */\n      dup9\n      and\n      iszero\n        /* \"contracts/1_Storage.sol\":7747:7791  currentReserveA == 0 && currentReserveB == 0 */\n      dup1\n      iszero\n      tag_180\n      jumpi\n      pop\n      sub(shl(0x70, 0x01), 0x01)\n        /* \"contracts/1_Storage.sol\":7771:7791  currentReserveB == 0 */\n      dup8\n      and\n      iszero\n        /* \"contracts/1_Storage.sol\":7747:7791  currentReserveA == 0 && currentReserveB == 0 */\n    tag_180:\n        /* \"contracts/1_Storage.sol\":7743:8599  if (currentReserveA == 0 && currentReserveB == 0) {... */\n      iszero\n      tag_181\n      jumpi\n      pop\n        /* \"contracts/1_Storage.sol\":7902:7916  amountADesired */\n      dup5\n      swap1\n      pop\n        /* \"contracts/1_Storage.sol\":7918:7932  amountBDesired */\n      dup4\n        /* \"contracts/1_Storage.sol\":7743:8599  if (currentReserveA == 0 && currentReserveB == 0) {... */\n      jump(tag_182)\n    tag_181:\n        /* \"contracts/1_Storage.sol\":8011:8030  uint amountBOptimal */\n      0x00\n        /* \"contracts/1_Storage.sol\":8068:8083  currentReserveA */\n      dup9\n      sub(shl(0x70, 0x01), 0x01)\n        /* \"contracts/1_Storage.sol\":8033:8083  amountADesired * currentReserveB / currentReserveA */\n      and\n        /* \"contracts/1_Storage.sol\":8050:8065  currentReserveB */\n      dup9\n      sub(shl(0x70, 0x01), 0x01)\n        /* \"contracts/1_Storage.sol\":8033:8065  amountADesired * currentReserveB */\n      and\n        /* \"contracts/1_Storage.sol\":8033:8047  amountADesired */\n      dup9\n        /* \"contracts/1_Storage.sol\":8033:8065  amountADesired * currentReserveB */\n      tag_183\n      swap2\n      swap1\n      tag_63\n      jump\t// in\n    tag_183:\n        /* \"contracts/1_Storage.sol\":8033:8083  amountADesired * currentReserveB / currentReserveA */\n      tag_184\n      swap2\n      swap1\n      tag_69\n      jump\t// in\n    tag_184:\n        /* \"contracts/1_Storage.sol\":8011:8083  uint amountBOptimal = amountADesired * currentReserveB / currentReserveA */\n      swap1\n      pop\n        /* \"contracts/1_Storage.sol\":8119:8133  amountBDesired */\n      dup6\n        /* \"contracts/1_Storage.sol\":8101:8115  amountBOptimal */\n      dup2\n        /* \"contracts/1_Storage.sol\":8101:8133  amountBOptimal <= amountBDesired */\n      gt\n        /* \"contracts/1_Storage.sol\":8097:8589  if (amountBOptimal <= amountBDesired) {... */\n      tag_185\n      jumpi\n        /* \"contracts/1_Storage.sol\":8179:8189  amountBMin */\n      dup4\n        /* \"contracts/1_Storage.sol\":8161:8175  amountBOptimal */\n      dup2\n        /* \"contracts/1_Storage.sol\":8161:8189  amountBOptimal >= amountBMin */\n      lt\n      iszero\n        /* \"contracts/1_Storage.sol\":8153:8208  require(amountBOptimal >= amountBMin, \"Insufficient B\") */\n      tag_186\n      jumpi\n      mload(0x40)\n      shl(0xe5, 0x461bcd)\n      dup2\n      mstore\n        /* \"#utility.yul\":10908:10910   */\n      0x20\n        /* \"contracts/1_Storage.sol\":8153:8208  require(amountBOptimal >= amountBMin, \"Insufficient B\") */\n      0x04\n      dup3\n      add\n        /* \"#utility.yul\":10890:10911   */\n      mstore\n        /* \"#utility.yul\":10947:10949   */\n      0x0e\n        /* \"#utility.yul\":10927:10945   */\n      0x24\n      dup3\n      add\n        /* \"#utility.yul\":10920:10950   */\n      mstore\n      shl(0x91, 0x24b739bab33334b1b4b2b73a1021)\n        /* \"#utility.yul\":10966:10984   */\n      0x44\n      dup3\n      add\n        /* \"#utility.yul\":10959:11003   */\n      mstore\n        /* \"#utility.yul\":11020:11038   */\n      0x64\n      add\n        /* \"contracts/1_Storage.sol\":8153:8208  require(amountBOptimal >= amountBMin, \"Insufficient B\") */\n      tag_60\n        /* \"#utility.yul\":10706:11044   */\n      jump\n        /* \"contracts/1_Storage.sol\":8153:8208  require(amountBOptimal >= amountBMin, \"Insufficient B\") */\n    tag_186:\n        /* \"contracts/1_Storage.sol\":8268:8282  amountADesired */\n      dup7\n      swap3\n      pop\n        /* \"contracts/1_Storage.sol\":8284:8298  amountBOptimal */\n      swap1\n      pop\n      dup1\n        /* \"contracts/1_Storage.sol\":8097:8589  if (amountBOptimal <= amountBDesired) {... */\n      jump(tag_189)\n    tag_185:\n        /* \"contracts/1_Storage.sol\":8338:8357  uint amountAOptimal */\n      0x00\n        /* \"contracts/1_Storage.sol\":8395:8410  currentReserveB */\n      dup9\n      sub(shl(0x70, 0x01), 0x01)\n        /* \"contracts/1_Storage.sol\":8360:8410  amountBDesired * currentReserveA / currentReserveB */\n      and\n        /* \"contracts/1_Storage.sol\":8377:8392  currentReserveA */\n      dup11\n      sub(shl(0x70, 0x01), 0x01)\n        /* \"contracts/1_Storage.sol\":8360:8392  amountBDesired * currentReserveA */\n      and\n        /* \"contracts/1_Storage.sol\":8360:8374  amountBDesired */\n      dup9\n        /* \"contracts/1_Storage.sol\":8360:8392  amountBDesired * currentReserveA */\n      tag_190\n      swap2\n      swap1\n      tag_63\n      jump\t// in\n    tag_190:\n        /* \"contracts/1_Storage.sol\":8360:8410  amountBDesired * currentReserveA / currentReserveB */\n      tag_191\n      swap2\n      swap1\n      tag_69\n      jump\t// in\n    tag_191:\n        /* \"contracts/1_Storage.sol\":8338:8410  uint amountAOptimal = amountBDesired * currentReserveA / currentReserveB */\n      swap1\n      pop\n        /* \"contracts/1_Storage.sol\":8454:8464  amountAMin */\n      dup6\n        /* \"contracts/1_Storage.sol\":8436:8450  amountAOptimal */\n      dup2\n        /* \"contracts/1_Storage.sol\":8436:8464  amountAOptimal >= amountAMin */\n      lt\n      iszero\n        /* \"contracts/1_Storage.sol\":8428:8483  require(amountAOptimal >= amountAMin, \"Insufficient A\") */\n      tag_192\n      jumpi\n      mload(0x40)\n      shl(0xe5, 0x461bcd)\n      dup2\n      mstore\n        /* \"#utility.yul\":11251:11253   */\n      0x20\n        /* \"contracts/1_Storage.sol\":8428:8483  require(amountAOptimal >= amountAMin, \"Insufficient A\") */\n      0x04\n      dup3\n      add\n        /* \"#utility.yul\":11233:11254   */\n      mstore\n        /* \"#utility.yul\":11290:11292   */\n      0x0e\n        /* \"#utility.yul\":11270:11288   */\n      0x24\n      dup3\n      add\n        /* \"#utility.yul\":11263:11293   */\n      mstore\n      shl(0x90, 0x496e73756666696369656e742041)\n        /* \"#utility.yul\":11309:11327   */\n      0x44\n      dup3\n      add\n        /* \"#utility.yul\":11302:11346   */\n      mstore\n        /* \"#utility.yul\":11363:11381   */\n      0x64\n      add\n        /* \"contracts/1_Storage.sol\":8428:8483  require(amountAOptimal >= amountAMin, \"Insufficient A\") */\n      tag_60\n        /* \"#utility.yul\":11049:11387   */\n      jump\n        /* \"contracts/1_Storage.sol\":8428:8483  require(amountAOptimal >= amountAMin, \"Insufficient A\") */\n    tag_192:\n        /* \"contracts/1_Storage.sol\":8543:8557  amountAOptimal */\n      swap3\n      pop\n        /* \"contracts/1_Storage.sol\":8559:8573  amountBDesired */\n      dup6\n      swap2\n      pop\n        /* \"contracts/1_Storage.sol\":8097:8589  if (amountBOptimal <= amountBDesired) {... */\n    tag_189:\n        /* \"contracts/1_Storage.sol\":7950:8599  {... */\n      pop\n        /* \"contracts/1_Storage.sol\":7743:8599  if (currentReserveA == 0 && currentReserveB == 0) {... */\n    tag_182:\n        /* \"contracts/1_Storage.sol\":7446:8605  function _calculateLiquidityAmounts(... */\n      swap7\n      pop\n      swap7\n      swap5\n      pop\n      pop\n      pop\n      pop\n      pop\n      jump\t// out\n        /* \"contracts/1_Storage.sol\":8674:8981  function _performAddLiquidityTransfers(... */\n    tag_144:\n        /* \"contracts/1_Storage.sol\":8830:8897  IERC20(tokenA).safeTransferFrom(msg.sender, address(this), amountA) */\n      tag_196\n      sub(shl(0xa0, 0x01), 0x01)\n        /* \"contracts/1_Storage.sol\":8830:8861  IERC20(tokenA).safeTransferFrom */\n      dup6\n      and\n        /* \"contracts/1_Storage.sol\":8862:8872  msg.sender */\n      caller\n        /* \"contracts/1_Storage.sol\":8882:8886  this */\n      address\n        /* \"contracts/1_Storage.sol\":8889:8896  amountA */\n      dup6\n        /* \"contracts/1_Storage.sol\":8830:8861  IERC20(tokenA).safeTransferFrom */\n      tag_153\n        /* \"contracts/1_Storage.sol\":8830:8897  IERC20(tokenA).safeTransferFrom(msg.sender, address(this), amountA) */\n      jump\t// in\n    tag_196:\n        /* \"contracts/1_Storage.sol\":8907:8974  IERC20(tokenB).safeTransferFrom(msg.sender, address(this), amountB) */\n      tag_197\n      sub(shl(0xa0, 0x01), 0x01)\n        /* \"contracts/1_Storage.sol\":8907:8938  IERC20(tokenB).safeTransferFrom */\n      dup5\n      and\n        /* \"contracts/1_Storage.sol\":8939:8949  msg.sender */\n      caller\n        /* \"contracts/1_Storage.sol\":8959:8963  this */\n      address\n        /* \"contracts/1_Storage.sol\":8966:8973  amountB */\n      dup5\n        /* \"contracts/1_Storage.sol\":8907:8938  IERC20(tokenB).safeTransferFrom */\n      tag_153\n        /* \"contracts/1_Storage.sol\":8907:8974  IERC20(tokenB).safeTransferFrom(msg.sender, address(this), amountB) */\n      jump\t// in\n    tag_197:\n        /* \"contracts/1_Storage.sol\":8674:8981  function _performAddLiquidityTransfers(... */\n      pop\n      pop\n      pop\n      pop\n      jump\t// out\n        /* \"contracts/1_Storage.sol\":9050:9520  function _mintLiquidityAndUpdateReserves(... */\n    tag_146:\n        /* \"contracts/1_Storage.sol\":9273:9287  uint liquidity */\n      0x00\n        /* \"contracts/1_Storage.sol\":9311:9328  amountA + amountB */\n      tag_199\n        /* \"contracts/1_Storage.sol\":9321:9328  amountB */\n      dup5\n        /* \"contracts/1_Storage.sol\":9311:9318  amountA */\n      dup7\n        /* \"contracts/1_Storage.sol\":9311:9328  amountA + amountB */\n      tag_67\n      jump\t// in\n    tag_199:\n        /* \"contracts/1_Storage.sol\":9299:9328  liquidity = amountA + amountB */\n      swap1\n      pop\n        /* \"contracts/1_Storage.sol\":9366:9375  liquidity */\n      dup1\n        /* \"contracts/1_Storage.sol\":9338:9352  totalLiquidity */\n      0x01\n        /* \"contracts/1_Storage.sol\":9338:9362  totalLiquidity[pairHash] */\n      0x00\n        /* \"contracts/1_Storage.sol\":9353:9361  pairHash */\n      dup9\n        /* \"contracts/1_Storage.sol\":9338:9362  totalLiquidity[pairHash] */\n      dup2\n      mstore\n      0x20\n      add\n      swap1\n      dup2\n      mstore\n      0x20\n      add\n      0x00\n      keccak256\n      0x00\n        /* \"contracts/1_Storage.sol\":9338:9375  totalLiquidity[pairHash] += liquidity */\n      dup3\n      dup3\n      sload\n      tag_200\n      swap2\n      swap1\n      tag_67\n      jump\t// in\n    tag_200:\n      swap1\n      swap2\n      sstore\n      pop\n      pop\n        /* \"contracts/1_Storage.sol\":9385:9411  liquidityBalance[pairHash] */\n      0x00\n      dup7\n      dup2\n      mstore\n        /* \"contracts/1_Storage.sol\":9385:9401  liquidityBalance */\n      0x02\n        /* \"contracts/1_Storage.sol\":9385:9411  liquidityBalance[pairHash] */\n      0x20\n      swap1\n      dup2\n      mstore\n      0x40\n      dup1\n      dup4\n      keccak256\n      sub(shl(0xa0, 0x01), 0x01)\n        /* \"contracts/1_Storage.sol\":9385:9415  liquidityBalance[pairHash][to] */\n      dup8\n      and\n      dup5\n      mstore\n      swap1\n      swap2\n      mstore\n      dup2\n      keccak256\n        /* \"contracts/1_Storage.sol\":9385:9428  liquidityBalance[pairHash][to] += liquidity */\n      dup1\n      sload\n        /* \"contracts/1_Storage.sol\":9419:9428  liquidity */\n      dup4\n      swap3\n        /* \"contracts/1_Storage.sol\":9385:9411  liquidityBalance[pairHash] */\n      swap1\n        /* \"contracts/1_Storage.sol\":9385:9428  liquidityBalance[pairHash][to] += liquidity */\n      tag_201\n      swap1\n        /* \"contracts/1_Storage.sol\":9419:9428  liquidity */\n      dup5\n      swap1\n        /* \"contracts/1_Storage.sol\":9385:9428  liquidityBalance[pairHash][to] += liquidity */\n      tag_67\n      jump\t// in\n    tag_201:\n      swap1\n      swap2\n      sstore\n      pop\n      pop\n        /* \"contracts/1_Storage.sol\":9439:9471  res.reserveA += uint112(amountA) */\n      dup2\n      sload\n        /* \"contracts/1_Storage.sol\":9463:9470  amountA */\n      dup6\n      swap1\n        /* \"contracts/1_Storage.sol\":9439:9442  res */\n      dup4\n      swap1\n        /* \"contracts/1_Storage.sol\":9439:9451  res.reserveA */\n      0x00\n      swap1\n        /* \"contracts/1_Storage.sol\":9439:9471  res.reserveA += uint112(amountA) */\n      tag_202\n      swap1\n        /* \"contracts/1_Storage.sol\":9463:9470  amountA */\n      dup5\n      swap1\n      sub(shl(0x70, 0x01), 0x01)\n        /* \"contracts/1_Storage.sol\":9439:9471  res.reserveA += uint112(amountA) */\n      and\n      tag_159\n      jump\t// in\n    tag_202:\n      swap3\n      pop\n      0x0100\n      exp\n      dup2\n      sload\n      dup2\n      sub(shl(0x70, 0x01), 0x01)\n      mul\n      not\n      and\n      swap1\n      dup4\n      sub(shl(0x70, 0x01), 0x01)\n      and\n      mul\n      or\n      swap1\n      sstore\n      pop\n        /* \"contracts/1_Storage.sol\":9505:9512  amountB */\n      dup4\n        /* \"contracts/1_Storage.sol\":9481:9484  res */\n      dup3\n        /* \"contracts/1_Storage.sol\":9481:9493  res.reserveB */\n      0x00\n      add\n      0x0e\n        /* \"contracts/1_Storage.sol\":9481:9513  res.reserveB += uint112(amountB) */\n      dup3\n      dup3\n      dup3\n      swap1\n      sload\n      swap1\n      0x0100\n      exp\n      swap1\n      div\n      sub(shl(0x70, 0x01), 0x01)\n      and\n      tag_203\n      swap2\n      swap1\n      tag_159\n      jump\t// in\n    tag_203:\n      swap3\n      pop\n      0x0100\n      exp\n      dup2\n      sload\n      dup2\n      sub(shl(0x70, 0x01), 0x01)\n      mul\n      not\n      and\n      swap1\n      dup4\n      sub(shl(0x70, 0x01), 0x01)\n      and\n      mul\n      or\n      swap1\n      sstore\n      pop\n        /* \"contracts/1_Storage.sol\":9050:9520  function _mintLiquidityAndUpdateReserves(... */\n      swap6\n      swap5\n      pop\n      pop\n      pop\n      pop\n      pop\n      jump\t// out\n        /* \"@openzeppelin/contracts/token/ERC20/utils/SafeERC20.sol\":1618:1806  function safeTransferFrom(IERC20 token, address from, address to, uint256 value) internal {... */\n    tag_153:\n        /* \"@openzeppelin/contracts/token/ERC20/utils/SafeERC20.sol\":1745:1798  abi.encodeCall(token.transferFrom, (from, to, value)) */\n      mload(0x40)\n      sub(shl(0xa0, 0x01), 0x01)\n        /* \"#utility.yul\":11612:11644   */\n      dup5\n      dup2\n      and\n        /* \"@openzeppelin/contracts/token/ERC20/utils/SafeERC20.sol\":1745:1798  abi.encodeCall(token.transferFrom, (from, to, value)) */\n      0x24\n      dup4\n      add\n        /* \"#utility.yul\":11594:11645   */\n      mstore\n        /* \"#utility.yul\":11681:11713   */\n      dup4\n      dup2\n      and\n        /* \"#utility.yul\":11661:11679   */\n      0x44\n      dup4\n      add\n        /* \"#utility.yul\":11654:11714   */\n      mstore\n        /* \"#utility.yul\":11730:11748   */\n      0x64\n      dup3\n      add\n        /* \"#utility.yul\":11723:11757   */\n      dup4\n      swap1\n      mstore\n        /* \"@openzeppelin/contracts/token/ERC20/utils/SafeERC20.sol\":1718:1799  _callOptionalReturn(token, abi.encodeCall(token.transferFrom, (from, to, value))) */\n      tag_197\n      swap2\n        /* \"@openzeppelin/contracts/token/ERC20/utils/SafeERC20.sol\":1738:1743  token */\n      dup7\n      swap2\n        /* \"@openzeppelin/contracts/token/ERC20/utils/SafeERC20.sol\":1760:1778  token.transferFrom */\n      dup3\n      and\n      swap1\n      0x23b872dd\n      swap1\n        /* \"#utility.yul\":11567:11585   */\n      0x84\n      add\n        /* \"@openzeppelin/contracts/token/ERC20/utils/SafeERC20.sol\":1745:1798  abi.encodeCall(token.transferFrom, (from, to, value)) */\n      tag_176\n        /* \"#utility.yul\":11392:11763   */\n      jump\n        /* \"@openzeppelin/contracts/token/ERC20/utils/SafeERC20.sol\":8370:9090  function _callOptionalReturn(IERC20 token, bytes memory data) private {... */\n    tag_178:\n        /* \"@openzeppelin/contracts/token/ERC20/utils/SafeERC20.sol\":8450:8468  uint256 returnSize */\n      0x00\n        /* \"@openzeppelin/contracts/token/ERC20/utils/SafeERC20.sol\":8478:8497  uint256 returnValue */\n      0x00\n        /* \"@openzeppelin/contracts/token/ERC20/utils/SafeERC20.sol\":8616:8620  0x20 */\n      0x20\n        /* \"@openzeppelin/contracts/token/ERC20/utils/SafeERC20.sol\":8613:8614  0 */\n      0x00\n        /* \"@openzeppelin/contracts/token/ERC20/utils/SafeERC20.sol\":8606:8610  data */\n      dup5\n        /* \"@openzeppelin/contracts/token/ERC20/utils/SafeERC20.sol\":8600:8611  mload(data) */\n      mload\n        /* \"@openzeppelin/contracts/token/ERC20/utils/SafeERC20.sol\":8593:8597  0x20 */\n      0x20\n        /* \"@openzeppelin/contracts/token/ERC20/utils/SafeERC20.sol\":8587:8591  data */\n      dup7\n        /* \"@openzeppelin/contracts/token/ERC20/utils/SafeERC20.sol\":8583:8598  add(data, 0x20) */\n      add\n        /* \"@openzeppelin/contracts/token/ERC20/utils/SafeERC20.sol\":8580:8581  0 */\n      0x00\n        /* \"@openzeppelin/contracts/token/ERC20/utils/SafeERC20.sol\":8573:8578  token */\n      dup9\n        /* \"@openzeppelin/contracts/token/ERC20/utils/SafeERC20.sol\":8566:8571  gas() */\n      gas\n        /* \"@openzeppelin/contracts/token/ERC20/utils/SafeERC20.sol\":8561:8621  call(gas(), token, 0, add(data, 0x20), mload(data), 0, 0x20) */\n      call\n        /* \"@openzeppelin/contracts/token/ERC20/utils/SafeERC20.sol\":8673:8680  success */\n      dup1\n        /* \"@openzeppelin/contracts/token/ERC20/utils/SafeERC20.sol\":8663:8839  if iszero(success) {... */\n      tag_209\n      jumpi\n        /* \"@openzeppelin/contracts/token/ERC20/utils/SafeERC20.sol\":8717:8721  0x40 */\n      0x40\n        /* \"@openzeppelin/contracts/token/ERC20/utils/SafeERC20.sol\":8711:8722  mload(0x40) */\n      mload\n        /* \"@openzeppelin/contracts/token/ERC20/utils/SafeERC20.sol\":8762:8778  returndatasize() */\n      returndatasize\n        /* \"@openzeppelin/contracts/token/ERC20/utils/SafeERC20.sol\":8759:8760  0 */\n      0x00\n        /* \"@openzeppelin/contracts/token/ERC20/utils/SafeERC20.sol\":8754:8757  ptr */\n      dup3\n        /* \"@openzeppelin/contracts/token/ERC20/utils/SafeERC20.sol\":8739:8779  returndatacopy(ptr, 0, returndatasize()) */\n      returndatacopy\n        /* \"@openzeppelin/contracts/token/ERC20/utils/SafeERC20.sol\":8808:8824  returndatasize() */\n      returndatasize\n        /* \"@openzeppelin/contracts/token/ERC20/utils/SafeERC20.sol\":8803:8806  ptr */\n      dup2\n        /* \"@openzeppelin/contracts/token/ERC20/utils/SafeERC20.sol\":8796:8825  revert(ptr, returndatasize()) */\n      revert\n        /* \"@openzeppelin/contracts/token/ERC20/utils/SafeERC20.sol\":8663:8839  if iszero(success) {... */\n    tag_209:\n      pop\n      pop\n        /* \"@openzeppelin/contracts/token/ERC20/utils/SafeERC20.sol\":8916:8917  0 */\n      0x00\n        /* \"@openzeppelin/contracts/token/ERC20/utils/SafeERC20.sol\":8910:8918  mload(0) */\n      mload\n        /* \"@openzeppelin/contracts/token/ERC20/utils/SafeERC20.sol\":8866:8882  returndatasize() */\n      returndatasize\n      swap2\n      pop\n        /* \"@openzeppelin/contracts/token/ERC20/utils/SafeERC20.sol\":8942:8957  returnSize == 0 */\n      dup2\n      iszero\n        /* \"@openzeppelin/contracts/token/ERC20/utils/SafeERC20.sol\":8942:9010  returnSize == 0 ? address(token).code.length == 0 : returnValue != 1 */\n      tag_210\n      jumpi\n        /* \"@openzeppelin/contracts/token/ERC20/utils/SafeERC20.sol\":8994:9005  returnValue */\n      dup1\n        /* \"@openzeppelin/contracts/token/ERC20/utils/SafeERC20.sol\":9009:9010  1 */\n      0x01\n        /* \"@openzeppelin/contracts/token/ERC20/utils/SafeERC20.sol\":8994:9010  returnValue != 1 */\n      eq\n      iszero\n        /* \"@openzeppelin/contracts/token/ERC20/utils/SafeERC20.sol\":8942:9010  returnSize == 0 ? address(token).code.length == 0 : returnValue != 1 */\n      jump(tag_211)\n    tag_210:\n      sub(shl(0xa0, 0x01), 0x01)\n        /* \"@openzeppelin/contracts/token/ERC20/utils/SafeERC20.sol\":8960:8986  address(token).code.length */\n      dup5\n      and\n      extcodesize\n        /* \"@openzeppelin/contracts/token/ERC20/utils/SafeERC20.sol\":8960:8991  address(token).code.length == 0 */\n      iszero\n        /* \"@openzeppelin/contracts/token/ERC20/utils/SafeERC20.sol\":8942:9010  returnSize == 0 ? address(token).code.length == 0 : returnValue != 1 */\n    tag_211:\n        /* \"@openzeppelin/contracts/token/ERC20/utils/SafeERC20.sol\":8938:9084  if (returnSize == 0 ? address(token).code.length == 0 : returnValue != 1) {... */\n      iszero\n      tag_197\n      jumpi\n        /* \"@openzeppelin/contracts/token/ERC20/utils/SafeERC20.sol\":9033:9073  SafeERC20FailedOperation(address(token)) */\n      mload(0x40)\n      shl(0xe0, 0x5274afe7)\n      dup2\n      mstore\n      sub(shl(0xa0, 0x01), 0x01)\n        /* \"#utility.yul\":11932:11964   */\n      dup6\n      and\n        /* \"@openzeppelin/contracts/token/ERC20/utils/SafeERC20.sol\":9033:9073  SafeERC20FailedOperation(address(token)) */\n      0x04\n      dup3\n      add\n        /* \"#utility.yul\":11914:11965   */\n      mstore\n        /* \"#utility.yul\":11887:11905   */\n      0x24\n      add\n        /* \"@openzeppelin/contracts/token/ERC20/utils/SafeERC20.sol\":9033:9073  SafeERC20FailedOperation(address(token)) */\n      tag_60\n        /* \"#utility.yul\":11768:11971   */\n      jump\n        /* \"#utility.yul\":14:240   */\n    tag_14:\n        /* \"#utility.yul\":73:79   */\n      0x00\n        /* \"#utility.yul\":126:128   */\n      0x20\n        /* \"#utility.yul\":114:123   */\n      dup3\n        /* \"#utility.yul\":105:112   */\n      dup5\n        /* \"#utility.yul\":101:124   */\n      sub\n        /* \"#utility.yul\":97:129   */\n      slt\n        /* \"#utility.yul\":94:146   */\n      iszero\n      tag_219\n      jumpi\n        /* \"#utility.yul\":142:143   */\n      0x00\n        /* \"#utility.yul\":139:140   */\n      0x00\n        /* \"#utility.yul\":132:144   */\n      revert\n        /* \"#utility.yul\":94:146   */\n    tag_219:\n      pop\n        /* \"#utility.yul\":187:210   */\n      calldataload\n      swap2\n        /* \"#utility.yul\":14:240   */\n      swap1\n      pop\n      jump\t// out\n        /* \"#utility.yul\":572:1038   */\n    tag_20:\n        /* \"#utility.yul\":649:655   */\n      0x00\n        /* \"#utility.yul\":657:663   */\n      0x00\n        /* \"#utility.yul\":665:671   */\n      0x00\n        /* \"#utility.yul\":718:720   */\n      0x60\n        /* \"#utility.yul\":706:715   */\n      dup5\n        /* \"#utility.yul\":697:704   */\n      dup7\n        /* \"#utility.yul\":693:716   */\n      sub\n        /* \"#utility.yul\":689:721   */\n      slt\n        /* \"#utility.yul\":686:738   */\n      iszero\n      tag_222\n      jumpi\n        /* \"#utility.yul\":734:735   */\n      0x00\n        /* \"#utility.yul\":731:732   */\n      0x00\n        /* \"#utility.yul\":724:736   */\n      revert\n        /* \"#utility.yul\":686:738   */\n    tag_222:\n      pop\n      pop\n        /* \"#utility.yul\":779:802   */\n      dup2\n      calldataload\n      swap4\n        /* \"#utility.yul\":899:901   */\n      0x20\n        /* \"#utility.yul\":884:902   */\n      dup4\n      add\n        /* \"#utility.yul\":871:903   */\n      calldataload\n      swap4\n      pop\n        /* \"#utility.yul\":1002:1004   */\n      0x40\n        /* \"#utility.yul\":987:1005   */\n      swap1\n      swap3\n      add\n        /* \"#utility.yul\":974:1006   */\n      calldataload\n      swap2\n        /* \"#utility.yul\":572:1038   */\n      swap1\n      pop\n      jump\t// out\n        /* \"#utility.yul\":1225:1398   */\n    tag_215:\n        /* \"#utility.yul\":1293:1313   */\n      dup1\n      calldataload\n      sub(shl(0xa0, 0x01), 0x01)\n        /* \"#utility.yul\":1342:1373   */\n      dup2\n      and\n        /* \"#utility.yul\":1332:1374   */\n      dup2\n      eq\n        /* \"#utility.yul\":1322:1392   */\n      tag_225\n      jumpi\n        /* \"#utility.yul\":1388:1389   */\n      0x00\n        /* \"#utility.yul\":1385:1386   */\n      0x00\n        /* \"#utility.yul\":1378:1390   */\n      revert\n        /* \"#utility.yul\":1322:1392   */\n    tag_225:\n        /* \"#utility.yul\":1225:1398   */\n      swap2\n      swap1\n      pop\n      jump\t// out\n        /* \"#utility.yul\":1403:2443   */\n    tag_26:\n        /* \"#utility.yul\":1525:1531   */\n      0x00\n        /* \"#utility.yul\":1533:1539   */\n      0x00\n        /* \"#utility.yul\":1541:1547   */\n      0x00\n        /* \"#utility.yul\":1549:1555   */\n      0x00\n        /* \"#utility.yul\":1557:1563   */\n      0x00\n        /* \"#utility.yul\":1565:1571   */\n      0x00\n        /* \"#utility.yul\":1618:1621   */\n      0xa0\n        /* \"#utility.yul\":1606:1615   */\n      dup8\n        /* \"#utility.yul\":1597:1604   */\n      dup10\n        /* \"#utility.yul\":1593:1616   */\n      sub\n        /* \"#utility.yul\":1589:1622   */\n      slt\n        /* \"#utility.yul\":1586:1639   */\n      iszero\n      tag_227\n      jumpi\n        /* \"#utility.yul\":1635:1636   */\n      0x00\n        /* \"#utility.yul\":1632:1633   */\n      0x00\n        /* \"#utility.yul\":1625:1637   */\n      revert\n        /* \"#utility.yul\":1586:1639   */\n    tag_227:\n        /* \"#utility.yul\":1680:1703   */\n      dup7\n      calldataload\n      swap6\n      pop\n        /* \"#utility.yul\":1800:1802   */\n      0x20\n        /* \"#utility.yul\":1785:1803   */\n      dup8\n      add\n        /* \"#utility.yul\":1772:1804   */\n      calldataload\n      swap5\n      pop\n        /* \"#utility.yul\":1881:1883   */\n      0x40\n        /* \"#utility.yul\":1866:1884   */\n      dup8\n      add\n        /* \"#utility.yul\":1853:1885   */\n      calldataload\n        /* \"#utility.yul\":1908:1926   */\n      0xffffffffffffffff\n        /* \"#utility.yul\":1897:1927   */\n      dup2\n      gt\n        /* \"#utility.yul\":1894:1944   */\n      iszero\n      tag_228\n      jumpi\n        /* \"#utility.yul\":1940:1941   */\n      0x00\n        /* \"#utility.yul\":1937:1938   */\n      0x00\n        /* \"#utility.yul\":1930:1942   */\n      revert\n        /* \"#utility.yul\":1894:1944   */\n    tag_228:\n        /* \"#utility.yul\":1963:1985   */\n      dup8\n      add\n        /* \"#utility.yul\":2016:2020   */\n      0x1f\n        /* \"#utility.yul\":2008:2021   */\n      dup2\n      add\n        /* \"#utility.yul\":2004:2031   */\n      dup10\n      sgt\n        /* \"#utility.yul\":1994:2049   */\n      tag_229\n      jumpi\n        /* \"#utility.yul\":2045:2046   */\n      0x00\n        /* \"#utility.yul\":2042:2043   */\n      0x00\n        /* \"#utility.yul\":2035:2047   */\n      revert\n        /* \"#utility.yul\":1994:2049   */\n    tag_229:\n        /* \"#utility.yul\":2085:2087   */\n      dup1\n        /* \"#utility.yul\":2072:2088   */\n      calldataload\n        /* \"#utility.yul\":2111:2129   */\n      0xffffffffffffffff\n        /* \"#utility.yul\":2103:2109   */\n      dup2\n        /* \"#utility.yul\":2100:2130   */\n      gt\n        /* \"#utility.yul\":2097:2147   */\n      iszero\n      tag_230\n      jumpi\n        /* \"#utility.yul\":2143:2144   */\n      0x00\n        /* \"#utility.yul\":2140:2141   */\n      0x00\n        /* \"#utility.yul\":2133:2145   */\n      revert\n        /* \"#utility.yul\":2097:2147   */\n    tag_230:\n        /* \"#utility.yul\":2196:2203   */\n      dup10\n        /* \"#utility.yul\":2191:2193   */\n      0x20\n        /* \"#utility.yul\":2181:2187   */\n      dup3\n        /* \"#utility.yul\":2178:2179   */\n      0x05\n        /* \"#utility.yul\":2174:2188   */\n      shl\n        /* \"#utility.yul\":2170:2172   */\n      dup5\n        /* \"#utility.yul\":2166:2189   */\n      add\n        /* \"#utility.yul\":2162:2194   */\n      add\n        /* \"#utility.yul\":2159:2204   */\n      gt\n        /* \"#utility.yul\":2156:2221   */\n      iszero\n      tag_231\n      jumpi\n        /* \"#utility.yul\":2217:2218   */\n      0x00\n        /* \"#utility.yul\":2214:2215   */\n      0x00\n        /* \"#utility.yul\":2207:2219   */\n      revert\n        /* \"#utility.yul\":2156:2221   */\n    tag_231:\n        /* \"#utility.yul\":2248:2250   */\n      0x20\n        /* \"#utility.yul\":2240:2251   */\n      swap2\n      swap1\n      swap2\n      add\n      swap5\n      pop\n        /* \"#utility.yul\":2270:2276   */\n      swap3\n      pop\n        /* \"#utility.yul\":2295:2333   */\n      tag_232\n        /* \"#utility.yul\":2329:2331   */\n      0x60\n        /* \"#utility.yul\":2314:2332   */\n      dup9\n      add\n        /* \"#utility.yul\":2295:2333   */\n      tag_215\n      jump\t// in\n    tag_232:\n        /* \"#utility.yul\":1403:2443   */\n      swap6\n      swap9\n      swap5\n      swap8\n      pop\n      swap3\n      swap6\n      swap2\n      swap5\n      swap4\n        /* \"#utility.yul\":2406:2409   */\n      0x80\n        /* \"#utility.yul\":2391:2410   */\n      swap1\n      swap3\n      add\n        /* \"#utility.yul\":2378:2411   */\n      calldataload\n      swap3\n      pop\n      pop\n        /* \"#utility.yul\":1403:2443   */\n      jump\t// out\n        /* \"#utility.yul\":2448:3059   */\n    tag_29:\n        /* \"#utility.yul\":2638:2640   */\n      0x20\n        /* \"#utility.yul\":2650:2671   */\n      dup1\n      dup3\n      mstore\n        /* \"#utility.yul\":2720:2733   */\n      dup3\n      mload\n        /* \"#utility.yul\":2623:2641   */\n      dup3\n      dup3\n      add\n        /* \"#utility.yul\":2742:2764   */\n      dup2\n      swap1\n      mstore\n        /* \"#utility.yul\":2590:2594   */\n      0x00\n      swap2\n        /* \"#utility.yul\":2821:2836   */\n      dup5\n      add\n      swap1\n        /* \"#utility.yul\":2795:2797   */\n      0x40\n        /* \"#utility.yul\":2780:2798   */\n      dup5\n      add\n      swap1\n        /* \"#utility.yul\":2590:2594   */\n      dup4\n        /* \"#utility.yul\":2864:3033   */\n    tag_234:\n        /* \"#utility.yul\":2878:2884   */\n      dup2\n        /* \"#utility.yul\":2875:2876   */\n      dup2\n        /* \"#utility.yul\":2872:2885   */\n      lt\n        /* \"#utility.yul\":2864:3033   */\n      iszero\n      tag_236\n      jumpi\n        /* \"#utility.yul\":2939:2952   */\n      dup4\n      mload\n        /* \"#utility.yul\":2927:2953   */\n      dup4\n      mstore\n        /* \"#utility.yul\":2982:2984   */\n      0x20\n        /* \"#utility.yul\":3008:3023   */\n      swap4\n      dup5\n      add\n      swap4\n        /* \"#utility.yul\":2973:2985   */\n      swap1\n      swap3\n      add\n      swap2\n        /* \"#utility.yul\":2900:2901   */\n      0x01\n        /* \"#utility.yul\":2893:2902   */\n      add\n        /* \"#utility.yul\":2864:3033   */\n      jump(tag_234)\n    tag_236:\n      pop\n        /* \"#utility.yul\":3050:3053   */\n      swap1\n      swap6\n        /* \"#utility.yul\":2448:3059   */\n      swap5\n      pop\n      pop\n      pop\n      pop\n      pop\n      jump\t// out\n        /* \"#utility.yul\":3064:3324   */\n    tag_36:\n        /* \"#utility.yul\":3132:3138   */\n      0x00\n        /* \"#utility.yul\":3140:3146   */\n      0x00\n        /* \"#utility.yul\":3193:3195   */\n      0x40\n        /* \"#utility.yul\":3181:3190   */\n      dup4\n        /* \"#utility.yul\":3172:3179   */\n      dup6\n        /* \"#utility.yul\":3168:3191   */\n      sub\n        /* \"#utility.yul\":3164:3196   */\n      slt\n        /* \"#utility.yul\":3161:3213   */\n      iszero\n      tag_238\n      jumpi\n        /* \"#utility.yul\":3209:3210   */\n      0x00\n        /* \"#utility.yul\":3206:3207   */\n      0x00\n        /* \"#utility.yul\":3199:3211   */\n      revert\n        /* \"#utility.yul\":3161:3213   */\n    tag_238:\n        /* \"#utility.yul\":3232:3261   */\n      tag_239\n        /* \"#utility.yul\":3251:3260   */\n      dup4\n        /* \"#utility.yul\":3232:3261   */\n      tag_215\n      jump\t// in\n    tag_239:\n        /* \"#utility.yul\":3222:3261   */\n      swap2\n      pop\n        /* \"#utility.yul\":3280:3318   */\n      tag_240\n        /* \"#utility.yul\":3314:3316   */\n      0x20\n        /* \"#utility.yul\":3303:3312   */\n      dup5\n        /* \"#utility.yul\":3299:3317   */\n      add\n        /* \"#utility.yul\":3280:3318   */\n      tag_215\n      jump\t// in\n    tag_240:\n        /* \"#utility.yul\":3270:3318   */\n      swap1\n      pop\n        /* \"#utility.yul\":3064:3324   */\n      swap3\n      pop\n      swap3\n      swap1\n      pop\n      jump\t// out\n        /* \"#utility.yul\":3329:4141   */\n    tag_41:\n        /* \"#utility.yul\":3442:3448   */\n      0x00\n        /* \"#utility.yul\":3450:3456   */\n      0x00\n        /* \"#utility.yul\":3458:3464   */\n      0x00\n        /* \"#utility.yul\":3466:3472   */\n      0x00\n        /* \"#utility.yul\":3474:3480   */\n      0x00\n        /* \"#utility.yul\":3482:3488   */\n      0x00\n        /* \"#utility.yul\":3490:3496   */\n      0x00\n        /* \"#utility.yul\":3543:3546   */\n      0xe0\n        /* \"#utility.yul\":3531:3540   */\n      dup9\n        /* \"#utility.yul\":3522:3529   */\n      dup11\n        /* \"#utility.yul\":3518:3541   */\n      sub\n        /* \"#utility.yul\":3514:3547   */\n      slt\n        /* \"#utility.yul\":3511:3564   */\n      iszero\n      tag_242\n      jumpi\n        /* \"#utility.yul\":3560:3561   */\n      0x00\n        /* \"#utility.yul\":3557:3558   */\n      0x00\n        /* \"#utility.yul\":3550:3562   */\n      revert\n        /* \"#utility.yul\":3511:3564   */\n    tag_242:\n        /* \"#utility.yul\":3583:3612   */\n      tag_243\n        /* \"#utility.yul\":3602:3611   */\n      dup9\n        /* \"#utility.yul\":3583:3612   */\n      tag_215\n      jump\t// in\n    tag_243:\n        /* \"#utility.yul\":3573:3612   */\n      swap7\n      pop\n        /* \"#utility.yul\":3631:3669   */\n      tag_244\n        /* \"#utility.yul\":3665:3667   */\n      0x20\n        /* \"#utility.yul\":3654:3663   */\n      dup10\n        /* \"#utility.yul\":3650:3668   */\n      add\n        /* \"#utility.yul\":3631:3669   */\n      tag_215\n      jump\t// in\n    tag_244:\n        /* \"#utility.yul\":3621:3669   */\n      swap6\n      pop\n        /* \"#utility.yul\":3738:3740   */\n      0x40\n        /* \"#utility.yul\":3723:3741   */\n      dup9\n      add\n        /* \"#utility.yul\":3710:3742   */\n      calldataload\n      swap5\n      pop\n        /* \"#utility.yul\":3839:3841   */\n      0x60\n        /* \"#utility.yul\":3824:3842   */\n      dup9\n      add\n        /* \"#utility.yul\":3811:3843   */\n      calldataload\n      swap4\n      pop\n        /* \"#utility.yul\":3942:3945   */\n      0x80\n        /* \"#utility.yul\":3927:3946   */\n      dup9\n      add\n        /* \"#utility.yul\":3914:3947   */\n      calldataload\n      swap3\n      pop\n        /* \"#utility.yul\":3992:4031   */\n      tag_245\n        /* \"#utility.yul\":4026:4029   */\n      0xa0\n        /* \"#utility.yul\":4011:4030   */\n      dup10\n      add\n        /* \"#utility.yul\":3992:4031   */\n      tag_215\n      jump\t// in\n    tag_245:\n        /* \"#utility.yul\":3329:4141   */\n      swap7\n      swap10\n      swap6\n      swap9\n      pop\n      swap4\n      swap7\n      swap3\n      swap6\n      swap2\n      swap5\n      swap2\n      swap4\n      pop\n      pop\n        /* \"#utility.yul\":4104:4107   */\n      0xc0\n        /* \"#utility.yul\":4089:4108   */\n      swap1\n      swap2\n      add\n        /* \"#utility.yul\":4076:4109   */\n      calldataload\n      swap1\n        /* \"#utility.yul\":3329:4141   */\n      jump\t// out\n        /* \"#utility.yul\":4399:4699   */\n    tag_47:\n        /* \"#utility.yul\":4467:4473   */\n      0x00\n        /* \"#utility.yul\":4475:4481   */\n      0x00\n        /* \"#utility.yul\":4528:4530   */\n      0x40\n        /* \"#utility.yul\":4516:4525   */\n      dup4\n        /* \"#utility.yul\":4507:4514   */\n      dup6\n        /* \"#utility.yul\":4503:4526   */\n      sub\n        /* \"#utility.yul\":4499:4531   */\n      slt\n        /* \"#utility.yul\":4496:4548   */\n      iszero\n      tag_248\n      jumpi\n        /* \"#utility.yul\":4544:4545   */\n      0x00\n        /* \"#utility.yul\":4541:4542   */\n      0x00\n        /* \"#utility.yul\":4534:4546   */\n      revert\n        /* \"#utility.yul\":4496:4548   */\n    tag_248:\n        /* \"#utility.yul\":4589:4612   */\n      dup3\n      calldataload\n      swap2\n      pop\n        /* \"#utility.yul\":4655:4693   */\n      tag_240\n        /* \"#utility.yul\":4689:4691   */\n      0x20\n        /* \"#utility.yul\":4674:4692   */\n      dup5\n      add\n        /* \"#utility.yul\":4655:4693   */\n      tag_215\n      jump\t// in\n        /* \"#utility.yul\":4704:5637   */\n    tag_52:\n        /* \"#utility.yul\":4826:4832   */\n      0x00\n        /* \"#utility.yul\":4834:4840   */\n      0x00\n        /* \"#utility.yul\":4842:4848   */\n      0x00\n        /* \"#utility.yul\":4850:4856   */\n      0x00\n        /* \"#utility.yul\":4858:4864   */\n      0x00\n        /* \"#utility.yul\":4866:4872   */\n      0x00\n        /* \"#utility.yul\":4874:4880   */\n      0x00\n        /* \"#utility.yul\":4882:4888   */\n      0x00\n        /* \"#utility.yul\":4935:4938   */\n      0x0100\n        /* \"#utility.yul\":4923:4932   */\n      dup10\n        /* \"#utility.yul\":4914:4921   */\n      dup12\n        /* \"#utility.yul\":4910:4933   */\n      sub\n        /* \"#utility.yul\":4906:4939   */\n      slt\n        /* \"#utility.yul\":4903:4956   */\n      iszero\n      tag_251\n      jumpi\n        /* \"#utility.yul\":4952:4953   */\n      0x00\n        /* \"#utility.yul\":4949:4950   */\n      0x00\n        /* \"#utility.yul\":4942:4954   */\n      revert\n        /* \"#utility.yul\":4903:4956   */\n    tag_251:\n        /* \"#utility.yul\":4975:5004   */\n      tag_252\n        /* \"#utility.yul\":4994:5003   */\n      dup10\n        /* \"#utility.yul\":4975:5004   */\n      tag_215\n      jump\t// in\n    tag_252:\n        /* \"#utility.yul\":4965:5004   */\n      swap8\n      pop\n        /* \"#utility.yul\":5023:5061   */\n      tag_253\n        /* \"#utility.yul\":5057:5059   */\n      0x20\n        /* \"#utility.yul\":5046:5055   */\n      dup11\n        /* \"#utility.yul\":5042:5060   */\n      add\n        /* \"#utility.yul\":5023:5061   */\n      tag_215\n      jump\t// in\n    tag_253:\n        /* \"#utility.yul\":5013:5061   */\n      swap7\n      pop\n        /* \"#utility.yul\":5130:5132   */\n      0x40\n        /* \"#utility.yul\":5115:5133   */\n      dup10\n      add\n        /* \"#utility.yul\":5102:5134   */\n      calldataload\n      swap6\n      pop\n        /* \"#utility.yul\":5231:5233   */\n      0x60\n        /* \"#utility.yul\":5216:5234   */\n      dup10\n      add\n        /* \"#utility.yul\":5203:5235   */\n      calldataload\n      swap5\n      pop\n        /* \"#utility.yul\":5334:5337   */\n      0x80\n        /* \"#utility.yul\":5319:5338   */\n      dup10\n      add\n        /* \"#utility.yul\":5306:5339   */\n      calldataload\n      swap4\n      pop\n        /* \"#utility.yul\":5438:5441   */\n      0xa0\n        /* \"#utility.yul\":5423:5442   */\n      dup10\n      add\n        /* \"#utility.yul\":5410:5443   */\n      calldataload\n      swap3\n      pop\n        /* \"#utility.yul\":5488:5527   */\n      tag_254\n        /* \"#utility.yul\":5522:5525   */\n      0xc0\n        /* \"#utility.yul\":5507:5526   */\n      dup11\n      add\n        /* \"#utility.yul\":5488:5527   */\n      tag_215\n      jump\t// in\n    tag_254:\n        /* \"#utility.yul\":4704:5637   */\n      swap8\n      swap11\n      swap7\n      swap10\n      pop\n      swap5\n      swap8\n      swap4\n      swap7\n      swap3\n      swap6\n      swap2\n      swap5\n      pop\n        /* \"#utility.yul\":5478:5527   */\n      swap2\n      swap3\n        /* \"#utility.yul\":5600:5603   */\n      0xe0\n        /* \"#utility.yul\":5585:5604   */\n      add\n        /* \"#utility.yul\":5572:5605   */\n      calldataload\n      swap2\n      pop\n        /* \"#utility.yul\":4704:5637   */\n      jump\t// out\n        /* \"#utility.yul\":6311:6438   */\n    tag_216:\n        /* \"#utility.yul\":6372:6382   */\n      0x4e487b71\n        /* \"#utility.yul\":6367:6370   */\n      0xe0\n        /* \"#utility.yul\":6363:6383   */\n      shl\n        /* \"#utility.yul\":6360:6361   */\n      0x00\n        /* \"#utility.yul\":6353:6384   */\n      mstore\n        /* \"#utility.yul\":6403:6407   */\n      0x11\n        /* \"#utility.yul\":6400:6401   */\n      0x04\n        /* \"#utility.yul\":6393:6408   */\n      mstore\n        /* \"#utility.yul\":6427:6431   */\n      0x24\n        /* \"#utility.yul\":6424:6425   */\n      0x00\n        /* \"#utility.yul\":6417:6432   */\n      revert\n        /* \"#utility.yul\":6443:6611   */\n    tag_63:\n        /* \"#utility.yul\":6516:6525   */\n      dup1\n      dup3\n      mul\n        /* \"#utility.yul\":6547:6556   */\n      dup2\n      iszero\n        /* \"#utility.yul\":6564:6579   */\n      dup3\n      dup3\n      div\n        /* \"#utility.yul\":6558:6580   */\n      dup5\n      eq\n        /* \"#utility.yul\":6544:6581   */\n      or\n        /* \"#utility.yul\":6534:6605   */\n      tag_164\n      jumpi\n        /* \"#utility.yul\":6585:6603   */\n      tag_164\n      tag_216\n      jump\t// in\n        /* \"#utility.yul\":6616:6741   */\n    tag_67:\n        /* \"#utility.yul\":6681:6690   */\n      dup1\n      dup3\n      add\n        /* \"#utility.yul\":6702:6712   */\n      dup1\n      dup3\n      gt\n        /* \"#utility.yul\":6699:6735   */\n      iszero\n      tag_164\n      jumpi\n        /* \"#utility.yul\":6715:6733   */\n      tag_164\n      tag_216\n      jump\t// in\n        /* \"#utility.yul\":6746:6963   */\n    tag_69:\n        /* \"#utility.yul\":6786:6787   */\n      0x00\n        /* \"#utility.yul\":6812:6813   */\n      dup3\n        /* \"#utility.yul\":6802:6934   */\n      tag_265\n      jumpi\n        /* \"#utility.yul\":6856:6866   */\n      0x4e487b71\n        /* \"#utility.yul\":6851:6854   */\n      0xe0\n        /* \"#utility.yul\":6847:6867   */\n      shl\n        /* \"#utility.yul\":6844:6845   */\n      0x00\n        /* \"#utility.yul\":6837:6868   */\n      mstore\n        /* \"#utility.yul\":6891:6895   */\n      0x12\n        /* \"#utility.yul\":6888:6889   */\n      0x04\n        /* \"#utility.yul\":6881:6896   */\n      mstore\n        /* \"#utility.yul\":6919:6923   */\n      0x24\n        /* \"#utility.yul\":6916:6917   */\n      0x00\n        /* \"#utility.yul\":6909:6924   */\n      revert\n        /* \"#utility.yul\":6802:6934   */\n    tag_265:\n      pop\n        /* \"#utility.yul\":6948:6957   */\n      div\n      swap1\n        /* \"#utility.yul\":6746:6963   */\n      jump\t// out\n        /* \"#utility.yul\":6968:7298   */\n    tag_73:\n        /* \"#utility.yul\":7170:7172   */\n      0x20\n        /* \"#utility.yul\":7152:7173   */\n      dup1\n      dup3\n      mstore\n        /* \"#utility.yul\":7209:7210   */\n      0x07\n        /* \"#utility.yul\":7189:7207   */\n      swap1\n      dup3\n      add\n        /* \"#utility.yul\":7182:7211   */\n      mstore\n      shl(0xca, 0x115e1c1a5c9959)\n        /* \"#utility.yul\":7242:7244   */\n      0x40\n        /* \"#utility.yul\":7227:7245   */\n      dup3\n      add\n        /* \"#utility.yul\":7220:7257   */\n      mstore\n        /* \"#utility.yul\":7289:7291   */\n      0x60\n        /* \"#utility.yul\":7274:7292   */\n      add\n      swap1\n        /* \"#utility.yul\":6968:7298   */\n      jump\t// out\n        /* \"#utility.yul\":7659:7786   */\n    tag_79:\n        /* \"#utility.yul\":7720:7730   */\n      0x4e487b71\n        /* \"#utility.yul\":7715:7718   */\n      0xe0\n        /* \"#utility.yul\":7711:7731   */\n      shl\n        /* \"#utility.yul\":7708:7709   */\n      0x00\n        /* \"#utility.yul\":7701:7732   */\n      mstore\n        /* \"#utility.yul\":7751:7755   */\n      0x32\n        /* \"#utility.yul\":7748:7749   */\n      0x04\n        /* \"#utility.yul\":7741:7756   */\n      mstore\n        /* \"#utility.yul\":7775:7779   */\n      0x24\n        /* \"#utility.yul\":7772:7773   */\n      0x00\n        /* \"#utility.yul\":7765:7780   */\n      revert\n        /* \"#utility.yul\":7791:7977   */\n    tag_81:\n        /* \"#utility.yul\":7850:7856   */\n      0x00\n        /* \"#utility.yul\":7903:7905   */\n      0x20\n        /* \"#utility.yul\":7891:7900   */\n      dup3\n        /* \"#utility.yul\":7882:7889   */\n      dup5\n        /* \"#utility.yul\":7878:7901   */\n      sub\n        /* \"#utility.yul\":7874:7906   */\n      slt\n        /* \"#utility.yul\":7871:7923   */\n      iszero\n      tag_270\n      jumpi\n        /* \"#utility.yul\":7919:7920   */\n      0x00\n        /* \"#utility.yul\":7916:7917   */\n      0x00\n        /* \"#utility.yul\":7909:7921   */\n      revert\n        /* \"#utility.yul\":7871:7923   */\n    tag_270:\n        /* \"#utility.yul\":7942:7971   */\n      tag_271\n        /* \"#utility.yul\":7961:7970   */\n      dup3\n        /* \"#utility.yul\":7942:7971   */\n      tag_215\n      jump\t// in\n    tag_271:\n        /* \"#utility.yul\":7932:7971   */\n      swap4\n        /* \"#utility.yul\":7791:7977   */\n      swap3\n      pop\n      pop\n      pop\n      jump\t// out\n        /* \"#utility.yul\":9479:9607   */\n    tag_129:\n        /* \"#utility.yul\":9546:9555   */\n      dup2\n      dup2\n      sub\n        /* \"#utility.yul\":9567:9578   */\n      dup2\n      dup2\n      gt\n        /* \"#utility.yul\":9564:9601   */\n      iszero\n      tag_164\n      jumpi\n        /* \"#utility.yul\":9581:9599   */\n      tag_164\n      tag_216\n      jump\t// in\n        /* \"#utility.yul\":9612:9843   */\n    tag_132:\n      sub(shl(0x70, 0x01), 0x01)\n        /* \"#utility.yul\":9723:9761   */\n      dup3\n      dup2\n      and\n        /* \"#utility.yul\":9683:9721   */\n      dup3\n      dup3\n      and\n        /* \"#utility.yul\":9679:9762   */\n      sub\n      swap1\n        /* \"#utility.yul\":9774:9814   */\n      dup2\n      gt\n        /* \"#utility.yul\":9771:9837   */\n      iszero\n      tag_164\n      jumpi\n        /* \"#utility.yul\":9817:9835   */\n      tag_164\n      tag_216\n      jump\t// in\n        /* \"#utility.yul\":9848:10076   */\n    tag_159:\n      sub(shl(0x70, 0x01), 0x01)\n        /* \"#utility.yul\":9917:9955   */\n      dup2\n      dup2\n      and\n        /* \"#utility.yul\":9957:9995   */\n      dup4\n      dup3\n      and\n        /* \"#utility.yul\":9913:9996   */\n      add\n      swap1\n        /* \"#utility.yul\":10008:10047   */\n      dup2\n      gt\n        /* \"#utility.yul\":10005:10070   */\n      iszero\n      tag_164\n      jumpi\n        /* \"#utility.yul\":10050:10068   */\n      tag_164\n      tag_216\n      jump\t// in\n\n    auxdata: 0xa26469706673582212206f6c62f49a7f678eec9b851aa1b24212e2aafa7515b6671161d3839c453e7bef64736f6c634300081e0033\n}\n",
				"bytecode": {
					"linkReferences": {},
					"object": "6080604052348015600e575f5ffd5b5061115c8061001c5f395ff3fe608060405234801561000f575f5ffd5b5060043610610084575f3560e01c8063ac41865a11610058578063ac41865a14610140578063baa2abde14610153578063bb521a301461017b578063e8e33700146101a5575f5ffd5b8062bbf1e414610088578063054d50d4146100e057806338ed17391461010157806354b7a8f714610121575b5f5ffd5b6100bb610096366004610dbd565b5f602081905290815260409020546001600160701b0380821691600160701b90041682565b604080516001600160701b039384168152929091166020830152015b60405180910390f35b6100f36100ee366004610dd4565b6101d3565b6040519081526020016100d7565b61011461010f366004610e18565b61027c565b6040516100d79190610eb6565b6100f361012f366004610dbd565b60016020525f908152604090205481565b6100f361014e366004610ef8565b61041c565b610166610161366004610f29565b6104d4565b604080519283526020830191909152016100d7565b6100f3610189366004610f91565b600260209081525f928352604080842090915290825290205481565b6101b86101b3366004610fb2565b610708565b604080519384526020840192909252908201526060016100d7565b5f5f841180156101e257505f83115b80156101ed57505f82115b6102315760405162461bcd60e51b815260206004820152601060248201526f496e76616c696420726573657276657360801b60448201526064015b60405180910390fd5b5f61023e856103e5611037565b90505f61024b8483611037565b90505f8261025b876103e8611037565b610265919061104e565b90506102718183611061565b979650505050505050565b60608142111561029e5760405162461bcd60e51b815260040161022890611080565b600284146102ee5760405162461bcd60e51b815260206004820152601b60248201527f4f6e6c7920322d746f6b656e207061746820737570706f7274656400000000006044820152606401610228565b5f85855f818110610301576103016110a1565b905060200201602081019061031691906110b5565b90505f8686600181811061032c5761032c6110a1565b905060200201602081019061034191906110b5565b90505f61034f8a848461079a565b9050888110156103975760405162461bcd60e51b8152602060048201526013602482015272125b9cdd59999a58da595b9d081bdd5d1c1d5d606a1b6044820152606401610228565b6103a483838c848a610804565b6103b083838c84610834565b604080516002808252606082018352909160208301908036833701905050935089845f815181106103e3576103e36110a1565b6020026020010181815250508084600181518110610403576104036110a1565b6020026020010181815250505050509695505050505050565b5f5f610428848461098a565b5f818152602081815260408083208151808301909252546001600160701b038082168352600160701b90910416918101919091529192508061046b878785610a16565b915091505f8211801561047d57505f81115b6104b75760405162461bcd60e51b815260206004820152600b60248201526a4e6f20726573657276657360a81b6044820152606401610228565b816104ca82670de0b6b3a7640000611037565b6102719190611061565b5f5f824211156104f65760405162461bcd60e51b815260040161022890611080565b5f6105018a8a61098a565b5f8181526020818152604080832060019092529091205491925090806105585760405162461bcd60e51b815260206004820152600c60248201526b4e6f206c697175696469747960a01b6044820152606401610228565b81548190610570908c906001600160701b0316611037565b61057a9190611061565b8254909550819061059c908c90600160701b90046001600160701b0316611037565b6105a69190611061565b93508885101580156105b85750878410155b6105ef5760405162461bcd60e51b8152602060048201526008602482015267536c69707061676560c01b6044820152606401610228565b5f838152600260209081526040808320338452909152812080548c92906106179084906110d5565b90915550505f83815260016020526040812080548c92906106399084906110d5565b90915550508154859083905f9061065a9084906001600160701b03166110e8565b92506101000a8154816001600160701b0302191690836001600160701b0316021790555083825f01600e8282829054906101000a90046001600160701b03166106a391906110e8565b92506101000a8154816001600160701b0302191690836001600160701b031602179055506106e587868e6001600160a01b0316610a5c9092919063ffffffff16565b6106f96001600160a01b038c168886610a5c565b50505097509795505050505050565b5f5f5f8342111561072b5760405162461bcd60e51b815260040161022890611080565b5f6107368c8c61098a565b5f81815260208190526040902080549192509061076a906001600160701b0380821691600160701b9004168d8d8d8d610ac0565b909550935061077b8d8d8787610bee565b6107888286868a85610c1e565b92505050985098509895505050505050565b5f5f6107a6848461098a565b5f818152602081815260408083208151808301909252546001600160701b038082168352600160701b9091041691810191909152919250806107e9878785610a16565b915091506107f88883836101d3565b98975050505050505050565b6108196001600160a01b038616333086610d18565b61082d6001600160a01b0385168284610a5c565b5050505050565b5f61083f858561098a565b5f8181526020819052604090209091506001600160a01b0380861690871610156108f1578054849082905f9061087f9084906001600160701b0316611107565b92506101000a8154816001600160701b0302191690836001600160701b0316021790555082815f01600e8282829054906101000a90046001600160701b03166108c891906110e8565b92506101000a8154816001600160701b0302191690836001600160701b03160217905550610982565b805484908290600e90610915908490600160701b90046001600160701b0316611107565b92506101000a8154816001600160701b0302191690836001600160701b0316021790555082815f015f8282829054906101000a90046001600160701b031661095d91906110e8565b92506101000a8154816001600160701b0302191690836001600160701b031602179055505b505050505050565b5f816001600160a01b0316836001600160a01b0316106109aa57816109ac565b825b826001600160a01b0316846001600160a01b0316106109cb57836109cd565b825b6040516bffffffffffffffffffffffff19606093841b811660208301529190921b1660348201526048016040516020818303038152906040528051906020012090505b92915050565b5f5f836001600160a01b0316856001600160a01b031610610a3d5760208301518351610a45565b825160208401515b6001600160701b0391821697911695509350505050565b6040516001600160a01b03838116602483015260448201839052610abb91859182169063a9059cbb906064015b604051602081830303815290604052915060e01b6020820180516001600160e01b038381831617835250505050610d51565b505050565b5f806001600160701b038816158015610ae057506001600160701b038716155b15610aef575084905083610be3565b5f886001600160701b0316886001600160701b031688610b0f9190611037565b610b199190611061565b9050858111610b6e5783811015610b635760405162461bcd60e51b815260206004820152600e60248201526d24b739bab33334b1b4b2b73a102160911b6044820152606401610228565b869250905080610be1565b5f886001600160701b03168a6001600160701b031688610b8e9190611037565b610b989190611061565b905085811015610bdb5760405162461bcd60e51b815260206004820152600e60248201526d496e73756666696369656e74204160901b6044820152606401610228565b92508591505b505b965096945050505050565b610c036001600160a01b038516333085610d18565b610c186001600160a01b038416333084610d18565b50505050565b5f610c29848661104e565b90508060015f8881526020019081526020015f205f828254610c4b919061104e565b90915550505f8681526002602090815260408083206001600160a01b038716845290915281208054839290610c8190849061104e565b90915550508154859083905f90610ca29084906001600160701b0316611107565b92506101000a8154816001600160701b0302191690836001600160701b0316021790555083825f01600e8282829054906101000a90046001600160701b0316610ceb9190611107565b92506101000a8154816001600160701b0302191690836001600160701b0316021790555095945050505050565b6040516001600160a01b038481166024830152838116604483015260648201839052610c189186918216906323b872dd90608401610a89565b5f5f60205f8451602086015f885af180610d70576040513d5f823e3d81fd5b50505f513d91508115610d87578060011415610d94565b6001600160a01b0384163b155b15610c1857604051635274afe760e01b81526001600160a01b0385166004820152602401610228565b5f60208284031215610dcd575f5ffd5b5035919050565b5f5f5f60608486031215610de6575f5ffd5b505081359360208301359350604090920135919050565b80356001600160a01b0381168114610e13575f5ffd5b919050565b5f5f5f5f5f5f60a08789031215610e2d575f5ffd5b8635955060208701359450604087013567ffffffffffffffff811115610e51575f5ffd5b8701601f81018913610e61575f5ffd5b803567ffffffffffffffff811115610e77575f5ffd5b8960208260051b8401011115610e8b575f5ffd5b60209190910194509250610ea160608801610dfd565b95989497509295919493608090920135925050565b602080825282518282018190525f918401906040840190835b81811015610eed578351835260209384019390920191600101610ecf565b509095945050505050565b5f5f60408385031215610f09575f5ffd5b610f1283610dfd565b9150610f2060208401610dfd565b90509250929050565b5f5f5f5f5f5f5f60e0888a031215610f3f575f5ffd5b610f4888610dfd565b9650610f5660208901610dfd565b9550604088013594506060880135935060808801359250610f7960a08901610dfd565b96999598509396929591949193505060c09091013590565b5f5f60408385031215610fa2575f5ffd5b82359150610f2060208401610dfd565b5f5f5f5f5f5f5f5f610100898b031215610fca575f5ffd5b610fd389610dfd565b9750610fe160208a01610dfd565b965060408901359550606089013594506080890135935060a0890135925061100b60c08a01610dfd565b979a969950949793969295919450919260e001359150565b634e487b7160e01b5f52601160045260245ffd5b8082028115828204841417610a1057610a10611023565b80820180821115610a1057610a10611023565b5f8261107b57634e487b7160e01b5f52601260045260245ffd5b500490565b602080825260079082015266115e1c1a5c995960ca1b604082015260600190565b634e487b7160e01b5f52603260045260245ffd5b5f602082840312156110c5575f5ffd5b6110ce82610dfd565b9392505050565b81810381811115610a1057610a10611023565b6001600160701b038281168282160390811115610a1057610a10611023565b6001600160701b038181168382160190811115610a1057610a1061102356fea26469706673582212206f6c62f49a7f678eec9b851aa1b24212e2aafa7515b6671161d3839c453e7bef64736f6c634300081e0033",
					"opcodes": "PUSH1 0x80 PUSH1 0x40 MSTORE CALLVALUE DUP1 ISZERO PUSH1 0xE JUMPI PUSH0 PUSH0 REVERT JUMPDEST POP PUSH2 0x115C DUP1 PUSH2 0x1C PUSH0 CODECOPY PUSH0 RETURN INVALID PUSH1 0x80 PUSH1 0x40 MSTORE CALLVALUE DUP1 ISZERO PUSH2 0xF JUMPI PUSH0 PUSH0 REVERT JUMPDEST POP PUSH1 0x4 CALLDATASIZE LT PUSH2 0x84 JUMPI PUSH0 CALLDATALOAD PUSH1 0xE0 SHR DUP1 PUSH4 0xAC41865A GT PUSH2 0x58 JUMPI DUP1 PUSH4 0xAC41865A EQ PUSH2 0x140 JUMPI DUP1 PUSH4 0xBAA2ABDE EQ PUSH2 0x153 JUMPI DUP1 PUSH4 0xBB521A30 EQ PUSH2 0x17B JUMPI DUP1 PUSH4 0xE8E33700 EQ PUSH2 0x1A5 JUMPI PUSH0 PUSH0 REVERT JUMPDEST DUP1 PUSH3 0xBBF1E4 EQ PUSH2 0x88 JUMPI DUP1 PUSH4 0x54D50D4 EQ PUSH2 0xE0 JUMPI DUP1 PUSH4 0x38ED1739 EQ PUSH2 0x101 JUMPI DUP1 PUSH4 0x54B7A8F7 EQ PUSH2 0x121 JUMPI JUMPDEST PUSH0 PUSH0 REVERT JUMPDEST PUSH2 0xBB PUSH2 0x96 CALLDATASIZE PUSH1 0x4 PUSH2 0xDBD JUMP JUMPDEST PUSH0 PUSH1 0x20 DUP2 SWAP1 MSTORE SWAP1 DUP2 MSTORE PUSH1 0x40 SWAP1 KECCAK256 SLOAD PUSH1 0x1 PUSH1 0x1 PUSH1 0x70 SHL SUB DUP1 DUP3 AND SWAP2 PUSH1 0x1 PUSH1 0x70 SHL SWAP1 DIV AND DUP3 JUMP JUMPDEST PUSH1 0x40 DUP1 MLOAD PUSH1 0x1 PUSH1 0x1 PUSH1 0x70 SHL SUB SWAP4 DUP5 AND DUP2 MSTORE SWAP3 SWAP1 SWAP2 AND PUSH1 0x20 DUP4 ADD MSTORE ADD JUMPDEST PUSH1 0x40 MLOAD DUP1 SWAP2 SUB SWAP1 RETURN JUMPDEST PUSH2 0xF3 PUSH2 0xEE CALLDATASIZE PUSH1 0x4 PUSH2 0xDD4 JUMP JUMPDEST PUSH2 0x1D3 JUMP JUMPDEST PUSH1 0x40 MLOAD SWAP1 DUP2 MSTORE PUSH1 0x20 ADD PUSH2 0xD7 JUMP JUMPDEST PUSH2 0x114 PUSH2 0x10F CALLDATASIZE PUSH1 0x4 PUSH2 0xE18 JUMP JUMPDEST PUSH2 0x27C JUMP JUMPDEST PUSH1 0x40 MLOAD PUSH2 0xD7 SWAP2 SWAP1 PUSH2 0xEB6 JUMP JUMPDEST PUSH2 0xF3 PUSH2 0x12F CALLDATASIZE PUSH1 0x4 PUSH2 0xDBD JUMP JUMPDEST PUSH1 0x1 PUSH1 0x20 MSTORE PUSH0 SWAP1 DUP2 MSTORE PUSH1 0x40 SWAP1 KECCAK256 SLOAD DUP2 JUMP JUMPDEST PUSH2 0xF3 PUSH2 0x14E CALLDATASIZE PUSH1 0x4 PUSH2 0xEF8 JUMP JUMPDEST PUSH2 0x41C JUMP JUMPDEST PUSH2 0x166 PUSH2 0x161 CALLDATASIZE PUSH1 0x4 PUSH2 0xF29 JUMP JUMPDEST PUSH2 0x4D4 JUMP JUMPDEST PUSH1 0x40 DUP1 MLOAD SWAP3 DUP4 MSTORE PUSH1 0x20 DUP4 ADD SWAP2 SWAP1 SWAP2 MSTORE ADD PUSH2 0xD7 JUMP JUMPDEST PUSH2 0xF3 PUSH2 0x189 CALLDATASIZE PUSH1 0x4 PUSH2 0xF91 JUMP JUMPDEST PUSH1 0x2 PUSH1 0x20 SWAP1 DUP2 MSTORE PUSH0 SWAP3 DUP4 MSTORE PUSH1 0x40 DUP1 DUP5 KECCAK256 SWAP1 SWAP2 MSTORE SWAP1 DUP3 MSTORE SWAP1 KECCAK256 SLOAD DUP2 JUMP JUMPDEST PUSH2 0x1B8 PUSH2 0x1B3 CALLDATASIZE PUSH1 0x4 PUSH2 0xFB2 JUMP JUMPDEST PUSH2 0x708 JUMP JUMPDEST PUSH1 0x40 DUP1 MLOAD SWAP4 DUP5 MSTORE PUSH1 0x20 DUP5 ADD SWAP3 SWAP1 SWAP3 MSTORE SWAP1 DUP3 ADD MSTORE PUSH1 0x60 ADD PUSH2 0xD7 JUMP JUMPDEST PUSH0 PUSH0 DUP5 GT DUP1 ISZERO PUSH2 0x1E2 JUMPI POP PUSH0 DUP4 GT JUMPDEST DUP1 ISZERO PUSH2 0x1ED JUMPI POP PUSH0 DUP3 GT JUMPDEST PUSH2 0x231 JUMPI PUSH1 0x40 MLOAD PUSH3 0x461BCD PUSH1 0xE5 SHL DUP2 MSTORE PUSH1 0x20 PUSH1 0x4 DUP3 ADD MSTORE PUSH1 0x10 PUSH1 0x24 DUP3 ADD MSTORE PUSH16 0x496E76616C6964207265736572766573 PUSH1 0x80 SHL PUSH1 0x44 DUP3 ADD MSTORE PUSH1 0x64 ADD JUMPDEST PUSH1 0x40 MLOAD DUP1 SWAP2 SUB SWAP1 REVERT JUMPDEST PUSH0 PUSH2 0x23E DUP6 PUSH2 0x3E5 PUSH2 0x1037 JUMP JUMPDEST SWAP1 POP PUSH0 PUSH2 0x24B DUP5 DUP4 PUSH2 0x1037 JUMP JUMPDEST SWAP1 POP PUSH0 DUP3 PUSH2 0x25B DUP8 PUSH2 0x3E8 PUSH2 0x1037 JUMP JUMPDEST PUSH2 0x265 SWAP2 SWAP1 PUSH2 0x104E JUMP JUMPDEST SWAP1 POP PUSH2 0x271 DUP2 DUP4 PUSH2 0x1061 JUMP JUMPDEST SWAP8 SWAP7 POP POP POP POP POP POP POP JUMP JUMPDEST PUSH1 0x60 DUP2 TIMESTAMP GT ISZERO PUSH2 0x29E JUMPI PUSH1 0x40 MLOAD PUSH3 0x461BCD PUSH1 0xE5 SHL DUP2 MSTORE PUSH1 0x4 ADD PUSH2 0x228 SWAP1 PUSH2 0x1080 JUMP JUMPDEST PUSH1 0x2 DUP5 EQ PUSH2 0x2EE JUMPI PUSH1 0x40 MLOAD PUSH3 0x461BCD PUSH1 0xE5 SHL DUP2 MSTORE PUSH1 0x20 PUSH1 0x4 DUP3 ADD MSTORE PUSH1 0x1B PUSH1 0x24 DUP3 ADD MSTORE PUSH32 0x4F6E6C7920322D746F6B656E207061746820737570706F727465640000000000 PUSH1 0x44 DUP3 ADD MSTORE PUSH1 0x64 ADD PUSH2 0x228 JUMP JUMPDEST PUSH0 DUP6 DUP6 PUSH0 DUP2 DUP2 LT PUSH2 0x301 JUMPI PUSH2 0x301 PUSH2 0x10A1 JUMP JUMPDEST SWAP1 POP PUSH1 0x20 MUL ADD PUSH1 0x20 DUP2 ADD SWAP1 PUSH2 0x316 SWAP2 SWAP1 PUSH2 0x10B5 JUMP JUMPDEST SWAP1 POP PUSH0 DUP7 DUP7 PUSH1 0x1 DUP2 DUP2 LT PUSH2 0x32C JUMPI PUSH2 0x32C PUSH2 0x10A1 JUMP JUMPDEST SWAP1 POP PUSH1 0x20 MUL ADD PUSH1 0x20 DUP2 ADD SWAP1 PUSH2 0x341 SWAP2 SWAP1 PUSH2 0x10B5 JUMP JUMPDEST SWAP1 POP PUSH0 PUSH2 0x34F DUP11 DUP5 DUP5 PUSH2 0x79A JUMP JUMPDEST SWAP1 POP DUP9 DUP2 LT ISZERO PUSH2 0x397 JUMPI PUSH1 0x40 MLOAD PUSH3 0x461BCD PUSH1 0xE5 SHL DUP2 MSTORE PUSH1 0x20 PUSH1 0x4 DUP3 ADD MSTORE PUSH1 0x13 PUSH1 0x24 DUP3 ADD MSTORE PUSH19 0x125B9CDD59999A58DA595B9D081BDD5D1C1D5D PUSH1 0x6A SHL PUSH1 0x44 DUP3 ADD MSTORE PUSH1 0x64 ADD PUSH2 0x228 JUMP JUMPDEST PUSH2 0x3A4 DUP4 DUP4 DUP13 DUP5 DUP11 PUSH2 0x804 JUMP JUMPDEST PUSH2 0x3B0 DUP4 DUP4 DUP13 DUP5 PUSH2 0x834 JUMP JUMPDEST PUSH1 0x40 DUP1 MLOAD PUSH1 0x2 DUP1 DUP3 MSTORE PUSH1 0x60 DUP3 ADD DUP4 MSTORE SWAP1 SWAP2 PUSH1 0x20 DUP4 ADD SWAP1 DUP1 CALLDATASIZE DUP4 CALLDATACOPY ADD SWAP1 POP POP SWAP4 POP DUP10 DUP5 PUSH0 DUP2 MLOAD DUP2 LT PUSH2 0x3E3 JUMPI PUSH2 0x3E3 PUSH2 0x10A1 JUMP JUMPDEST PUSH1 0x20 MUL PUSH1 0x20 ADD ADD DUP2 DUP2 MSTORE POP POP DUP1 DUP5 PUSH1 0x1 DUP2 MLOAD DUP2 LT PUSH2 0x403 JUMPI PUSH2 0x403 PUSH2 0x10A1 JUMP JUMPDEST PUSH1 0x20 MUL PUSH1 0x20 ADD ADD DUP2 DUP2 MSTORE POP POP POP POP POP SWAP7 SWAP6 POP POP POP POP POP POP JUMP JUMPDEST PUSH0 PUSH0 PUSH2 0x428 DUP5 DUP5 PUSH2 0x98A JUMP JUMPDEST PUSH0 DUP2 DUP2 MSTORE PUSH1 0x20 DUP2 DUP2 MSTORE PUSH1 0x40 DUP1 DUP4 KECCAK256 DUP2 MLOAD DUP1 DUP4 ADD SWAP1 SWAP3 MSTORE SLOAD PUSH1 0x1 PUSH1 0x1 PUSH1 0x70 SHL SUB DUP1 DUP3 AND DUP4 MSTORE PUSH1 0x1 PUSH1 0x70 SHL SWAP1 SWAP2 DIV AND SWAP2 DUP2 ADD SWAP2 SWAP1 SWAP2 MSTORE SWAP2 SWAP3 POP DUP1 PUSH2 0x46B DUP8 DUP8 DUP6 PUSH2 0xA16 JUMP JUMPDEST SWAP2 POP SWAP2 POP PUSH0 DUP3 GT DUP1 ISZERO PUSH2 0x47D JUMPI POP PUSH0 DUP2 GT JUMPDEST PUSH2 0x4B7 JUMPI PUSH1 0x40 MLOAD PUSH3 0x461BCD PUSH1 0xE5 SHL DUP2 MSTORE PUSH1 0x20 PUSH1 0x4 DUP3 ADD MSTORE PUSH1 0xB PUSH1 0x24 DUP3 ADD MSTORE PUSH11 0x4E6F207265736572766573 PUSH1 0xA8 SHL PUSH1 0x44 DUP3 ADD MSTORE PUSH1 0x64 ADD PUSH2 0x228 JUMP JUMPDEST DUP2 PUSH2 0x4CA DUP3 PUSH8 0xDE0B6B3A7640000 PUSH2 0x1037 JUMP JUMPDEST PUSH2 0x271 SWAP2 SWAP1 PUSH2 0x1061 JUMP JUMPDEST PUSH0 PUSH0 DUP3 TIMESTAMP GT ISZERO PUSH2 0x4F6 JUMPI PUSH1 0x40 MLOAD PUSH3 0x461BCD PUSH1 0xE5 SHL DUP2 MSTORE PUSH1 0x4 ADD PUSH2 0x228 SWAP1 PUSH2 0x1080 JUMP JUMPDEST PUSH0 PUSH2 0x501 DUP11 DUP11 PUSH2 0x98A JUMP JUMPDEST PUSH0 DUP2 DUP2 MSTORE PUSH1 0x20 DUP2 DUP2 MSTORE PUSH1 0x40 DUP1 DUP4 KECCAK256 PUSH1 0x1 SWAP1 SWAP3 MSTORE SWAP1 SWAP2 KECCAK256 SLOAD SWAP2 SWAP3 POP SWAP1 DUP1 PUSH2 0x558 JUMPI PUSH1 0x40 MLOAD PUSH3 0x461BCD PUSH1 0xE5 SHL DUP2 MSTORE PUSH1 0x20 PUSH1 0x4 DUP3 ADD MSTORE PUSH1 0xC PUSH1 0x24 DUP3 ADD MSTORE PUSH12 0x4E6F206C6971756964697479 PUSH1 0xA0 SHL PUSH1 0x44 DUP3 ADD MSTORE PUSH1 0x64 ADD PUSH2 0x228 JUMP JUMPDEST DUP2 SLOAD DUP2 SWAP1 PUSH2 0x570 SWAP1 DUP13 SWAP1 PUSH1 0x1 PUSH1 0x1 PUSH1 0x70 SHL SUB AND PUSH2 0x1037 JUMP JUMPDEST PUSH2 0x57A SWAP2 SWAP1 PUSH2 0x1061 JUMP JUMPDEST DUP3 SLOAD SWAP1 SWAP6 POP DUP2 SWAP1 PUSH2 0x59C SWAP1 DUP13 SWAP1 PUSH1 0x1 PUSH1 0x70 SHL SWAP1 DIV PUSH1 0x1 PUSH1 0x1 PUSH1 0x70 SHL SUB AND PUSH2 0x1037 JUMP JUMPDEST PUSH2 0x5A6 SWAP2 SWAP1 PUSH2 0x1061 JUMP JUMPDEST SWAP4 POP DUP9 DUP6 LT ISZERO DUP1 ISZERO PUSH2 0x5B8 JUMPI POP DUP8 DUP5 LT ISZERO JUMPDEST PUSH2 0x5EF JUMPI PUSH1 0x40 MLOAD PUSH3 0x461BCD PUSH1 0xE5 SHL DUP2 MSTORE PUSH1 0x20 PUSH1 0x4 DUP3 ADD MSTORE PUSH1 0x8 PUSH1 0x24 DUP3 ADD MSTORE PUSH8 0x536C697070616765 PUSH1 0xC0 SHL PUSH1 0x44 DUP3 ADD MSTORE PUSH1 0x64 ADD PUSH2 0x228 JUMP JUMPDEST PUSH0 DUP4 DUP2 MSTORE PUSH1 0x2 PUSH1 0x20 SWAP1 DUP2 MSTORE PUSH1 0x40 DUP1 DUP4 KECCAK256 CALLER DUP5 MSTORE SWAP1 SWAP2 MSTORE DUP2 KECCAK256 DUP1 SLOAD DUP13 SWAP3 SWAP1 PUSH2 0x617 SWAP1 DUP5 SWAP1 PUSH2 0x10D5 JUMP JUMPDEST SWAP1 SWAP2 SSTORE POP POP PUSH0 DUP4 DUP2 MSTORE PUSH1 0x1 PUSH1 0x20 MSTORE PUSH1 0x40 DUP2 KECCAK256 DUP1 SLOAD DUP13 SWAP3 SWAP1 PUSH2 0x639 SWAP1 DUP5 SWAP1 PUSH2 0x10D5 JUMP JUMPDEST SWAP1 SWAP2 SSTORE POP POP DUP2 SLOAD DUP6 SWAP1 DUP4 SWAP1 PUSH0 SWAP1 PUSH2 0x65A SWAP1 DUP5 SWAP1 PUSH1 0x1 PUSH1 0x1 PUSH1 0x70 SHL SUB AND PUSH2 0x10E8 JUMP JUMPDEST SWAP3 POP PUSH2 0x100 EXP DUP2 SLOAD DUP2 PUSH1 0x1 PUSH1 0x1 PUSH1 0x70 SHL SUB MUL NOT AND SWAP1 DUP4 PUSH1 0x1 PUSH1 0x1 PUSH1 0x70 SHL SUB AND MUL OR SWAP1 SSTORE POP DUP4 DUP3 PUSH0 ADD PUSH1 0xE DUP3 DUP3 DUP3 SWAP1 SLOAD SWAP1 PUSH2 0x100 EXP SWAP1 DIV PUSH1 0x1 PUSH1 0x1 PUSH1 0x70 SHL SUB AND PUSH2 0x6A3 SWAP2 SWAP1 PUSH2 0x10E8 JUMP JUMPDEST SWAP3 POP PUSH2 0x100 EXP DUP2 SLOAD DUP2 PUSH1 0x1 PUSH1 0x1 PUSH1 0x70 SHL SUB MUL NOT AND SWAP1 DUP4 PUSH1 0x1 PUSH1 0x1 PUSH1 0x70 SHL SUB AND MUL OR SWAP1 SSTORE POP PUSH2 0x6E5 DUP8 DUP7 DUP15 PUSH1 0x1 PUSH1 0x1 PUSH1 0xA0 SHL SUB AND PUSH2 0xA5C SWAP1 SWAP3 SWAP2 SWAP1 PUSH4 0xFFFFFFFF AND JUMP JUMPDEST PUSH2 0x6F9 PUSH1 0x1 PUSH1 0x1 PUSH1 0xA0 SHL SUB DUP13 AND DUP9 DUP7 PUSH2 0xA5C JUMP JUMPDEST POP POP POP SWAP8 POP SWAP8 SWAP6 POP POP POP POP POP POP JUMP JUMPDEST PUSH0 PUSH0 PUSH0 DUP4 TIMESTAMP GT ISZERO PUSH2 0x72B JUMPI PUSH1 0x40 MLOAD PUSH3 0x461BCD PUSH1 0xE5 SHL DUP2 MSTORE PUSH1 0x4 ADD PUSH2 0x228 SWAP1 PUSH2 0x1080 JUMP JUMPDEST PUSH0 PUSH2 0x736 DUP13 DUP13 PUSH2 0x98A JUMP JUMPDEST PUSH0 DUP2 DUP2 MSTORE PUSH1 0x20 DUP2 SWAP1 MSTORE PUSH1 0x40 SWAP1 KECCAK256 DUP1 SLOAD SWAP2 SWAP3 POP SWAP1 PUSH2 0x76A SWAP1 PUSH1 0x1 PUSH1 0x1 PUSH1 0x70 SHL SUB DUP1 DUP3 AND SWAP2 PUSH1 0x1 PUSH1 0x70 SHL SWAP1 DIV AND DUP14 DUP14 DUP14 DUP14 PUSH2 0xAC0 JUMP JUMPDEST SWAP1 SWAP6 POP SWAP4 POP PUSH2 0x77B DUP14 DUP14 DUP8 DUP8 PUSH2 0xBEE JUMP JUMPDEST PUSH2 0x788 DUP3 DUP7 DUP7 DUP11 DUP6 PUSH2 0xC1E JUMP JUMPDEST SWAP3 POP POP POP SWAP9 POP SWAP9 POP SWAP9 SWAP6 POP POP POP POP POP POP JUMP JUMPDEST PUSH0 PUSH0 PUSH2 0x7A6 DUP5 DUP5 PUSH2 0x98A JUMP JUMPDEST PUSH0 DUP2 DUP2 MSTORE PUSH1 0x20 DUP2 DUP2 MSTORE PUSH1 0x40 DUP1 DUP4 KECCAK256 DUP2 MLOAD DUP1 DUP4 ADD SWAP1 SWAP3 MSTORE SLOAD PUSH1 0x1 PUSH1 0x1 PUSH1 0x70 SHL SUB DUP1 DUP3 AND DUP4 MSTORE PUSH1 0x1 PUSH1 0x70 SHL SWAP1 SWAP2 DIV AND SWAP2 DUP2 ADD SWAP2 SWAP1 SWAP2 MSTORE SWAP2 SWAP3 POP DUP1 PUSH2 0x7E9 DUP8 DUP8 DUP6 PUSH2 0xA16 JUMP JUMPDEST SWAP2 POP SWAP2 POP PUSH2 0x7F8 DUP9 DUP4 DUP4 PUSH2 0x1D3 JUMP JUMPDEST SWAP9 SWAP8 POP POP POP POP POP POP POP POP JUMP JUMPDEST PUSH2 0x819 PUSH1 0x1 PUSH1 0x1 PUSH1 0xA0 SHL SUB DUP7 AND CALLER ADDRESS DUP7 PUSH2 0xD18 JUMP JUMPDEST PUSH2 0x82D PUSH1 0x1 PUSH1 0x1 PUSH1 0xA0 SHL SUB DUP6 AND DUP3 DUP5 PUSH2 0xA5C JUMP JUMPDEST POP POP POP POP POP JUMP JUMPDEST PUSH0 PUSH2 0x83F DUP6 DUP6 PUSH2 0x98A JUMP JUMPDEST PUSH0 DUP2 DUP2 MSTORE PUSH1 0x20 DUP2 SWAP1 MSTORE PUSH1 0x40 SWAP1 KECCAK256 SWAP1 SWAP2 POP PUSH1 0x1 PUSH1 0x1 PUSH1 0xA0 SHL SUB DUP1 DUP7 AND SWAP1 DUP8 AND LT ISZERO PUSH2 0x8F1 JUMPI DUP1 SLOAD DUP5 SWAP1 DUP3 SWAP1 PUSH0 SWAP1 PUSH2 0x87F SWAP1 DUP5 SWAP1 PUSH1 0x1 PUSH1 0x1 PUSH1 0x70 SHL SUB AND PUSH2 0x1107 JUMP JUMPDEST SWAP3 POP PUSH2 0x100 EXP DUP2 SLOAD DUP2 PUSH1 0x1 PUSH1 0x1 PUSH1 0x70 SHL SUB MUL NOT AND SWAP1 DUP4 PUSH1 0x1 PUSH1 0x1 PUSH1 0x70 SHL SUB AND MUL OR SWAP1 SSTORE POP DUP3 DUP2 PUSH0 ADD PUSH1 0xE DUP3 DUP3 DUP3 SWAP1 SLOAD SWAP1 PUSH2 0x100 EXP SWAP1 DIV PUSH1 0x1 PUSH1 0x1 PUSH1 0x70 SHL SUB AND PUSH2 0x8C8 SWAP2 SWAP1 PUSH2 0x10E8 JUMP JUMPDEST SWAP3 POP PUSH2 0x100 EXP DUP2 SLOAD DUP2 PUSH1 0x1 PUSH1 0x1 PUSH1 0x70 SHL SUB MUL NOT AND SWAP1 DUP4 PUSH1 0x1 PUSH1 0x1 PUSH1 0x70 SHL SUB AND MUL OR SWAP1 SSTORE POP PUSH2 0x982 JUMP JUMPDEST DUP1 SLOAD DUP5 SWAP1 DUP3 SWAP1 PUSH1 0xE SWAP1 PUSH2 0x915 SWAP1 DUP5 SWAP1 PUSH1 0x1 PUSH1 0x70 SHL SWAP1 DIV PUSH1 0x1 PUSH1 0x1 PUSH1 0x70 SHL SUB AND PUSH2 0x1107 JUMP JUMPDEST SWAP3 POP PUSH2 0x100 EXP DUP2 SLOAD DUP2 PUSH1 0x1 PUSH1 0x1 PUSH1 0x70 SHL SUB MUL NOT AND SWAP1 DUP4 PUSH1 0x1 PUSH1 0x1 PUSH1 0x70 SHL SUB AND MUL OR SWAP1 SSTORE POP DUP3 DUP2 PUSH0 ADD PUSH0 DUP3 DUP3 DUP3 SWAP1 SLOAD SWAP1 PUSH2 0x100 EXP SWAP1 DIV PUSH1 0x1 PUSH1 0x1 PUSH1 0x70 SHL SUB AND PUSH2 0x95D SWAP2 SWAP1 PUSH2 0x10E8 JUMP JUMPDEST SWAP3 POP PUSH2 0x100 EXP DUP2 SLOAD DUP2 PUSH1 0x1 PUSH1 0x1 PUSH1 0x70 SHL SUB MUL NOT AND SWAP1 DUP4 PUSH1 0x1 PUSH1 0x1 PUSH1 0x70 SHL SUB AND MUL OR SWAP1 SSTORE POP JUMPDEST POP POP POP POP POP POP JUMP JUMPDEST PUSH0 DUP2 PUSH1 0x1 PUSH1 0x1 PUSH1 0xA0 SHL SUB AND DUP4 PUSH1 0x1 PUSH1 0x1 PUSH1 0xA0 SHL SUB AND LT PUSH2 0x9AA JUMPI DUP2 PUSH2 0x9AC JUMP JUMPDEST DUP3 JUMPDEST DUP3 PUSH1 0x1 PUSH1 0x1 PUSH1 0xA0 SHL SUB AND DUP5 PUSH1 0x1 PUSH1 0x1 PUSH1 0xA0 SHL SUB AND LT PUSH2 0x9CB JUMPI DUP4 PUSH2 0x9CD JUMP JUMPDEST DUP3 JUMPDEST PUSH1 0x40 MLOAD PUSH12 0xFFFFFFFFFFFFFFFFFFFFFFFF NOT PUSH1 0x60 SWAP4 DUP5 SHL DUP2 AND PUSH1 0x20 DUP4 ADD MSTORE SWAP2 SWAP1 SWAP3 SHL AND PUSH1 0x34 DUP3 ADD MSTORE PUSH1 0x48 ADD PUSH1 0x40 MLOAD PUSH1 0x20 DUP2 DUP4 SUB SUB DUP2 MSTORE SWAP1 PUSH1 0x40 MSTORE DUP1 MLOAD SWAP1 PUSH1 0x20 ADD KECCAK256 SWAP1 POP JUMPDEST SWAP3 SWAP2 POP POP JUMP JUMPDEST PUSH0 PUSH0 DUP4 PUSH1 0x1 PUSH1 0x1 PUSH1 0xA0 SHL SUB AND DUP6 PUSH1 0x1 PUSH1 0x1 PUSH1 0xA0 SHL SUB AND LT PUSH2 0xA3D JUMPI PUSH1 0x20 DUP4 ADD MLOAD DUP4 MLOAD PUSH2 0xA45 JUMP JUMPDEST DUP3 MLOAD PUSH1 0x20 DUP5 ADD MLOAD JUMPDEST PUSH1 0x1 PUSH1 0x1 PUSH1 0x70 SHL SUB SWAP2 DUP3 AND SWAP8 SWAP2 AND SWAP6 POP SWAP4 POP POP POP POP JUMP JUMPDEST PUSH1 0x40 MLOAD PUSH1 0x1 PUSH1 0x1 PUSH1 0xA0 SHL SUB DUP4 DUP2 AND PUSH1 0x24 DUP4 ADD MSTORE PUSH1 0x44 DUP3 ADD DUP4 SWAP1 MSTORE PUSH2 0xABB SWAP2 DUP6 SWAP2 DUP3 AND SWAP1 PUSH4 0xA9059CBB SWAP1 PUSH1 0x64 ADD JUMPDEST PUSH1 0x40 MLOAD PUSH1 0x20 DUP2 DUP4 SUB SUB DUP2 MSTORE SWAP1 PUSH1 0x40 MSTORE SWAP2 POP PUSH1 0xE0 SHL PUSH1 0x20 DUP3 ADD DUP1 MLOAD PUSH1 0x1 PUSH1 0x1 PUSH1 0xE0 SHL SUB DUP4 DUP2 DUP4 AND OR DUP4 MSTORE POP POP POP POP PUSH2 0xD51 JUMP JUMPDEST POP POP POP JUMP JUMPDEST PUSH0 DUP1 PUSH1 0x1 PUSH1 0x1 PUSH1 0x70 SHL SUB DUP9 AND ISZERO DUP1 ISZERO PUSH2 0xAE0 JUMPI POP PUSH1 0x1 PUSH1 0x1 PUSH1 0x70 SHL SUB DUP8 AND ISZERO JUMPDEST ISZERO PUSH2 0xAEF JUMPI POP DUP5 SWAP1 POP DUP4 PUSH2 0xBE3 JUMP JUMPDEST PUSH0 DUP9 PUSH1 0x1 PUSH1 0x1 PUSH1 0x70 SHL SUB AND DUP9 PUSH1 0x1 PUSH1 0x1 PUSH1 0x70 SHL SUB AND DUP9 PUSH2 0xB0F SWAP2 SWAP1 PUSH2 0x1037 JUMP JUMPDEST PUSH2 0xB19 SWAP2 SWAP1 PUSH2 0x1061 JUMP JUMPDEST SWAP1 POP DUP6 DUP2 GT PUSH2 0xB6E JUMPI DUP4 DUP2 LT ISZERO PUSH2 0xB63 JUMPI PUSH1 0x40 MLOAD PUSH3 0x461BCD PUSH1 0xE5 SHL DUP2 MSTORE PUSH1 0x20 PUSH1 0x4 DUP3 ADD MSTORE PUSH1 0xE PUSH1 0x24 DUP3 ADD MSTORE PUSH14 0x24B739BAB33334B1B4B2B73A1021 PUSH1 0x91 SHL PUSH1 0x44 DUP3 ADD MSTORE PUSH1 0x64 ADD PUSH2 0x228 JUMP JUMPDEST DUP7 SWAP3 POP SWAP1 POP DUP1 PUSH2 0xBE1 JUMP JUMPDEST PUSH0 DUP9 PUSH1 0x1 PUSH1 0x1 PUSH1 0x70 SHL SUB AND DUP11 PUSH1 0x1 PUSH1 0x1 PUSH1 0x70 SHL SUB AND DUP9 PUSH2 0xB8E SWAP2 SWAP1 PUSH2 0x1037 JUMP JUMPDEST PUSH2 0xB98 SWAP2 SWAP1 PUSH2 0x1061 JUMP JUMPDEST SWAP1 POP DUP6 DUP2 LT ISZERO PUSH2 0xBDB JUMPI PUSH1 0x40 MLOAD PUSH3 0x461BCD PUSH1 0xE5 SHL DUP2 MSTORE PUSH1 0x20 PUSH1 0x4 DUP3 ADD MSTORE PUSH1 0xE PUSH1 0x24 DUP3 ADD MSTORE PUSH14 0x496E73756666696369656E742041 PUSH1 0x90 SHL PUSH1 0x44 DUP3 ADD MSTORE PUSH1 0x64 ADD PUSH2 0x228 JUMP JUMPDEST SWAP3 POP DUP6 SWAP2 POP JUMPDEST POP JUMPDEST SWAP7 POP SWAP7 SWAP5 POP POP POP POP POP JUMP JUMPDEST PUSH2 0xC03 PUSH1 0x1 PUSH1 0x1 PUSH1 0xA0 SHL SUB DUP6 AND CALLER ADDRESS DUP6 PUSH2 0xD18 JUMP JUMPDEST PUSH2 0xC18 PUSH1 0x1 PUSH1 0x1 PUSH1 0xA0 SHL SUB DUP5 AND CALLER ADDRESS DUP5 PUSH2 0xD18 JUMP JUMPDEST POP POP POP POP JUMP JUMPDEST PUSH0 PUSH2 0xC29 DUP5 DUP7 PUSH2 0x104E JUMP JUMPDEST SWAP1 POP DUP1 PUSH1 0x1 PUSH0 DUP9 DUP2 MSTORE PUSH1 0x20 ADD SWAP1 DUP2 MSTORE PUSH1 0x20 ADD PUSH0 KECCAK256 PUSH0 DUP3 DUP3 SLOAD PUSH2 0xC4B SWAP2 SWAP1 PUSH2 0x104E JUMP JUMPDEST SWAP1 SWAP2 SSTORE POP POP PUSH0 DUP7 DUP2 MSTORE PUSH1 0x2 PUSH1 0x20 SWAP1 DUP2 MSTORE PUSH1 0x40 DUP1 DUP4 KECCAK256 PUSH1 0x1 PUSH1 0x1 PUSH1 0xA0 SHL SUB DUP8 AND DUP5 MSTORE SWAP1 SWAP2 MSTORE DUP2 KECCAK256 DUP1 SLOAD DUP4 SWAP3 SWAP1 PUSH2 0xC81 SWAP1 DUP5 SWAP1 PUSH2 0x104E JUMP JUMPDEST SWAP1 SWAP2 SSTORE POP POP DUP2 SLOAD DUP6 SWAP1 DUP4 SWAP1 PUSH0 SWAP1 PUSH2 0xCA2 SWAP1 DUP5 SWAP1 PUSH1 0x1 PUSH1 0x1 PUSH1 0x70 SHL SUB AND PUSH2 0x1107 JUMP JUMPDEST SWAP3 POP PUSH2 0x100 EXP DUP2 SLOAD DUP2 PUSH1 0x1 PUSH1 0x1 PUSH1 0x70 SHL SUB MUL NOT AND SWAP1 DUP4 PUSH1 0x1 PUSH1 0x1 PUSH1 0x70 SHL SUB AND MUL OR SWAP1 SSTORE POP DUP4 DUP3 PUSH0 ADD PUSH1 0xE DUP3 DUP3 DUP3 SWAP1 SLOAD SWAP1 PUSH2 0x100 EXP SWAP1 DIV PUSH1 0x1 PUSH1 0x1 PUSH1 0x70 SHL SUB AND PUSH2 0xCEB SWAP2 SWAP1 PUSH2 0x1107 JUMP JUMPDEST SWAP3 POP PUSH2 0x100 EXP DUP2 SLOAD DUP2 PUSH1 0x1 PUSH1 0x1 PUSH1 0x70 SHL SUB MUL NOT AND SWAP1 DUP4 PUSH1 0x1 PUSH1 0x1 PUSH1 0x70 SHL SUB AND MUL OR SWAP1 SSTORE POP SWAP6 SWAP5 POP POP POP POP POP JUMP JUMPDEST PUSH1 0x40 MLOAD PUSH1 0x1 PUSH1 0x1 PUSH1 0xA0 SHL SUB DUP5 DUP2 AND PUSH1 0x24 DUP4 ADD MSTORE DUP4 DUP2 AND PUSH1 0x44 DUP4 ADD MSTORE PUSH1 0x64 DUP3 ADD DUP4 SWAP1 MSTORE PUSH2 0xC18 SWAP2 DUP7 SWAP2 DUP3 AND SWAP1 PUSH4 0x23B872DD SWAP1 PUSH1 0x84 ADD PUSH2 0xA89 JUMP JUMPDEST PUSH0 PUSH0 PUSH1 0x20 PUSH0 DUP5 MLOAD PUSH1 0x20 DUP7 ADD PUSH0 DUP9 GAS CALL DUP1 PUSH2 0xD70 JUMPI PUSH1 0x40 MLOAD RETURNDATASIZE PUSH0 DUP3 RETURNDATACOPY RETURNDATASIZE DUP2 REVERT JUMPDEST POP POP PUSH0 MLOAD RETURNDATASIZE SWAP2 POP DUP2 ISZERO PUSH2 0xD87 JUMPI DUP1 PUSH1 0x1 EQ ISZERO PUSH2 0xD94 JUMP JUMPDEST PUSH1 0x1 PUSH1 0x1 PUSH1 0xA0 SHL SUB DUP5 AND EXTCODESIZE ISZERO JUMPDEST ISZERO PUSH2 0xC18 JUMPI PUSH1 0x40 MLOAD PUSH4 0x5274AFE7 PUSH1 0xE0 SHL DUP2 MSTORE PUSH1 0x1 PUSH1 0x1 PUSH1 0xA0 SHL SUB DUP6 AND PUSH1 0x4 DUP3 ADD MSTORE PUSH1 0x24 ADD PUSH2 0x228 JUMP JUMPDEST PUSH0 PUSH1 0x20 DUP3 DUP5 SUB SLT ISZERO PUSH2 0xDCD JUMPI PUSH0 PUSH0 REVERT JUMPDEST POP CALLDATALOAD SWAP2 SWAP1 POP JUMP JUMPDEST PUSH0 PUSH0 PUSH0 PUSH1 0x60 DUP5 DUP7 SUB SLT ISZERO PUSH2 0xDE6 JUMPI PUSH0 PUSH0 REVERT JUMPDEST POP POP DUP2 CALLDATALOAD SWAP4 PUSH1 0x20 DUP4 ADD CALLDATALOAD SWAP4 POP PUSH1 0x40 SWAP1 SWAP3 ADD CALLDATALOAD SWAP2 SWAP1 POP JUMP JUMPDEST DUP1 CALLDATALOAD PUSH1 0x1 PUSH1 0x1 PUSH1 0xA0 SHL SUB DUP2 AND DUP2 EQ PUSH2 0xE13 JUMPI PUSH0 PUSH0 REVERT JUMPDEST SWAP2 SWAP1 POP JUMP JUMPDEST PUSH0 PUSH0 PUSH0 PUSH0 PUSH0 PUSH0 PUSH1 0xA0 DUP8 DUP10 SUB SLT ISZERO PUSH2 0xE2D JUMPI PUSH0 PUSH0 REVERT JUMPDEST DUP7 CALLDATALOAD SWAP6 POP PUSH1 0x20 DUP8 ADD CALLDATALOAD SWAP5 POP PUSH1 0x40 DUP8 ADD CALLDATALOAD PUSH8 0xFFFFFFFFFFFFFFFF DUP2 GT ISZERO PUSH2 0xE51 JUMPI PUSH0 PUSH0 REVERT JUMPDEST DUP8 ADD PUSH1 0x1F DUP2 ADD DUP10 SGT PUSH2 0xE61 JUMPI PUSH0 PUSH0 REVERT JUMPDEST DUP1 CALLDATALOAD PUSH8 0xFFFFFFFFFFFFFFFF DUP2 GT ISZERO PUSH2 0xE77 JUMPI PUSH0 PUSH0 REVERT JUMPDEST DUP10 PUSH1 0x20 DUP3 PUSH1 0x5 SHL DUP5 ADD ADD GT ISZERO PUSH2 0xE8B JUMPI PUSH0 PUSH0 REVERT JUMPDEST PUSH1 0x20 SWAP2 SWAP1 SWAP2 ADD SWAP5 POP SWAP3 POP PUSH2 0xEA1 PUSH1 0x60 DUP9 ADD PUSH2 0xDFD JUMP JUMPDEST SWAP6 SWAP9 SWAP5 SWAP8 POP SWAP3 SWAP6 SWAP2 SWAP5 SWAP4 PUSH1 0x80 SWAP1 SWAP3 ADD CALLDATALOAD SWAP3 POP POP JUMP JUMPDEST PUSH1 0x20 DUP1 DUP3 MSTORE DUP3 MLOAD DUP3 DUP3 ADD DUP2 SWAP1 MSTORE PUSH0 SWAP2 DUP5 ADD SWAP1 PUSH1 0x40 DUP5 ADD SWAP1 DUP4 JUMPDEST DUP2 DUP2 LT ISZERO PUSH2 0xEED JUMPI DUP4 MLOAD DUP4 MSTORE PUSH1 0x20 SWAP4 DUP5 ADD SWAP4 SWAP1 SWAP3 ADD SWAP2 PUSH1 0x1 ADD PUSH2 0xECF JUMP JUMPDEST POP SWAP1 SWAP6 SWAP5 POP POP POP POP POP JUMP JUMPDEST PUSH0 PUSH0 PUSH1 0x40 DUP4 DUP6 SUB SLT ISZERO PUSH2 0xF09 JUMPI PUSH0 PUSH0 REVERT JUMPDEST PUSH2 0xF12 DUP4 PUSH2 0xDFD JUMP JUMPDEST SWAP2 POP PUSH2 0xF20 PUSH1 0x20 DUP5 ADD PUSH2 0xDFD JUMP JUMPDEST SWAP1 POP SWAP3 POP SWAP3 SWAP1 POP JUMP JUMPDEST PUSH0 PUSH0 PUSH0 PUSH0 PUSH0 PUSH0 PUSH0 PUSH1 0xE0 DUP9 DUP11 SUB SLT ISZERO PUSH2 0xF3F JUMPI PUSH0 PUSH0 REVERT JUMPDEST PUSH2 0xF48 DUP9 PUSH2 0xDFD JUMP JUMPDEST SWAP7 POP PUSH2 0xF56 PUSH1 0x20 DUP10 ADD PUSH2 0xDFD JUMP JUMPDEST SWAP6 POP PUSH1 0x40 DUP9 ADD CALLDATALOAD SWAP5 POP PUSH1 0x60 DUP9 ADD CALLDATALOAD SWAP4 POP PUSH1 0x80 DUP9 ADD CALLDATALOAD SWAP3 POP PUSH2 0xF79 PUSH1 0xA0 DUP10 ADD PUSH2 0xDFD JUMP JUMPDEST SWAP7 SWAP10 SWAP6 SWAP9 POP SWAP4 SWAP7 SWAP3 SWAP6 SWAP2 SWAP5 SWAP2 SWAP4 POP POP PUSH1 0xC0 SWAP1 SWAP2 ADD CALLDATALOAD SWAP1 JUMP JUMPDEST PUSH0 PUSH0 PUSH1 0x40 DUP4 DUP6 SUB SLT ISZERO PUSH2 0xFA2 JUMPI PUSH0 PUSH0 REVERT JUMPDEST DUP3 CALLDATALOAD SWAP2 POP PUSH2 0xF20 PUSH1 0x20 DUP5 ADD PUSH2 0xDFD JUMP JUMPDEST PUSH0 PUSH0 PUSH0 PUSH0 PUSH0 PUSH0 PUSH0 PUSH0 PUSH2 0x100 DUP10 DUP12 SUB SLT ISZERO PUSH2 0xFCA JUMPI PUSH0 PUSH0 REVERT JUMPDEST PUSH2 0xFD3 DUP10 PUSH2 0xDFD JUMP JUMPDEST SWAP8 POP PUSH2 0xFE1 PUSH1 0x20 DUP11 ADD PUSH2 0xDFD JUMP JUMPDEST SWAP7 POP PUSH1 0x40 DUP10 ADD CALLDATALOAD SWAP6 POP PUSH1 0x60 DUP10 ADD CALLDATALOAD SWAP5 POP PUSH1 0x80 DUP10 ADD CALLDATALOAD SWAP4 POP PUSH1 0xA0 DUP10 ADD CALLDATALOAD SWAP3 POP PUSH2 0x100B PUSH1 0xC0 DUP11 ADD PUSH2 0xDFD JUMP JUMPDEST SWAP8 SWAP11 SWAP7 SWAP10 POP SWAP5 SWAP8 SWAP4 SWAP7 SWAP3 SWAP6 SWAP2 SWAP5 POP SWAP2 SWAP3 PUSH1 0xE0 ADD CALLDATALOAD SWAP2 POP JUMP JUMPDEST PUSH4 0x4E487B71 PUSH1 0xE0 SHL PUSH0 MSTORE PUSH1 0x11 PUSH1 0x4 MSTORE PUSH1 0x24 PUSH0 REVERT JUMPDEST DUP1 DUP3 MUL DUP2 ISZERO DUP3 DUP3 DIV DUP5 EQ OR PUSH2 0xA10 JUMPI PUSH2 0xA10 PUSH2 0x1023 JUMP JUMPDEST DUP1 DUP3 ADD DUP1 DUP3 GT ISZERO PUSH2 0xA10 JUMPI PUSH2 0xA10 PUSH2 0x1023 JUMP JUMPDEST PUSH0 DUP3 PUSH2 0x107B JUMPI PUSH4 0x4E487B71 PUSH1 0xE0 SHL PUSH0 MSTORE PUSH1 0x12 PUSH1 0x4 MSTORE PUSH1 0x24 PUSH0 REVERT JUMPDEST POP DIV SWAP1 JUMP JUMPDEST PUSH1 0x20 DUP1 DUP3 MSTORE PUSH1 0x7 SWAP1 DUP3 ADD MSTORE PUSH7 0x115E1C1A5C9959 PUSH1 0xCA SHL PUSH1 0x40 DUP3 ADD MSTORE PUSH1 0x60 ADD SWAP1 JUMP JUMPDEST PUSH4 0x4E487B71 PUSH1 0xE0 SHL PUSH0 MSTORE PUSH1 0x32 PUSH1 0x4 MSTORE PUSH1 0x24 PUSH0 REVERT JUMPDEST PUSH0 PUSH1 0x20 DUP3 DUP5 SUB SLT ISZERO PUSH2 0x10C5 JUMPI PUSH0 PUSH0 REVERT JUMPDEST PUSH2 0x10CE DUP3 PUSH2 0xDFD JUMP JUMPDEST SWAP4 SWAP3 POP POP POP JUMP JUMPDEST DUP2 DUP2 SUB DUP2 DUP2 GT ISZERO PUSH2 0xA10 JUMPI PUSH2 0xA10 PUSH2 0x1023 JUMP JUMPDEST PUSH1 0x1 PUSH1 0x1 PUSH1 0x70 SHL SUB DUP3 DUP2 AND DUP3 DUP3 AND SUB SWAP1 DUP2 GT ISZERO PUSH2 0xA10 JUMPI PUSH2 0xA10 PUSH2 0x1023 JUMP JUMPDEST PUSH1 0x1 PUSH1 0x1 PUSH1 0x70 SHL SUB DUP2 DUP2 AND DUP4 DUP3 AND ADD SWAP1 DUP2 GT ISZERO PUSH2 0xA10 JUMPI PUSH2 0xA10 PUSH2 0x1023 JUMP INVALID LOG2 PUSH5 0x6970667358 0x22 SLT KECCAK256 PUSH16 0x6C62F49A7F678EEC9B851AA1B24212E2 0xAA STATICCALL PUSH22 0x15B6671161D3839C453E7BEF64736F6C634300081E00 CALLER "
				},
				"gasEstimates": {
					"creation": {
						"codeDepositCost": "888800",
						"executionCost": "920",
						"totalCost": "889720"
					},
					"external": {
						"addLiquidity(address,address,uint256,uint256,uint256,uint256,address,uint256)": "infinite",
						"getAmountOut(uint256,uint256,uint256)": "infinite",
						"getPrice(address,address)": "infinite",
						"liquidityBalance(bytes32,address)": "2657",
						"removeLiquidity(address,address,uint256,uint256,uint256,address,uint256)": "infinite",
						"reserves(bytes32)": "2523",
						"swapExactTokensForTokens(uint256,uint256,address[],address,uint256)": "infinite",
						"totalLiquidity(bytes32)": "2502"
					},
					"internal": {
						"_calculateLiquidityAmounts(uint112,uint112,uint256,uint256,uint256,uint256)": "infinite",
						"_calculateSwapOutput(uint256,address,address)": "infinite",
						"_getPairHash(address,address)": "infinite",
						"_getSortedReserves(address,address,struct SimpleSwap.Reserve memory)": "infinite",
						"_mintLiquidityAndUpdateReserves(bytes32,uint256,uint256,address,struct SimpleSwap.Reserve storage pointer)": "infinite",
						"_performAddLiquidityTransfers(address,address,uint256,uint256)": "infinite",
						"_performSwapTransfers(address,address,uint256,uint256,address)": "infinite",
						"_updateReservesAfterSwap(address,address,uint256,uint256)": "infinite"
					}
				},
				"methodIdentifiers": {
					"addLiquidity(address,address,uint256,uint256,uint256,uint256,address,uint256)": "e8e33700",
					"getAmountOut(uint256,uint256,uint256)": "054d50d4",
					"getPrice(address,address)": "ac41865a",
					"liquidityBalance(bytes32,address)": "bb521a30",
					"removeLiquidity(address,address,uint256,uint256,uint256,address,uint256)": "baa2abde",
					"reserves(bytes32)": "00bbf1e4",
					"swapExactTokensForTokens(uint256,uint256,address[],address,uint256)": "38ed1739",
					"totalLiquidity(bytes32)": "54b7a8f7"
				}
			},
			"storageLayout": {
				"storage": [
					{
						"astId": 664,
						"contract": "contracts/1_Storage.sol:SimpleSwap",
						"label": "reserves",
						"offset": 0,
						"slot": "0",
						"type": "t_mapping(t_bytes32,t_struct(Reserve)658_storage)"
					},
					{
						"astId": 669,
						"contract": "contracts/1_Storage.sol:SimpleSwap",
						"label": "totalLiquidity",
						"offset": 0,
						"slot": "1",
						"type": "t_mapping(t_bytes32,t_uint256)"
					},
					{
						"astId": 676,
						"contract": "contracts/1_Storage.sol:SimpleSwap",
						"label": "liquidityBalance",
						"offset": 0,
						"slot": "2",
						"type": "t_mapping(t_bytes32,t_mapping(t_address,t_uint256))"
					}
				],
				"types": {
					"t_address": {
						"encoding": "inplace",
						"label": "address",
						"numberOfBytes": "20"
					},
					"t_bytes32": {
						"encoding": "inplace",
						"label": "bytes32",
						"numberOfBytes": "32"
					},
					"t_mapping(t_address,t_uint256)": {
						"encoding": "mapping",
						"key": "t_address",
						"label": "mapping(address => uint256)",
						"numberOfBytes": "32",
						"value": "t_uint256"
					},
					"t_mapping(t_bytes32,t_mapping(t_address,t_uint256))": {
						"encoding": "mapping",
						"key": "t_bytes32",
						"label": "mapping(bytes32 => mapping(address => uint256))",
						"numberOfBytes": "32",
						"value": "t_mapping(t_address,t_uint256)"
					},
					"t_mapping(t_bytes32,t_struct(Reserve)658_storage)": {
						"encoding": "mapping",
						"key": "t_bytes32",
						"label": "mapping(bytes32 => struct SimpleSwap.Reserve)",
						"numberOfBytes": "32",
						"value": "t_struct(Reserve)658_storage"
					},
					"t_mapping(t_bytes32,t_uint256)": {
						"encoding": "mapping",
						"key": "t_bytes32",
						"label": "mapping(bytes32 => uint256)",
						"numberOfBytes": "32",
						"value": "t_uint256"
					},
					"t_struct(Reserve)658_storage": {
						"encoding": "inplace",
						"label": "struct SimpleSwap.Reserve",
						"members": [
							{
								"astId": 655,
								"contract": "contracts/1_Storage.sol:SimpleSwap",
								"label": "reserveA",
								"offset": 0,
								"slot": "0",
								"type": "t_uint112"
							},
							{
								"astId": 657,
								"contract": "contracts/1_Storage.sol:SimpleSwap",
								"label": "reserveB",
								"offset": 14,
								"slot": "0",
								"type": "t_uint112"
							}
						],
						"numberOfBytes": "32"
					},
					"t_uint112": {
						"encoding": "inplace",
						"label": "uint112",
						"numberOfBytes": "14"
					},
					"t_uint256": {
						"encoding": "inplace",
						"label": "uint256",
						"numberOfBytes": "32"
					}
				}
			},
			"userdoc": {
				"kind": "user",
				"methods": {
					"addLiquidity(address,address,uint256,uint256,uint256,uint256,address,uint256)": {
						"notice": "Adds liquidity to a token pair pool"
					},
					"getAmountOut(uint256,uint256,uint256)": {
						"notice": "Calculates output tokens for a given input using Uniswap formula"
					},
					"getPrice(address,address)": {
						"notice": "Returns the price of tokenB in terms of tokenA"
					},
					"removeLiquidity(address,address,uint256,uint256,uint256,address,uint256)": {
						"notice": "Removes liquidity and returns tokens to the user"
					},
					"swapExactTokensForTokens(uint256,uint256,address[],address,uint256)": {
						"notice": "Swaps exact amountIn of tokenIn for tokenOut"
					}
				},
				"notice": "This contract allows users to add/remove liquidity, swap tokens, fetch price and calculate output amounts.",
				"version": 1
			}
		}
	}
}