{
	"contracts/SimpleSwap.sol": {
		"SimpleSwap": {
			"abi": [
				{
					"inputs": [
						{
							"internalType": "address",
							"name": "token",
							"type": "address"
						}
					],
					"name": "SafeERC20FailedOperation",
					"type": "error"
				},
				{
					"inputs": [
						{
							"internalType": "address",
							"name": "tokenA",
							"type": "address"
						},
						{
							"internalType": "address",
							"name": "tokenB",
							"type": "address"
						},
						{
							"internalType": "uint256",
							"name": "amountADesired",
							"type": "uint256"
						},
						{
							"internalType": "uint256",
							"name": "amountBDesired",
							"type": "uint256"
						},
						{
							"internalType": "uint256",
							"name": "amountAMin",
							"type": "uint256"
						},
						{
							"internalType": "uint256",
							"name": "amountBMin",
							"type": "uint256"
						},
						{
							"internalType": "address",
							"name": "to",
							"type": "address"
						},
						{
							"internalType": "uint256",
							"name": "deadline",
							"type": "uint256"
						}
					],
					"name": "addLiquidity",
					"outputs": [
						{
							"internalType": "uint256",
							"name": "amountA",
							"type": "uint256"
						},
						{
							"internalType": "uint256",
							"name": "amountB",
							"type": "uint256"
						},
						{
							"internalType": "uint256",
							"name": "liquidity",
							"type": "uint256"
						}
					],
					"stateMutability": "nonpayable",
					"type": "function"
				},
				{
					"inputs": [
						{
							"internalType": "uint256",
							"name": "amountIn",
							"type": "uint256"
						},
						{
							"internalType": "uint256",
							"name": "reserveIn",
							"type": "uint256"
						},
						{
							"internalType": "uint256",
							"name": "reserveOut",
							"type": "uint256"
						}
					],
					"name": "getAmountOut",
					"outputs": [
						{
							"internalType": "uint256",
							"name": "amountOut",
							"type": "uint256"
						}
					],
					"stateMutability": "pure",
					"type": "function"
				},
				{
					"inputs": [
						{
							"internalType": "address",
							"name": "tokenA",
							"type": "address"
						},
						{
							"internalType": "address",
							"name": "tokenB",
							"type": "address"
						}
					],
					"name": "getPrice",
					"outputs": [
						{
							"internalType": "uint256",
							"name": "price",
							"type": "uint256"
						}
					],
					"stateMutability": "view",
					"type": "function"
				},
				{
					"inputs": [
						{
							"internalType": "bytes32",
							"name": "",
							"type": "bytes32"
						},
						{
							"internalType": "address",
							"name": "",
							"type": "address"
						}
					],
					"name": "liquidityBalance",
					"outputs": [
						{
							"internalType": "uint256",
							"name": "",
							"type": "uint256"
						}
					],
					"stateMutability": "view",
					"type": "function"
				},
				{
					"inputs": [
						{
							"internalType": "address",
							"name": "tokenA",
							"type": "address"
						},
						{
							"internalType": "address",
							"name": "tokenB",
							"type": "address"
						},
						{
							"internalType": "uint256",
							"name": "liquidity",
							"type": "uint256"
						},
						{
							"internalType": "uint256",
							"name": "amountAMin",
							"type": "uint256"
						},
						{
							"internalType": "uint256",
							"name": "amountBMin",
							"type": "uint256"
						},
						{
							"internalType": "address",
							"name": "to",
							"type": "address"
						},
						{
							"internalType": "uint256",
							"name": "deadline",
							"type": "uint256"
						}
					],
					"name": "removeLiquidity",
					"outputs": [
						{
							"internalType": "uint256",
							"name": "amountA",
							"type": "uint256"
						},
						{
							"internalType": "uint256",
							"name": "amountB",
							"type": "uint256"
						}
					],
					"stateMutability": "nonpayable",
					"type": "function"
				},
				{
					"inputs": [
						{
							"internalType": "bytes32",
							"name": "",
							"type": "bytes32"
						}
					],
					"name": "reserves",
					"outputs": [
						{
							"internalType": "uint112",
							"name": "reserveA",
							"type": "uint112"
						},
						{
							"internalType": "uint112",
							"name": "reserveB",
							"type": "uint112"
						}
					],
					"stateMutability": "view",
					"type": "function"
				},
				{
					"inputs": [
						{
							"internalType": "uint256",
							"name": "amountIn",
							"type": "uint256"
						},
						{
							"internalType": "uint256",
							"name": "amountOutMin",
							"type": "uint256"
						},
						{
							"internalType": "address[]",
							"name": "path",
							"type": "address[]"
						},
						{
							"internalType": "address",
							"name": "to",
							"type": "address"
						},
						{
							"internalType": "uint256",
							"name": "deadline",
							"type": "uint256"
						}
					],
					"name": "swapExactTokensForTokens",
					"outputs": [
						{
							"internalType": "uint256[]",
							"name": "amounts",
							"type": "uint256[]"
						}
					],
					"stateMutability": "nonpayable",
					"type": "function"
				},
				{
					"inputs": [
						{
							"internalType": "bytes32",
							"name": "",
							"type": "bytes32"
						}
					],
					"name": "totalLiquidity",
					"outputs": [
						{
							"internalType": "uint256",
							"name": "",
							"type": "uint256"
						}
					],
					"stateMutability": "view",
					"type": "function"
				}
			],
			"devdoc": {
				"author": "Valentino Salguero",
				"custom:dev-run-script": "./scripts/deploy_with_ethers.ts",
				"details": "Inspired by Uniswap, but simplified for educational purposes.",
				"errors": {
					"SafeERC20FailedOperation(address)": [
						{
							"details": "An operation with an ERC-20 token failed."
						}
					]
				},
				"kind": "dev",
				"methods": {
					"addLiquidity(address,address,uint256,uint256,uint256,uint256,address,uint256)": {
						"params": {
							"amountADesired": "Desired amount of token A to add",
							"amountAMin": "Minimum acceptable amount of token A",
							"amountBDesired": "Desired amount of token B to add",
							"amountBMin": "Minimum acceptable amount of token B",
							"deadline": "Timestamp after which the transaction is invalid",
							"to": "Recipient of the liquidity tokens",
							"tokenA": "Address of token A",
							"tokenB": "Address of token B"
						},
						"returns": {
							"amountA": "Actual amount of token A added",
							"amountB": "Actual amount of token B added",
							"liquidity": "Amount of liquidity tokens minted"
						}
					},
					"getAmountOut(uint256,uint256,uint256)": {
						"params": {
							"amountIn": "Input amount",
							"reserveIn": "Reserve of input token",
							"reserveOut": "Reserve of output token"
						},
						"returns": {
							"amountOut": "Amount of output tokens after fee"
						}
					},
					"getPrice(address,address)": {
						"params": {
							"tokenA": "Address of token A",
							"tokenB": "Address of token B"
						},
						"returns": {
							"price": "Price as tokenB/tokenA scaled by 1e18"
						}
					},
					"removeLiquidity(address,address,uint256,uint256,uint256,address,uint256)": {
						"params": {
							"amountAMin": "Minimum acceptable amount of token A",
							"amountBMin": "Minimum acceptable amount of token B",
							"deadline": "Timestamp after which the transaction is invalid",
							"liquidity": "Amount of liquidity tokens to burn",
							"to": "Address to receive withdrawn tokens",
							"tokenA": "Address of token A",
							"tokenB": "Address of token B"
						},
						"returns": {
							"amountA": "Amount of token A received",
							"amountB": "Amount of token B received"
						}
					},
					"swapExactTokensForTokens(uint256,uint256,address[],address,uint256)": {
						"params": {
							"amountIn": "Exact amount of input tokens to swap",
							"amountOutMin": "Minimum amount of output tokens required",
							"deadline": "Timestamp after which the transaction is invalid",
							"path": "Array with [tokenIn, tokenOut]",
							"to": "Address to receive output tokens"
						},
						"returns": {
							"amounts": "Array containing input and output amounts"
						}
					}
				},
				"stateVariables": {
					"liquidityBalance": {
						"details": "Tracks each user's liquidity share in a given pair"
					},
					"reserves": {
						"details": "Maps the hash of a token pair to its reserve data"
					},
					"totalLiquidity": {
						"details": "Maps the pair hash to the total liquidity of the pool"
					}
				},
				"title": "SimpleSwap - A minimal Uniswap-like DEX for ERC-20 tokens",
				"version": 1
			},
			"evm": {
				"assembly": "    /* \"contracts/SimpleSwap.sol\":544:11469  contract SimpleSwap {... */\n  mstore(0x40, 0x80)\n  callvalue\n  dup1\n  iszero\n  tag_1\n  jumpi\n  revert(0x00, 0x00)\ntag_1:\n  pop\n  dataSize(sub_0)\n  dup1\n  dataOffset(sub_0)\n  0x00\n  codecopy\n  0x00\n  return\nstop\n\nsub_0: assembly {\n        /* \"contracts/SimpleSwap.sol\":544:11469  contract SimpleSwap {... */\n      mstore(0x40, 0x80)\n      callvalue\n      dup1\n      iszero\n      tag_1\n      jumpi\n      revert(0x00, 0x00)\n    tag_1:\n      pop\n      jumpi(tag_2, lt(calldatasize, 0x04))\n      shr(0xe0, calldataload(0x00))\n      dup1\n      0xac41865a\n      gt\n      tag_11\n      jumpi\n      dup1\n      0xac41865a\n      eq\n      tag_7\n      jumpi\n      dup1\n      0xbaa2abde\n      eq\n      tag_8\n      jumpi\n      dup1\n      0xbb521a30\n      eq\n      tag_9\n      jumpi\n      dup1\n      0xe8e33700\n      eq\n      tag_10\n      jumpi\n      jump(tag_2)\n    tag_11:\n      dup1\n      0xbbf1e4\n      eq\n      tag_3\n      jumpi\n      dup1\n      0x054d50d4\n      eq\n      tag_4\n      jumpi\n      dup1\n      0x38ed1739\n      eq\n      tag_5\n      jumpi\n      dup1\n      0x54b7a8f7\n      eq\n      tag_6\n      jumpi\n    tag_2:\n      revert(0x00, 0x00)\n        /* \"contracts/SimpleSwap.sol\":803:846  mapping(bytes32 => Reserve) public reserves */\n    tag_3:\n      tag_12\n      0x04\n      dup1\n      calldatasize\n      sub\n      dup2\n      add\n      swap1\n      tag_13\n      swap2\n      swap1\n      tag_14\n      jump\t// in\n    tag_13:\n      tag_15\n      jump\t// in\n    tag_12:\n      mload(0x40)\n      tag_16\n      swap3\n      swap2\n      swap1\n      tag_17\n      jump\t// in\n    tag_16:\n      mload(0x40)\n      dup1\n      swap2\n      sub\n      swap1\n      return\n        /* \"contracts/SimpleSwap.sol\":6879:7302  function getAmountOut(uint amountIn, uint reserveIn, uint reserveOut) public pure returns (uint amountOut) {... */\n    tag_4:\n      tag_18\n      0x04\n      dup1\n      calldatasize\n      sub\n      dup2\n      add\n      swap1\n      tag_19\n      swap2\n      swap1\n      tag_20\n      jump\t// in\n    tag_19:\n      tag_21\n      jump\t// in\n    tag_18:\n      mload(0x40)\n      tag_22\n      swap2\n      swap1\n      tag_23\n      jump\t// in\n    tag_22:\n      mload(0x40)\n      dup1\n      swap2\n      sub\n      swap1\n      return\n        /* \"contracts/SimpleSwap.sol\":5060:5997  function swapExactTokensForTokens(... */\n    tag_5:\n      tag_24\n      0x04\n      dup1\n      calldatasize\n      sub\n      dup2\n      add\n      swap1\n      tag_25\n      swap2\n      swap1\n      tag_26\n      jump\t// in\n    tag_25:\n      tag_27\n      jump\t// in\n    tag_24:\n      mload(0x40)\n      tag_28\n      swap2\n      swap1\n      tag_29\n      jump\t// in\n    tag_28:\n      mload(0x40)\n      dup1\n      swap2\n      sub\n      swap1\n      return\n        /* \"contracts/SimpleSwap.sol\":920:966  mapping(bytes32 => uint) public totalLiquidity */\n    tag_6:\n      tag_30\n      0x04\n      dup1\n      calldatasize\n      sub\n      dup2\n      add\n      swap1\n      tag_31\n      swap2\n      swap1\n      tag_14\n      jump\t// in\n    tag_31:\n      tag_32\n      jump\t// in\n    tag_30:\n      mload(0x40)\n      tag_33\n      swap2\n      swap1\n      tag_23\n      jump\t// in\n    tag_33:\n      mload(0x40)\n      dup1\n      swap2\n      sub\n      swap1\n      return\n        /* \"contracts/SimpleSwap.sol\":6208:6597  function getPrice(address tokenA, address tokenB) external view returns (uint price) {... */\n    tag_7:\n      tag_34\n      0x04\n      dup1\n      calldatasize\n      sub\n      dup2\n      add\n      swap1\n      tag_35\n      swap2\n      swap1\n      tag_36\n      jump\t// in\n    tag_35:\n      tag_37\n      jump\t// in\n    tag_34:\n      mload(0x40)\n      tag_38\n      swap2\n      swap1\n      tag_23\n      jump\t// in\n    tag_38:\n      mload(0x40)\n      dup1\n      swap2\n      sub\n      swap1\n      return\n        /* \"contracts/SimpleSwap.sol\":3513:4622  function removeLiquidity(... */\n    tag_8:\n      tag_39\n      0x04\n      dup1\n      calldatasize\n      sub\n      dup2\n      add\n      swap1\n      tag_40\n      swap2\n      swap1\n      tag_41\n      jump\t// in\n    tag_40:\n      tag_42\n      jump\t// in\n    tag_39:\n      mload(0x40)\n      tag_43\n      swap3\n      swap2\n      swap1\n      tag_44\n      jump\t// in\n    tag_43:\n      mload(0x40)\n      dup1\n      swap2\n      sub\n      swap1\n      return\n        /* \"contracts/SimpleSwap.sol\":1037:1105  mapping(bytes32 => mapping(address => uint)) public liquidityBalance */\n    tag_9:\n      tag_45\n      0x04\n      dup1\n      calldatasize\n      sub\n      dup2\n      add\n      swap1\n      tag_46\n      swap2\n      swap1\n      tag_47\n      jump\t// in\n    tag_46:\n      tag_48\n      jump\t// in\n    tag_45:\n      mload(0x40)\n      tag_49\n      swap2\n      swap1\n      tag_23\n      jump\t// in\n    tag_49:\n      mload(0x40)\n      dup1\n      swap2\n      sub\n      swap1\n      return\n        /* \"contracts/SimpleSwap.sol\":1793:2945  function addLiquidity(... */\n    tag_10:\n      tag_50\n      0x04\n      dup1\n      calldatasize\n      sub\n      dup2\n      add\n      swap1\n      tag_51\n      swap2\n      swap1\n      tag_52\n      jump\t// in\n    tag_51:\n      tag_53\n      jump\t// in\n    tag_50:\n      mload(0x40)\n      tag_54\n      swap4\n      swap3\n      swap2\n      swap1\n      tag_55\n      jump\t// in\n    tag_54:\n      mload(0x40)\n      dup1\n      swap2\n      sub\n      swap1\n      return\n        /* \"contracts/SimpleSwap.sol\":803:846  mapping(bytes32 => Reserve) public reserves */\n    tag_15:\n      mstore(0x20, 0x00)\n      dup1\n      0x00\n      mstore\n      keccak256(0x00, 0x40)\n      0x00\n      swap2\n      pop\n      swap1\n      pop\n      dup1\n      0x00\n      add\n      0x00\n      swap1\n      sload\n      swap1\n      0x0100\n      exp\n      swap1\n      div\n      0xffffffffffffffffffffffffffff\n      and\n      swap1\n      dup1\n      0x00\n      add\n      0x0e\n      swap1\n      sload\n      swap1\n      0x0100\n      exp\n      swap1\n      div\n      0xffffffffffffffffffffffffffff\n      and\n      swap1\n      pop\n      dup3\n      jump\t// out\n        /* \"contracts/SimpleSwap.sol\":6879:7302  function getAmountOut(uint amountIn, uint reserveIn, uint reserveOut) public pure returns (uint amountOut) {... */\n    tag_21:\n        /* \"contracts/SimpleSwap.sol\":6970:6984  uint amountOut */\n      0x00\n        /* \"contracts/SimpleSwap.sol\":7015:7016  0 */\n      0x00\n        /* \"contracts/SimpleSwap.sol\":7004:7012  amountIn */\n      dup5\n        /* \"contracts/SimpleSwap.sol\":7004:7016  amountIn > 0 */\n      gt\n        /* \"contracts/SimpleSwap.sol\":7004:7033  amountIn > 0 && reserveIn > 0 */\n      dup1\n      iszero\n      tag_57\n      jumpi\n      pop\n        /* \"contracts/SimpleSwap.sol\":7032:7033  0 */\n      0x00\n        /* \"contracts/SimpleSwap.sol\":7020:7029  reserveIn */\n      dup4\n        /* \"contracts/SimpleSwap.sol\":7020:7033  reserveIn > 0 */\n      gt\n        /* \"contracts/SimpleSwap.sol\":7004:7033  amountIn > 0 && reserveIn > 0 */\n    tag_57:\n        /* \"contracts/SimpleSwap.sol\":7004:7051  amountIn > 0 && reserveIn > 0 && reserveOut > 0 */\n      dup1\n      iszero\n      tag_58\n      jumpi\n      pop\n        /* \"contracts/SimpleSwap.sol\":7050:7051  0 */\n      0x00\n        /* \"contracts/SimpleSwap.sol\":7037:7047  reserveOut */\n      dup3\n        /* \"contracts/SimpleSwap.sol\":7037:7051  reserveOut > 0 */\n      gt\n        /* \"contracts/SimpleSwap.sol\":7004:7051  amountIn > 0 && reserveIn > 0 && reserveOut > 0 */\n    tag_58:\n        /* \"contracts/SimpleSwap.sol\":6996:7072  require(amountIn > 0 && reserveIn > 0 && reserveOut > 0, \"Invalid reserves\") */\n      tag_59\n      jumpi\n      mload(0x40)\n      0x08c379a000000000000000000000000000000000000000000000000000000000\n      dup2\n      mstore\n      0x04\n      add\n      tag_60\n      swap1\n      tag_61\n      jump\t// in\n    tag_60:\n      mload(0x40)\n      dup1\n      swap2\n      sub\n      swap1\n      revert\n    tag_59:\n        /* \"contracts/SimpleSwap.sol\":7083:7103  uint amountInWithFee */\n      0x00\n        /* \"contracts/SimpleSwap.sol\":7117:7120  997 */\n      0x03e5\n        /* \"contracts/SimpleSwap.sol\":7106:7114  amountIn */\n      dup6\n        /* \"contracts/SimpleSwap.sol\":7106:7120  amountIn * 997 */\n      tag_62\n      swap2\n      swap1\n      tag_63\n      jump\t// in\n    tag_62:\n        /* \"contracts/SimpleSwap.sol\":7083:7120  uint amountInWithFee = amountIn * 997 */\n      swap1\n      pop\n        /* \"contracts/SimpleSwap.sol\":7142:7156  uint numerator */\n      0x00\n        /* \"contracts/SimpleSwap.sol\":7177:7187  reserveOut */\n      dup4\n        /* \"contracts/SimpleSwap.sol\":7159:7174  amountInWithFee */\n      dup3\n        /* \"contracts/SimpleSwap.sol\":7159:7187  amountInWithFee * reserveOut */\n      tag_64\n      swap2\n      swap1\n      tag_63\n      jump\t// in\n    tag_64:\n        /* \"contracts/SimpleSwap.sol\":7142:7187  uint numerator = amountInWithFee * reserveOut */\n      swap1\n      pop\n        /* \"contracts/SimpleSwap.sol\":7197:7213  uint denominator */\n      0x00\n        /* \"contracts/SimpleSwap.sol\":7235:7250  amountInWithFee */\n      dup3\n        /* \"contracts/SimpleSwap.sol\":7228:7232  1000 */\n      0x03e8\n        /* \"contracts/SimpleSwap.sol\":7216:7225  reserveIn */\n      dup8\n        /* \"contracts/SimpleSwap.sol\":7216:7232  reserveIn * 1000 */\n      tag_65\n      swap2\n      swap1\n      tag_63\n      jump\t// in\n    tag_65:\n        /* \"contracts/SimpleSwap.sol\":7216:7250  reserveIn * 1000 + amountInWithFee */\n      tag_66\n      swap2\n      swap1\n      tag_67\n      jump\t// in\n    tag_66:\n        /* \"contracts/SimpleSwap.sol\":7197:7250  uint denominator = reserveIn * 1000 + amountInWithFee */\n      swap1\n      pop\n        /* \"contracts/SimpleSwap.sol\":7284:7295  denominator */\n      dup1\n        /* \"contracts/SimpleSwap.sol\":7272:7281  numerator */\n      dup3\n        /* \"contracts/SimpleSwap.sol\":7272:7295  numerator / denominator */\n      tag_68\n      swap2\n      swap1\n      tag_69\n      jump\t// in\n    tag_68:\n        /* \"contracts/SimpleSwap.sol\":7260:7295  amountOut = numerator / denominator */\n      swap4\n      pop\n        /* \"contracts/SimpleSwap.sol\":6986:7302  {... */\n      pop\n      pop\n      pop\n        /* \"contracts/SimpleSwap.sol\":6879:7302  function getAmountOut(uint amountIn, uint reserveIn, uint reserveOut) public pure returns (uint amountOut) {... */\n      swap4\n      swap3\n      pop\n      pop\n      pop\n      jump\t// out\n        /* \"contracts/SimpleSwap.sol\":5060:5997  function swapExactTokensForTokens(... */\n    tag_27:\n        /* \"contracts/SimpleSwap.sol\":5244:5265  uint[] memory amounts */\n      0x60\n        /* \"contracts/SimpleSwap.sol\":5304:5312  deadline */\n      dup2\n        /* \"contracts/SimpleSwap.sol\":5285:5300  block.timestamp */\n      timestamp\n        /* \"contracts/SimpleSwap.sol\":5285:5312  block.timestamp <= deadline */\n      gt\n      iszero\n        /* \"contracts/SimpleSwap.sol\":5277:5324  require(block.timestamp <= deadline, \"Expired\") */\n      tag_71\n      jumpi\n      mload(0x40)\n      0x08c379a000000000000000000000000000000000000000000000000000000000\n      dup2\n      mstore\n      0x04\n      add\n      tag_72\n      swap1\n      tag_73\n      jump\t// in\n    tag_72:\n      mload(0x40)\n      dup1\n      swap2\n      sub\n      swap1\n      revert\n    tag_71:\n        /* \"contracts/SimpleSwap.sol\":5357:5358  2 */\n      0x02\n        /* \"contracts/SimpleSwap.sol\":5342:5346  path */\n      dup6\n      dup6\n        /* \"contracts/SimpleSwap.sol\":5342:5353  path.length */\n      swap1\n      pop\n        /* \"contracts/SimpleSwap.sol\":5342:5358  path.length == 2 */\n      eq\n        /* \"contracts/SimpleSwap.sol\":5334:5390  require(path.length == 2, \"Only 2-token path supported\") */\n      tag_74\n      jumpi\n      mload(0x40)\n      0x08c379a000000000000000000000000000000000000000000000000000000000\n      dup2\n      mstore\n      0x04\n      add\n      tag_75\n      swap1\n      tag_76\n      jump\t// in\n    tag_75:\n      mload(0x40)\n      dup1\n      swap2\n      sub\n      swap1\n      revert\n    tag_74:\n        /* \"contracts/SimpleSwap.sol\":5401:5416  address tokenIn */\n      0x00\n        /* \"contracts/SimpleSwap.sol\":5419:5423  path */\n      dup6\n      dup6\n        /* \"contracts/SimpleSwap.sol\":5424:5425  0 */\n      0x00\n        /* \"contracts/SimpleSwap.sol\":5419:5426  path[0] */\n      dup2\n      dup2\n      lt\n      tag_77\n      jumpi\n      tag_78\n      tag_79\n      jump\t// in\n    tag_78:\n    tag_77:\n      swap1\n      pop\n      0x20\n      mul\n      add\n      0x20\n      dup2\n      add\n      swap1\n      tag_80\n      swap2\n      swap1\n      tag_81\n      jump\t// in\n    tag_80:\n        /* \"contracts/SimpleSwap.sol\":5401:5426  address tokenIn = path[0] */\n      swap1\n      pop\n        /* \"contracts/SimpleSwap.sol\":5436:5452  address tokenOut */\n      0x00\n        /* \"contracts/SimpleSwap.sol\":5455:5459  path */\n      dup7\n      dup7\n        /* \"contracts/SimpleSwap.sol\":5460:5461  1 */\n      0x01\n        /* \"contracts/SimpleSwap.sol\":5455:5462  path[1] */\n      dup2\n      dup2\n      lt\n      tag_82\n      jumpi\n      tag_83\n      tag_79\n      jump\t// in\n    tag_83:\n    tag_82:\n      swap1\n      pop\n      0x20\n      mul\n      add\n      0x20\n      dup2\n      add\n      swap1\n      tag_84\n      swap2\n      swap1\n      tag_81\n      jump\t// in\n    tag_84:\n        /* \"contracts/SimpleSwap.sol\":5436:5462  address tokenOut = path[1] */\n      swap1\n      pop\n        /* \"contracts/SimpleSwap.sol\":5512:5526  uint amountOut */\n      0x00\n        /* \"contracts/SimpleSwap.sol\":5529:5578  _calculateSwapOutput(amountIn, tokenIn, tokenOut) */\n      tag_85\n        /* \"contracts/SimpleSwap.sol\":5550:5558  amountIn */\n      dup11\n        /* \"contracts/SimpleSwap.sol\":5560:5567  tokenIn */\n      dup5\n        /* \"contracts/SimpleSwap.sol\":5569:5577  tokenOut */\n      dup5\n        /* \"contracts/SimpleSwap.sol\":5529:5549  _calculateSwapOutput */\n      tag_86\n        /* \"contracts/SimpleSwap.sol\":5529:5578  _calculateSwapOutput(amountIn, tokenIn, tokenOut) */\n      jump\t// in\n    tag_85:\n        /* \"contracts/SimpleSwap.sol\":5512:5578  uint amountOut = _calculateSwapOutput(amountIn, tokenIn, tokenOut) */\n      swap1\n      pop\n        /* \"contracts/SimpleSwap.sol\":5609:5621  amountOutMin */\n      dup9\n        /* \"contracts/SimpleSwap.sol\":5596:5605  amountOut */\n      dup2\n        /* \"contracts/SimpleSwap.sol\":5596:5621  amountOut >= amountOutMin */\n      lt\n      iszero\n        /* \"contracts/SimpleSwap.sol\":5588:5645  require(amountOut >= amountOutMin, \"Insufficient output\") */\n      tag_87\n      jumpi\n      mload(0x40)\n      0x08c379a000000000000000000000000000000000000000000000000000000000\n      dup2\n      mstore\n      0x04\n      add\n      tag_88\n      swap1\n      tag_89\n      jump\t// in\n    tag_88:\n      mload(0x40)\n      dup1\n      swap2\n      sub\n      swap1\n      revert\n    tag_87:\n        /* \"contracts/SimpleSwap.sol\":5690:5755  _performSwapTransfers(tokenIn, tokenOut, amountIn, amountOut, to) */\n      tag_90\n        /* \"contracts/SimpleSwap.sol\":5712:5719  tokenIn */\n      dup4\n        /* \"contracts/SimpleSwap.sol\":5721:5729  tokenOut */\n      dup4\n        /* \"contracts/SimpleSwap.sol\":5731:5739  amountIn */\n      dup13\n        /* \"contracts/SimpleSwap.sol\":5741:5750  amountOut */\n      dup5\n        /* \"contracts/SimpleSwap.sol\":5752:5754  to */\n      dup11\n        /* \"contracts/SimpleSwap.sol\":5690:5711  _performSwapTransfers */\n      tag_91\n        /* \"contracts/SimpleSwap.sol\":5690:5755  _performSwapTransfers(tokenIn, tokenOut, amountIn, amountOut, to) */\n      jump\t// in\n    tag_90:\n        /* \"contracts/SimpleSwap.sol\":5793:5857  _updateReservesAfterSwap(tokenIn, tokenOut, amountIn, amountOut) */\n      tag_92\n        /* \"contracts/SimpleSwap.sol\":5818:5825  tokenIn */\n      dup4\n        /* \"contracts/SimpleSwap.sol\":5827:5835  tokenOut */\n      dup4\n        /* \"contracts/SimpleSwap.sol\":5837:5845  amountIn */\n      dup13\n        /* \"contracts/SimpleSwap.sol\":5847:5856  amountOut */\n      dup5\n        /* \"contracts/SimpleSwap.sol\":5793:5817  _updateReservesAfterSwap */\n      tag_93\n        /* \"contracts/SimpleSwap.sol\":5793:5857  _updateReservesAfterSwap(tokenIn, tokenOut, amountIn, amountOut) */\n      jump\t// in\n    tag_92:\n        /* \"contracts/SimpleSwap.sol\":5925:5926  2 */\n      0x02\n        /* \"contracts/SimpleSwap.sol\":5914:5927  new uint[](2) */\n      0xffffffffffffffff\n      dup2\n      gt\n      iszero\n      tag_94\n      jumpi\n      tag_95\n      tag_96\n      jump\t// in\n    tag_95:\n    tag_94:\n      mload(0x40)\n      swap1\n      dup1\n      dup3\n      mstore\n      dup1\n      0x20\n      mul\n      0x20\n      add\n      dup3\n      add\n      0x40\n      mstore\n      dup1\n      iszero\n      tag_97\n      jumpi\n      dup2\n      0x20\n      add\n      0x20\n      dup3\n      mul\n      dup1\n      calldatasize\n      dup4\n      calldatacopy\n      dup1\n      dup3\n      add\n      swap2\n      pop\n      pop\n      swap1\n      pop\n    tag_97:\n      pop\n        /* \"contracts/SimpleSwap.sol\":5904:5927  amounts = new uint[](2) */\n      swap4\n      pop\n        /* \"contracts/SimpleSwap.sol\":5950:5958  amountIn */\n      dup10\n        /* \"contracts/SimpleSwap.sol\":5937:5944  amounts */\n      dup5\n        /* \"contracts/SimpleSwap.sol\":5945:5946  0 */\n      0x00\n        /* \"contracts/SimpleSwap.sol\":5937:5947  amounts[0] */\n      dup2\n      mload\n      dup2\n      lt\n      tag_98\n      jumpi\n      tag_99\n      tag_79\n      jump\t// in\n    tag_99:\n    tag_98:\n      0x20\n      mul\n      0x20\n      add\n      add\n        /* \"contracts/SimpleSwap.sol\":5937:5958  amounts[0] = amountIn */\n      dup2\n      dup2\n      mstore\n      pop\n      pop\n        /* \"contracts/SimpleSwap.sol\":5981:5990  amountOut */\n      dup1\n        /* \"contracts/SimpleSwap.sol\":5968:5975  amounts */\n      dup5\n        /* \"contracts/SimpleSwap.sol\":5976:5977  1 */\n      0x01\n        /* \"contracts/SimpleSwap.sol\":5968:5978  amounts[1] */\n      dup2\n      mload\n      dup2\n      lt\n      tag_100\n      jumpi\n      tag_101\n      tag_79\n      jump\t// in\n    tag_101:\n    tag_100:\n      0x20\n      mul\n      0x20\n      add\n      add\n        /* \"contracts/SimpleSwap.sol\":5968:5990  amounts[1] = amountOut */\n      dup2\n      dup2\n      mstore\n      pop\n      pop\n        /* \"contracts/SimpleSwap.sol\":5267:5997  {... */\n      pop\n      pop\n      pop\n        /* \"contracts/SimpleSwap.sol\":5060:5997  function swapExactTokensForTokens(... */\n      swap7\n      swap6\n      pop\n      pop\n      pop\n      pop\n      pop\n      pop\n      jump\t// out\n        /* \"contracts/SimpleSwap.sol\":920:966  mapping(bytes32 => uint) public totalLiquidity */\n    tag_32:\n      mstore(0x20, 0x01)\n      dup1\n      0x00\n      mstore\n      keccak256(0x00, 0x40)\n      0x00\n      swap2\n      pop\n      swap1\n      pop\n      sload\n      dup2\n      jump\t// out\n        /* \"contracts/SimpleSwap.sol\":6208:6597  function getPrice(address tokenA, address tokenB) external view returns (uint price) {... */\n    tag_37:\n        /* \"contracts/SimpleSwap.sol\":6281:6291  uint price */\n      0x00\n        /* \"contracts/SimpleSwap.sol\":6303:6319  bytes32 pairHash */\n      0x00\n        /* \"contracts/SimpleSwap.sol\":6322:6350  _getPairHash(tokenA, tokenB) */\n      tag_103\n        /* \"contracts/SimpleSwap.sol\":6335:6341  tokenA */\n      dup5\n        /* \"contracts/SimpleSwap.sol\":6343:6349  tokenB */\n      dup5\n        /* \"contracts/SimpleSwap.sol\":6322:6334  _getPairHash */\n      tag_104\n        /* \"contracts/SimpleSwap.sol\":6322:6350  _getPairHash(tokenA, tokenB) */\n      jump\t// in\n    tag_103:\n        /* \"contracts/SimpleSwap.sol\":6303:6350  bytes32 pairHash = _getPairHash(tokenA, tokenB) */\n      swap1\n      pop\n        /* \"contracts/SimpleSwap.sol\":6360:6378  Reserve memory res */\n      0x00\n        /* \"contracts/SimpleSwap.sol\":6381:6389  reserves */\n      0x00\n        /* \"contracts/SimpleSwap.sol\":6381:6399  reserves[pairHash] */\n      0x00\n        /* \"contracts/SimpleSwap.sol\":6390:6398  pairHash */\n      dup4\n        /* \"contracts/SimpleSwap.sol\":6381:6399  reserves[pairHash] */\n      dup2\n      mstore\n      0x20\n      add\n      swap1\n      dup2\n      mstore\n      0x20\n      add\n      0x00\n      keccak256\n        /* \"contracts/SimpleSwap.sol\":6360:6399  Reserve memory res = reserves[pairHash] */\n      mload(0x40)\n      dup1\n      0x40\n      add\n      0x40\n      mstore\n      swap1\n      dup2\n      0x00\n      dup3\n      add\n      0x00\n      swap1\n      sload\n      swap1\n      0x0100\n      exp\n      swap1\n      div\n      0xffffffffffffffffffffffffffff\n      and\n      0xffffffffffffffffffffffffffff\n      and\n      0xffffffffffffffffffffffffffff\n      and\n      dup2\n      mstore\n      0x20\n      add\n      0x00\n      dup3\n      add\n      0x0e\n      swap1\n      sload\n      swap1\n      0x0100\n      exp\n      swap1\n      div\n      0xffffffffffffffffffffffffffff\n      and\n      0xffffffffffffffffffffffffffff\n      and\n      0xffffffffffffffffffffffffffff\n      and\n      dup2\n      mstore\n      pop\n      pop\n      swap1\n      pop\n        /* \"contracts/SimpleSwap.sol\":6411:6424  uint reserveA */\n      0x00\n        /* \"contracts/SimpleSwap.sol\":6426:6439  uint reserveB */\n      0x00\n        /* \"contracts/SimpleSwap.sol\":6443:6482  _getSortedReserves(tokenA, tokenB, res) */\n      tag_105\n        /* \"contracts/SimpleSwap.sol\":6462:6468  tokenA */\n      dup8\n        /* \"contracts/SimpleSwap.sol\":6470:6476  tokenB */\n      dup8\n        /* \"contracts/SimpleSwap.sol\":6478:6481  res */\n      dup6\n        /* \"contracts/SimpleSwap.sol\":6443:6461  _getSortedReserves */\n      tag_106\n        /* \"contracts/SimpleSwap.sol\":6443:6482  _getSortedReserves(tokenA, tokenB, res) */\n      jump\t// in\n    tag_105:\n        /* \"contracts/SimpleSwap.sol\":6410:6482  (uint reserveA, uint reserveB) = _getSortedReserves(tokenA, tokenB, res) */\n      swap2\n      pop\n      swap2\n      pop\n        /* \"contracts/SimpleSwap.sol\":6511:6512  0 */\n      0x00\n        /* \"contracts/SimpleSwap.sol\":6500:6508  reserveA */\n      dup3\n        /* \"contracts/SimpleSwap.sol\":6500:6512  reserveA > 0 */\n      gt\n        /* \"contracts/SimpleSwap.sol\":6500:6528  reserveA > 0 && reserveB > 0 */\n      dup1\n      iszero\n      tag_107\n      jumpi\n      pop\n        /* \"contracts/SimpleSwap.sol\":6527:6528  0 */\n      0x00\n        /* \"contracts/SimpleSwap.sol\":6516:6524  reserveB */\n      dup2\n        /* \"contracts/SimpleSwap.sol\":6516:6528  reserveB > 0 */\n      gt\n        /* \"contracts/SimpleSwap.sol\":6500:6528  reserveA > 0 && reserveB > 0 */\n    tag_107:\n        /* \"contracts/SimpleSwap.sol\":6492:6544  require(reserveA > 0 && reserveB > 0, \"No reserves\") */\n      tag_108\n      jumpi\n      mload(0x40)\n      0x08c379a000000000000000000000000000000000000000000000000000000000\n      dup2\n      mstore\n      0x04\n      add\n      tag_109\n      swap1\n      tag_110\n      jump\t// in\n    tag_109:\n      mload(0x40)\n      dup1\n      swap2\n      sub\n      swap1\n      revert\n    tag_108:\n        /* \"contracts/SimpleSwap.sol\":6582:6590  reserveA */\n      dup2\n        /* \"contracts/SimpleSwap.sol\":6574:6578  1e18 */\n      0x0de0b6b3a7640000\n        /* \"contracts/SimpleSwap.sol\":6563:6571  reserveB */\n      dup3\n        /* \"contracts/SimpleSwap.sol\":6563:6578  reserveB * 1e18 */\n      tag_111\n      swap2\n      swap1\n      tag_63\n      jump\t// in\n    tag_111:\n        /* \"contracts/SimpleSwap.sol\":6562:6590  (reserveB * 1e18) / reserveA */\n      tag_112\n      swap2\n      swap1\n      tag_69\n      jump\t// in\n    tag_112:\n        /* \"contracts/SimpleSwap.sol\":6554:6590  price = (reserveB * 1e18) / reserveA */\n      swap5\n      pop\n        /* \"contracts/SimpleSwap.sol\":6293:6597  {... */\n      pop\n      pop\n      pop\n      pop\n        /* \"contracts/SimpleSwap.sol\":6208:6597  function getPrice(address tokenA, address tokenB) external view returns (uint price) {... */\n      swap3\n      swap2\n      pop\n      pop\n      jump\t// out\n        /* \"contracts/SimpleSwap.sol\":3513:4622  function removeLiquidity(... */\n    tag_42:\n        /* \"contracts/SimpleSwap.sol\":3727:3739  uint amountA */\n      0x00\n        /* \"contracts/SimpleSwap.sol\":3741:3753  uint amountB */\n      0x00\n        /* \"contracts/SimpleSwap.sol\":3792:3800  deadline */\n      dup3\n        /* \"contracts/SimpleSwap.sol\":3773:3788  block.timestamp */\n      timestamp\n        /* \"contracts/SimpleSwap.sol\":3773:3800  block.timestamp <= deadline */\n      gt\n      iszero\n        /* \"contracts/SimpleSwap.sol\":3765:3812  require(block.timestamp <= deadline, \"Expired\") */\n      tag_114\n      jumpi\n      mload(0x40)\n      0x08c379a000000000000000000000000000000000000000000000000000000000\n      dup2\n      mstore\n      0x04\n      add\n      tag_115\n      swap1\n      tag_73\n      jump\t// in\n    tag_115:\n      mload(0x40)\n      dup1\n      swap2\n      sub\n      swap1\n      revert\n    tag_114:\n        /* \"contracts/SimpleSwap.sol\":3823:3839  bytes32 pairHash */\n      0x00\n        /* \"contracts/SimpleSwap.sol\":3842:3870  _getPairHash(tokenA, tokenB) */\n      tag_116\n        /* \"contracts/SimpleSwap.sol\":3855:3861  tokenA */\n      dup11\n        /* \"contracts/SimpleSwap.sol\":3863:3869  tokenB */\n      dup11\n        /* \"contracts/SimpleSwap.sol\":3842:3854  _getPairHash */\n      tag_104\n        /* \"contracts/SimpleSwap.sol\":3842:3870  _getPairHash(tokenA, tokenB) */\n      jump\t// in\n    tag_116:\n        /* \"contracts/SimpleSwap.sol\":3823:3870  bytes32 pairHash = _getPairHash(tokenA, tokenB) */\n      swap1\n      pop\n        /* \"contracts/SimpleSwap.sol\":3880:3899  Reserve storage res */\n      0x00\n        /* \"contracts/SimpleSwap.sol\":3902:3910  reserves */\n      0x00\n        /* \"contracts/SimpleSwap.sol\":3902:3920  reserves[pairHash] */\n      0x00\n        /* \"contracts/SimpleSwap.sol\":3911:3919  pairHash */\n      dup4\n        /* \"contracts/SimpleSwap.sol\":3902:3920  reserves[pairHash] */\n      dup2\n      mstore\n      0x20\n      add\n      swap1\n      dup2\n      mstore\n      0x20\n      add\n      0x00\n      keccak256\n        /* \"contracts/SimpleSwap.sol\":3880:3920  Reserve storage res = reserves[pairHash] */\n      swap1\n      pop\n        /* \"contracts/SimpleSwap.sol\":3930:3940  uint total */\n      0x00\n        /* \"contracts/SimpleSwap.sol\":3943:3957  totalLiquidity */\n      0x01\n        /* \"contracts/SimpleSwap.sol\":3943:3967  totalLiquidity[pairHash] */\n      0x00\n        /* \"contracts/SimpleSwap.sol\":3958:3966  pairHash */\n      dup5\n        /* \"contracts/SimpleSwap.sol\":3943:3967  totalLiquidity[pairHash] */\n      dup2\n      mstore\n      0x20\n      add\n      swap1\n      dup2\n      mstore\n      0x20\n      add\n      0x00\n      keccak256\n      sload\n        /* \"contracts/SimpleSwap.sol\":3930:3967  uint total = totalLiquidity[pairHash] */\n      swap1\n      pop\n        /* \"contracts/SimpleSwap.sol\":3993:3994  0 */\n      0x00\n        /* \"contracts/SimpleSwap.sol\":3985:3990  total */\n      dup2\n        /* \"contracts/SimpleSwap.sol\":3985:3994  total > 0 */\n      gt\n        /* \"contracts/SimpleSwap.sol\":3977:4011  require(total > 0, \"No liquidity\") */\n      tag_117\n      jumpi\n      mload(0x40)\n      0x08c379a000000000000000000000000000000000000000000000000000000000\n      dup2\n      mstore\n      0x04\n      add\n      tag_118\n      swap1\n      tag_119\n      jump\t// in\n    tag_118:\n      mload(0x40)\n      dup1\n      swap2\n      sub\n      swap1\n      revert\n    tag_117:\n        /* \"contracts/SimpleSwap.sol\":4105:4110  total */\n      dup1\n        /* \"contracts/SimpleSwap.sol\":4093:4102  liquidity */\n      dup11\n        /* \"contracts/SimpleSwap.sol\":4078:4081  res */\n      dup4\n        /* \"contracts/SimpleSwap.sol\":4078:4090  res.reserveA */\n      0x00\n      add\n      0x00\n      swap1\n      sload\n      swap1\n      0x0100\n      exp\n      swap1\n      div\n      0xffffffffffffffffffffffffffff\n      and\n        /* \"contracts/SimpleSwap.sol\":4078:4102  res.reserveA * liquidity */\n      0xffffffffffffffffffffffffffff\n      and\n      tag_120\n      swap2\n      swap1\n      tag_63\n      jump\t// in\n    tag_120:\n        /* \"contracts/SimpleSwap.sol\":4078:4110  res.reserveA * liquidity / total */\n      tag_121\n      swap2\n      swap1\n      tag_69\n      jump\t// in\n    tag_121:\n        /* \"contracts/SimpleSwap.sol\":4068:4110  amountA = res.reserveA * liquidity / total */\n      swap5\n      pop\n        /* \"contracts/SimpleSwap.sol\":4157:4162  total */\n      dup1\n        /* \"contracts/SimpleSwap.sol\":4145:4154  liquidity */\n      dup11\n        /* \"contracts/SimpleSwap.sol\":4130:4133  res */\n      dup4\n        /* \"contracts/SimpleSwap.sol\":4130:4142  res.reserveB */\n      0x00\n      add\n      0x0e\n      swap1\n      sload\n      swap1\n      0x0100\n      exp\n      swap1\n      div\n      0xffffffffffffffffffffffffffff\n      and\n        /* \"contracts/SimpleSwap.sol\":4130:4154  res.reserveB * liquidity */\n      0xffffffffffffffffffffffffffff\n      and\n      tag_122\n      swap2\n      swap1\n      tag_63\n      jump\t// in\n    tag_122:\n        /* \"contracts/SimpleSwap.sol\":4130:4162  res.reserveB * liquidity / total */\n      tag_123\n      swap2\n      swap1\n      tag_69\n      jump\t// in\n    tag_123:\n        /* \"contracts/SimpleSwap.sol\":4120:4162  amountB = res.reserveB * liquidity / total */\n      swap4\n      pop\n        /* \"contracts/SimpleSwap.sol\":4192:4202  amountAMin */\n      dup9\n        /* \"contracts/SimpleSwap.sol\":4181:4188  amountA */\n      dup6\n        /* \"contracts/SimpleSwap.sol\":4181:4202  amountA >= amountAMin */\n      lt\n      iszero\n        /* \"contracts/SimpleSwap.sol\":4181:4227  amountA >= amountAMin && amountB >= amountBMin */\n      dup1\n      iszero\n      tag_124\n      jumpi\n      pop\n        /* \"contracts/SimpleSwap.sol\":4217:4227  amountBMin */\n      dup8\n        /* \"contracts/SimpleSwap.sol\":4206:4213  amountB */\n      dup5\n        /* \"contracts/SimpleSwap.sol\":4206:4227  amountB >= amountBMin */\n      lt\n      iszero\n        /* \"contracts/SimpleSwap.sol\":4181:4227  amountA >= amountAMin && amountB >= amountBMin */\n    tag_124:\n        /* \"contracts/SimpleSwap.sol\":4173:4240  require(amountA >= amountAMin && amountB >= amountBMin, \"Slippage\") */\n      tag_125\n      jumpi\n      mload(0x40)\n      0x08c379a000000000000000000000000000000000000000000000000000000000\n      dup2\n      mstore\n      0x04\n      add\n      tag_126\n      swap1\n      tag_127\n      jump\t// in\n    tag_126:\n      mload(0x40)\n      dup1\n      swap2\n      sub\n      swap1\n      revert\n    tag_125:\n        /* \"contracts/SimpleSwap.sol\":4338:4347  liquidity */\n      dup10\n        /* \"contracts/SimpleSwap.sol\":4296:4312  liquidityBalance */\n      0x02\n        /* \"contracts/SimpleSwap.sol\":4296:4322  liquidityBalance[pairHash] */\n      0x00\n        /* \"contracts/SimpleSwap.sol\":4313:4321  pairHash */\n      dup6\n        /* \"contracts/SimpleSwap.sol\":4296:4322  liquidityBalance[pairHash] */\n      dup2\n      mstore\n      0x20\n      add\n      swap1\n      dup2\n      mstore\n      0x20\n      add\n      0x00\n      keccak256\n        /* \"contracts/SimpleSwap.sol\":4296:4334  liquidityBalance[pairHash][msg.sender] */\n      0x00\n        /* \"contracts/SimpleSwap.sol\":4323:4333  msg.sender */\n      caller\n        /* \"contracts/SimpleSwap.sol\":4296:4334  liquidityBalance[pairHash][msg.sender] */\n      0xffffffffffffffffffffffffffffffffffffffff\n      and\n      0xffffffffffffffffffffffffffffffffffffffff\n      and\n      dup2\n      mstore\n      0x20\n      add\n      swap1\n      dup2\n      mstore\n      0x20\n      add\n      0x00\n      keccak256\n      0x00\n        /* \"contracts/SimpleSwap.sol\":4296:4347  liquidityBalance[pairHash][msg.sender] -= liquidity */\n      dup3\n      dup3\n      sload\n      tag_128\n      swap2\n      swap1\n      tag_129\n      jump\t// in\n    tag_128:\n      swap3\n      pop\n      pop\n      dup2\n      swap1\n      sstore\n      pop\n        /* \"contracts/SimpleSwap.sol\":4385:4394  liquidity */\n      dup10\n        /* \"contracts/SimpleSwap.sol\":4357:4371  totalLiquidity */\n      0x01\n        /* \"contracts/SimpleSwap.sol\":4357:4381  totalLiquidity[pairHash] */\n      0x00\n        /* \"contracts/SimpleSwap.sol\":4372:4380  pairHash */\n      dup6\n        /* \"contracts/SimpleSwap.sol\":4357:4381  totalLiquidity[pairHash] */\n      dup2\n      mstore\n      0x20\n      add\n      swap1\n      dup2\n      mstore\n      0x20\n      add\n      0x00\n      keccak256\n      0x00\n        /* \"contracts/SimpleSwap.sol\":4357:4394  totalLiquidity[pairHash] -= liquidity */\n      dup3\n      dup3\n      sload\n      tag_130\n      swap2\n      swap1\n      tag_129\n      jump\t// in\n    tag_130:\n      swap3\n      pop\n      pop\n      dup2\n      swap1\n      sstore\n      pop\n        /* \"contracts/SimpleSwap.sol\":4428:4435  amountA */\n      dup5\n        /* \"contracts/SimpleSwap.sol\":4404:4407  res */\n      dup3\n        /* \"contracts/SimpleSwap.sol\":4404:4416  res.reserveA */\n      0x00\n      add\n      0x00\n        /* \"contracts/SimpleSwap.sol\":4404:4436  res.reserveA -= uint112(amountA) */\n      dup3\n      dup3\n      dup3\n      swap1\n      sload\n      swap1\n      0x0100\n      exp\n      swap1\n      div\n      0xffffffffffffffffffffffffffff\n      and\n      tag_131\n      swap2\n      swap1\n      tag_132\n      jump\t// in\n    tag_131:\n      swap3\n      pop\n      0x0100\n      exp\n      dup2\n      sload\n      dup2\n      0xffffffffffffffffffffffffffff\n      mul\n      not\n      and\n      swap1\n      dup4\n      0xffffffffffffffffffffffffffff\n      and\n      mul\n      or\n      swap1\n      sstore\n      pop\n        /* \"contracts/SimpleSwap.sol\":4470:4477  amountB */\n      dup4\n        /* \"contracts/SimpleSwap.sol\":4446:4449  res */\n      dup3\n        /* \"contracts/SimpleSwap.sol\":4446:4458  res.reserveB */\n      0x00\n      add\n      0x0e\n        /* \"contracts/SimpleSwap.sol\":4446:4478  res.reserveB -= uint112(amountB) */\n      dup3\n      dup3\n      dup3\n      swap1\n      sload\n      swap1\n      0x0100\n      exp\n      swap1\n      div\n      0xffffffffffffffffffffffffffff\n      and\n      tag_133\n      swap2\n      swap1\n      tag_132\n      jump\t// in\n    tag_133:\n      swap3\n      pop\n      0x0100\n      exp\n      dup2\n      sload\n      dup2\n      0xffffffffffffffffffffffffffff\n      mul\n      not\n      and\n      swap1\n      dup4\n      0xffffffffffffffffffffffffffff\n      and\n      mul\n      or\n      swap1\n      sstore\n      pop\n        /* \"contracts/SimpleSwap.sol\":4525:4565  IERC20(tokenA).safeTransfer(to, amountA) */\n      tag_134\n        /* \"contracts/SimpleSwap.sol\":4553:4555  to */\n      dup8\n        /* \"contracts/SimpleSwap.sol\":4557:4564  amountA */\n      dup7\n        /* \"contracts/SimpleSwap.sol\":4532:4538  tokenA */\n      dup15\n        /* \"contracts/SimpleSwap.sol\":4525:4552  IERC20(tokenA).safeTransfer */\n      0xffffffffffffffffffffffffffffffffffffffff\n      and\n      tag_135\n      swap1\n        /* \"contracts/SimpleSwap.sol\":4525:4565  IERC20(tokenA).safeTransfer(to, amountA) */\n      swap3\n      swap2\n      swap1\n      0xffffffff\n      and\n      jump\t// in\n    tag_134:\n        /* \"contracts/SimpleSwap.sol\":4575:4615  IERC20(tokenB).safeTransfer(to, amountB) */\n      tag_136\n        /* \"contracts/SimpleSwap.sol\":4603:4605  to */\n      dup8\n        /* \"contracts/SimpleSwap.sol\":4607:4614  amountB */\n      dup6\n        /* \"contracts/SimpleSwap.sol\":4582:4588  tokenB */\n      dup14\n        /* \"contracts/SimpleSwap.sol\":4575:4602  IERC20(tokenB).safeTransfer */\n      0xffffffffffffffffffffffffffffffffffffffff\n      and\n      tag_135\n      swap1\n        /* \"contracts/SimpleSwap.sol\":4575:4615  IERC20(tokenB).safeTransfer(to, amountB) */\n      swap3\n      swap2\n      swap1\n      0xffffffff\n      and\n      jump\t// in\n    tag_136:\n        /* \"contracts/SimpleSwap.sol\":3755:4622  {... */\n      pop\n      pop\n      pop\n        /* \"contracts/SimpleSwap.sol\":3513:4622  function removeLiquidity(... */\n      swap8\n      pop\n      swap8\n      swap6\n      pop\n      pop\n      pop\n      pop\n      pop\n      pop\n      jump\t// out\n        /* \"contracts/SimpleSwap.sol\":1037:1105  mapping(bytes32 => mapping(address => uint)) public liquidityBalance */\n    tag_48:\n      mstore(0x20, 0x02)\n      dup2\n      0x00\n      mstore\n      mstore(0x20, keccak256(0x00, 0x40))\n      dup1\n      0x00\n      mstore\n      keccak256(0x00, 0x40)\n      0x00\n      swap2\n      pop\n      swap2\n      pop\n      pop\n      sload\n      dup2\n      jump\t// out\n        /* \"contracts/SimpleSwap.sol\":1793:2945  function addLiquidity(... */\n    tag_53:\n        /* \"contracts/SimpleSwap.sol\":2038:2050  uint amountA */\n      0x00\n        /* \"contracts/SimpleSwap.sol\":2052:2064  uint amountB */\n      0x00\n        /* \"contracts/SimpleSwap.sol\":2066:2080  uint liquidity */\n      0x00\n        /* \"contracts/SimpleSwap.sol\":2119:2127  deadline */\n      dup4\n        /* \"contracts/SimpleSwap.sol\":2100:2115  block.timestamp */\n      timestamp\n        /* \"contracts/SimpleSwap.sol\":2100:2127  block.timestamp <= deadline */\n      gt\n      iszero\n        /* \"contracts/SimpleSwap.sol\":2092:2139  require(block.timestamp <= deadline, \"Expired\") */\n      tag_138\n      jumpi\n      mload(0x40)\n      0x08c379a000000000000000000000000000000000000000000000000000000000\n      dup2\n      mstore\n      0x04\n      add\n      tag_139\n      swap1\n      tag_73\n      jump\t// in\n    tag_139:\n      mload(0x40)\n      dup1\n      swap2\n      sub\n      swap1\n      revert\n    tag_138:\n        /* \"contracts/SimpleSwap.sol\":2150:2166  bytes32 pairHash */\n      0x00\n        /* \"contracts/SimpleSwap.sol\":2169:2197  _getPairHash(tokenA, tokenB) */\n      tag_140\n        /* \"contracts/SimpleSwap.sol\":2182:2188  tokenA */\n      dup13\n        /* \"contracts/SimpleSwap.sol\":2190:2196  tokenB */\n      dup13\n        /* \"contracts/SimpleSwap.sol\":2169:2181  _getPairHash */\n      tag_104\n        /* \"contracts/SimpleSwap.sol\":2169:2197  _getPairHash(tokenA, tokenB) */\n      jump\t// in\n    tag_140:\n        /* \"contracts/SimpleSwap.sol\":2150:2197  bytes32 pairHash = _getPairHash(tokenA, tokenB) */\n      swap1\n      pop\n        /* \"contracts/SimpleSwap.sol\":2207:2226  Reserve storage res */\n      0x00\n        /* \"contracts/SimpleSwap.sol\":2229:2237  reserves */\n      0x00\n        /* \"contracts/SimpleSwap.sol\":2229:2247  reserves[pairHash] */\n      0x00\n        /* \"contracts/SimpleSwap.sol\":2238:2246  pairHash */\n      dup4\n        /* \"contracts/SimpleSwap.sol\":2229:2247  reserves[pairHash] */\n      dup2\n      mstore\n      0x20\n      add\n      swap1\n      dup2\n      mstore\n      0x20\n      add\n      0x00\n      keccak256\n        /* \"contracts/SimpleSwap.sol\":2207:2247  Reserve storage res = reserves[pairHash] */\n      swap1\n      pop\n        /* \"contracts/SimpleSwap.sol\":2418:2610  _calculateLiquidityAmounts(... */\n      tag_141\n        /* \"contracts/SimpleSwap.sol\":2458:2461  res */\n      dup2\n        /* \"contracts/SimpleSwap.sol\":2458:2470  res.reserveA */\n      0x00\n      add\n      0x00\n      swap1\n      sload\n      swap1\n      0x0100\n      exp\n      swap1\n      div\n      0xffffffffffffffffffffffffffff\n      and\n        /* \"contracts/SimpleSwap.sol\":2484:2487  res */\n      dup3\n        /* \"contracts/SimpleSwap.sol\":2484:2496  res.reserveB */\n      0x00\n      add\n      0x0e\n      swap1\n      sload\n      swap1\n      0x0100\n      exp\n      swap1\n      div\n      0xffffffffffffffffffffffffffff\n      and\n        /* \"contracts/SimpleSwap.sol\":2510:2524  amountADesired */\n      dup14\n        /* \"contracts/SimpleSwap.sol\":2538:2552  amountBDesired */\n      dup14\n        /* \"contracts/SimpleSwap.sol\":2566:2576  amountAMin */\n      dup14\n        /* \"contracts/SimpleSwap.sol\":2590:2600  amountBMin */\n      dup14\n        /* \"contracts/SimpleSwap.sol\":2418:2444  _calculateLiquidityAmounts */\n      tag_142\n        /* \"contracts/SimpleSwap.sol\":2418:2610  _calculateLiquidityAmounts(... */\n      jump\t// in\n    tag_141:\n        /* \"contracts/SimpleSwap.sol\":2397:2610  (amountA, amountB) = _calculateLiquidityAmounts(... */\n      dup1\n      swap6\n      pop\n      dup2\n      swap7\n      pop\n      pop\n      pop\n        /* \"contracts/SimpleSwap.sol\":2656:2719  _performAddLiquidityTransfers(tokenA, tokenB, amountA, amountB) */\n      tag_143\n        /* \"contracts/SimpleSwap.sol\":2686:2692  tokenA */\n      dup14\n        /* \"contracts/SimpleSwap.sol\":2694:2700  tokenB */\n      dup14\n        /* \"contracts/SimpleSwap.sol\":2702:2709  amountA */\n      dup8\n        /* \"contracts/SimpleSwap.sol\":2711:2718  amountB */\n      dup8\n        /* \"contracts/SimpleSwap.sol\":2656:2685  _performAddLiquidityTransfers */\n      tag_144\n        /* \"contracts/SimpleSwap.sol\":2656:2719  _performAddLiquidityTransfers(tokenA, tokenB, amountA, amountB) */\n      jump\t// in\n    tag_143:\n        /* \"contracts/SimpleSwap.sol\":2870:2938  _mintLiquidityAndUpdateReserves(pairHash, amountA, amountB, to, res) */\n      tag_145\n        /* \"contracts/SimpleSwap.sol\":2902:2910  pairHash */\n      dup3\n        /* \"contracts/SimpleSwap.sol\":2912:2919  amountA */\n      dup7\n        /* \"contracts/SimpleSwap.sol\":2921:2928  amountB */\n      dup7\n        /* \"contracts/SimpleSwap.sol\":2930:2932  to */\n      dup11\n        /* \"contracts/SimpleSwap.sol\":2934:2937  res */\n      dup6\n        /* \"contracts/SimpleSwap.sol\":2870:2901  _mintLiquidityAndUpdateReserves */\n      tag_146\n        /* \"contracts/SimpleSwap.sol\":2870:2938  _mintLiquidityAndUpdateReserves(pairHash, amountA, amountB, to, res) */\n      jump\t// in\n    tag_145:\n        /* \"contracts/SimpleSwap.sol\":2858:2938  liquidity = _mintLiquidityAndUpdateReserves(pairHash, amountA, amountB, to, res) */\n      swap3\n      pop\n        /* \"contracts/SimpleSwap.sol\":2082:2945  {... */\n      pop\n      pop\n        /* \"contracts/SimpleSwap.sol\":1793:2945  function addLiquidity(... */\n      swap9\n      pop\n      swap9\n      pop\n      swap9\n      swap6\n      pop\n      pop\n      pop\n      pop\n      pop\n      pop\n      jump\t// out\n        /* \"contracts/SimpleSwap.sol\":9657:10032  function _calculateSwapOutput(uint amountIn, address tokenIn, address tokenOut) internal view returns (uint) {... */\n    tag_86:\n        /* \"contracts/SimpleSwap.sol\":9760:9764  uint */\n      0x00\n        /* \"contracts/SimpleSwap.sol\":9776:9792  bytes32 pairHash */\n      0x00\n        /* \"contracts/SimpleSwap.sol\":9795:9826  _getPairHash(tokenIn, tokenOut) */\n      tag_148\n        /* \"contracts/SimpleSwap.sol\":9808:9815  tokenIn */\n      dup5\n        /* \"contracts/SimpleSwap.sol\":9817:9825  tokenOut */\n      dup5\n        /* \"contracts/SimpleSwap.sol\":9795:9807  _getPairHash */\n      tag_104\n        /* \"contracts/SimpleSwap.sol\":9795:9826  _getPairHash(tokenIn, tokenOut) */\n      jump\t// in\n    tag_148:\n        /* \"contracts/SimpleSwap.sol\":9776:9826  bytes32 pairHash = _getPairHash(tokenIn, tokenOut) */\n      swap1\n      pop\n        /* \"contracts/SimpleSwap.sol\":9836:9854  Reserve memory res */\n      0x00\n        /* \"contracts/SimpleSwap.sol\":9857:9865  reserves */\n      0x00\n        /* \"contracts/SimpleSwap.sol\":9857:9875  reserves[pairHash] */\n      0x00\n        /* \"contracts/SimpleSwap.sol\":9866:9874  pairHash */\n      dup4\n        /* \"contracts/SimpleSwap.sol\":9857:9875  reserves[pairHash] */\n      dup2\n      mstore\n      0x20\n      add\n      swap1\n      dup2\n      mstore\n      0x20\n      add\n      0x00\n      keccak256\n        /* \"contracts/SimpleSwap.sol\":9836:9875  Reserve memory res = reserves[pairHash] */\n      mload(0x40)\n      dup1\n      0x40\n      add\n      0x40\n      mstore\n      swap1\n      dup2\n      0x00\n      dup3\n      add\n      0x00\n      swap1\n      sload\n      swap1\n      0x0100\n      exp\n      swap1\n      div\n      0xffffffffffffffffffffffffffff\n      and\n      0xffffffffffffffffffffffffffff\n      and\n      0xffffffffffffffffffffffffffff\n      and\n      dup2\n      mstore\n      0x20\n      add\n      0x00\n      dup3\n      add\n      0x0e\n      swap1\n      sload\n      swap1\n      0x0100\n      exp\n      swap1\n      div\n      0xffffffffffffffffffffffffffff\n      and\n      0xffffffffffffffffffffffffffff\n      and\n      0xffffffffffffffffffffffffffff\n      and\n      dup2\n      mstore\n      pop\n      pop\n      swap1\n      pop\n        /* \"contracts/SimpleSwap.sol\":9886:9900  uint reserveIn */\n      0x00\n        /* \"contracts/SimpleSwap.sol\":9902:9917  uint reserveOut */\n      0x00\n        /* \"contracts/SimpleSwap.sol\":9921:9963  _getSortedReserves(tokenIn, tokenOut, res) */\n      tag_149\n        /* \"contracts/SimpleSwap.sol\":9940:9947  tokenIn */\n      dup8\n        /* \"contracts/SimpleSwap.sol\":9949:9957  tokenOut */\n      dup8\n        /* \"contracts/SimpleSwap.sol\":9959:9962  res */\n      dup6\n        /* \"contracts/SimpleSwap.sol\":9921:9939  _getSortedReserves */\n      tag_106\n        /* \"contracts/SimpleSwap.sol\":9921:9963  _getSortedReserves(tokenIn, tokenOut, res) */\n      jump\t// in\n    tag_149:\n        /* \"contracts/SimpleSwap.sol\":9885:9963  (uint reserveIn, uint reserveOut) = _getSortedReserves(tokenIn, tokenOut, res) */\n      swap2\n      pop\n      swap2\n      pop\n        /* \"contracts/SimpleSwap.sol\":9980:10025  getAmountOut(amountIn, reserveIn, reserveOut) */\n      tag_150\n        /* \"contracts/SimpleSwap.sol\":9993:10001  amountIn */\n      dup9\n        /* \"contracts/SimpleSwap.sol\":10003:10012  reserveIn */\n      dup4\n        /* \"contracts/SimpleSwap.sol\":10014:10024  reserveOut */\n      dup4\n        /* \"contracts/SimpleSwap.sol\":9980:9992  getAmountOut */\n      tag_21\n        /* \"contracts/SimpleSwap.sol\":9980:10025  getAmountOut(amountIn, reserveIn, reserveOut) */\n      jump\t// in\n    tag_150:\n        /* \"contracts/SimpleSwap.sol\":9973:10025  return getAmountOut(amountIn, reserveIn, reserveOut) */\n      swap5\n      pop\n      pop\n      pop\n      pop\n      pop\n        /* \"contracts/SimpleSwap.sol\":9657:10032  function _calculateSwapOutput(uint amountIn, address tokenIn, address tokenOut) internal view returns (uint) {... */\n      swap4\n      swap3\n      pop\n      pop\n      pop\n      jump\t// out\n        /* \"contracts/SimpleSwap.sol\":10105:10363  function _performSwapTransfers(address tokenIn, address tokenOut, uint amountIn, uint amountOut, address to) internal {... */\n    tag_91:\n        /* \"contracts/SimpleSwap.sol\":10233:10302  IERC20(tokenIn).safeTransferFrom(msg.sender, address(this), amountIn) */\n      tag_152\n        /* \"contracts/SimpleSwap.sol\":10266:10276  msg.sender */\n      caller\n        /* \"contracts/SimpleSwap.sol\":10286:10290  this */\n      address\n        /* \"contracts/SimpleSwap.sol\":10293:10301  amountIn */\n      dup6\n        /* \"contracts/SimpleSwap.sol\":10240:10247  tokenIn */\n      dup9\n        /* \"contracts/SimpleSwap.sol\":10233:10265  IERC20(tokenIn).safeTransferFrom */\n      0xffffffffffffffffffffffffffffffffffffffff\n      and\n      tag_153\n      swap1\n        /* \"contracts/SimpleSwap.sol\":10233:10302  IERC20(tokenIn).safeTransferFrom(msg.sender, address(this), amountIn) */\n      swap4\n      swap3\n      swap2\n      swap1\n      0xffffffff\n      and\n      jump\t// in\n    tag_152:\n        /* \"contracts/SimpleSwap.sol\":10312:10356  IERC20(tokenOut).safeTransfer(to, amountOut) */\n      tag_154\n        /* \"contracts/SimpleSwap.sol\":10342:10344  to */\n      dup2\n        /* \"contracts/SimpleSwap.sol\":10346:10355  amountOut */\n      dup4\n        /* \"contracts/SimpleSwap.sol\":10319:10327  tokenOut */\n      dup7\n        /* \"contracts/SimpleSwap.sol\":10312:10341  IERC20(tokenOut).safeTransfer */\n      0xffffffffffffffffffffffffffffffffffffffff\n      and\n      tag_135\n      swap1\n        /* \"contracts/SimpleSwap.sol\":10312:10356  IERC20(tokenOut).safeTransfer(to, amountOut) */\n      swap3\n      swap2\n      swap1\n      0xffffffff\n      and\n      jump\t// in\n    tag_154:\n        /* \"contracts/SimpleSwap.sol\":10105:10363  function _performSwapTransfers(address tokenIn, address tokenOut, uint amountIn, uint amountOut, address to) internal {... */\n      pop\n      pop\n      pop\n      pop\n      pop\n      jump\t// out\n        /* \"contracts/SimpleSwap.sol\":10430:10907  function _updateReservesAfterSwap(address tokenIn, address tokenOut, uint amountIn, uint amountOut) internal {... */\n    tag_93:\n        /* \"contracts/SimpleSwap.sol\":10549:10565  bytes32 pairHash */\n      0x00\n        /* \"contracts/SimpleSwap.sol\":10568:10599  _getPairHash(tokenIn, tokenOut) */\n      tag_156\n        /* \"contracts/SimpleSwap.sol\":10581:10588  tokenIn */\n      dup6\n        /* \"contracts/SimpleSwap.sol\":10590:10598  tokenOut */\n      dup6\n        /* \"contracts/SimpleSwap.sol\":10568:10580  _getPairHash */\n      tag_104\n        /* \"contracts/SimpleSwap.sol\":10568:10599  _getPairHash(tokenIn, tokenOut) */\n      jump\t// in\n    tag_156:\n        /* \"contracts/SimpleSwap.sol\":10549:10599  bytes32 pairHash = _getPairHash(tokenIn, tokenOut) */\n      swap1\n      pop\n        /* \"contracts/SimpleSwap.sol\":10609:10628  Reserve storage res */\n      0x00\n        /* \"contracts/SimpleSwap.sol\":10631:10639  reserves */\n      0x00\n        /* \"contracts/SimpleSwap.sol\":10631:10649  reserves[pairHash] */\n      0x00\n        /* \"contracts/SimpleSwap.sol\":10640:10648  pairHash */\n      dup4\n        /* \"contracts/SimpleSwap.sol\":10631:10649  reserves[pairHash] */\n      dup2\n      mstore\n      0x20\n      add\n      swap1\n      dup2\n      mstore\n      0x20\n      add\n      0x00\n      keccak256\n        /* \"contracts/SimpleSwap.sol\":10609:10649  Reserve storage res = reserves[pairHash] */\n      swap1\n      pop\n        /* \"contracts/SimpleSwap.sol\":10673:10681  tokenOut */\n      dup5\n        /* \"contracts/SimpleSwap.sol\":10663:10681  tokenIn < tokenOut */\n      0xffffffffffffffffffffffffffffffffffffffff\n      and\n        /* \"contracts/SimpleSwap.sol\":10663:10670  tokenIn */\n      dup7\n        /* \"contracts/SimpleSwap.sol\":10663:10681  tokenIn < tokenOut */\n      0xffffffffffffffffffffffffffffffffffffffff\n      and\n      lt\n        /* \"contracts/SimpleSwap.sol\":10659:10901  if (tokenIn < tokenOut) {... */\n      iszero\n      tag_157\n      jumpi\n        /* \"contracts/SimpleSwap.sol\":10721:10729  amountIn */\n      dup4\n        /* \"contracts/SimpleSwap.sol\":10697:10700  res */\n      dup2\n        /* \"contracts/SimpleSwap.sol\":10697:10709  res.reserveA */\n      0x00\n      add\n      0x00\n        /* \"contracts/SimpleSwap.sol\":10697:10730  res.reserveA += uint112(amountIn) */\n      dup3\n      dup3\n      dup3\n      swap1\n      sload\n      swap1\n      0x0100\n      exp\n      swap1\n      div\n      0xffffffffffffffffffffffffffff\n      and\n      tag_158\n      swap2\n      swap1\n      tag_159\n      jump\t// in\n    tag_158:\n      swap3\n      pop\n      0x0100\n      exp\n      dup2\n      sload\n      dup2\n      0xffffffffffffffffffffffffffff\n      mul\n      not\n      and\n      swap1\n      dup4\n      0xffffffffffffffffffffffffffff\n      and\n      mul\n      or\n      swap1\n      sstore\n      pop\n        /* \"contracts/SimpleSwap.sol\":10768:10777  amountOut */\n      dup3\n        /* \"contracts/SimpleSwap.sol\":10744:10747  res */\n      dup2\n        /* \"contracts/SimpleSwap.sol\":10744:10756  res.reserveB */\n      0x00\n      add\n      0x0e\n        /* \"contracts/SimpleSwap.sol\":10744:10778  res.reserveB -= uint112(amountOut) */\n      dup3\n      dup3\n      dup3\n      swap1\n      sload\n      swap1\n      0x0100\n      exp\n      swap1\n      div\n      0xffffffffffffffffffffffffffff\n      and\n      tag_160\n      swap2\n      swap1\n      tag_132\n      jump\t// in\n    tag_160:\n      swap3\n      pop\n      0x0100\n      exp\n      dup2\n      sload\n      dup2\n      0xffffffffffffffffffffffffffff\n      mul\n      not\n      and\n      swap1\n      dup4\n      0xffffffffffffffffffffffffffff\n      and\n      mul\n      or\n      swap1\n      sstore\n      pop\n        /* \"contracts/SimpleSwap.sol\":10659:10901  if (tokenIn < tokenOut) {... */\n      jump(tag_161)\n    tag_157:\n        /* \"contracts/SimpleSwap.sol\":10833:10841  amountIn */\n      dup4\n        /* \"contracts/SimpleSwap.sol\":10809:10812  res */\n      dup2\n        /* \"contracts/SimpleSwap.sol\":10809:10821  res.reserveB */\n      0x00\n      add\n      0x0e\n        /* \"contracts/SimpleSwap.sol\":10809:10842  res.reserveB += uint112(amountIn) */\n      dup3\n      dup3\n      dup3\n      swap1\n      sload\n      swap1\n      0x0100\n      exp\n      swap1\n      div\n      0xffffffffffffffffffffffffffff\n      and\n      tag_162\n      swap2\n      swap1\n      tag_159\n      jump\t// in\n    tag_162:\n      swap3\n      pop\n      0x0100\n      exp\n      dup2\n      sload\n      dup2\n      0xffffffffffffffffffffffffffff\n      mul\n      not\n      and\n      swap1\n      dup4\n      0xffffffffffffffffffffffffffff\n      and\n      mul\n      or\n      swap1\n      sstore\n      pop\n        /* \"contracts/SimpleSwap.sol\":10880:10889  amountOut */\n      dup3\n        /* \"contracts/SimpleSwap.sol\":10856:10859  res */\n      dup2\n        /* \"contracts/SimpleSwap.sol\":10856:10868  res.reserveA */\n      0x00\n      add\n      0x00\n        /* \"contracts/SimpleSwap.sol\":10856:10890  res.reserveA -= uint112(amountOut) */\n      dup3\n      dup3\n      dup3\n      swap1\n      sload\n      swap1\n      0x0100\n      exp\n      swap1\n      div\n      0xffffffffffffffffffffffffffff\n      and\n      tag_163\n      swap2\n      swap1\n      tag_132\n      jump\t// in\n    tag_163:\n      swap3\n      pop\n      0x0100\n      exp\n      dup2\n      sload\n      dup2\n      0xffffffffffffffffffffffffffff\n      mul\n      not\n      and\n      swap1\n      dup4\n      0xffffffffffffffffffffffffffff\n      and\n      mul\n      or\n      swap1\n      sstore\n      pop\n        /* \"contracts/SimpleSwap.sol\":10659:10901  if (tokenIn < tokenOut) {... */\n    tag_161:\n        /* \"contracts/SimpleSwap.sol\":10539:10907  {... */\n      pop\n      pop\n        /* \"contracts/SimpleSwap.sol\":10430:10907  function _updateReservesAfterSwap(address tokenIn, address tokenOut, uint amountIn, uint amountOut) internal {... */\n      pop\n      pop\n      pop\n      pop\n      jump\t// out\n        /* \"contracts/SimpleSwap.sol\":10977:11184  function _getPairHash(address tokenA, address tokenB) internal pure returns (bytes32) {... */\n    tag_104:\n        /* \"contracts/SimpleSwap.sol\":11054:11061  bytes32 */\n      0x00\n        /* \"contracts/SimpleSwap.sol\":11116:11122  tokenB */\n      dup2\n        /* \"contracts/SimpleSwap.sol\":11107:11122  tokenA < tokenB */\n      0xffffffffffffffffffffffffffffffffffffffff\n      and\n        /* \"contracts/SimpleSwap.sol\":11107:11113  tokenA */\n      dup4\n        /* \"contracts/SimpleSwap.sol\":11107:11122  tokenA < tokenB */\n      0xffffffffffffffffffffffffffffffffffffffff\n      and\n      lt\n        /* \"contracts/SimpleSwap.sol\":11107:11140  tokenA < tokenB ? tokenA : tokenB */\n      tag_165\n      jumpi\n        /* \"contracts/SimpleSwap.sol\":11134:11140  tokenB */\n      dup2\n        /* \"contracts/SimpleSwap.sol\":11107:11140  tokenA < tokenB ? tokenA : tokenB */\n      jump(tag_166)\n    tag_165:\n        /* \"contracts/SimpleSwap.sol\":11125:11131  tokenA */\n      dup3\n        /* \"contracts/SimpleSwap.sol\":11107:11140  tokenA < tokenB ? tokenA : tokenB */\n    tag_166:\n        /* \"contracts/SimpleSwap.sol\":11151:11157  tokenB */\n      dup3\n        /* \"contracts/SimpleSwap.sol\":11142:11157  tokenA < tokenB */\n      0xffffffffffffffffffffffffffffffffffffffff\n      and\n        /* \"contracts/SimpleSwap.sol\":11142:11148  tokenA */\n      dup5\n        /* \"contracts/SimpleSwap.sol\":11142:11157  tokenA < tokenB */\n      0xffffffffffffffffffffffffffffffffffffffff\n      and\n      lt\n        /* \"contracts/SimpleSwap.sol\":11142:11175  tokenA < tokenB ? tokenB : tokenA */\n      tag_167\n      jumpi\n        /* \"contracts/SimpleSwap.sol\":11169:11175  tokenA */\n      dup4\n        /* \"contracts/SimpleSwap.sol\":11142:11175  tokenA < tokenB ? tokenB : tokenA */\n      jump(tag_168)\n    tag_167:\n        /* \"contracts/SimpleSwap.sol\":11160:11166  tokenB */\n      dup3\n        /* \"contracts/SimpleSwap.sol\":11142:11175  tokenA < tokenB ? tokenB : tokenA */\n    tag_168:\n        /* \"contracts/SimpleSwap.sol\":11090:11176  abi.encodePacked(tokenA < tokenB ? tokenA : tokenB, tokenA < tokenB ? tokenB : tokenA) */\n      add(0x20, mload(0x40))\n      tag_169\n      swap3\n      swap2\n      swap1\n      tag_170\n      jump\t// in\n    tag_169:\n      mload(0x40)\n      0x20\n      dup2\n      dup4\n      sub\n      sub\n      dup2\n      mstore\n      swap1\n      0x40\n      mstore\n        /* \"contracts/SimpleSwap.sol\":11080:11177  keccak256(abi.encodePacked(tokenA < tokenB ? tokenA : tokenB, tokenA < tokenB ? tokenB : tokenA)) */\n      dup1\n      mload\n      swap1\n      0x20\n      add\n      keccak256\n        /* \"contracts/SimpleSwap.sol\":11073:11177  return keccak256(abi.encodePacked(tokenA < tokenB ? tokenA : tokenB, tokenA < tokenB ? tokenB : tokenA)) */\n      swap1\n      pop\n        /* \"contracts/SimpleSwap.sol\":10977:11184  function _getPairHash(address tokenA, address tokenB) internal pure returns (bytes32) {... */\n      swap3\n      swap2\n      pop\n      pop\n      jump\t// out\n        /* \"contracts/SimpleSwap.sol\":11251:11467  function _getSortedReserves(address tokenA, address tokenB, Reserve memory res) internal pure returns (uint, uint) {... */\n    tag_106:\n        /* \"contracts/SimpleSwap.sol\":11354:11358  uint */\n      0x00\n        /* \"contracts/SimpleSwap.sol\":11360:11364  uint */\n      0x00\n        /* \"contracts/SimpleSwap.sol\":11392:11398  tokenB */\n      dup4\n        /* \"contracts/SimpleSwap.sol\":11383:11398  tokenA < tokenB */\n      0xffffffffffffffffffffffffffffffffffffffff\n      and\n        /* \"contracts/SimpleSwap.sol\":11383:11389  tokenA */\n      dup6\n        /* \"contracts/SimpleSwap.sol\":11383:11398  tokenA < tokenB */\n      0xffffffffffffffffffffffffffffffffffffffff\n      and\n      lt\n        /* \"contracts/SimpleSwap.sol\":11383:11460  tokenA < tokenB ? (res.reserveA, res.reserveB) : (res.reserveB, res.reserveA) */\n      tag_172\n      jumpi\n        /* \"contracts/SimpleSwap.sol\":11433:11436  res */\n      dup3\n        /* \"contracts/SimpleSwap.sol\":11433:11445  res.reserveB */\n      0x20\n      add\n      mload\n        /* \"contracts/SimpleSwap.sol\":11447:11450  res */\n      dup4\n        /* \"contracts/SimpleSwap.sol\":11447:11459  res.reserveA */\n      0x00\n      add\n      mload\n        /* \"contracts/SimpleSwap.sol\":11383:11460  tokenA < tokenB ? (res.reserveA, res.reserveB) : (res.reserveB, res.reserveA) */\n      jump(tag_173)\n    tag_172:\n        /* \"contracts/SimpleSwap.sol\":11402:11405  res */\n      dup3\n        /* \"contracts/SimpleSwap.sol\":11402:11414  res.reserveA */\n      0x00\n      add\n      mload\n        /* \"contracts/SimpleSwap.sol\":11416:11419  res */\n      dup4\n        /* \"contracts/SimpleSwap.sol\":11416:11428  res.reserveB */\n      0x20\n      add\n      mload\n        /* \"contracts/SimpleSwap.sol\":11383:11460  tokenA < tokenB ? (res.reserveA, res.reserveB) : (res.reserveB, res.reserveA) */\n    tag_173:\n        /* \"contracts/SimpleSwap.sol\":11376:11460  return tokenA < tokenB ? (res.reserveA, res.reserveB) : (res.reserveB, res.reserveA) */\n      dup2\n      0xffffffffffffffffffffffffffff\n      and\n      swap2\n      pop\n      dup1\n      0xffffffffffffffffffffffffffff\n      and\n      swap1\n      pop\n      swap2\n      pop\n      swap2\n      pop\n        /* \"contracts/SimpleSwap.sol\":11251:11467  function _getSortedReserves(address tokenA, address tokenB, Reserve memory res) internal pure returns (uint, uint) {... */\n      swap4\n      pop\n      swap4\n      swap2\n      pop\n      pop\n      jump\t// out\n        /* \"@openzeppelin/contracts/token/ERC20/utils/SafeERC20.sol\":1219:1379  function safeTransfer(IERC20 token, address to, uint256 value) internal {... */\n    tag_135:\n        /* \"@openzeppelin/contracts/token/ERC20/utils/SafeERC20.sol\":1301:1372  _callOptionalReturn(token, abi.encodeCall(token.transfer, (to, value))) */\n      tag_175\n        /* \"@openzeppelin/contracts/token/ERC20/utils/SafeERC20.sol\":1321:1326  token */\n      dup4\n        /* \"@openzeppelin/contracts/token/ERC20/utils/SafeERC20.sol\":1343:1348  token */\n      dup5\n        /* \"@openzeppelin/contracts/token/ERC20/utils/SafeERC20.sol\":1343:1357  token.transfer */\n      0xffffffffffffffffffffffffffffffffffffffff\n      and\n      0xa9059cbb\n        /* \"@openzeppelin/contracts/token/ERC20/utils/SafeERC20.sol\":1360:1362  to */\n      dup6\n        /* \"@openzeppelin/contracts/token/ERC20/utils/SafeERC20.sol\":1364:1369  value */\n      dup6\n        /* \"@openzeppelin/contracts/token/ERC20/utils/SafeERC20.sol\":1328:1371  abi.encodeCall(token.transfer, (to, value)) */\n      add(0x24, mload(0x40))\n      tag_176\n      swap3\n      swap2\n      swap1\n      tag_177\n      jump\t// in\n    tag_176:\n      mload(0x40)\n      0x20\n      dup2\n      dup4\n      sub\n      sub\n      dup2\n      mstore\n      swap1\n      0x40\n      mstore\n      swap2\n      pop\n      0xe0\n      shl\n      0x20\n      dup3\n      add\n      dup1\n      mload\n      0xffffffffffffffffffffffffffffffffffffffffffffffffffffffff\n      dup4\n      dup2\n      dup4\n      and\n      or\n      dup4\n      mstore\n      pop\n      pop\n      pop\n      pop\n        /* \"@openzeppelin/contracts/token/ERC20/utils/SafeERC20.sol\":1301:1320  _callOptionalReturn */\n      tag_178\n        /* \"@openzeppelin/contracts/token/ERC20/utils/SafeERC20.sol\":1301:1372  _callOptionalReturn(token, abi.encodeCall(token.transfer, (to, value))) */\n      jump\t// in\n    tag_175:\n        /* \"@openzeppelin/contracts/token/ERC20/utils/SafeERC20.sol\":1219:1379  function safeTransfer(IERC20 token, address to, uint256 value) internal {... */\n      pop\n      pop\n      pop\n      jump\t// out\n        /* \"contracts/SimpleSwap.sol\":7447:8606  function _calculateLiquidityAmounts(... */\n    tag_142:\n        /* \"contracts/SimpleSwap.sol\":7686:7708  uint calculatedAmountA */\n      0x00\n        /* \"contracts/SimpleSwap.sol\":7710:7732  uint calculatedAmountB */\n      0x00\n        /* \"contracts/SimpleSwap.sol\":7767:7768  0 */\n      0x00\n        /* \"contracts/SimpleSwap.sol\":7748:7763  currentReserveA */\n      dup9\n        /* \"contracts/SimpleSwap.sol\":7748:7768  currentReserveA == 0 */\n      0xffffffffffffffffffffffffffff\n      and\n      eq\n        /* \"contracts/SimpleSwap.sol\":7748:7792  currentReserveA == 0 && currentReserveB == 0 */\n      dup1\n      iszero\n      tag_180\n      jumpi\n      pop\n        /* \"contracts/SimpleSwap.sol\":7791:7792  0 */\n      0x00\n        /* \"contracts/SimpleSwap.sol\":7772:7787  currentReserveB */\n      dup8\n        /* \"contracts/SimpleSwap.sol\":7772:7792  currentReserveB == 0 */\n      0xffffffffffffffffffffffffffff\n      and\n      eq\n        /* \"contracts/SimpleSwap.sol\":7748:7792  currentReserveA == 0 && currentReserveB == 0 */\n    tag_180:\n        /* \"contracts/SimpleSwap.sol\":7744:8600  if (currentReserveA == 0 && currentReserveB == 0) {... */\n      iszero\n      tag_181\n      jumpi\n        /* \"contracts/SimpleSwap.sol\":7903:7917  amountADesired */\n      dup6\n        /* \"contracts/SimpleSwap.sol\":7919:7933  amountBDesired */\n      dup6\n        /* \"contracts/SimpleSwap.sol\":7861:7934  (calculatedAmountA, calculatedAmountB) = (amountADesired, amountBDesired) */\n      dup1\n      swap3\n      pop\n      dup2\n      swap4\n      pop\n      pop\n      pop\n        /* \"contracts/SimpleSwap.sol\":7744:8600  if (currentReserveA == 0 && currentReserveB == 0) {... */\n      jump(tag_182)\n    tag_181:\n        /* \"contracts/SimpleSwap.sol\":8012:8031  uint amountBOptimal */\n      0x00\n        /* \"contracts/SimpleSwap.sol\":8069:8084  currentReserveA */\n      dup9\n        /* \"contracts/SimpleSwap.sol\":8034:8084  amountADesired * currentReserveB / currentReserveA */\n      0xffffffffffffffffffffffffffff\n      and\n        /* \"contracts/SimpleSwap.sol\":8051:8066  currentReserveB */\n      dup9\n        /* \"contracts/SimpleSwap.sol\":8034:8066  amountADesired * currentReserveB */\n      0xffffffffffffffffffffffffffff\n      and\n        /* \"contracts/SimpleSwap.sol\":8034:8048  amountADesired */\n      dup9\n        /* \"contracts/SimpleSwap.sol\":8034:8066  amountADesired * currentReserveB */\n      tag_183\n      swap2\n      swap1\n      tag_63\n      jump\t// in\n    tag_183:\n        /* \"contracts/SimpleSwap.sol\":8034:8084  amountADesired * currentReserveB / currentReserveA */\n      tag_184\n      swap2\n      swap1\n      tag_69\n      jump\t// in\n    tag_184:\n        /* \"contracts/SimpleSwap.sol\":8012:8084  uint amountBOptimal = amountADesired * currentReserveB / currentReserveA */\n      swap1\n      pop\n        /* \"contracts/SimpleSwap.sol\":8120:8134  amountBDesired */\n      dup6\n        /* \"contracts/SimpleSwap.sol\":8102:8116  amountBOptimal */\n      dup2\n        /* \"contracts/SimpleSwap.sol\":8102:8134  amountBOptimal <= amountBDesired */\n      gt\n        /* \"contracts/SimpleSwap.sol\":8098:8590  if (amountBOptimal <= amountBDesired) {... */\n      tag_185\n      jumpi\n        /* \"contracts/SimpleSwap.sol\":8180:8190  amountBMin */\n      dup4\n        /* \"contracts/SimpleSwap.sol\":8162:8176  amountBOptimal */\n      dup2\n        /* \"contracts/SimpleSwap.sol\":8162:8190  amountBOptimal >= amountBMin */\n      lt\n      iszero\n        /* \"contracts/SimpleSwap.sol\":8154:8209  require(amountBOptimal >= amountBMin, \"Insufficient B\") */\n      tag_186\n      jumpi\n      mload(0x40)\n      0x08c379a000000000000000000000000000000000000000000000000000000000\n      dup2\n      mstore\n      0x04\n      add\n      tag_187\n      swap1\n      tag_188\n      jump\t// in\n    tag_187:\n      mload(0x40)\n      dup1\n      swap2\n      sub\n      swap1\n      revert\n    tag_186:\n        /* \"contracts/SimpleSwap.sol\":8269:8283  amountADesired */\n      dup7\n        /* \"contracts/SimpleSwap.sol\":8285:8299  amountBOptimal */\n      dup2\n        /* \"contracts/SimpleSwap.sol\":8227:8300  (calculatedAmountA, calculatedAmountB) = (amountADesired, amountBOptimal) */\n      dup1\n      swap4\n      pop\n      dup2\n      swap5\n      pop\n      pop\n      pop\n        /* \"contracts/SimpleSwap.sol\":8098:8590  if (amountBOptimal <= amountBDesired) {... */\n      jump(tag_189)\n    tag_185:\n        /* \"contracts/SimpleSwap.sol\":8339:8358  uint amountAOptimal */\n      0x00\n        /* \"contracts/SimpleSwap.sol\":8396:8411  currentReserveB */\n      dup9\n        /* \"contracts/SimpleSwap.sol\":8361:8411  amountBDesired * currentReserveA / currentReserveB */\n      0xffffffffffffffffffffffffffff\n      and\n        /* \"contracts/SimpleSwap.sol\":8378:8393  currentReserveA */\n      dup11\n        /* \"contracts/SimpleSwap.sol\":8361:8393  amountBDesired * currentReserveA */\n      0xffffffffffffffffffffffffffff\n      and\n        /* \"contracts/SimpleSwap.sol\":8361:8375  amountBDesired */\n      dup9\n        /* \"contracts/SimpleSwap.sol\":8361:8393  amountBDesired * currentReserveA */\n      tag_190\n      swap2\n      swap1\n      tag_63\n      jump\t// in\n    tag_190:\n        /* \"contracts/SimpleSwap.sol\":8361:8411  amountBDesired * currentReserveA / currentReserveB */\n      tag_191\n      swap2\n      swap1\n      tag_69\n      jump\t// in\n    tag_191:\n        /* \"contracts/SimpleSwap.sol\":8339:8411  uint amountAOptimal = amountBDesired * currentReserveA / currentReserveB */\n      swap1\n      pop\n        /* \"contracts/SimpleSwap.sol\":8455:8465  amountAMin */\n      dup6\n        /* \"contracts/SimpleSwap.sol\":8437:8451  amountAOptimal */\n      dup2\n        /* \"contracts/SimpleSwap.sol\":8437:8465  amountAOptimal >= amountAMin */\n      lt\n      iszero\n        /* \"contracts/SimpleSwap.sol\":8429:8484  require(amountAOptimal >= amountAMin, \"Insufficient A\") */\n      tag_192\n      jumpi\n      mload(0x40)\n      0x08c379a000000000000000000000000000000000000000000000000000000000\n      dup2\n      mstore\n      0x04\n      add\n      tag_193\n      swap1\n      tag_194\n      jump\t// in\n    tag_193:\n      mload(0x40)\n      dup1\n      swap2\n      sub\n      swap1\n      revert\n    tag_192:\n        /* \"contracts/SimpleSwap.sol\":8544:8558  amountAOptimal */\n      dup1\n        /* \"contracts/SimpleSwap.sol\":8560:8574  amountBDesired */\n      dup8\n        /* \"contracts/SimpleSwap.sol\":8502:8575  (calculatedAmountA, calculatedAmountB) = (amountAOptimal, amountBDesired) */\n      dup1\n      swap5\n      pop\n      dup2\n      swap6\n      pop\n      pop\n      pop\n        /* \"contracts/SimpleSwap.sol\":8321:8590  {... */\n      pop\n        /* \"contracts/SimpleSwap.sol\":8098:8590  if (amountBOptimal <= amountBDesired) {... */\n    tag_189:\n        /* \"contracts/SimpleSwap.sol\":7951:8600  {... */\n      pop\n        /* \"contracts/SimpleSwap.sol\":7744:8600  if (currentReserveA == 0 && currentReserveB == 0) {... */\n    tag_182:\n        /* \"contracts/SimpleSwap.sol\":7447:8606  function _calculateLiquidityAmounts(... */\n      swap7\n      pop\n      swap7\n      swap5\n      pop\n      pop\n      pop\n      pop\n      pop\n      jump\t// out\n        /* \"contracts/SimpleSwap.sol\":8675:8982  function _performAddLiquidityTransfers(... */\n    tag_144:\n        /* \"contracts/SimpleSwap.sol\":8831:8898  IERC20(tokenA).safeTransferFrom(msg.sender, address(this), amountA) */\n      tag_196\n        /* \"contracts/SimpleSwap.sol\":8863:8873  msg.sender */\n      caller\n        /* \"contracts/SimpleSwap.sol\":8883:8887  this */\n      address\n        /* \"contracts/SimpleSwap.sol\":8890:8897  amountA */\n      dup5\n        /* \"contracts/SimpleSwap.sol\":8838:8844  tokenA */\n      dup8\n        /* \"contracts/SimpleSwap.sol\":8831:8862  IERC20(tokenA).safeTransferFrom */\n      0xffffffffffffffffffffffffffffffffffffffff\n      and\n      tag_153\n      swap1\n        /* \"contracts/SimpleSwap.sol\":8831:8898  IERC20(tokenA).safeTransferFrom(msg.sender, address(this), amountA) */\n      swap4\n      swap3\n      swap2\n      swap1\n      0xffffffff\n      and\n      jump\t// in\n    tag_196:\n        /* \"contracts/SimpleSwap.sol\":8908:8975  IERC20(tokenB).safeTransferFrom(msg.sender, address(this), amountB) */\n      tag_197\n        /* \"contracts/SimpleSwap.sol\":8940:8950  msg.sender */\n      caller\n        /* \"contracts/SimpleSwap.sol\":8960:8964  this */\n      address\n        /* \"contracts/SimpleSwap.sol\":8967:8974  amountB */\n      dup4\n        /* \"contracts/SimpleSwap.sol\":8915:8921  tokenB */\n      dup7\n        /* \"contracts/SimpleSwap.sol\":8908:8939  IERC20(tokenB).safeTransferFrom */\n      0xffffffffffffffffffffffffffffffffffffffff\n      and\n      tag_153\n      swap1\n        /* \"contracts/SimpleSwap.sol\":8908:8975  IERC20(tokenB).safeTransferFrom(msg.sender, address(this), amountB) */\n      swap4\n      swap3\n      swap2\n      swap1\n      0xffffffff\n      and\n      jump\t// in\n    tag_197:\n        /* \"contracts/SimpleSwap.sol\":8675:8982  function _performAddLiquidityTransfers(... */\n      pop\n      pop\n      pop\n      pop\n      jump\t// out\n        /* \"contracts/SimpleSwap.sol\":9051:9521  function _mintLiquidityAndUpdateReserves(... */\n    tag_146:\n        /* \"contracts/SimpleSwap.sol\":9274:9288  uint liquidity */\n      0x00\n        /* \"contracts/SimpleSwap.sol\":9322:9329  amountB */\n      dup4\n        /* \"contracts/SimpleSwap.sol\":9312:9319  amountA */\n      dup6\n        /* \"contracts/SimpleSwap.sol\":9312:9329  amountA + amountB */\n      tag_199\n      swap2\n      swap1\n      tag_67\n      jump\t// in\n    tag_199:\n        /* \"contracts/SimpleSwap.sol\":9300:9329  liquidity = amountA + amountB */\n      swap1\n      pop\n        /* \"contracts/SimpleSwap.sol\":9367:9376  liquidity */\n      dup1\n        /* \"contracts/SimpleSwap.sol\":9339:9353  totalLiquidity */\n      0x01\n        /* \"contracts/SimpleSwap.sol\":9339:9363  totalLiquidity[pairHash] */\n      0x00\n        /* \"contracts/SimpleSwap.sol\":9354:9362  pairHash */\n      dup9\n        /* \"contracts/SimpleSwap.sol\":9339:9363  totalLiquidity[pairHash] */\n      dup2\n      mstore\n      0x20\n      add\n      swap1\n      dup2\n      mstore\n      0x20\n      add\n      0x00\n      keccak256\n      0x00\n        /* \"contracts/SimpleSwap.sol\":9339:9376  totalLiquidity[pairHash] += liquidity */\n      dup3\n      dup3\n      sload\n      tag_200\n      swap2\n      swap1\n      tag_67\n      jump\t// in\n    tag_200:\n      swap3\n      pop\n      pop\n      dup2\n      swap1\n      sstore\n      pop\n        /* \"contracts/SimpleSwap.sol\":9420:9429  liquidity */\n      dup1\n        /* \"contracts/SimpleSwap.sol\":9386:9402  liquidityBalance */\n      0x02\n        /* \"contracts/SimpleSwap.sol\":9386:9412  liquidityBalance[pairHash] */\n      0x00\n        /* \"contracts/SimpleSwap.sol\":9403:9411  pairHash */\n      dup9\n        /* \"contracts/SimpleSwap.sol\":9386:9412  liquidityBalance[pairHash] */\n      dup2\n      mstore\n      0x20\n      add\n      swap1\n      dup2\n      mstore\n      0x20\n      add\n      0x00\n      keccak256\n        /* \"contracts/SimpleSwap.sol\":9386:9416  liquidityBalance[pairHash][to] */\n      0x00\n        /* \"contracts/SimpleSwap.sol\":9413:9415  to */\n      dup6\n        /* \"contracts/SimpleSwap.sol\":9386:9416  liquidityBalance[pairHash][to] */\n      0xffffffffffffffffffffffffffffffffffffffff\n      and\n      0xffffffffffffffffffffffffffffffffffffffff\n      and\n      dup2\n      mstore\n      0x20\n      add\n      swap1\n      dup2\n      mstore\n      0x20\n      add\n      0x00\n      keccak256\n      0x00\n        /* \"contracts/SimpleSwap.sol\":9386:9429  liquidityBalance[pairHash][to] += liquidity */\n      dup3\n      dup3\n      sload\n      tag_201\n      swap2\n      swap1\n      tag_67\n      jump\t// in\n    tag_201:\n      swap3\n      pop\n      pop\n      dup2\n      swap1\n      sstore\n      pop\n        /* \"contracts/SimpleSwap.sol\":9464:9471  amountA */\n      dup5\n        /* \"contracts/SimpleSwap.sol\":9440:9443  res */\n      dup3\n        /* \"contracts/SimpleSwap.sol\":9440:9452  res.reserveA */\n      0x00\n      add\n      0x00\n        /* \"contracts/SimpleSwap.sol\":9440:9472  res.reserveA += uint112(amountA) */\n      dup3\n      dup3\n      dup3\n      swap1\n      sload\n      swap1\n      0x0100\n      exp\n      swap1\n      div\n      0xffffffffffffffffffffffffffff\n      and\n      tag_202\n      swap2\n      swap1\n      tag_159\n      jump\t// in\n    tag_202:\n      swap3\n      pop\n      0x0100\n      exp\n      dup2\n      sload\n      dup2\n      0xffffffffffffffffffffffffffff\n      mul\n      not\n      and\n      swap1\n      dup4\n      0xffffffffffffffffffffffffffff\n      and\n      mul\n      or\n      swap1\n      sstore\n      pop\n        /* \"contracts/SimpleSwap.sol\":9506:9513  amountB */\n      dup4\n        /* \"contracts/SimpleSwap.sol\":9482:9485  res */\n      dup3\n        /* \"contracts/SimpleSwap.sol\":9482:9494  res.reserveB */\n      0x00\n      add\n      0x0e\n        /* \"contracts/SimpleSwap.sol\":9482:9514  res.reserveB += uint112(amountB) */\n      dup3\n      dup3\n      dup3\n      swap1\n      sload\n      swap1\n      0x0100\n      exp\n      swap1\n      div\n      0xffffffffffffffffffffffffffff\n      and\n      tag_203\n      swap2\n      swap1\n      tag_159\n      jump\t// in\n    tag_203:\n      swap3\n      pop\n      0x0100\n      exp\n      dup2\n      sload\n      dup2\n      0xffffffffffffffffffffffffffff\n      mul\n      not\n      and\n      swap1\n      dup4\n      0xffffffffffffffffffffffffffff\n      and\n      mul\n      or\n      swap1\n      sstore\n      pop\n        /* \"contracts/SimpleSwap.sol\":9051:9521  function _mintLiquidityAndUpdateReserves(... */\n      swap6\n      swap5\n      pop\n      pop\n      pop\n      pop\n      pop\n      jump\t// out\n        /* \"@openzeppelin/contracts/token/ERC20/utils/SafeERC20.sol\":1618:1806  function safeTransferFrom(IERC20 token, address from, address to, uint256 value) internal {... */\n    tag_153:\n        /* \"@openzeppelin/contracts/token/ERC20/utils/SafeERC20.sol\":1718:1799  _callOptionalReturn(token, abi.encodeCall(token.transferFrom, (from, to, value))) */\n      tag_205\n        /* \"@openzeppelin/contracts/token/ERC20/utils/SafeERC20.sol\":1738:1743  token */\n      dup5\n        /* \"@openzeppelin/contracts/token/ERC20/utils/SafeERC20.sol\":1760:1765  token */\n      dup6\n        /* \"@openzeppelin/contracts/token/ERC20/utils/SafeERC20.sol\":1760:1778  token.transferFrom */\n      0xffffffffffffffffffffffffffffffffffffffff\n      and\n      0x23b872dd\n        /* \"@openzeppelin/contracts/token/ERC20/utils/SafeERC20.sol\":1781:1785  from */\n      dup7\n        /* \"@openzeppelin/contracts/token/ERC20/utils/SafeERC20.sol\":1787:1789  to */\n      dup7\n        /* \"@openzeppelin/contracts/token/ERC20/utils/SafeERC20.sol\":1791:1796  value */\n      dup7\n        /* \"@openzeppelin/contracts/token/ERC20/utils/SafeERC20.sol\":1745:1798  abi.encodeCall(token.transferFrom, (from, to, value)) */\n      add(0x24, mload(0x40))\n      tag_206\n      swap4\n      swap3\n      swap2\n      swap1\n      tag_207\n      jump\t// in\n    tag_206:\n      mload(0x40)\n      0x20\n      dup2\n      dup4\n      sub\n      sub\n      dup2\n      mstore\n      swap1\n      0x40\n      mstore\n      swap2\n      pop\n      0xe0\n      shl\n      0x20\n      dup3\n      add\n      dup1\n      mload\n      0xffffffffffffffffffffffffffffffffffffffffffffffffffffffff\n      dup4\n      dup2\n      dup4\n      and\n      or\n      dup4\n      mstore\n      pop\n      pop\n      pop\n      pop\n        /* \"@openzeppelin/contracts/token/ERC20/utils/SafeERC20.sol\":1718:1737  _callOptionalReturn */\n      tag_178\n        /* \"@openzeppelin/contracts/token/ERC20/utils/SafeERC20.sol\":1718:1799  _callOptionalReturn(token, abi.encodeCall(token.transferFrom, (from, to, value))) */\n      jump\t// in\n    tag_205:\n        /* \"@openzeppelin/contracts/token/ERC20/utils/SafeERC20.sol\":1618:1806  function safeTransferFrom(IERC20 token, address from, address to, uint256 value) internal {... */\n      pop\n      pop\n      pop\n      pop\n      jump\t// out\n        /* \"@openzeppelin/contracts/token/ERC20/utils/SafeERC20.sol\":8370:9090  function _callOptionalReturn(IERC20 token, bytes memory data) private {... */\n    tag_178:\n        /* \"@openzeppelin/contracts/token/ERC20/utils/SafeERC20.sol\":8450:8468  uint256 returnSize */\n      0x00\n        /* \"@openzeppelin/contracts/token/ERC20/utils/SafeERC20.sol\":8478:8497  uint256 returnValue */\n      0x00\n        /* \"@openzeppelin/contracts/token/ERC20/utils/SafeERC20.sol\":8616:8620  0x20 */\n      0x20\n        /* \"@openzeppelin/contracts/token/ERC20/utils/SafeERC20.sol\":8613:8614  0 */\n      0x00\n        /* \"@openzeppelin/contracts/token/ERC20/utils/SafeERC20.sol\":8606:8610  data */\n      dup5\n        /* \"@openzeppelin/contracts/token/ERC20/utils/SafeERC20.sol\":8600:8611  mload(data) */\n      mload\n        /* \"@openzeppelin/contracts/token/ERC20/utils/SafeERC20.sol\":8593:8597  0x20 */\n      0x20\n        /* \"@openzeppelin/contracts/token/ERC20/utils/SafeERC20.sol\":8587:8591  data */\n      dup7\n        /* \"@openzeppelin/contracts/token/ERC20/utils/SafeERC20.sol\":8583:8598  add(data, 0x20) */\n      add\n        /* \"@openzeppelin/contracts/token/ERC20/utils/SafeERC20.sol\":8580:8581  0 */\n      0x00\n        /* \"@openzeppelin/contracts/token/ERC20/utils/SafeERC20.sol\":8573:8578  token */\n      dup9\n        /* \"@openzeppelin/contracts/token/ERC20/utils/SafeERC20.sol\":8566:8571  gas() */\n      gas\n        /* \"@openzeppelin/contracts/token/ERC20/utils/SafeERC20.sol\":8561:8621  call(gas(), token, 0, add(data, 0x20), mload(data), 0, 0x20) */\n      call\n        /* \"@openzeppelin/contracts/token/ERC20/utils/SafeERC20.sol\":8673:8680  success */\n      dup1\n        /* \"@openzeppelin/contracts/token/ERC20/utils/SafeERC20.sol\":8663:8839  if iszero(success) {... */\n      tag_209\n      jumpi\n        /* \"@openzeppelin/contracts/token/ERC20/utils/SafeERC20.sol\":8717:8721  0x40 */\n      0x40\n        /* \"@openzeppelin/contracts/token/ERC20/utils/SafeERC20.sol\":8711:8722  mload(0x40) */\n      mload\n        /* \"@openzeppelin/contracts/token/ERC20/utils/SafeERC20.sol\":8762:8778  returndatasize() */\n      returndatasize\n        /* \"@openzeppelin/contracts/token/ERC20/utils/SafeERC20.sol\":8759:8760  0 */\n      0x00\n        /* \"@openzeppelin/contracts/token/ERC20/utils/SafeERC20.sol\":8754:8757  ptr */\n      dup3\n        /* \"@openzeppelin/contracts/token/ERC20/utils/SafeERC20.sol\":8739:8779  returndatacopy(ptr, 0, returndatasize()) */\n      returndatacopy\n        /* \"@openzeppelin/contracts/token/ERC20/utils/SafeERC20.sol\":8808:8824  returndatasize() */\n      returndatasize\n        /* \"@openzeppelin/contracts/token/ERC20/utils/SafeERC20.sol\":8803:8806  ptr */\n      dup2\n        /* \"@openzeppelin/contracts/token/ERC20/utils/SafeERC20.sol\":8796:8825  revert(ptr, returndatasize()) */\n      revert\n        /* \"@openzeppelin/contracts/token/ERC20/utils/SafeERC20.sol\":8663:8839  if iszero(success) {... */\n    tag_209:\n        /* \"@openzeppelin/contracts/token/ERC20/utils/SafeERC20.sol\":8866:8882  returndatasize() */\n      returndatasize\n        /* \"@openzeppelin/contracts/token/ERC20/utils/SafeERC20.sol\":8852:8882  returnSize := returndatasize() */\n      swap3\n      pop\n        /* \"@openzeppelin/contracts/token/ERC20/utils/SafeERC20.sol\":8916:8917  0 */\n      0x00\n        /* \"@openzeppelin/contracts/token/ERC20/utils/SafeERC20.sol\":8910:8918  mload(0) */\n      mload\n        /* \"@openzeppelin/contracts/token/ERC20/utils/SafeERC20.sol\":8895:8918  returnValue := mload(0) */\n      swap2\n      pop\n        /* \"@openzeppelin/contracts/token/ERC20/utils/SafeERC20.sol\":8532:8928  {... */\n      pop\n        /* \"@openzeppelin/contracts/token/ERC20/utils/SafeERC20.sol\":8956:8957  0 */\n      0x00\n        /* \"@openzeppelin/contracts/token/ERC20/utils/SafeERC20.sol\":8942:8952  returnSize */\n      dup3\n        /* \"@openzeppelin/contracts/token/ERC20/utils/SafeERC20.sol\":8942:8957  returnSize == 0 */\n      eq\n        /* \"@openzeppelin/contracts/token/ERC20/utils/SafeERC20.sol\":8942:9010  returnSize == 0 ? address(token).code.length == 0 : returnValue != 1 */\n      tag_210\n      jumpi\n        /* \"@openzeppelin/contracts/token/ERC20/utils/SafeERC20.sol\":9009:9010  1 */\n      0x01\n        /* \"@openzeppelin/contracts/token/ERC20/utils/SafeERC20.sol\":8994:9005  returnValue */\n      dup2\n        /* \"@openzeppelin/contracts/token/ERC20/utils/SafeERC20.sol\":8994:9010  returnValue != 1 */\n      eq\n      iszero\n        /* \"@openzeppelin/contracts/token/ERC20/utils/SafeERC20.sol\":8942:9010  returnSize == 0 ? address(token).code.length == 0 : returnValue != 1 */\n      jump(tag_211)\n    tag_210:\n        /* \"@openzeppelin/contracts/token/ERC20/utils/SafeERC20.sol\":8990:8991  0 */\n      0x00\n        /* \"@openzeppelin/contracts/token/ERC20/utils/SafeERC20.sol\":8968:8973  token */\n      dup5\n        /* \"@openzeppelin/contracts/token/ERC20/utils/SafeERC20.sol\":8960:8986  address(token).code.length */\n      0xffffffffffffffffffffffffffffffffffffffff\n      and\n      extcodesize\n        /* \"@openzeppelin/contracts/token/ERC20/utils/SafeERC20.sol\":8960:8991  address(token).code.length == 0 */\n      eq\n        /* \"@openzeppelin/contracts/token/ERC20/utils/SafeERC20.sol\":8942:9010  returnSize == 0 ? address(token).code.length == 0 : returnValue != 1 */\n    tag_211:\n        /* \"@openzeppelin/contracts/token/ERC20/utils/SafeERC20.sol\":8938:9084  if (returnSize == 0 ? address(token).code.length == 0 : returnValue != 1) {... */\n      iszero\n      tag_212\n      jumpi\n        /* \"@openzeppelin/contracts/token/ERC20/utils/SafeERC20.sol\":9066:9071  token */\n      dup4\n        /* \"@openzeppelin/contracts/token/ERC20/utils/SafeERC20.sol\":9033:9073  SafeERC20FailedOperation(address(token)) */\n      mload(0x40)\n      0x5274afe700000000000000000000000000000000000000000000000000000000\n      dup2\n      mstore\n      0x04\n      add\n      tag_213\n      swap2\n      swap1\n      tag_214\n      jump\t// in\n    tag_213:\n      mload(0x40)\n      dup1\n      swap2\n      sub\n      swap1\n      revert\n        /* \"@openzeppelin/contracts/token/ERC20/utils/SafeERC20.sol\":8938:9084  if (returnSize == 0 ? address(token).code.length == 0 : returnValue != 1) {... */\n    tag_212:\n        /* \"@openzeppelin/contracts/token/ERC20/utils/SafeERC20.sol\":8440:9090  {... */\n      pop\n      pop\n        /* \"@openzeppelin/contracts/token/ERC20/utils/SafeERC20.sol\":8370:9090  function _callOptionalReturn(IERC20 token, bytes memory data) private {... */\n      pop\n      pop\n      jump\t// out\n        /* \"#utility.yul\":88:205   */\n    tag_216:\n        /* \"#utility.yul\":197:198   */\n      0x00\n        /* \"#utility.yul\":194:195   */\n      0x00\n        /* \"#utility.yul\":187:199   */\n      revert\n        /* \"#utility.yul\":211:328   */\n    tag_217:\n        /* \"#utility.yul\":320:321   */\n      0x00\n        /* \"#utility.yul\":317:318   */\n      0x00\n        /* \"#utility.yul\":310:322   */\n      revert\n        /* \"#utility.yul\":334:411   */\n    tag_218:\n        /* \"#utility.yul\":371:378   */\n      0x00\n        /* \"#utility.yul\":400:405   */\n      dup2\n        /* \"#utility.yul\":389:405   */\n      swap1\n      pop\n        /* \"#utility.yul\":334:411   */\n      swap2\n      swap1\n      pop\n      jump\t// out\n        /* \"#utility.yul\":417:539   */\n    tag_219:\n        /* \"#utility.yul\":490:514   */\n      tag_274\n        /* \"#utility.yul\":508:513   */\n      dup2\n        /* \"#utility.yul\":490:514   */\n      tag_218\n      jump\t// in\n    tag_274:\n        /* \"#utility.yul\":483:488   */\n      dup2\n        /* \"#utility.yul\":480:515   */\n      eq\n        /* \"#utility.yul\":470:533   */\n      tag_275\n      jumpi\n        /* \"#utility.yul\":529:530   */\n      0x00\n        /* \"#utility.yul\":526:527   */\n      0x00\n        /* \"#utility.yul\":519:531   */\n      revert\n        /* \"#utility.yul\":470:533   */\n    tag_275:\n        /* \"#utility.yul\":417:539   */\n      pop\n      jump\t// out\n        /* \"#utility.yul\":545:684   */\n    tag_220:\n        /* \"#utility.yul\":591:596   */\n      0x00\n        /* \"#utility.yul\":629:635   */\n      dup2\n        /* \"#utility.yul\":616:636   */\n      calldataload\n        /* \"#utility.yul\":607:636   */\n      swap1\n      pop\n        /* \"#utility.yul\":645:678   */\n      tag_277\n        /* \"#utility.yul\":672:677   */\n      dup2\n        /* \"#utility.yul\":645:678   */\n      tag_219\n      jump\t// in\n    tag_277:\n        /* \"#utility.yul\":545:684   */\n      swap3\n      swap2\n      pop\n      pop\n      jump\t// out\n        /* \"#utility.yul\":690:1019   */\n    tag_14:\n        /* \"#utility.yul\":749:755   */\n      0x00\n        /* \"#utility.yul\":798:800   */\n      0x20\n        /* \"#utility.yul\":786:795   */\n      dup3\n        /* \"#utility.yul\":777:784   */\n      dup5\n        /* \"#utility.yul\":773:796   */\n      sub\n        /* \"#utility.yul\":769:801   */\n      slt\n        /* \"#utility.yul\":766:885   */\n      iszero\n      tag_279\n      jumpi\n        /* \"#utility.yul\":804:883   */\n      tag_280\n      tag_216\n      jump\t// in\n    tag_280:\n        /* \"#utility.yul\":766:885   */\n    tag_279:\n        /* \"#utility.yul\":924:925   */\n      0x00\n        /* \"#utility.yul\":949:1002   */\n      tag_281\n        /* \"#utility.yul\":994:1001   */\n      dup5\n        /* \"#utility.yul\":985:991   */\n      dup3\n        /* \"#utility.yul\":974:983   */\n      dup6\n        /* \"#utility.yul\":970:992   */\n      add\n        /* \"#utility.yul\":949:1002   */\n      tag_220\n      jump\t// in\n    tag_281:\n        /* \"#utility.yul\":939:1002   */\n      swap2\n      pop\n        /* \"#utility.yul\":895:1012   */\n      pop\n        /* \"#utility.yul\":690:1019   */\n      swap3\n      swap2\n      pop\n      pop\n      jump\t// out\n        /* \"#utility.yul\":1025:1139   */\n    tag_221:\n        /* \"#utility.yul\":1062:1069   */\n      0x00\n        /* \"#utility.yul\":1102:1132   */\n      0xffffffffffffffffffffffffffff\n        /* \"#utility.yul\":1095:1100   */\n      dup3\n        /* \"#utility.yul\":1091:1133   */\n      and\n        /* \"#utility.yul\":1080:1133   */\n      swap1\n      pop\n        /* \"#utility.yul\":1025:1139   */\n      swap2\n      swap1\n      pop\n      jump\t// out\n        /* \"#utility.yul\":1145:1263   */\n    tag_222:\n        /* \"#utility.yul\":1232:1256   */\n      tag_284\n        /* \"#utility.yul\":1250:1255   */\n      dup2\n        /* \"#utility.yul\":1232:1256   */\n      tag_221\n      jump\t// in\n    tag_284:\n        /* \"#utility.yul\":1227:1230   */\n      dup3\n        /* \"#utility.yul\":1220:1257   */\n      mstore\n        /* \"#utility.yul\":1145:1263   */\n      pop\n      pop\n      jump\t// out\n        /* \"#utility.yul\":1269:1601   */\n    tag_17:\n        /* \"#utility.yul\":1390:1394   */\n      0x00\n        /* \"#utility.yul\":1428:1430   */\n      0x40\n        /* \"#utility.yul\":1417:1426   */\n      dup3\n        /* \"#utility.yul\":1413:1431   */\n      add\n        /* \"#utility.yul\":1405:1431   */\n      swap1\n      pop\n        /* \"#utility.yul\":1441:1512   */\n      tag_286\n        /* \"#utility.yul\":1509:1510   */\n      0x00\n        /* \"#utility.yul\":1498:1507   */\n      dup4\n        /* \"#utility.yul\":1494:1511   */\n      add\n        /* \"#utility.yul\":1485:1491   */\n      dup6\n        /* \"#utility.yul\":1441:1512   */\n      tag_222\n      jump\t// in\n    tag_286:\n        /* \"#utility.yul\":1522:1594   */\n      tag_287\n        /* \"#utility.yul\":1590:1592   */\n      0x20\n        /* \"#utility.yul\":1579:1588   */\n      dup4\n        /* \"#utility.yul\":1575:1593   */\n      add\n        /* \"#utility.yul\":1566:1572   */\n      dup5\n        /* \"#utility.yul\":1522:1594   */\n      tag_222\n      jump\t// in\n    tag_287:\n        /* \"#utility.yul\":1269:1601   */\n      swap4\n      swap3\n      pop\n      pop\n      pop\n      jump\t// out\n        /* \"#utility.yul\":1607:1684   */\n    tag_223:\n        /* \"#utility.yul\":1644:1651   */\n      0x00\n        /* \"#utility.yul\":1673:1678   */\n      dup2\n        /* \"#utility.yul\":1662:1678   */\n      swap1\n      pop\n        /* \"#utility.yul\":1607:1684   */\n      swap2\n      swap1\n      pop\n      jump\t// out\n        /* \"#utility.yul\":1690:1812   */\n    tag_224:\n        /* \"#utility.yul\":1763:1787   */\n      tag_290\n        /* \"#utility.yul\":1781:1786   */\n      dup2\n        /* \"#utility.yul\":1763:1787   */\n      tag_223\n      jump\t// in\n    tag_290:\n        /* \"#utility.yul\":1756:1761   */\n      dup2\n        /* \"#utility.yul\":1753:1788   */\n      eq\n        /* \"#utility.yul\":1743:1806   */\n      tag_291\n      jumpi\n        /* \"#utility.yul\":1802:1803   */\n      0x00\n        /* \"#utility.yul\":1799:1800   */\n      0x00\n        /* \"#utility.yul\":1792:1804   */\n      revert\n        /* \"#utility.yul\":1743:1806   */\n    tag_291:\n        /* \"#utility.yul\":1690:1812   */\n      pop\n      jump\t// out\n        /* \"#utility.yul\":1818:1957   */\n    tag_225:\n        /* \"#utility.yul\":1864:1869   */\n      0x00\n        /* \"#utility.yul\":1902:1908   */\n      dup2\n        /* \"#utility.yul\":1889:1909   */\n      calldataload\n        /* \"#utility.yul\":1880:1909   */\n      swap1\n      pop\n        /* \"#utility.yul\":1918:1951   */\n      tag_293\n        /* \"#utility.yul\":1945:1950   */\n      dup2\n        /* \"#utility.yul\":1918:1951   */\n      tag_224\n      jump\t// in\n    tag_293:\n        /* \"#utility.yul\":1818:1957   */\n      swap3\n      swap2\n      pop\n      pop\n      jump\t// out\n        /* \"#utility.yul\":1963:2582   */\n    tag_20:\n        /* \"#utility.yul\":2040:2046   */\n      0x00\n        /* \"#utility.yul\":2048:2054   */\n      0x00\n        /* \"#utility.yul\":2056:2062   */\n      0x00\n        /* \"#utility.yul\":2105:2107   */\n      0x60\n        /* \"#utility.yul\":2093:2102   */\n      dup5\n        /* \"#utility.yul\":2084:2091   */\n      dup7\n        /* \"#utility.yul\":2080:2103   */\n      sub\n        /* \"#utility.yul\":2076:2108   */\n      slt\n        /* \"#utility.yul\":2073:2192   */\n      iszero\n      tag_295\n      jumpi\n        /* \"#utility.yul\":2111:2190   */\n      tag_296\n      tag_216\n      jump\t// in\n    tag_296:\n        /* \"#utility.yul\":2073:2192   */\n    tag_295:\n        /* \"#utility.yul\":2231:2232   */\n      0x00\n        /* \"#utility.yul\":2256:2309   */\n      tag_297\n        /* \"#utility.yul\":2301:2308   */\n      dup7\n        /* \"#utility.yul\":2292:2298   */\n      dup3\n        /* \"#utility.yul\":2281:2290   */\n      dup8\n        /* \"#utility.yul\":2277:2299   */\n      add\n        /* \"#utility.yul\":2256:2309   */\n      tag_225\n      jump\t// in\n    tag_297:\n        /* \"#utility.yul\":2246:2309   */\n      swap4\n      pop\n        /* \"#utility.yul\":2202:2319   */\n      pop\n        /* \"#utility.yul\":2358:2360   */\n      0x20\n        /* \"#utility.yul\":2384:2437   */\n      tag_298\n        /* \"#utility.yul\":2429:2436   */\n      dup7\n        /* \"#utility.yul\":2420:2426   */\n      dup3\n        /* \"#utility.yul\":2409:2418   */\n      dup8\n        /* \"#utility.yul\":2405:2427   */\n      add\n        /* \"#utility.yul\":2384:2437   */\n      tag_225\n      jump\t// in\n    tag_298:\n        /* \"#utility.yul\":2374:2437   */\n      swap3\n      pop\n        /* \"#utility.yul\":2329:2447   */\n      pop\n        /* \"#utility.yul\":2486:2488   */\n      0x40\n        /* \"#utility.yul\":2512:2565   */\n      tag_299\n        /* \"#utility.yul\":2557:2564   */\n      dup7\n        /* \"#utility.yul\":2548:2554   */\n      dup3\n        /* \"#utility.yul\":2537:2546   */\n      dup8\n        /* \"#utility.yul\":2533:2555   */\n      add\n        /* \"#utility.yul\":2512:2565   */\n      tag_225\n      jump\t// in\n    tag_299:\n        /* \"#utility.yul\":2502:2565   */\n      swap2\n      pop\n        /* \"#utility.yul\":2457:2575   */\n      pop\n        /* \"#utility.yul\":1963:2582   */\n      swap3\n      pop\n      swap3\n      pop\n      swap3\n      jump\t// out\n        /* \"#utility.yul\":2588:2706   */\n    tag_226:\n        /* \"#utility.yul\":2675:2699   */\n      tag_301\n        /* \"#utility.yul\":2693:2698   */\n      dup2\n        /* \"#utility.yul\":2675:2699   */\n      tag_223\n      jump\t// in\n    tag_301:\n        /* \"#utility.yul\":2670:2673   */\n      dup3\n        /* \"#utility.yul\":2663:2700   */\n      mstore\n        /* \"#utility.yul\":2588:2706   */\n      pop\n      pop\n      jump\t// out\n        /* \"#utility.yul\":2712:2934   */\n    tag_23:\n        /* \"#utility.yul\":2805:2809   */\n      0x00\n        /* \"#utility.yul\":2843:2845   */\n      0x20\n        /* \"#utility.yul\":2832:2841   */\n      dup3\n        /* \"#utility.yul\":2828:2846   */\n      add\n        /* \"#utility.yul\":2820:2846   */\n      swap1\n      pop\n        /* \"#utility.yul\":2856:2927   */\n      tag_303\n        /* \"#utility.yul\":2924:2925   */\n      0x00\n        /* \"#utility.yul\":2913:2922   */\n      dup4\n        /* \"#utility.yul\":2909:2926   */\n      add\n        /* \"#utility.yul\":2900:2906   */\n      dup5\n        /* \"#utility.yul\":2856:2927   */\n      tag_226\n      jump\t// in\n    tag_303:\n        /* \"#utility.yul\":2712:2934   */\n      swap3\n      swap2\n      pop\n      pop\n      jump\t// out\n        /* \"#utility.yul\":2940:3057   */\n    tag_227:\n        /* \"#utility.yul\":3049:3050   */\n      0x00\n        /* \"#utility.yul\":3046:3047   */\n      0x00\n        /* \"#utility.yul\":3039:3051   */\n      revert\n        /* \"#utility.yul\":3063:3180   */\n    tag_228:\n        /* \"#utility.yul\":3172:3173   */\n      0x00\n        /* \"#utility.yul\":3169:3170   */\n      0x00\n        /* \"#utility.yul\":3162:3174   */\n      revert\n        /* \"#utility.yul\":3186:3303   */\n    tag_229:\n        /* \"#utility.yul\":3295:3296   */\n      0x00\n        /* \"#utility.yul\":3292:3293   */\n      0x00\n        /* \"#utility.yul\":3285:3297   */\n      revert\n        /* \"#utility.yul\":3326:3894   */\n    tag_230:\n        /* \"#utility.yul\":3399:3407   */\n      0x00\n        /* \"#utility.yul\":3409:3415   */\n      0x00\n        /* \"#utility.yul\":3459:3462   */\n      dup4\n        /* \"#utility.yul\":3452:3456   */\n      0x1f\n        /* \"#utility.yul\":3444:3450   */\n      dup5\n        /* \"#utility.yul\":3440:3457   */\n      add\n        /* \"#utility.yul\":3436:3463   */\n      slt\n        /* \"#utility.yul\":3426:3548   */\n      tag_308\n      jumpi\n        /* \"#utility.yul\":3467:3546   */\n      tag_309\n      tag_227\n      jump\t// in\n    tag_309:\n        /* \"#utility.yul\":3426:3548   */\n    tag_308:\n        /* \"#utility.yul\":3580:3586   */\n      dup3\n        /* \"#utility.yul\":3567:3587   */\n      calldataload\n        /* \"#utility.yul\":3557:3587   */\n      swap1\n      pop\n        /* \"#utility.yul\":3610:3628   */\n      0xffffffffffffffff\n        /* \"#utility.yul\":3602:3608   */\n      dup2\n        /* \"#utility.yul\":3599:3629   */\n      gt\n        /* \"#utility.yul\":3596:3713   */\n      iszero\n      tag_310\n      jumpi\n        /* \"#utility.yul\":3632:3711   */\n      tag_311\n      tag_228\n      jump\t// in\n    tag_311:\n        /* \"#utility.yul\":3596:3713   */\n    tag_310:\n        /* \"#utility.yul\":3746:3750   */\n      0x20\n        /* \"#utility.yul\":3738:3744   */\n      dup4\n        /* \"#utility.yul\":3734:3751   */\n      add\n        /* \"#utility.yul\":3722:3751   */\n      swap2\n      pop\n        /* \"#utility.yul\":3800:3803   */\n      dup4\n        /* \"#utility.yul\":3792:3796   */\n      0x20\n        /* \"#utility.yul\":3784:3790   */\n      dup3\n        /* \"#utility.yul\":3780:3797   */\n      mul\n        /* \"#utility.yul\":3770:3778   */\n      dup4\n        /* \"#utility.yul\":3766:3798   */\n      add\n        /* \"#utility.yul\":3763:3804   */\n      gt\n        /* \"#utility.yul\":3760:3888   */\n      iszero\n      tag_312\n      jumpi\n        /* \"#utility.yul\":3807:3886   */\n      tag_313\n      tag_229\n      jump\t// in\n    tag_313:\n        /* \"#utility.yul\":3760:3888   */\n    tag_312:\n        /* \"#utility.yul\":3326:3894   */\n      swap3\n      pop\n      swap3\n      swap1\n      pop\n      jump\t// out\n        /* \"#utility.yul\":3900:4026   */\n    tag_231:\n        /* \"#utility.yul\":3937:3944   */\n      0x00\n        /* \"#utility.yul\":3977:4019   */\n      0xffffffffffffffffffffffffffffffffffffffff\n        /* \"#utility.yul\":3970:3975   */\n      dup3\n        /* \"#utility.yul\":3966:4020   */\n      and\n        /* \"#utility.yul\":3955:4020   */\n      swap1\n      pop\n        /* \"#utility.yul\":3900:4026   */\n      swap2\n      swap1\n      pop\n      jump\t// out\n        /* \"#utility.yul\":4032:4128   */\n    tag_232:\n        /* \"#utility.yul\":4069:4076   */\n      0x00\n        /* \"#utility.yul\":4098:4122   */\n      tag_316\n        /* \"#utility.yul\":4116:4121   */\n      dup3\n        /* \"#utility.yul\":4098:4122   */\n      tag_231\n      jump\t// in\n    tag_316:\n        /* \"#utility.yul\":4087:4122   */\n      swap1\n      pop\n        /* \"#utility.yul\":4032:4128   */\n      swap2\n      swap1\n      pop\n      jump\t// out\n        /* \"#utility.yul\":4134:4256   */\n    tag_233:\n        /* \"#utility.yul\":4207:4231   */\n      tag_318\n        /* \"#utility.yul\":4225:4230   */\n      dup2\n        /* \"#utility.yul\":4207:4231   */\n      tag_232\n      jump\t// in\n    tag_318:\n        /* \"#utility.yul\":4200:4205   */\n      dup2\n        /* \"#utility.yul\":4197:4232   */\n      eq\n        /* \"#utility.yul\":4187:4250   */\n      tag_319\n      jumpi\n        /* \"#utility.yul\":4246:4247   */\n      0x00\n        /* \"#utility.yul\":4243:4244   */\n      0x00\n        /* \"#utility.yul\":4236:4248   */\n      revert\n        /* \"#utility.yul\":4187:4250   */\n    tag_319:\n        /* \"#utility.yul\":4134:4256   */\n      pop\n      jump\t// out\n        /* \"#utility.yul\":4262:4401   */\n    tag_234:\n        /* \"#utility.yul\":4308:4313   */\n      0x00\n        /* \"#utility.yul\":4346:4352   */\n      dup2\n        /* \"#utility.yul\":4333:4353   */\n      calldataload\n        /* \"#utility.yul\":4324:4353   */\n      swap1\n      pop\n        /* \"#utility.yul\":4362:4395   */\n      tag_321\n        /* \"#utility.yul\":4389:4394   */\n      dup2\n        /* \"#utility.yul\":4362:4395   */\n      tag_233\n      jump\t// in\n    tag_321:\n        /* \"#utility.yul\":4262:4401   */\n      swap3\n      swap2\n      pop\n      pop\n      jump\t// out\n        /* \"#utility.yul\":4407:5548   */\n    tag_26:\n        /* \"#utility.yul\":4529:4535   */\n      0x00\n        /* \"#utility.yul\":4537:4543   */\n      0x00\n        /* \"#utility.yul\":4545:4551   */\n      0x00\n        /* \"#utility.yul\":4553:4559   */\n      0x00\n        /* \"#utility.yul\":4561:4567   */\n      0x00\n        /* \"#utility.yul\":4569:4575   */\n      0x00\n        /* \"#utility.yul\":4618:4621   */\n      0xa0\n        /* \"#utility.yul\":4606:4615   */\n      dup8\n        /* \"#utility.yul\":4597:4604   */\n      dup10\n        /* \"#utility.yul\":4593:4616   */\n      sub\n        /* \"#utility.yul\":4589:4622   */\n      slt\n        /* \"#utility.yul\":4586:4706   */\n      iszero\n      tag_323\n      jumpi\n        /* \"#utility.yul\":4625:4704   */\n      tag_324\n      tag_216\n      jump\t// in\n    tag_324:\n        /* \"#utility.yul\":4586:4706   */\n    tag_323:\n        /* \"#utility.yul\":4745:4746   */\n      0x00\n        /* \"#utility.yul\":4770:4823   */\n      tag_325\n        /* \"#utility.yul\":4815:4822   */\n      dup10\n        /* \"#utility.yul\":4806:4812   */\n      dup3\n        /* \"#utility.yul\":4795:4804   */\n      dup11\n        /* \"#utility.yul\":4791:4813   */\n      add\n        /* \"#utility.yul\":4770:4823   */\n      tag_225\n      jump\t// in\n    tag_325:\n        /* \"#utility.yul\":4760:4823   */\n      swap7\n      pop\n        /* \"#utility.yul\":4716:4833   */\n      pop\n        /* \"#utility.yul\":4872:4874   */\n      0x20\n        /* \"#utility.yul\":4898:4951   */\n      tag_326\n        /* \"#utility.yul\":4943:4950   */\n      dup10\n        /* \"#utility.yul\":4934:4940   */\n      dup3\n        /* \"#utility.yul\":4923:4932   */\n      dup11\n        /* \"#utility.yul\":4919:4941   */\n      add\n        /* \"#utility.yul\":4898:4951   */\n      tag_225\n      jump\t// in\n    tag_326:\n        /* \"#utility.yul\":4888:4951   */\n      swap6\n      pop\n        /* \"#utility.yul\":4843:4961   */\n      pop\n        /* \"#utility.yul\":5028:5030   */\n      0x40\n        /* \"#utility.yul\":5017:5026   */\n      dup8\n        /* \"#utility.yul\":5013:5031   */\n      add\n        /* \"#utility.yul\":5000:5032   */\n      calldataload\n        /* \"#utility.yul\":5059:5077   */\n      0xffffffffffffffff\n        /* \"#utility.yul\":5051:5057   */\n      dup2\n        /* \"#utility.yul\":5048:5078   */\n      gt\n        /* \"#utility.yul\":5045:5162   */\n      iszero\n      tag_327\n      jumpi\n        /* \"#utility.yul\":5081:5160   */\n      tag_328\n      tag_217\n      jump\t// in\n    tag_328:\n        /* \"#utility.yul\":5045:5162   */\n    tag_327:\n        /* \"#utility.yul\":5194:5274   */\n      tag_329\n        /* \"#utility.yul\":5266:5273   */\n      dup10\n        /* \"#utility.yul\":5257:5263   */\n      dup3\n        /* \"#utility.yul\":5246:5255   */\n      dup11\n        /* \"#utility.yul\":5242:5264   */\n      add\n        /* \"#utility.yul\":5194:5274   */\n      tag_230\n      jump\t// in\n    tag_329:\n        /* \"#utility.yul\":5176:5274   */\n      swap5\n      pop\n      swap5\n      pop\n        /* \"#utility.yul\":4971:5284   */\n      pop\n        /* \"#utility.yul\":5323:5325   */\n      0x60\n        /* \"#utility.yul\":5349:5402   */\n      tag_330\n        /* \"#utility.yul\":5394:5401   */\n      dup10\n        /* \"#utility.yul\":5385:5391   */\n      dup3\n        /* \"#utility.yul\":5374:5383   */\n      dup11\n        /* \"#utility.yul\":5370:5392   */\n      add\n        /* \"#utility.yul\":5349:5402   */\n      tag_234\n      jump\t// in\n    tag_330:\n        /* \"#utility.yul\":5339:5402   */\n      swap3\n      pop\n        /* \"#utility.yul\":5294:5412   */\n      pop\n        /* \"#utility.yul\":5451:5454   */\n      0x80\n        /* \"#utility.yul\":5478:5531   */\n      tag_331\n        /* \"#utility.yul\":5523:5530   */\n      dup10\n        /* \"#utility.yul\":5514:5520   */\n      dup3\n        /* \"#utility.yul\":5503:5512   */\n      dup11\n        /* \"#utility.yul\":5499:5521   */\n      add\n        /* \"#utility.yul\":5478:5531   */\n      tag_225\n      jump\t// in\n    tag_331:\n        /* \"#utility.yul\":5468:5531   */\n      swap2\n      pop\n        /* \"#utility.yul\":5422:5541   */\n      pop\n        /* \"#utility.yul\":4407:5548   */\n      swap3\n      swap6\n      pop\n      swap3\n      swap6\n      pop\n      swap3\n      swap6\n      jump\t// out\n        /* \"#utility.yul\":5554:5668   */\n    tag_235:\n        /* \"#utility.yul\":5621:5627   */\n      0x00\n        /* \"#utility.yul\":5655:5660   */\n      dup2\n        /* \"#utility.yul\":5649:5661   */\n      mload\n        /* \"#utility.yul\":5639:5661   */\n      swap1\n      pop\n        /* \"#utility.yul\":5554:5668   */\n      swap2\n      swap1\n      pop\n      jump\t// out\n        /* \"#utility.yul\":5674:5858   */\n    tag_236:\n        /* \"#utility.yul\":5773:5784   */\n      0x00\n        /* \"#utility.yul\":5807:5813   */\n      dup3\n        /* \"#utility.yul\":5802:5805   */\n      dup3\n        /* \"#utility.yul\":5795:5814   */\n      mstore\n        /* \"#utility.yul\":5847:5851   */\n      0x20\n        /* \"#utility.yul\":5842:5845   */\n      dup3\n        /* \"#utility.yul\":5838:5852   */\n      add\n        /* \"#utility.yul\":5823:5852   */\n      swap1\n      pop\n        /* \"#utility.yul\":5674:5858   */\n      swap3\n      swap2\n      pop\n      pop\n      jump\t// out\n        /* \"#utility.yul\":5864:5996   */\n    tag_237:\n        /* \"#utility.yul\":5931:5935   */\n      0x00\n        /* \"#utility.yul\":5954:5957   */\n      dup2\n        /* \"#utility.yul\":5946:5957   */\n      swap1\n      pop\n        /* \"#utility.yul\":5984:5988   */\n      0x20\n        /* \"#utility.yul\":5979:5982   */\n      dup3\n        /* \"#utility.yul\":5975:5989   */\n      add\n        /* \"#utility.yul\":5967:5989   */\n      swap1\n      pop\n        /* \"#utility.yul\":5864:5996   */\n      swap2\n      swap1\n      pop\n      jump\t// out\n        /* \"#utility.yul\":6002:6110   */\n    tag_238:\n        /* \"#utility.yul\":6079:6103   */\n      tag_336\n        /* \"#utility.yul\":6097:6102   */\n      dup2\n        /* \"#utility.yul\":6079:6103   */\n      tag_223\n      jump\t// in\n    tag_336:\n        /* \"#utility.yul\":6074:6077   */\n      dup3\n        /* \"#utility.yul\":6067:6104   */\n      mstore\n        /* \"#utility.yul\":6002:6110   */\n      pop\n      pop\n      jump\t// out\n        /* \"#utility.yul\":6116:6295   */\n    tag_239:\n        /* \"#utility.yul\":6185:6195   */\n      0x00\n        /* \"#utility.yul\":6206:6252   */\n      tag_338\n        /* \"#utility.yul\":6248:6251   */\n      dup4\n        /* \"#utility.yul\":6240:6246   */\n      dup4\n        /* \"#utility.yul\":6206:6252   */\n      tag_238\n      jump\t// in\n    tag_338:\n        /* \"#utility.yul\":6284:6288   */\n      0x20\n        /* \"#utility.yul\":6279:6282   */\n      dup4\n        /* \"#utility.yul\":6275:6289   */\n      add\n        /* \"#utility.yul\":6261:6289   */\n      swap1\n      pop\n        /* \"#utility.yul\":6116:6295   */\n      swap3\n      swap2\n      pop\n      pop\n      jump\t// out\n        /* \"#utility.yul\":6301:6414   */\n    tag_240:\n        /* \"#utility.yul\":6371:6375   */\n      0x00\n        /* \"#utility.yul\":6403:6407   */\n      0x20\n        /* \"#utility.yul\":6398:6401   */\n      dup3\n        /* \"#utility.yul\":6394:6408   */\n      add\n        /* \"#utility.yul\":6386:6408   */\n      swap1\n      pop\n        /* \"#utility.yul\":6301:6414   */\n      swap2\n      swap1\n      pop\n      jump\t// out\n        /* \"#utility.yul\":6450:7182   */\n    tag_241:\n        /* \"#utility.yul\":6569:6572   */\n      0x00\n        /* \"#utility.yul\":6598:6652   */\n      tag_341\n        /* \"#utility.yul\":6646:6651   */\n      dup3\n        /* \"#utility.yul\":6598:6652   */\n      tag_235\n      jump\t// in\n    tag_341:\n        /* \"#utility.yul\":6668:6754   */\n      tag_342\n        /* \"#utility.yul\":6747:6753   */\n      dup2\n        /* \"#utility.yul\":6742:6745   */\n      dup6\n        /* \"#utility.yul\":6668:6754   */\n      tag_236\n      jump\t// in\n    tag_342:\n        /* \"#utility.yul\":6661:6754   */\n      swap4\n      pop\n        /* \"#utility.yul\":6778:6834   */\n      tag_343\n        /* \"#utility.yul\":6828:6833   */\n      dup4\n        /* \"#utility.yul\":6778:6834   */\n      tag_237\n      jump\t// in\n    tag_343:\n        /* \"#utility.yul\":6857:6864   */\n      dup1\n        /* \"#utility.yul\":6888:6889   */\n      0x00\n        /* \"#utility.yul\":6873:7157   */\n    tag_344:\n        /* \"#utility.yul\":6898:6904   */\n      dup4\n        /* \"#utility.yul\":6895:6896   */\n      dup2\n        /* \"#utility.yul\":6892:6905   */\n      lt\n        /* \"#utility.yul\":6873:7157   */\n      iszero\n      tag_346\n      jumpi\n        /* \"#utility.yul\":6974:6980   */\n      dup2\n        /* \"#utility.yul\":6968:6981   */\n      mload\n        /* \"#utility.yul\":7001:7064   */\n      tag_347\n        /* \"#utility.yul\":7060:7063   */\n      dup9\n        /* \"#utility.yul\":7045:7058   */\n      dup3\n        /* \"#utility.yul\":7001:7064   */\n      tag_239\n      jump\t// in\n    tag_347:\n        /* \"#utility.yul\":6994:7064   */\n      swap8\n      pop\n        /* \"#utility.yul\":7087:7147   */\n      tag_348\n        /* \"#utility.yul\":7140:7146   */\n      dup4\n        /* \"#utility.yul\":7087:7147   */\n      tag_240\n      jump\t// in\n    tag_348:\n        /* \"#utility.yul\":7077:7147   */\n      swap3\n      pop\n        /* \"#utility.yul\":6933:7157   */\n      pop\n        /* \"#utility.yul\":6920:6921   */\n      0x01\n        /* \"#utility.yul\":6917:6918   */\n      dup2\n        /* \"#utility.yul\":6913:6922   */\n      add\n        /* \"#utility.yul\":6908:6922   */\n      swap1\n      pop\n        /* \"#utility.yul\":6873:7157   */\n      jump(tag_344)\n    tag_346:\n        /* \"#utility.yul\":6877:6891   */\n      pop\n        /* \"#utility.yul\":7173:7176   */\n      dup6\n        /* \"#utility.yul\":7166:7176   */\n      swap4\n      pop\n        /* \"#utility.yul\":6574:7182   */\n      pop\n      pop\n      pop\n        /* \"#utility.yul\":6450:7182   */\n      swap3\n      swap2\n      pop\n      pop\n      jump\t// out\n        /* \"#utility.yul\":7188:7561   */\n    tag_29:\n        /* \"#utility.yul\":7331:7335   */\n      0x00\n        /* \"#utility.yul\":7369:7371   */\n      0x20\n        /* \"#utility.yul\":7358:7367   */\n      dup3\n        /* \"#utility.yul\":7354:7372   */\n      add\n        /* \"#utility.yul\":7346:7372   */\n      swap1\n      pop\n        /* \"#utility.yul\":7418:7427   */\n      dup2\n        /* \"#utility.yul\":7412:7416   */\n      dup2\n        /* \"#utility.yul\":7408:7428   */\n      sub\n        /* \"#utility.yul\":7404:7405   */\n      0x00\n        /* \"#utility.yul\":7393:7402   */\n      dup4\n        /* \"#utility.yul\":7389:7406   */\n      add\n        /* \"#utility.yul\":7382:7429   */\n      mstore\n        /* \"#utility.yul\":7446:7554   */\n      tag_350\n        /* \"#utility.yul\":7549:7553   */\n      dup2\n        /* \"#utility.yul\":7540:7546   */\n      dup5\n        /* \"#utility.yul\":7446:7554   */\n      tag_241\n      jump\t// in\n    tag_350:\n        /* \"#utility.yul\":7438:7554   */\n      swap1\n      pop\n        /* \"#utility.yul\":7188:7561   */\n      swap3\n      swap2\n      pop\n      pop\n      jump\t// out\n        /* \"#utility.yul\":7567:8041   */\n    tag_36:\n        /* \"#utility.yul\":7635:7641   */\n      0x00\n        /* \"#utility.yul\":7643:7649   */\n      0x00\n        /* \"#utility.yul\":7692:7694   */\n      0x40\n        /* \"#utility.yul\":7680:7689   */\n      dup4\n        /* \"#utility.yul\":7671:7678   */\n      dup6\n        /* \"#utility.yul\":7667:7690   */\n      sub\n        /* \"#utility.yul\":7663:7695   */\n      slt\n        /* \"#utility.yul\":7660:7779   */\n      iszero\n      tag_352\n      jumpi\n        /* \"#utility.yul\":7698:7777   */\n      tag_353\n      tag_216\n      jump\t// in\n    tag_353:\n        /* \"#utility.yul\":7660:7779   */\n    tag_352:\n        /* \"#utility.yul\":7818:7819   */\n      0x00\n        /* \"#utility.yul\":7843:7896   */\n      tag_354\n        /* \"#utility.yul\":7888:7895   */\n      dup6\n        /* \"#utility.yul\":7879:7885   */\n      dup3\n        /* \"#utility.yul\":7868:7877   */\n      dup7\n        /* \"#utility.yul\":7864:7886   */\n      add\n        /* \"#utility.yul\":7843:7896   */\n      tag_234\n      jump\t// in\n    tag_354:\n        /* \"#utility.yul\":7833:7896   */\n      swap3\n      pop\n        /* \"#utility.yul\":7789:7906   */\n      pop\n        /* \"#utility.yul\":7945:7947   */\n      0x20\n        /* \"#utility.yul\":7971:8024   */\n      tag_355\n        /* \"#utility.yul\":8016:8023   */\n      dup6\n        /* \"#utility.yul\":8007:8013   */\n      dup3\n        /* \"#utility.yul\":7996:8005   */\n      dup7\n        /* \"#utility.yul\":7992:8014   */\n      add\n        /* \"#utility.yul\":7971:8024   */\n      tag_234\n      jump\t// in\n    tag_355:\n        /* \"#utility.yul\":7961:8024   */\n      swap2\n      pop\n        /* \"#utility.yul\":7916:8034   */\n      pop\n        /* \"#utility.yul\":7567:8041   */\n      swap3\n      pop\n      swap3\n      swap1\n      pop\n      jump\t// out\n        /* \"#utility.yul\":8047:9250   */\n    tag_41:\n        /* \"#utility.yul\":8160:8166   */\n      0x00\n        /* \"#utility.yul\":8168:8174   */\n      0x00\n        /* \"#utility.yul\":8176:8182   */\n      0x00\n        /* \"#utility.yul\":8184:8190   */\n      0x00\n        /* \"#utility.yul\":8192:8198   */\n      0x00\n        /* \"#utility.yul\":8200:8206   */\n      0x00\n        /* \"#utility.yul\":8208:8214   */\n      0x00\n        /* \"#utility.yul\":8257:8260   */\n      0xe0\n        /* \"#utility.yul\":8245:8254   */\n      dup9\n        /* \"#utility.yul\":8236:8243   */\n      dup11\n        /* \"#utility.yul\":8232:8255   */\n      sub\n        /* \"#utility.yul\":8228:8261   */\n      slt\n        /* \"#utility.yul\":8225:8345   */\n      iszero\n      tag_357\n      jumpi\n        /* \"#utility.yul\":8264:8343   */\n      tag_358\n      tag_216\n      jump\t// in\n    tag_358:\n        /* \"#utility.yul\":8225:8345   */\n    tag_357:\n        /* \"#utility.yul\":8384:8385   */\n      0x00\n        /* \"#utility.yul\":8409:8462   */\n      tag_359\n        /* \"#utility.yul\":8454:8461   */\n      dup11\n        /* \"#utility.yul\":8445:8451   */\n      dup3\n        /* \"#utility.yul\":8434:8443   */\n      dup12\n        /* \"#utility.yul\":8430:8452   */\n      add\n        /* \"#utility.yul\":8409:8462   */\n      tag_234\n      jump\t// in\n    tag_359:\n        /* \"#utility.yul\":8399:8462   */\n      swap8\n      pop\n        /* \"#utility.yul\":8355:8472   */\n      pop\n        /* \"#utility.yul\":8511:8513   */\n      0x20\n        /* \"#utility.yul\":8537:8590   */\n      tag_360\n        /* \"#utility.yul\":8582:8589   */\n      dup11\n        /* \"#utility.yul\":8573:8579   */\n      dup3\n        /* \"#utility.yul\":8562:8571   */\n      dup12\n        /* \"#utility.yul\":8558:8580   */\n      add\n        /* \"#utility.yul\":8537:8590   */\n      tag_234\n      jump\t// in\n    tag_360:\n        /* \"#utility.yul\":8527:8590   */\n      swap7\n      pop\n        /* \"#utility.yul\":8482:8600   */\n      pop\n        /* \"#utility.yul\":8639:8641   */\n      0x40\n        /* \"#utility.yul\":8665:8718   */\n      tag_361\n        /* \"#utility.yul\":8710:8717   */\n      dup11\n        /* \"#utility.yul\":8701:8707   */\n      dup3\n        /* \"#utility.yul\":8690:8699   */\n      dup12\n        /* \"#utility.yul\":8686:8708   */\n      add\n        /* \"#utility.yul\":8665:8718   */\n      tag_225\n      jump\t// in\n    tag_361:\n        /* \"#utility.yul\":8655:8718   */\n      swap6\n      pop\n        /* \"#utility.yul\":8610:8728   */\n      pop\n        /* \"#utility.yul\":8767:8769   */\n      0x60\n        /* \"#utility.yul\":8793:8846   */\n      tag_362\n        /* \"#utility.yul\":8838:8845   */\n      dup11\n        /* \"#utility.yul\":8829:8835   */\n      dup3\n        /* \"#utility.yul\":8818:8827   */\n      dup12\n        /* \"#utility.yul\":8814:8836   */\n      add\n        /* \"#utility.yul\":8793:8846   */\n      tag_225\n      jump\t// in\n    tag_362:\n        /* \"#utility.yul\":8783:8846   */\n      swap5\n      pop\n        /* \"#utility.yul\":8738:8856   */\n      pop\n        /* \"#utility.yul\":8895:8898   */\n      0x80\n        /* \"#utility.yul\":8922:8975   */\n      tag_363\n        /* \"#utility.yul\":8967:8974   */\n      dup11\n        /* \"#utility.yul\":8958:8964   */\n      dup3\n        /* \"#utility.yul\":8947:8956   */\n      dup12\n        /* \"#utility.yul\":8943:8965   */\n      add\n        /* \"#utility.yul\":8922:8975   */\n      tag_225\n      jump\t// in\n    tag_363:\n        /* \"#utility.yul\":8912:8975   */\n      swap4\n      pop\n        /* \"#utility.yul\":8866:8985   */\n      pop\n        /* \"#utility.yul\":9024:9027   */\n      0xa0\n        /* \"#utility.yul\":9051:9104   */\n      tag_364\n        /* \"#utility.yul\":9096:9103   */\n      dup11\n        /* \"#utility.yul\":9087:9093   */\n      dup3\n        /* \"#utility.yul\":9076:9085   */\n      dup12\n        /* \"#utility.yul\":9072:9094   */\n      add\n        /* \"#utility.yul\":9051:9104   */\n      tag_234\n      jump\t// in\n    tag_364:\n        /* \"#utility.yul\":9041:9104   */\n      swap3\n      pop\n        /* \"#utility.yul\":8995:9114   */\n      pop\n        /* \"#utility.yul\":9153:9156   */\n      0xc0\n        /* \"#utility.yul\":9180:9233   */\n      tag_365\n        /* \"#utility.yul\":9225:9232   */\n      dup11\n        /* \"#utility.yul\":9216:9222   */\n      dup3\n        /* \"#utility.yul\":9205:9214   */\n      dup12\n        /* \"#utility.yul\":9201:9223   */\n      add\n        /* \"#utility.yul\":9180:9233   */\n      tag_225\n      jump\t// in\n    tag_365:\n        /* \"#utility.yul\":9170:9233   */\n      swap2\n      pop\n        /* \"#utility.yul\":9124:9243   */\n      pop\n        /* \"#utility.yul\":8047:9250   */\n      swap3\n      swap6\n      swap9\n      swap2\n      swap5\n      swap8\n      pop\n      swap3\n      swap6\n      pop\n      jump\t// out\n        /* \"#utility.yul\":9256:9588   */\n    tag_44:\n        /* \"#utility.yul\":9377:9381   */\n      0x00\n        /* \"#utility.yul\":9415:9417   */\n      0x40\n        /* \"#utility.yul\":9404:9413   */\n      dup3\n        /* \"#utility.yul\":9400:9418   */\n      add\n        /* \"#utility.yul\":9392:9418   */\n      swap1\n      pop\n        /* \"#utility.yul\":9428:9499   */\n      tag_367\n        /* \"#utility.yul\":9496:9497   */\n      0x00\n        /* \"#utility.yul\":9485:9494   */\n      dup4\n        /* \"#utility.yul\":9481:9498   */\n      add\n        /* \"#utility.yul\":9472:9478   */\n      dup6\n        /* \"#utility.yul\":9428:9499   */\n      tag_226\n      jump\t// in\n    tag_367:\n        /* \"#utility.yul\":9509:9581   */\n      tag_368\n        /* \"#utility.yul\":9577:9579   */\n      0x20\n        /* \"#utility.yul\":9566:9575   */\n      dup4\n        /* \"#utility.yul\":9562:9580   */\n      add\n        /* \"#utility.yul\":9553:9559   */\n      dup5\n        /* \"#utility.yul\":9509:9581   */\n      tag_226\n      jump\t// in\n    tag_368:\n        /* \"#utility.yul\":9256:9588   */\n      swap4\n      swap3\n      pop\n      pop\n      pop\n      jump\t// out\n        /* \"#utility.yul\":9594:10068   */\n    tag_47:\n        /* \"#utility.yul\":9662:9668   */\n      0x00\n        /* \"#utility.yul\":9670:9676   */\n      0x00\n        /* \"#utility.yul\":9719:9721   */\n      0x40\n        /* \"#utility.yul\":9707:9716   */\n      dup4\n        /* \"#utility.yul\":9698:9705   */\n      dup6\n        /* \"#utility.yul\":9694:9717   */\n      sub\n        /* \"#utility.yul\":9690:9722   */\n      slt\n        /* \"#utility.yul\":9687:9806   */\n      iszero\n      tag_370\n      jumpi\n        /* \"#utility.yul\":9725:9804   */\n      tag_371\n      tag_216\n      jump\t// in\n    tag_371:\n        /* \"#utility.yul\":9687:9806   */\n    tag_370:\n        /* \"#utility.yul\":9845:9846   */\n      0x00\n        /* \"#utility.yul\":9870:9923   */\n      tag_372\n        /* \"#utility.yul\":9915:9922   */\n      dup6\n        /* \"#utility.yul\":9906:9912   */\n      dup3\n        /* \"#utility.yul\":9895:9904   */\n      dup7\n        /* \"#utility.yul\":9891:9913   */\n      add\n        /* \"#utility.yul\":9870:9923   */\n      tag_220\n      jump\t// in\n    tag_372:\n        /* \"#utility.yul\":9860:9923   */\n      swap3\n      pop\n        /* \"#utility.yul\":9816:9933   */\n      pop\n        /* \"#utility.yul\":9972:9974   */\n      0x20\n        /* \"#utility.yul\":9998:10051   */\n      tag_373\n        /* \"#utility.yul\":10043:10050   */\n      dup6\n        /* \"#utility.yul\":10034:10040   */\n      dup3\n        /* \"#utility.yul\":10023:10032   */\n      dup7\n        /* \"#utility.yul\":10019:10041   */\n      add\n        /* \"#utility.yul\":9998:10051   */\n      tag_234\n      jump\t// in\n    tag_373:\n        /* \"#utility.yul\":9988:10051   */\n      swap2\n      pop\n        /* \"#utility.yul\":9943:10061   */\n      pop\n        /* \"#utility.yul\":9594:10068   */\n      swap3\n      pop\n      swap3\n      swap1\n      pop\n      jump\t// out\n        /* \"#utility.yul\":10074:11423   */\n    tag_52:\n        /* \"#utility.yul\":10196:10202   */\n      0x00\n        /* \"#utility.yul\":10204:10210   */\n      0x00\n        /* \"#utility.yul\":10212:10218   */\n      0x00\n        /* \"#utility.yul\":10220:10226   */\n      0x00\n        /* \"#utility.yul\":10228:10234   */\n      0x00\n        /* \"#utility.yul\":10236:10242   */\n      0x00\n        /* \"#utility.yul\":10244:10250   */\n      0x00\n        /* \"#utility.yul\":10252:10258   */\n      0x00\n        /* \"#utility.yul\":10301:10304   */\n      0x0100\n        /* \"#utility.yul\":10289:10298   */\n      dup10\n        /* \"#utility.yul\":10280:10287   */\n      dup12\n        /* \"#utility.yul\":10276:10299   */\n      sub\n        /* \"#utility.yul\":10272:10305   */\n      slt\n        /* \"#utility.yul\":10269:10389   */\n      iszero\n      tag_375\n      jumpi\n        /* \"#utility.yul\":10308:10387   */\n      tag_376\n      tag_216\n      jump\t// in\n    tag_376:\n        /* \"#utility.yul\":10269:10389   */\n    tag_375:\n        /* \"#utility.yul\":10428:10429   */\n      0x00\n        /* \"#utility.yul\":10453:10506   */\n      tag_377\n        /* \"#utility.yul\":10498:10505   */\n      dup12\n        /* \"#utility.yul\":10489:10495   */\n      dup3\n        /* \"#utility.yul\":10478:10487   */\n      dup13\n        /* \"#utility.yul\":10474:10496   */\n      add\n        /* \"#utility.yul\":10453:10506   */\n      tag_234\n      jump\t// in\n    tag_377:\n        /* \"#utility.yul\":10443:10506   */\n      swap9\n      pop\n        /* \"#utility.yul\":10399:10516   */\n      pop\n        /* \"#utility.yul\":10555:10557   */\n      0x20\n        /* \"#utility.yul\":10581:10634   */\n      tag_378\n        /* \"#utility.yul\":10626:10633   */\n      dup12\n        /* \"#utility.yul\":10617:10623   */\n      dup3\n        /* \"#utility.yul\":10606:10615   */\n      dup13\n        /* \"#utility.yul\":10602:10624   */\n      add\n        /* \"#utility.yul\":10581:10634   */\n      tag_234\n      jump\t// in\n    tag_378:\n        /* \"#utility.yul\":10571:10634   */\n      swap8\n      pop\n        /* \"#utility.yul\":10526:10644   */\n      pop\n        /* \"#utility.yul\":10683:10685   */\n      0x40\n        /* \"#utility.yul\":10709:10762   */\n      tag_379\n        /* \"#utility.yul\":10754:10761   */\n      dup12\n        /* \"#utility.yul\":10745:10751   */\n      dup3\n        /* \"#utility.yul\":10734:10743   */\n      dup13\n        /* \"#utility.yul\":10730:10752   */\n      add\n        /* \"#utility.yul\":10709:10762   */\n      tag_225\n      jump\t// in\n    tag_379:\n        /* \"#utility.yul\":10699:10762   */\n      swap7\n      pop\n        /* \"#utility.yul\":10654:10772   */\n      pop\n        /* \"#utility.yul\":10811:10813   */\n      0x60\n        /* \"#utility.yul\":10837:10890   */\n      tag_380\n        /* \"#utility.yul\":10882:10889   */\n      dup12\n        /* \"#utility.yul\":10873:10879   */\n      dup3\n        /* \"#utility.yul\":10862:10871   */\n      dup13\n        /* \"#utility.yul\":10858:10880   */\n      add\n        /* \"#utility.yul\":10837:10890   */\n      tag_225\n      jump\t// in\n    tag_380:\n        /* \"#utility.yul\":10827:10890   */\n      swap6\n      pop\n        /* \"#utility.yul\":10782:10900   */\n      pop\n        /* \"#utility.yul\":10939:10942   */\n      0x80\n        /* \"#utility.yul\":10966:11019   */\n      tag_381\n        /* \"#utility.yul\":11011:11018   */\n      dup12\n        /* \"#utility.yul\":11002:11008   */\n      dup3\n        /* \"#utility.yul\":10991:11000   */\n      dup13\n        /* \"#utility.yul\":10987:11009   */\n      add\n        /* \"#utility.yul\":10966:11019   */\n      tag_225\n      jump\t// in\n    tag_381:\n        /* \"#utility.yul\":10956:11019   */\n      swap5\n      pop\n        /* \"#utility.yul\":10910:11029   */\n      pop\n        /* \"#utility.yul\":11068:11071   */\n      0xa0\n        /* \"#utility.yul\":11095:11148   */\n      tag_382\n        /* \"#utility.yul\":11140:11147   */\n      dup12\n        /* \"#utility.yul\":11131:11137   */\n      dup3\n        /* \"#utility.yul\":11120:11129   */\n      dup13\n        /* \"#utility.yul\":11116:11138   */\n      add\n        /* \"#utility.yul\":11095:11148   */\n      tag_225\n      jump\t// in\n    tag_382:\n        /* \"#utility.yul\":11085:11148   */\n      swap4\n      pop\n        /* \"#utility.yul\":11039:11158   */\n      pop\n        /* \"#utility.yul\":11197:11200   */\n      0xc0\n        /* \"#utility.yul\":11224:11277   */\n      tag_383\n        /* \"#utility.yul\":11269:11276   */\n      dup12\n        /* \"#utility.yul\":11260:11266   */\n      dup3\n        /* \"#utility.yul\":11249:11258   */\n      dup13\n        /* \"#utility.yul\":11245:11267   */\n      add\n        /* \"#utility.yul\":11224:11277   */\n      tag_234\n      jump\t// in\n    tag_383:\n        /* \"#utility.yul\":11214:11277   */\n      swap3\n      pop\n        /* \"#utility.yul\":11168:11287   */\n      pop\n        /* \"#utility.yul\":11326:11329   */\n      0xe0\n        /* \"#utility.yul\":11353:11406   */\n      tag_384\n        /* \"#utility.yul\":11398:11405   */\n      dup12\n        /* \"#utility.yul\":11389:11395   */\n      dup3\n        /* \"#utility.yul\":11378:11387   */\n      dup13\n        /* \"#utility.yul\":11374:11396   */\n      add\n        /* \"#utility.yul\":11353:11406   */\n      tag_225\n      jump\t// in\n    tag_384:\n        /* \"#utility.yul\":11343:11406   */\n      swap2\n      pop\n        /* \"#utility.yul\":11297:11416   */\n      pop\n        /* \"#utility.yul\":10074:11423   */\n      swap3\n      swap6\n      swap9\n      pop\n      swap3\n      swap6\n      swap9\n      swap1\n      swap4\n      swap7\n      pop\n      jump\t// out\n        /* \"#utility.yul\":11429:11871   */\n    tag_55:\n        /* \"#utility.yul\":11578:11582   */\n      0x00\n        /* \"#utility.yul\":11616:11618   */\n      0x60\n        /* \"#utility.yul\":11605:11614   */\n      dup3\n        /* \"#utility.yul\":11601:11619   */\n      add\n        /* \"#utility.yul\":11593:11619   */\n      swap1\n      pop\n        /* \"#utility.yul\":11629:11700   */\n      tag_386\n        /* \"#utility.yul\":11697:11698   */\n      0x00\n        /* \"#utility.yul\":11686:11695   */\n      dup4\n        /* \"#utility.yul\":11682:11699   */\n      add\n        /* \"#utility.yul\":11673:11679   */\n      dup7\n        /* \"#utility.yul\":11629:11700   */\n      tag_226\n      jump\t// in\n    tag_386:\n        /* \"#utility.yul\":11710:11782   */\n      tag_387\n        /* \"#utility.yul\":11778:11780   */\n      0x20\n        /* \"#utility.yul\":11767:11776   */\n      dup4\n        /* \"#utility.yul\":11763:11781   */\n      add\n        /* \"#utility.yul\":11754:11760   */\n      dup6\n        /* \"#utility.yul\":11710:11782   */\n      tag_226\n      jump\t// in\n    tag_387:\n        /* \"#utility.yul\":11792:11864   */\n      tag_388\n        /* \"#utility.yul\":11860:11862   */\n      0x40\n        /* \"#utility.yul\":11849:11858   */\n      dup4\n        /* \"#utility.yul\":11845:11863   */\n      add\n        /* \"#utility.yul\":11836:11842   */\n      dup5\n        /* \"#utility.yul\":11792:11864   */\n      tag_226\n      jump\t// in\n    tag_388:\n        /* \"#utility.yul\":11429:11871   */\n      swap5\n      swap4\n      pop\n      pop\n      pop\n      pop\n      jump\t// out\n        /* \"#utility.yul\":11877:12046   */\n    tag_242:\n        /* \"#utility.yul\":11961:11972   */\n      0x00\n        /* \"#utility.yul\":11995:12001   */\n      dup3\n        /* \"#utility.yul\":11990:11993   */\n      dup3\n        /* \"#utility.yul\":11983:12002   */\n      mstore\n        /* \"#utility.yul\":12035:12039   */\n      0x20\n        /* \"#utility.yul\":12030:12033   */\n      dup3\n        /* \"#utility.yul\":12026:12040   */\n      add\n        /* \"#utility.yul\":12011:12040   */\n      swap1\n      pop\n        /* \"#utility.yul\":11877:12046   */\n      swap3\n      swap2\n      pop\n      pop\n      jump\t// out\n        /* \"#utility.yul\":12052:12218   */\n    tag_243:\n        /* \"#utility.yul\":12192:12210   */\n      0x496e76616c696420726573657276657300000000000000000000000000000000\n        /* \"#utility.yul\":12188:12189   */\n      0x00\n        /* \"#utility.yul\":12180:12186   */\n      dup3\n        /* \"#utility.yul\":12176:12190   */\n      add\n        /* \"#utility.yul\":12169:12211   */\n      mstore\n        /* \"#utility.yul\":12052:12218   */\n      pop\n      jump\t// out\n        /* \"#utility.yul\":12224:12590   */\n    tag_244:\n        /* \"#utility.yul\":12366:12369   */\n      0x00\n        /* \"#utility.yul\":12387:12454   */\n      tag_392\n        /* \"#utility.yul\":12451:12453   */\n      0x10\n        /* \"#utility.yul\":12446:12449   */\n      dup4\n        /* \"#utility.yul\":12387:12454   */\n      tag_242\n      jump\t// in\n    tag_392:\n        /* \"#utility.yul\":12380:12454   */\n      swap2\n      pop\n        /* \"#utility.yul\":12463:12556   */\n      tag_393\n        /* \"#utility.yul\":12552:12555   */\n      dup3\n        /* \"#utility.yul\":12463:12556   */\n      tag_243\n      jump\t// in\n    tag_393:\n        /* \"#utility.yul\":12581:12583   */\n      0x20\n        /* \"#utility.yul\":12576:12579   */\n      dup3\n        /* \"#utility.yul\":12572:12584   */\n      add\n        /* \"#utility.yul\":12565:12584   */\n      swap1\n      pop\n        /* \"#utility.yul\":12224:12590   */\n      swap2\n      swap1\n      pop\n      jump\t// out\n        /* \"#utility.yul\":12596:13015   */\n    tag_61:\n        /* \"#utility.yul\":12762:12766   */\n      0x00\n        /* \"#utility.yul\":12800:12802   */\n      0x20\n        /* \"#utility.yul\":12789:12798   */\n      dup3\n        /* \"#utility.yul\":12785:12803   */\n      add\n        /* \"#utility.yul\":12777:12803   */\n      swap1\n      pop\n        /* \"#utility.yul\":12849:12858   */\n      dup2\n        /* \"#utility.yul\":12843:12847   */\n      dup2\n        /* \"#utility.yul\":12839:12859   */\n      sub\n        /* \"#utility.yul\":12835:12836   */\n      0x00\n        /* \"#utility.yul\":12824:12833   */\n      dup4\n        /* \"#utility.yul\":12820:12837   */\n      add\n        /* \"#utility.yul\":12813:12860   */\n      mstore\n        /* \"#utility.yul\":12877:13008   */\n      tag_395\n        /* \"#utility.yul\":13003:13007   */\n      dup2\n        /* \"#utility.yul\":12877:13008   */\n      tag_244\n      jump\t// in\n    tag_395:\n        /* \"#utility.yul\":12869:13008   */\n      swap1\n      pop\n        /* \"#utility.yul\":12596:13015   */\n      swap2\n      swap1\n      pop\n      jump\t// out\n        /* \"#utility.yul\":13021:13201   */\n    tag_245:\n        /* \"#utility.yul\":13069:13146   */\n      0x4e487b7100000000000000000000000000000000000000000000000000000000\n        /* \"#utility.yul\":13066:13067   */\n      0x00\n        /* \"#utility.yul\":13059:13147   */\n      mstore\n        /* \"#utility.yul\":13166:13170   */\n      0x11\n        /* \"#utility.yul\":13163:13164   */\n      0x04\n        /* \"#utility.yul\":13156:13171   */\n      mstore\n        /* \"#utility.yul\":13190:13194   */\n      0x24\n        /* \"#utility.yul\":13187:13188   */\n      0x00\n        /* \"#utility.yul\":13180:13195   */\n      revert\n        /* \"#utility.yul\":13207:13617   */\n    tag_63:\n        /* \"#utility.yul\":13247:13254   */\n      0x00\n        /* \"#utility.yul\":13270:13290   */\n      tag_398\n        /* \"#utility.yul\":13288:13289   */\n      dup3\n        /* \"#utility.yul\":13270:13290   */\n      tag_223\n      jump\t// in\n    tag_398:\n        /* \"#utility.yul\":13265:13290   */\n      swap2\n      pop\n        /* \"#utility.yul\":13304:13324   */\n      tag_399\n        /* \"#utility.yul\":13322:13323   */\n      dup4\n        /* \"#utility.yul\":13304:13324   */\n      tag_223\n      jump\t// in\n    tag_399:\n        /* \"#utility.yul\":13299:13324   */\n      swap3\n      pop\n        /* \"#utility.yul\":13359:13360   */\n      dup3\n        /* \"#utility.yul\":13356:13357   */\n      dup3\n        /* \"#utility.yul\":13352:13361   */\n      mul\n        /* \"#utility.yul\":13381:13411   */\n      tag_400\n        /* \"#utility.yul\":13399:13410   */\n      dup2\n        /* \"#utility.yul\":13381:13411   */\n      tag_223\n      jump\t// in\n    tag_400:\n        /* \"#utility.yul\":13370:13411   */\n      swap2\n      pop\n        /* \"#utility.yul\":13560:13561   */\n      dup3\n        /* \"#utility.yul\":13551:13558   */\n      dup3\n        /* \"#utility.yul\":13547:13562   */\n      div\n        /* \"#utility.yul\":13544:13545   */\n      dup5\n        /* \"#utility.yul\":13541:13563   */\n      eq\n        /* \"#utility.yul\":13521:13522   */\n      dup4\n        /* \"#utility.yul\":13514:13523   */\n      iszero\n        /* \"#utility.yul\":13494:13577   */\n      or\n        /* \"#utility.yul\":13471:13610   */\n      tag_401\n      jumpi\n        /* \"#utility.yul\":13590:13608   */\n      tag_402\n      tag_245\n      jump\t// in\n    tag_402:\n        /* \"#utility.yul\":13471:13610   */\n    tag_401:\n        /* \"#utility.yul\":13255:13617   */\n      pop\n        /* \"#utility.yul\":13207:13617   */\n      swap3\n      swap2\n      pop\n      pop\n      jump\t// out\n        /* \"#utility.yul\":13623:13814   */\n    tag_67:\n        /* \"#utility.yul\":13663:13666   */\n      0x00\n        /* \"#utility.yul\":13682:13702   */\n      tag_404\n        /* \"#utility.yul\":13700:13701   */\n      dup3\n        /* \"#utility.yul\":13682:13702   */\n      tag_223\n      jump\t// in\n    tag_404:\n        /* \"#utility.yul\":13677:13702   */\n      swap2\n      pop\n        /* \"#utility.yul\":13716:13736   */\n      tag_405\n        /* \"#utility.yul\":13734:13735   */\n      dup4\n        /* \"#utility.yul\":13716:13736   */\n      tag_223\n      jump\t// in\n    tag_405:\n        /* \"#utility.yul\":13711:13736   */\n      swap3\n      pop\n        /* \"#utility.yul\":13759:13760   */\n      dup3\n        /* \"#utility.yul\":13756:13757   */\n      dup3\n        /* \"#utility.yul\":13752:13761   */\n      add\n        /* \"#utility.yul\":13745:13761   */\n      swap1\n      pop\n        /* \"#utility.yul\":13780:13783   */\n      dup1\n        /* \"#utility.yul\":13777:13778   */\n      dup3\n        /* \"#utility.yul\":13774:13784   */\n      gt\n        /* \"#utility.yul\":13771:13807   */\n      iszero\n      tag_406\n      jumpi\n        /* \"#utility.yul\":13787:13805   */\n      tag_407\n      tag_245\n      jump\t// in\n    tag_407:\n        /* \"#utility.yul\":13771:13807   */\n    tag_406:\n        /* \"#utility.yul\":13623:13814   */\n      swap3\n      swap2\n      pop\n      pop\n      jump\t// out\n        /* \"#utility.yul\":13820:14000   */\n    tag_246:\n        /* \"#utility.yul\":13868:13945   */\n      0x4e487b7100000000000000000000000000000000000000000000000000000000\n        /* \"#utility.yul\":13865:13866   */\n      0x00\n        /* \"#utility.yul\":13858:13946   */\n      mstore\n        /* \"#utility.yul\":13965:13969   */\n      0x12\n        /* \"#utility.yul\":13962:13963   */\n      0x04\n        /* \"#utility.yul\":13955:13970   */\n      mstore\n        /* \"#utility.yul\":13989:13993   */\n      0x24\n        /* \"#utility.yul\":13986:13987   */\n      0x00\n        /* \"#utility.yul\":13979:13994   */\n      revert\n        /* \"#utility.yul\":14006:14191   */\n    tag_69:\n        /* \"#utility.yul\":14046:14047   */\n      0x00\n        /* \"#utility.yul\":14063:14083   */\n      tag_410\n        /* \"#utility.yul\":14081:14082   */\n      dup3\n        /* \"#utility.yul\":14063:14083   */\n      tag_223\n      jump\t// in\n    tag_410:\n        /* \"#utility.yul\":14058:14083   */\n      swap2\n      pop\n        /* \"#utility.yul\":14097:14117   */\n      tag_411\n        /* \"#utility.yul\":14115:14116   */\n      dup4\n        /* \"#utility.yul\":14097:14117   */\n      tag_223\n      jump\t// in\n    tag_411:\n        /* \"#utility.yul\":14092:14117   */\n      swap3\n      pop\n        /* \"#utility.yul\":14136:14137   */\n      dup3\n        /* \"#utility.yul\":14126:14161   */\n      tag_412\n      jumpi\n        /* \"#utility.yul\":14141:14159   */\n      tag_413\n      tag_246\n      jump\t// in\n    tag_413:\n        /* \"#utility.yul\":14126:14161   */\n    tag_412:\n        /* \"#utility.yul\":14183:14184   */\n      dup3\n        /* \"#utility.yul\":14180:14181   */\n      dup3\n        /* \"#utility.yul\":14176:14185   */\n      div\n        /* \"#utility.yul\":14171:14185   */\n      swap1\n      pop\n        /* \"#utility.yul\":14006:14191   */\n      swap3\n      swap2\n      pop\n      pop\n      jump\t// out\n        /* \"#utility.yul\":14197:14354   */\n    tag_247:\n        /* \"#utility.yul\":14337:14346   */\n      0x4578706972656400000000000000000000000000000000000000000000000000\n        /* \"#utility.yul\":14333:14334   */\n      0x00\n        /* \"#utility.yul\":14325:14331   */\n      dup3\n        /* \"#utility.yul\":14321:14335   */\n      add\n        /* \"#utility.yul\":14314:14347   */\n      mstore\n        /* \"#utility.yul\":14197:14354   */\n      pop\n      jump\t// out\n        /* \"#utility.yul\":14360:14725   */\n    tag_248:\n        /* \"#utility.yul\":14502:14505   */\n      0x00\n        /* \"#utility.yul\":14523:14589   */\n      tag_416\n        /* \"#utility.yul\":14587:14588   */\n      0x07\n        /* \"#utility.yul\":14582:14585   */\n      dup4\n        /* \"#utility.yul\":14523:14589   */\n      tag_242\n      jump\t// in\n    tag_416:\n        /* \"#utility.yul\":14516:14589   */\n      swap2\n      pop\n        /* \"#utility.yul\":14598:14691   */\n      tag_417\n        /* \"#utility.yul\":14687:14690   */\n      dup3\n        /* \"#utility.yul\":14598:14691   */\n      tag_247\n      jump\t// in\n    tag_417:\n        /* \"#utility.yul\":14716:14718   */\n      0x20\n        /* \"#utility.yul\":14711:14714   */\n      dup3\n        /* \"#utility.yul\":14707:14719   */\n      add\n        /* \"#utility.yul\":14700:14719   */\n      swap1\n      pop\n        /* \"#utility.yul\":14360:14725   */\n      swap2\n      swap1\n      pop\n      jump\t// out\n        /* \"#utility.yul\":14731:15150   */\n    tag_73:\n        /* \"#utility.yul\":14897:14901   */\n      0x00\n        /* \"#utility.yul\":14935:14937   */\n      0x20\n        /* \"#utility.yul\":14924:14933   */\n      dup3\n        /* \"#utility.yul\":14920:14938   */\n      add\n        /* \"#utility.yul\":14912:14938   */\n      swap1\n      pop\n        /* \"#utility.yul\":14984:14993   */\n      dup2\n        /* \"#utility.yul\":14978:14982   */\n      dup2\n        /* \"#utility.yul\":14974:14994   */\n      sub\n        /* \"#utility.yul\":14970:14971   */\n      0x00\n        /* \"#utility.yul\":14959:14968   */\n      dup4\n        /* \"#utility.yul\":14955:14972   */\n      add\n        /* \"#utility.yul\":14948:14995   */\n      mstore\n        /* \"#utility.yul\":15012:15143   */\n      tag_419\n        /* \"#utility.yul\":15138:15142   */\n      dup2\n        /* \"#utility.yul\":15012:15143   */\n      tag_248\n      jump\t// in\n    tag_419:\n        /* \"#utility.yul\":15004:15143   */\n      swap1\n      pop\n        /* \"#utility.yul\":14731:15150   */\n      swap2\n      swap1\n      pop\n      jump\t// out\n        /* \"#utility.yul\":15156:15333   */\n    tag_249:\n        /* \"#utility.yul\":15296:15325   */\n      0x4f6e6c7920322d746f6b656e207061746820737570706f727465640000000000\n        /* \"#utility.yul\":15292:15293   */\n      0x00\n        /* \"#utility.yul\":15284:15290   */\n      dup3\n        /* \"#utility.yul\":15280:15294   */\n      add\n        /* \"#utility.yul\":15273:15326   */\n      mstore\n        /* \"#utility.yul\":15156:15333   */\n      pop\n      jump\t// out\n        /* \"#utility.yul\":15339:15705   */\n    tag_250:\n        /* \"#utility.yul\":15481:15484   */\n      0x00\n        /* \"#utility.yul\":15502:15569   */\n      tag_422\n        /* \"#utility.yul\":15566:15568   */\n      0x1b\n        /* \"#utility.yul\":15561:15564   */\n      dup4\n        /* \"#utility.yul\":15502:15569   */\n      tag_242\n      jump\t// in\n    tag_422:\n        /* \"#utility.yul\":15495:15569   */\n      swap2\n      pop\n        /* \"#utility.yul\":15578:15671   */\n      tag_423\n        /* \"#utility.yul\":15667:15670   */\n      dup3\n        /* \"#utility.yul\":15578:15671   */\n      tag_249\n      jump\t// in\n    tag_423:\n        /* \"#utility.yul\":15696:15698   */\n      0x20\n        /* \"#utility.yul\":15691:15694   */\n      dup3\n        /* \"#utility.yul\":15687:15699   */\n      add\n        /* \"#utility.yul\":15680:15699   */\n      swap1\n      pop\n        /* \"#utility.yul\":15339:15705   */\n      swap2\n      swap1\n      pop\n      jump\t// out\n        /* \"#utility.yul\":15711:16130   */\n    tag_76:\n        /* \"#utility.yul\":15877:15881   */\n      0x00\n        /* \"#utility.yul\":15915:15917   */\n      0x20\n        /* \"#utility.yul\":15904:15913   */\n      dup3\n        /* \"#utility.yul\":15900:15918   */\n      add\n        /* \"#utility.yul\":15892:15918   */\n      swap1\n      pop\n        /* \"#utility.yul\":15964:15973   */\n      dup2\n        /* \"#utility.yul\":15958:15962   */\n      dup2\n        /* \"#utility.yul\":15954:15974   */\n      sub\n        /* \"#utility.yul\":15950:15951   */\n      0x00\n        /* \"#utility.yul\":15939:15948   */\n      dup4\n        /* \"#utility.yul\":15935:15952   */\n      add\n        /* \"#utility.yul\":15928:15975   */\n      mstore\n        /* \"#utility.yul\":15992:16123   */\n      tag_425\n        /* \"#utility.yul\":16118:16122   */\n      dup2\n        /* \"#utility.yul\":15992:16123   */\n      tag_250\n      jump\t// in\n    tag_425:\n        /* \"#utility.yul\":15984:16123   */\n      swap1\n      pop\n        /* \"#utility.yul\":15711:16130   */\n      swap2\n      swap1\n      pop\n      jump\t// out\n        /* \"#utility.yul\":16136:16316   */\n    tag_79:\n        /* \"#utility.yul\":16184:16261   */\n      0x4e487b7100000000000000000000000000000000000000000000000000000000\n        /* \"#utility.yul\":16181:16182   */\n      0x00\n        /* \"#utility.yul\":16174:16262   */\n      mstore\n        /* \"#utility.yul\":16281:16285   */\n      0x32\n        /* \"#utility.yul\":16278:16279   */\n      0x04\n        /* \"#utility.yul\":16271:16286   */\n      mstore\n        /* \"#utility.yul\":16305:16309   */\n      0x24\n        /* \"#utility.yul\":16302:16303   */\n      0x00\n        /* \"#utility.yul\":16295:16310   */\n      revert\n        /* \"#utility.yul\":16322:16651   */\n    tag_81:\n        /* \"#utility.yul\":16381:16387   */\n      0x00\n        /* \"#utility.yul\":16430:16432   */\n      0x20\n        /* \"#utility.yul\":16418:16427   */\n      dup3\n        /* \"#utility.yul\":16409:16416   */\n      dup5\n        /* \"#utility.yul\":16405:16428   */\n      sub\n        /* \"#utility.yul\":16401:16433   */\n      slt\n        /* \"#utility.yul\":16398:16517   */\n      iszero\n      tag_428\n      jumpi\n        /* \"#utility.yul\":16436:16515   */\n      tag_429\n      tag_216\n      jump\t// in\n    tag_429:\n        /* \"#utility.yul\":16398:16517   */\n    tag_428:\n        /* \"#utility.yul\":16556:16557   */\n      0x00\n        /* \"#utility.yul\":16581:16634   */\n      tag_430\n        /* \"#utility.yul\":16626:16633   */\n      dup5\n        /* \"#utility.yul\":16617:16623   */\n      dup3\n        /* \"#utility.yul\":16606:16615   */\n      dup6\n        /* \"#utility.yul\":16602:16624   */\n      add\n        /* \"#utility.yul\":16581:16634   */\n      tag_234\n      jump\t// in\n    tag_430:\n        /* \"#utility.yul\":16571:16634   */\n      swap2\n      pop\n        /* \"#utility.yul\":16527:16644   */\n      pop\n        /* \"#utility.yul\":16322:16651   */\n      swap3\n      swap2\n      pop\n      pop\n      jump\t// out\n        /* \"#utility.yul\":16657:16826   */\n    tag_251:\n        /* \"#utility.yul\":16797:16818   */\n      0x496e73756666696369656e74206f757470757400000000000000000000000000\n        /* \"#utility.yul\":16793:16794   */\n      0x00\n        /* \"#utility.yul\":16785:16791   */\n      dup3\n        /* \"#utility.yul\":16781:16795   */\n      add\n        /* \"#utility.yul\":16774:16819   */\n      mstore\n        /* \"#utility.yul\":16657:16826   */\n      pop\n      jump\t// out\n        /* \"#utility.yul\":16832:17198   */\n    tag_252:\n        /* \"#utility.yul\":16974:16977   */\n      0x00\n        /* \"#utility.yul\":16995:17062   */\n      tag_433\n        /* \"#utility.yul\":17059:17061   */\n      0x13\n        /* \"#utility.yul\":17054:17057   */\n      dup4\n        /* \"#utility.yul\":16995:17062   */\n      tag_242\n      jump\t// in\n    tag_433:\n        /* \"#utility.yul\":16988:17062   */\n      swap2\n      pop\n        /* \"#utility.yul\":17071:17164   */\n      tag_434\n        /* \"#utility.yul\":17160:17163   */\n      dup3\n        /* \"#utility.yul\":17071:17164   */\n      tag_251\n      jump\t// in\n    tag_434:\n        /* \"#utility.yul\":17189:17191   */\n      0x20\n        /* \"#utility.yul\":17184:17187   */\n      dup3\n        /* \"#utility.yul\":17180:17192   */\n      add\n        /* \"#utility.yul\":17173:17192   */\n      swap1\n      pop\n        /* \"#utility.yul\":16832:17198   */\n      swap2\n      swap1\n      pop\n      jump\t// out\n        /* \"#utility.yul\":17204:17623   */\n    tag_89:\n        /* \"#utility.yul\":17370:17374   */\n      0x00\n        /* \"#utility.yul\":17408:17410   */\n      0x20\n        /* \"#utility.yul\":17397:17406   */\n      dup3\n        /* \"#utility.yul\":17393:17411   */\n      add\n        /* \"#utility.yul\":17385:17411   */\n      swap1\n      pop\n        /* \"#utility.yul\":17457:17466   */\n      dup2\n        /* \"#utility.yul\":17451:17455   */\n      dup2\n        /* \"#utility.yul\":17447:17467   */\n      sub\n        /* \"#utility.yul\":17443:17444   */\n      0x00\n        /* \"#utility.yul\":17432:17441   */\n      dup4\n        /* \"#utility.yul\":17428:17445   */\n      add\n        /* \"#utility.yul\":17421:17468   */\n      mstore\n        /* \"#utility.yul\":17485:17616   */\n      tag_436\n        /* \"#utility.yul\":17611:17615   */\n      dup2\n        /* \"#utility.yul\":17485:17616   */\n      tag_252\n      jump\t// in\n    tag_436:\n        /* \"#utility.yul\":17477:17616   */\n      swap1\n      pop\n        /* \"#utility.yul\":17204:17623   */\n      swap2\n      swap1\n      pop\n      jump\t// out\n        /* \"#utility.yul\":17629:17809   */\n    tag_96:\n        /* \"#utility.yul\":17677:17754   */\n      0x4e487b7100000000000000000000000000000000000000000000000000000000\n        /* \"#utility.yul\":17674:17675   */\n      0x00\n        /* \"#utility.yul\":17667:17755   */\n      mstore\n        /* \"#utility.yul\":17774:17778   */\n      0x41\n        /* \"#utility.yul\":17771:17772   */\n      0x04\n        /* \"#utility.yul\":17764:17779   */\n      mstore\n        /* \"#utility.yul\":17798:17802   */\n      0x24\n        /* \"#utility.yul\":17795:17796   */\n      0x00\n        /* \"#utility.yul\":17788:17803   */\n      revert\n        /* \"#utility.yul\":17815:17976   */\n    tag_253:\n        /* \"#utility.yul\":17955:17968   */\n      0x4e6f207265736572766573000000000000000000000000000000000000000000\n        /* \"#utility.yul\":17951:17952   */\n      0x00\n        /* \"#utility.yul\":17943:17949   */\n      dup3\n        /* \"#utility.yul\":17939:17953   */\n      add\n        /* \"#utility.yul\":17932:17969   */\n      mstore\n        /* \"#utility.yul\":17815:17976   */\n      pop\n      jump\t// out\n        /* \"#utility.yul\":17982:18348   */\n    tag_254:\n        /* \"#utility.yul\":18124:18127   */\n      0x00\n        /* \"#utility.yul\":18145:18212   */\n      tag_440\n        /* \"#utility.yul\":18209:18211   */\n      0x0b\n        /* \"#utility.yul\":18204:18207   */\n      dup4\n        /* \"#utility.yul\":18145:18212   */\n      tag_242\n      jump\t// in\n    tag_440:\n        /* \"#utility.yul\":18138:18212   */\n      swap2\n      pop\n        /* \"#utility.yul\":18221:18314   */\n      tag_441\n        /* \"#utility.yul\":18310:18313   */\n      dup3\n        /* \"#utility.yul\":18221:18314   */\n      tag_253\n      jump\t// in\n    tag_441:\n        /* \"#utility.yul\":18339:18341   */\n      0x20\n        /* \"#utility.yul\":18334:18337   */\n      dup3\n        /* \"#utility.yul\":18330:18342   */\n      add\n        /* \"#utility.yul\":18323:18342   */\n      swap1\n      pop\n        /* \"#utility.yul\":17982:18348   */\n      swap2\n      swap1\n      pop\n      jump\t// out\n        /* \"#utility.yul\":18354:18773   */\n    tag_110:\n        /* \"#utility.yul\":18520:18524   */\n      0x00\n        /* \"#utility.yul\":18558:18560   */\n      0x20\n        /* \"#utility.yul\":18547:18556   */\n      dup3\n        /* \"#utility.yul\":18543:18561   */\n      add\n        /* \"#utility.yul\":18535:18561   */\n      swap1\n      pop\n        /* \"#utility.yul\":18607:18616   */\n      dup2\n        /* \"#utility.yul\":18601:18605   */\n      dup2\n        /* \"#utility.yul\":18597:18617   */\n      sub\n        /* \"#utility.yul\":18593:18594   */\n      0x00\n        /* \"#utility.yul\":18582:18591   */\n      dup4\n        /* \"#utility.yul\":18578:18595   */\n      add\n        /* \"#utility.yul\":18571:18618   */\n      mstore\n        /* \"#utility.yul\":18635:18766   */\n      tag_443\n        /* \"#utility.yul\":18761:18765   */\n      dup2\n        /* \"#utility.yul\":18635:18766   */\n      tag_254\n      jump\t// in\n    tag_443:\n        /* \"#utility.yul\":18627:18766   */\n      swap1\n      pop\n        /* \"#utility.yul\":18354:18773   */\n      swap2\n      swap1\n      pop\n      jump\t// out\n        /* \"#utility.yul\":18779:18941   */\n    tag_255:\n        /* \"#utility.yul\":18919:18933   */\n      0x4e6f206c69717569646974790000000000000000000000000000000000000000\n        /* \"#utility.yul\":18915:18916   */\n      0x00\n        /* \"#utility.yul\":18907:18913   */\n      dup3\n        /* \"#utility.yul\":18903:18917   */\n      add\n        /* \"#utility.yul\":18896:18934   */\n      mstore\n        /* \"#utility.yul\":18779:18941   */\n      pop\n      jump\t// out\n        /* \"#utility.yul\":18947:19313   */\n    tag_256:\n        /* \"#utility.yul\":19089:19092   */\n      0x00\n        /* \"#utility.yul\":19110:19177   */\n      tag_446\n        /* \"#utility.yul\":19174:19176   */\n      0x0c\n        /* \"#utility.yul\":19169:19172   */\n      dup4\n        /* \"#utility.yul\":19110:19177   */\n      tag_242\n      jump\t// in\n    tag_446:\n        /* \"#utility.yul\":19103:19177   */\n      swap2\n      pop\n        /* \"#utility.yul\":19186:19279   */\n      tag_447\n        /* \"#utility.yul\":19275:19278   */\n      dup3\n        /* \"#utility.yul\":19186:19279   */\n      tag_255\n      jump\t// in\n    tag_447:\n        /* \"#utility.yul\":19304:19306   */\n      0x20\n        /* \"#utility.yul\":19299:19302   */\n      dup3\n        /* \"#utility.yul\":19295:19307   */\n      add\n        /* \"#utility.yul\":19288:19307   */\n      swap1\n      pop\n        /* \"#utility.yul\":18947:19313   */\n      swap2\n      swap1\n      pop\n      jump\t// out\n        /* \"#utility.yul\":19319:19738   */\n    tag_119:\n        /* \"#utility.yul\":19485:19489   */\n      0x00\n        /* \"#utility.yul\":19523:19525   */\n      0x20\n        /* \"#utility.yul\":19512:19521   */\n      dup3\n        /* \"#utility.yul\":19508:19526   */\n      add\n        /* \"#utility.yul\":19500:19526   */\n      swap1\n      pop\n        /* \"#utility.yul\":19572:19581   */\n      dup2\n        /* \"#utility.yul\":19566:19570   */\n      dup2\n        /* \"#utility.yul\":19562:19582   */\n      sub\n        /* \"#utility.yul\":19558:19559   */\n      0x00\n        /* \"#utility.yul\":19547:19556   */\n      dup4\n        /* \"#utility.yul\":19543:19560   */\n      add\n        /* \"#utility.yul\":19536:19583   */\n      mstore\n        /* \"#utility.yul\":19600:19731   */\n      tag_449\n        /* \"#utility.yul\":19726:19730   */\n      dup2\n        /* \"#utility.yul\":19600:19731   */\n      tag_256\n      jump\t// in\n    tag_449:\n        /* \"#utility.yul\":19592:19731   */\n      swap1\n      pop\n        /* \"#utility.yul\":19319:19738   */\n      swap2\n      swap1\n      pop\n      jump\t// out\n        /* \"#utility.yul\":19744:19902   */\n    tag_257:\n        /* \"#utility.yul\":19884:19894   */\n      0x536c697070616765000000000000000000000000000000000000000000000000\n        /* \"#utility.yul\":19880:19881   */\n      0x00\n        /* \"#utility.yul\":19872:19878   */\n      dup3\n        /* \"#utility.yul\":19868:19882   */\n      add\n        /* \"#utility.yul\":19861:19895   */\n      mstore\n        /* \"#utility.yul\":19744:19902   */\n      pop\n      jump\t// out\n        /* \"#utility.yul\":19908:20273   */\n    tag_258:\n        /* \"#utility.yul\":20050:20053   */\n      0x00\n        /* \"#utility.yul\":20071:20137   */\n      tag_452\n        /* \"#utility.yul\":20135:20136   */\n      0x08\n        /* \"#utility.yul\":20130:20133   */\n      dup4\n        /* \"#utility.yul\":20071:20137   */\n      tag_242\n      jump\t// in\n    tag_452:\n        /* \"#utility.yul\":20064:20137   */\n      swap2\n      pop\n        /* \"#utility.yul\":20146:20239   */\n      tag_453\n        /* \"#utility.yul\":20235:20238   */\n      dup3\n        /* \"#utility.yul\":20146:20239   */\n      tag_257\n      jump\t// in\n    tag_453:\n        /* \"#utility.yul\":20264:20266   */\n      0x20\n        /* \"#utility.yul\":20259:20262   */\n      dup3\n        /* \"#utility.yul\":20255:20267   */\n      add\n        /* \"#utility.yul\":20248:20267   */\n      swap1\n      pop\n        /* \"#utility.yul\":19908:20273   */\n      swap2\n      swap1\n      pop\n      jump\t// out\n        /* \"#utility.yul\":20279:20698   */\n    tag_127:\n        /* \"#utility.yul\":20445:20449   */\n      0x00\n        /* \"#utility.yul\":20483:20485   */\n      0x20\n        /* \"#utility.yul\":20472:20481   */\n      dup3\n        /* \"#utility.yul\":20468:20486   */\n      add\n        /* \"#utility.yul\":20460:20486   */\n      swap1\n      pop\n        /* \"#utility.yul\":20532:20541   */\n      dup2\n        /* \"#utility.yul\":20526:20530   */\n      dup2\n        /* \"#utility.yul\":20522:20542   */\n      sub\n        /* \"#utility.yul\":20518:20519   */\n      0x00\n        /* \"#utility.yul\":20507:20516   */\n      dup4\n        /* \"#utility.yul\":20503:20520   */\n      add\n        /* \"#utility.yul\":20496:20543   */\n      mstore\n        /* \"#utility.yul\":20560:20691   */\n      tag_455\n        /* \"#utility.yul\":20686:20690   */\n      dup2\n        /* \"#utility.yul\":20560:20691   */\n      tag_258\n      jump\t// in\n    tag_455:\n        /* \"#utility.yul\":20552:20691   */\n      swap1\n      pop\n        /* \"#utility.yul\":20279:20698   */\n      swap2\n      swap1\n      pop\n      jump\t// out\n        /* \"#utility.yul\":20704:20898   */\n    tag_129:\n        /* \"#utility.yul\":20744:20748   */\n      0x00\n        /* \"#utility.yul\":20764:20784   */\n      tag_457\n        /* \"#utility.yul\":20782:20783   */\n      dup3\n        /* \"#utility.yul\":20764:20784   */\n      tag_223\n      jump\t// in\n    tag_457:\n        /* \"#utility.yul\":20759:20784   */\n      swap2\n      pop\n        /* \"#utility.yul\":20798:20818   */\n      tag_458\n        /* \"#utility.yul\":20816:20817   */\n      dup4\n        /* \"#utility.yul\":20798:20818   */\n      tag_223\n      jump\t// in\n    tag_458:\n        /* \"#utility.yul\":20793:20818   */\n      swap3\n      pop\n        /* \"#utility.yul\":20842:20843   */\n      dup3\n        /* \"#utility.yul\":20839:20840   */\n      dup3\n        /* \"#utility.yul\":20835:20844   */\n      sub\n        /* \"#utility.yul\":20827:20844   */\n      swap1\n      pop\n        /* \"#utility.yul\":20866:20867   */\n      dup2\n        /* \"#utility.yul\":20860:20864   */\n      dup2\n        /* \"#utility.yul\":20857:20868   */\n      gt\n        /* \"#utility.yul\":20854:20891   */\n      iszero\n      tag_459\n      jumpi\n        /* \"#utility.yul\":20871:20889   */\n      tag_460\n      tag_245\n      jump\t// in\n    tag_460:\n        /* \"#utility.yul\":20854:20891   */\n    tag_459:\n        /* \"#utility.yul\":20704:20898   */\n      swap3\n      swap2\n      pop\n      pop\n      jump\t// out\n        /* \"#utility.yul\":20904:21127   */\n    tag_132:\n        /* \"#utility.yul\":20944:20948   */\n      0x00\n        /* \"#utility.yul\":20964:20984   */\n      tag_462\n        /* \"#utility.yul\":20982:20983   */\n      dup3\n        /* \"#utility.yul\":20964:20984   */\n      tag_221\n      jump\t// in\n    tag_462:\n        /* \"#utility.yul\":20959:20984   */\n      swap2\n      pop\n        /* \"#utility.yul\":20998:21018   */\n      tag_463\n        /* \"#utility.yul\":21016:21017   */\n      dup4\n        /* \"#utility.yul\":20998:21018   */\n      tag_221\n      jump\t// in\n    tag_463:\n        /* \"#utility.yul\":20993:21018   */\n      swap3\n      pop\n        /* \"#utility.yul\":21042:21043   */\n      dup3\n        /* \"#utility.yul\":21039:21040   */\n      dup3\n        /* \"#utility.yul\":21035:21044   */\n      sub\n        /* \"#utility.yul\":21027:21044   */\n      swap1\n      pop\n        /* \"#utility.yul\":21066:21096   */\n      0xffffffffffffffffffffffffffff\n        /* \"#utility.yul\":21060:21064   */\n      dup2\n        /* \"#utility.yul\":21057:21097   */\n      gt\n        /* \"#utility.yul\":21054:21120   */\n      iszero\n      tag_464\n      jumpi\n        /* \"#utility.yul\":21100:21118   */\n      tag_465\n      tag_245\n      jump\t// in\n    tag_465:\n        /* \"#utility.yul\":21054:21120   */\n    tag_464:\n        /* \"#utility.yul\":20904:21127   */\n      swap3\n      swap2\n      pop\n      pop\n      jump\t// out\n        /* \"#utility.yul\":21133:21353   */\n    tag_159:\n        /* \"#utility.yul\":21173:21176   */\n      0x00\n        /* \"#utility.yul\":21192:21212   */\n      tag_467\n        /* \"#utility.yul\":21210:21211   */\n      dup3\n        /* \"#utility.yul\":21192:21212   */\n      tag_221\n      jump\t// in\n    tag_467:\n        /* \"#utility.yul\":21187:21212   */\n      swap2\n      pop\n        /* \"#utility.yul\":21226:21246   */\n      tag_468\n        /* \"#utility.yul\":21244:21245   */\n      dup4\n        /* \"#utility.yul\":21226:21246   */\n      tag_221\n      jump\t// in\n    tag_468:\n        /* \"#utility.yul\":21221:21246   */\n      swap3\n      pop\n        /* \"#utility.yul\":21269:21270   */\n      dup3\n        /* \"#utility.yul\":21266:21267   */\n      dup3\n        /* \"#utility.yul\":21262:21271   */\n      add\n        /* \"#utility.yul\":21255:21271   */\n      swap1\n      pop\n        /* \"#utility.yul\":21292:21322   */\n      0xffffffffffffffffffffffffffff\n        /* \"#utility.yul\":21287:21290   */\n      dup2\n        /* \"#utility.yul\":21284:21323   */\n      gt\n        /* \"#utility.yul\":21281:21346   */\n      iszero\n      tag_469\n      jumpi\n        /* \"#utility.yul\":21326:21344   */\n      tag_470\n      tag_245\n      jump\t// in\n    tag_470:\n        /* \"#utility.yul\":21281:21346   */\n    tag_469:\n        /* \"#utility.yul\":21133:21353   */\n      swap3\n      swap2\n      pop\n      pop\n      jump\t// out\n        /* \"#utility.yul\":21359:21453   */\n    tag_259:\n        /* \"#utility.yul\":21392:21400   */\n      0x00\n        /* \"#utility.yul\":21440:21445   */\n      dup2\n        /* \"#utility.yul\":21436:21438   */\n      0x60\n        /* \"#utility.yul\":21432:21446   */\n      shl\n        /* \"#utility.yul\":21411:21446   */\n      swap1\n      pop\n        /* \"#utility.yul\":21359:21453   */\n      swap2\n      swap1\n      pop\n      jump\t// out\n        /* \"#utility.yul\":21459:21553   */\n    tag_260:\n        /* \"#utility.yul\":21498:21505   */\n      0x00\n        /* \"#utility.yul\":21527:21547   */\n      tag_473\n        /* \"#utility.yul\":21541:21546   */\n      dup3\n        /* \"#utility.yul\":21527:21547   */\n      tag_259\n      jump\t// in\n    tag_473:\n        /* \"#utility.yul\":21516:21547   */\n      swap1\n      pop\n        /* \"#utility.yul\":21459:21553   */\n      swap2\n      swap1\n      pop\n      jump\t// out\n        /* \"#utility.yul\":21559:21659   */\n    tag_261:\n        /* \"#utility.yul\":21598:21605   */\n      0x00\n        /* \"#utility.yul\":21627:21653   */\n      tag_475\n        /* \"#utility.yul\":21647:21652   */\n      dup3\n        /* \"#utility.yul\":21627:21653   */\n      tag_260\n      jump\t// in\n    tag_475:\n        /* \"#utility.yul\":21616:21653   */\n      swap1\n      pop\n        /* \"#utility.yul\":21559:21659   */\n      swap2\n      swap1\n      pop\n      jump\t// out\n        /* \"#utility.yul\":21665:21822   */\n    tag_262:\n        /* \"#utility.yul\":21770:21815   */\n      tag_477\n        /* \"#utility.yul\":21790:21814   */\n      tag_478\n        /* \"#utility.yul\":21808:21813   */\n      dup3\n        /* \"#utility.yul\":21790:21814   */\n      tag_232\n      jump\t// in\n    tag_478:\n        /* \"#utility.yul\":21770:21815   */\n      tag_261\n      jump\t// in\n    tag_477:\n        /* \"#utility.yul\":21765:21768   */\n      dup3\n        /* \"#utility.yul\":21758:21816   */\n      mstore\n        /* \"#utility.yul\":21665:21822   */\n      pop\n      pop\n      jump\t// out\n        /* \"#utility.yul\":21828:22225   */\n    tag_170:\n        /* \"#utility.yul\":21968:21971   */\n      0x00\n        /* \"#utility.yul\":21983:22058   */\n      tag_480\n        /* \"#utility.yul\":22054:22057   */\n      dup3\n        /* \"#utility.yul\":22045:22051   */\n      dup6\n        /* \"#utility.yul\":21983:22058   */\n      tag_262\n      jump\t// in\n    tag_480:\n        /* \"#utility.yul\":22083:22085   */\n      0x14\n        /* \"#utility.yul\":22078:22081   */\n      dup3\n        /* \"#utility.yul\":22074:22086   */\n      add\n        /* \"#utility.yul\":22067:22086   */\n      swap2\n      pop\n        /* \"#utility.yul\":22096:22171   */\n      tag_481\n        /* \"#utility.yul\":22167:22170   */\n      dup3\n        /* \"#utility.yul\":22158:22164   */\n      dup5\n        /* \"#utility.yul\":22096:22171   */\n      tag_262\n      jump\t// in\n    tag_481:\n        /* \"#utility.yul\":22196:22198   */\n      0x14\n        /* \"#utility.yul\":22191:22194   */\n      dup3\n        /* \"#utility.yul\":22187:22199   */\n      add\n        /* \"#utility.yul\":22180:22199   */\n      swap2\n      pop\n        /* \"#utility.yul\":22216:22219   */\n      dup2\n        /* \"#utility.yul\":22209:22219   */\n      swap1\n      pop\n        /* \"#utility.yul\":21828:22225   */\n      swap4\n      swap3\n      pop\n      pop\n      pop\n      jump\t// out\n        /* \"#utility.yul\":22231:22349   */\n    tag_263:\n        /* \"#utility.yul\":22318:22342   */\n      tag_483\n        /* \"#utility.yul\":22336:22341   */\n      dup2\n        /* \"#utility.yul\":22318:22342   */\n      tag_232\n      jump\t// in\n    tag_483:\n        /* \"#utility.yul\":22313:22316   */\n      dup3\n        /* \"#utility.yul\":22306:22343   */\n      mstore\n        /* \"#utility.yul\":22231:22349   */\n      pop\n      pop\n      jump\t// out\n        /* \"#utility.yul\":22355:22687   */\n    tag_177:\n        /* \"#utility.yul\":22476:22480   */\n      0x00\n        /* \"#utility.yul\":22514:22516   */\n      0x40\n        /* \"#utility.yul\":22503:22512   */\n      dup3\n        /* \"#utility.yul\":22499:22517   */\n      add\n        /* \"#utility.yul\":22491:22517   */\n      swap1\n      pop\n        /* \"#utility.yul\":22527:22598   */\n      tag_485\n        /* \"#utility.yul\":22595:22596   */\n      0x00\n        /* \"#utility.yul\":22584:22593   */\n      dup4\n        /* \"#utility.yul\":22580:22597   */\n      add\n        /* \"#utility.yul\":22571:22577   */\n      dup6\n        /* \"#utility.yul\":22527:22598   */\n      tag_263\n      jump\t// in\n    tag_485:\n        /* \"#utility.yul\":22608:22680   */\n      tag_486\n        /* \"#utility.yul\":22676:22678   */\n      0x20\n        /* \"#utility.yul\":22665:22674   */\n      dup4\n        /* \"#utility.yul\":22661:22679   */\n      add\n        /* \"#utility.yul\":22652:22658   */\n      dup5\n        /* \"#utility.yul\":22608:22680   */\n      tag_226\n      jump\t// in\n    tag_486:\n        /* \"#utility.yul\":22355:22687   */\n      swap4\n      swap3\n      pop\n      pop\n      pop\n      jump\t// out\n        /* \"#utility.yul\":22693:22857   */\n    tag_264:\n        /* \"#utility.yul\":22833:22849   */\n      0x496e73756666696369656e742042000000000000000000000000000000000000\n        /* \"#utility.yul\":22829:22830   */\n      0x00\n        /* \"#utility.yul\":22821:22827   */\n      dup3\n        /* \"#utility.yul\":22817:22831   */\n      add\n        /* \"#utility.yul\":22810:22850   */\n      mstore\n        /* \"#utility.yul\":22693:22857   */\n      pop\n      jump\t// out\n        /* \"#utility.yul\":22863:23229   */\n    tag_265:\n        /* \"#utility.yul\":23005:23008   */\n      0x00\n        /* \"#utility.yul\":23026:23093   */\n      tag_489\n        /* \"#utility.yul\":23090:23092   */\n      0x0e\n        /* \"#utility.yul\":23085:23088   */\n      dup4\n        /* \"#utility.yul\":23026:23093   */\n      tag_242\n      jump\t// in\n    tag_489:\n        /* \"#utility.yul\":23019:23093   */\n      swap2\n      pop\n        /* \"#utility.yul\":23102:23195   */\n      tag_490\n        /* \"#utility.yul\":23191:23194   */\n      dup3\n        /* \"#utility.yul\":23102:23195   */\n      tag_264\n      jump\t// in\n    tag_490:\n        /* \"#utility.yul\":23220:23222   */\n      0x20\n        /* \"#utility.yul\":23215:23218   */\n      dup3\n        /* \"#utility.yul\":23211:23223   */\n      add\n        /* \"#utility.yul\":23204:23223   */\n      swap1\n      pop\n        /* \"#utility.yul\":22863:23229   */\n      swap2\n      swap1\n      pop\n      jump\t// out\n        /* \"#utility.yul\":23235:23654   */\n    tag_188:\n        /* \"#utility.yul\":23401:23405   */\n      0x00\n        /* \"#utility.yul\":23439:23441   */\n      0x20\n        /* \"#utility.yul\":23428:23437   */\n      dup3\n        /* \"#utility.yul\":23424:23442   */\n      add\n        /* \"#utility.yul\":23416:23442   */\n      swap1\n      pop\n        /* \"#utility.yul\":23488:23497   */\n      dup2\n        /* \"#utility.yul\":23482:23486   */\n      dup2\n        /* \"#utility.yul\":23478:23498   */\n      sub\n        /* \"#utility.yul\":23474:23475   */\n      0x00\n        /* \"#utility.yul\":23463:23472   */\n      dup4\n        /* \"#utility.yul\":23459:23476   */\n      add\n        /* \"#utility.yul\":23452:23499   */\n      mstore\n        /* \"#utility.yul\":23516:23647   */\n      tag_492\n        /* \"#utility.yul\":23642:23646   */\n      dup2\n        /* \"#utility.yul\":23516:23647   */\n      tag_265\n      jump\t// in\n    tag_492:\n        /* \"#utility.yul\":23508:23647   */\n      swap1\n      pop\n        /* \"#utility.yul\":23235:23654   */\n      swap2\n      swap1\n      pop\n      jump\t// out\n        /* \"#utility.yul\":23660:23824   */\n    tag_266:\n        /* \"#utility.yul\":23800:23816   */\n      0x496e73756666696369656e742041000000000000000000000000000000000000\n        /* \"#utility.yul\":23796:23797   */\n      0x00\n        /* \"#utility.yul\":23788:23794   */\n      dup3\n        /* \"#utility.yul\":23784:23798   */\n      add\n        /* \"#utility.yul\":23777:23817   */\n      mstore\n        /* \"#utility.yul\":23660:23824   */\n      pop\n      jump\t// out\n        /* \"#utility.yul\":23830:24196   */\n    tag_267:\n        /* \"#utility.yul\":23972:23975   */\n      0x00\n        /* \"#utility.yul\":23993:24060   */\n      tag_495\n        /* \"#utility.yul\":24057:24059   */\n      0x0e\n        /* \"#utility.yul\":24052:24055   */\n      dup4\n        /* \"#utility.yul\":23993:24060   */\n      tag_242\n      jump\t// in\n    tag_495:\n        /* \"#utility.yul\":23986:24060   */\n      swap2\n      pop\n        /* \"#utility.yul\":24069:24162   */\n      tag_496\n        /* \"#utility.yul\":24158:24161   */\n      dup3\n        /* \"#utility.yul\":24069:24162   */\n      tag_266\n      jump\t// in\n    tag_496:\n        /* \"#utility.yul\":24187:24189   */\n      0x20\n        /* \"#utility.yul\":24182:24185   */\n      dup3\n        /* \"#utility.yul\":24178:24190   */\n      add\n        /* \"#utility.yul\":24171:24190   */\n      swap1\n      pop\n        /* \"#utility.yul\":23830:24196   */\n      swap2\n      swap1\n      pop\n      jump\t// out\n        /* \"#utility.yul\":24202:24621   */\n    tag_194:\n        /* \"#utility.yul\":24368:24372   */\n      0x00\n        /* \"#utility.yul\":24406:24408   */\n      0x20\n        /* \"#utility.yul\":24395:24404   */\n      dup3\n        /* \"#utility.yul\":24391:24409   */\n      add\n        /* \"#utility.yul\":24383:24409   */\n      swap1\n      pop\n        /* \"#utility.yul\":24455:24464   */\n      dup2\n        /* \"#utility.yul\":24449:24453   */\n      dup2\n        /* \"#utility.yul\":24445:24465   */\n      sub\n        /* \"#utility.yul\":24441:24442   */\n      0x00\n        /* \"#utility.yul\":24430:24439   */\n      dup4\n        /* \"#utility.yul\":24426:24443   */\n      add\n        /* \"#utility.yul\":24419:24466   */\n      mstore\n        /* \"#utility.yul\":24483:24614   */\n      tag_498\n        /* \"#utility.yul\":24609:24613   */\n      dup2\n        /* \"#utility.yul\":24483:24614   */\n      tag_267\n      jump\t// in\n    tag_498:\n        /* \"#utility.yul\":24475:24614   */\n      swap1\n      pop\n        /* \"#utility.yul\":24202:24621   */\n      swap2\n      swap1\n      pop\n      jump\t// out\n        /* \"#utility.yul\":24627:25069   */\n    tag_207:\n        /* \"#utility.yul\":24776:24780   */\n      0x00\n        /* \"#utility.yul\":24814:24816   */\n      0x60\n        /* \"#utility.yul\":24803:24812   */\n      dup3\n        /* \"#utility.yul\":24799:24817   */\n      add\n        /* \"#utility.yul\":24791:24817   */\n      swap1\n      pop\n        /* \"#utility.yul\":24827:24898   */\n      tag_500\n        /* \"#utility.yul\":24895:24896   */\n      0x00\n        /* \"#utility.yul\":24884:24893   */\n      dup4\n        /* \"#utility.yul\":24880:24897   */\n      add\n        /* \"#utility.yul\":24871:24877   */\n      dup7\n        /* \"#utility.yul\":24827:24898   */\n      tag_263\n      jump\t// in\n    tag_500:\n        /* \"#utility.yul\":24908:24980   */\n      tag_501\n        /* \"#utility.yul\":24976:24978   */\n      0x20\n        /* \"#utility.yul\":24965:24974   */\n      dup4\n        /* \"#utility.yul\":24961:24979   */\n      add\n        /* \"#utility.yul\":24952:24958   */\n      dup6\n        /* \"#utility.yul\":24908:24980   */\n      tag_263\n      jump\t// in\n    tag_501:\n        /* \"#utility.yul\":24990:25062   */\n      tag_502\n        /* \"#utility.yul\":25058:25060   */\n      0x40\n        /* \"#utility.yul\":25047:25056   */\n      dup4\n        /* \"#utility.yul\":25043:25061   */\n      add\n        /* \"#utility.yul\":25034:25040   */\n      dup5\n        /* \"#utility.yul\":24990:25062   */\n      tag_226\n      jump\t// in\n    tag_502:\n        /* \"#utility.yul\":24627:25069   */\n      swap5\n      swap4\n      pop\n      pop\n      pop\n      pop\n      jump\t// out\n        /* \"#utility.yul\":25075:25297   */\n    tag_214:\n        /* \"#utility.yul\":25168:25172   */\n      0x00\n        /* \"#utility.yul\":25206:25208   */\n      0x20\n        /* \"#utility.yul\":25195:25204   */\n      dup3\n        /* \"#utility.yul\":25191:25209   */\n      add\n        /* \"#utility.yul\":25183:25209   */\n      swap1\n      pop\n        /* \"#utility.yul\":25219:25290   */\n      tag_504\n        /* \"#utility.yul\":25287:25288   */\n      0x00\n        /* \"#utility.yul\":25276:25285   */\n      dup4\n        /* \"#utility.yul\":25272:25289   */\n      add\n        /* \"#utility.yul\":25263:25269   */\n      dup5\n        /* \"#utility.yul\":25219:25290   */\n      tag_263\n      jump\t// in\n    tag_504:\n        /* \"#utility.yul\":25075:25297   */\n      swap3\n      swap2\n      pop\n      pop\n      jump\t// out\n\n    auxdata: 0xa2646970667358221220d5c5981ff7f4e4a2dff9b06db8dbc35c0ca45848e78e5fc82c8167a720ec43d664736f6c634300081e0033\n}\n",
				"bytecode": {
					"linkReferences": {},
					"object": "6080604052348015600e575f5ffd5b506120428061001c5f395ff3fe608060405234801561000f575f5ffd5b5060043610610085575f3560e01c8063ac41865a11610059578063ac41865a1461014a578063baa2abde1461017a578063bb521a30146101ab578063e8e33700146101db57610085565b8062bbf1e414610089578063054d50d4146100ba57806338ed1739146100ea57806354b7a8f71461011a575b5f5ffd5b6100a3600480360381019061009e91906113b5565b61020d565b6040516100b1929190611408565b60405180910390f35b6100d460048036038101906100cf9190611462565b61025e565b6040516100e191906114c1565b60405180910390f35b61010460048036038101906100ff9190611595565b61030b565b60405161011191906116e2565b60405180910390f35b610134600480360381019061012f91906113b5565b6104f1565b60405161014191906114c1565b60405180910390f35b610164600480360381019061015f9190611702565b610506565b60405161017191906114c1565b60405180910390f35b610194600480360381019061018f9190611740565b610640565b6040516101a29291906117dd565b60405180910390f35b6101c560048036038101906101c09190611804565b61097f565b6040516101d291906114c1565b60405180910390f35b6101f560048036038101906101f09190611842565b61099f565b604051610204939291906118f3565b60405180910390f35b5f602052805f5260405f205f91509050805f015f9054906101000a90046dffffffffffffffffffffffffffff1690805f01600e9054906101000a90046dffffffffffffffffffffffffffff16905082565b5f5f8411801561026d57505f83115b801561027857505f82115b6102b7576040517f08c379a00000000000000000000000000000000000000000000000000000000081526004016102ae90611982565b60405180910390fd5b5f6103e5856102c691906119cd565b90505f83826102d591906119cd565b90505f826103e8876102e791906119cd565b6102f19190611a0e565b905080826102ff9190611a6e565b93505050509392505050565b606081421115610350576040517f08c379a000000000000000000000000000000000000000000000000000000000815260040161034790611ae8565b60405180910390fd5b60028585905014610396576040517f08c379a000000000000000000000000000000000000000000000000000000000815260040161038d90611b50565b60405180910390fd5b5f85855f8181106103aa576103a9611b6e565b5b90506020020160208101906103bf9190611b9b565b90505f868660018181106103d6576103d5611b6e565b5b90506020020160208101906103eb9190611b9b565b90505f6103f98a8484610a7f565b90508881101561043e576040517f08c379a000000000000000000000000000000000000000000000000000000000815260040161043590611c10565b60405180910390fd5b61044b83838c848a610b59565b61045783838c84610bb8565b600267ffffffffffffffff81111561047257610471611c2e565b5b6040519080825280602002602001820160405280156104a05781602001602082028036833780820191505090505b50935089845f815181106104b7576104b6611b6e565b5b60200260200101818152505080846001815181106104d8576104d7611b6e565b5b6020026020010181815250505050509695505050505050565b6001602052805f5260405f205f915090505481565b5f5f6105128484610d90565b90505f5f5f8381526020019081526020015f206040518060400160405290815f82015f9054906101000a90046dffffffffffffffffffffffffffff166dffffffffffffffffffffffffffff166dffffffffffffffffffffffffffff1681526020015f8201600e9054906101000a90046dffffffffffffffffffffffffffff166dffffffffffffffffffffffffffff166dffffffffffffffffffffffffffff168152505090505f5f6105c4878785610e36565b915091505f821180156105d657505f81115b610615576040517f08c379a000000000000000000000000000000000000000000000000000000000815260040161060c90611ca5565b60405180910390fd5b81670de0b6b3a76400008261062a91906119cd565b6106349190611a6e565b94505050505092915050565b5f5f82421115610685576040517f08c379a000000000000000000000000000000000000000000000000000000000815260040161067c90611ae8565b60405180910390fd5b5f6106908a8a610d90565b90505f5f5f8381526020019081526020015f2090505f60015f8481526020019081526020015f205490505f81116106fc576040517f08c379a00000000000000000000000000000000000000000000000000000000081526004016106f390611d0d565b60405180910390fd5b808a835f015f9054906101000a90046dffffffffffffffffffffffffffff166dffffffffffffffffffffffffffff1661073591906119cd565b61073f9190611a6e565b9450808a835f01600e9054906101000a90046dffffffffffffffffffffffffffff166dffffffffffffffffffffffffffff1661077b91906119cd565b6107859190611a6e565b93508885101580156107975750878410155b6107d6576040517f08c379a00000000000000000000000000000000000000000000000000000000081526004016107cd90611d75565b60405180910390fd5b8960025f8581526020019081526020015f205f3373ffffffffffffffffffffffffffffffffffffffff1673ffffffffffffffffffffffffffffffffffffffff1681526020019081526020015f205f8282546108319190611d93565b925050819055508960015f8581526020019081526020015f205f8282546108589190611d93565b9250508190555084825f015f8282829054906101000a90046dffffffffffffffffffffffffffff1661088a9190611dc6565b92506101000a8154816dffffffffffffffffffffffffffff02191690836dffffffffffffffffffffffffffff16021790555083825f01600e8282829054906101000a90046dffffffffffffffffffffffffffff166108e89190611dc6565b92506101000a8154816dffffffffffffffffffffffffffff02191690836dffffffffffffffffffffffffffff16021790555061094587868e73ffffffffffffffffffffffffffffffffffffffff16610eb59092919063ffffffff16565b61097087858d73ffffffffffffffffffffffffffffffffffffffff16610eb59092919063ffffffff16565b50505097509795505050505050565b6002602052815f5260405f20602052805f5260405f205f91509150505481565b5f5f5f834211156109e5576040517f08c379a00000000000000000000000000000000000000000000000000000000081526004016109dc90611ae8565b60405180910390fd5b5f6109f08c8c610d90565b90505f5f5f8381526020019081526020015f209050610a4c815f015f9054906101000a90046dffffffffffffffffffffffffffff16825f01600e9054906101000a90046dffffffffffffffffffffffffffff168d8d8d8d610f34565b8095508196505050610a608d8d87876110a1565b610a6d8286868a85611101565b92505050985098509895505050505050565b5f5f610a8b8484610d90565b90505f5f5f8381526020019081526020015f206040518060400160405290815f82015f9054906101000a90046dffffffffffffffffffffffffffff166dffffffffffffffffffffffffffff166dffffffffffffffffffffffffffff1681526020015f8201600e9054906101000a90046dffffffffffffffffffffffffffff166dffffffffffffffffffffffffffff166dffffffffffffffffffffffffffff168152505090505f5f610b3d878785610e36565b91509150610b4c88838361025e565b9450505050509392505050565b610b863330858873ffffffffffffffffffffffffffffffffffffffff1661125d909392919063ffffffff16565b610bb181838673ffffffffffffffffffffffffffffffffffffffff16610eb59092919063ffffffff16565b5050505050565b5f610bc38585610d90565b90505f5f5f8381526020019081526020015f2090508473ffffffffffffffffffffffffffffffffffffffff168673ffffffffffffffffffffffffffffffffffffffff161015610ccc5783815f015f8282829054906101000a90046dffffffffffffffffffffffffffff16610c379190611e07565b92506101000a8154816dffffffffffffffffffffffffffff02191690836dffffffffffffffffffffffffffff16021790555082815f01600e8282829054906101000a90046dffffffffffffffffffffffffffff16610c959190611dc6565b92506101000a8154816dffffffffffffffffffffffffffff02191690836dffffffffffffffffffffffffffff160217905550610d88565b83815f01600e8282829054906101000a90046dffffffffffffffffffffffffffff16610cf89190611e07565b92506101000a8154816dffffffffffffffffffffffffffff02191690836dffffffffffffffffffffffffffff16021790555082815f015f8282829054906101000a90046dffffffffffffffffffffffffffff16610d559190611dc6565b92506101000a8154816dffffffffffffffffffffffffffff02191690836dffffffffffffffffffffffffffff1602179055505b505050505050565b5f8173ffffffffffffffffffffffffffffffffffffffff168373ffffffffffffffffffffffffffffffffffffffff1610610dca5781610dcc565b825b8273ffffffffffffffffffffffffffffffffffffffff168473ffffffffffffffffffffffffffffffffffffffff1610610e055783610e07565b825b604051602001610e18929190611e8d565b60405160208183030381529060405280519060200120905092915050565b5f5f8373ffffffffffffffffffffffffffffffffffffffff168573ffffffffffffffffffffffffffffffffffffffff1610610e79578260200151835f0151610e83565b825f015183602001515b816dffffffffffffffffffffffffffff169150806dffffffffffffffffffffffffffff16905091509150935093915050565b610f2f838473ffffffffffffffffffffffffffffffffffffffff1663a9059cbb8585604051602401610ee8929190611ec7565b604051602081830303815290604052915060e01b6020820180517bffffffffffffffffffffffffffffffffffffffffffffffffffffffff83818316178352505050506112df565b505050565b5f5f5f886dffffffffffffffffffffffffffff16148015610f6457505f876dffffffffffffffffffffffffffff16145b15610f785785858092508193505050611096565b5f886dffffffffffffffffffffffffffff16886dffffffffffffffffffffffffffff1688610fa691906119cd565b610fb09190611a6e565b905085811161100b5783811015610ffc576040517f08c379a0000000000000000000000000000000000000000000000000000000008152600401610ff390611f38565b60405180910390fd5b86818093508194505050611094565b5f886dffffffffffffffffffffffffffff168a6dffffffffffffffffffffffffffff168861103991906119cd565b6110439190611a6e565b905085811015611088576040517f08c379a000000000000000000000000000000000000000000000000000000000815260040161107f90611fa0565b60405180910390fd5b80878094508195505050505b505b965096945050505050565b6110ce3330848773ffffffffffffffffffffffffffffffffffffffff1661125d909392919063ffffffff16565b6110fb3330838673ffffffffffffffffffffffffffffffffffffffff1661125d909392919063ffffffff16565b50505050565b5f838561110e9190611a0e565b90508060015f8881526020019081526020015f205f8282546111309190611a0e565b925050819055508060025f8881526020019081526020015f205f8573ffffffffffffffffffffffffffffffffffffffff1673ffffffffffffffffffffffffffffffffffffffff1681526020019081526020015f205f8282546111929190611a0e565b9250508190555084825f015f8282829054906101000a90046dffffffffffffffffffffffffffff166111c49190611e07565b92506101000a8154816dffffffffffffffffffffffffffff02191690836dffffffffffffffffffffffffffff16021790555083825f01600e8282829054906101000a90046dffffffffffffffffffffffffffff166112229190611e07565b92506101000a8154816dffffffffffffffffffffffffffff02191690836dffffffffffffffffffffffffffff16021790555095945050505050565b6112d9848573ffffffffffffffffffffffffffffffffffffffff166323b872dd86868660405160240161129293929190611fbe565b604051602081830303815290604052915060e01b6020820180517bffffffffffffffffffffffffffffffffffffffffffffffffffffffff83818316178352505050506112df565b50505050565b5f5f60205f8451602086015f885af1806112fe576040513d5f823e3d81fd5b3d92505f519150505f8214611317576001811415611332565b5f8473ffffffffffffffffffffffffffffffffffffffff163b145b1561137457836040517f5274afe700000000000000000000000000000000000000000000000000000000815260040161136b9190611ff3565b60405180910390fd5b50505050565b5f5ffd5b5f5ffd5b5f819050919050565b61139481611382565b811461139e575f5ffd5b50565b5f813590506113af8161138b565b92915050565b5f602082840312156113ca576113c961137a565b5b5f6113d7848285016113a1565b91505092915050565b5f6dffffffffffffffffffffffffffff82169050919050565b611402816113e0565b82525050565b5f60408201905061141b5f8301856113f9565b61142860208301846113f9565b9392505050565b5f819050919050565b6114418161142f565b811461144b575f5ffd5b50565b5f8135905061145c81611438565b92915050565b5f5f5f606084860312156114795761147861137a565b5b5f6114868682870161144e565b93505060206114978682870161144e565b92505060406114a88682870161144e565b9150509250925092565b6114bb8161142f565b82525050565b5f6020820190506114d45f8301846114b2565b92915050565b5f5ffd5b5f5ffd5b5f5ffd5b5f5f83601f8401126114fb576114fa6114da565b5b8235905067ffffffffffffffff811115611518576115176114de565b5b602083019150836020820283011115611534576115336114e2565b5b9250929050565b5f73ffffffffffffffffffffffffffffffffffffffff82169050919050565b5f6115648261153b565b9050919050565b6115748161155a565b811461157e575f5ffd5b50565b5f8135905061158f8161156b565b92915050565b5f5f5f5f5f5f60a087890312156115af576115ae61137a565b5b5f6115bc89828a0161144e565b96505060206115cd89828a0161144e565b955050604087013567ffffffffffffffff8111156115ee576115ed61137e565b5b6115fa89828a016114e6565b9450945050606061160d89828a01611581565b925050608061161e89828a0161144e565b9150509295509295509295565b5f81519050919050565b5f82825260208201905092915050565b5f819050602082019050919050565b61165d8161142f565b82525050565b5f61166e8383611654565b60208301905092915050565b5f602082019050919050565b5f6116908261162b565b61169a8185611635565b93506116a583611645565b805f5b838110156116d55781516116bc8882611663565b97506116c78361167a565b9250506001810190506116a8565b5085935050505092915050565b5f6020820190508181035f8301526116fa8184611686565b905092915050565b5f5f604083850312156117185761171761137a565b5b5f61172585828601611581565b925050602061173685828601611581565b9150509250929050565b5f5f5f5f5f5f5f60e0888a03121561175b5761175a61137a565b5b5f6117688a828b01611581565b97505060206117798a828b01611581565b965050604061178a8a828b0161144e565b955050606061179b8a828b0161144e565b94505060806117ac8a828b0161144e565b93505060a06117bd8a828b01611581565b92505060c06117ce8a828b0161144e565b91505092959891949750929550565b5f6040820190506117f05f8301856114b2565b6117fd60208301846114b2565b9392505050565b5f5f6040838503121561181a5761181961137a565b5b5f611827858286016113a1565b925050602061183885828601611581565b9150509250929050565b5f5f5f5f5f5f5f5f610100898b03121561185f5761185e61137a565b5b5f61186c8b828c01611581565b985050602061187d8b828c01611581565b975050604061188e8b828c0161144e565b965050606061189f8b828c0161144e565b95505060806118b08b828c0161144e565b94505060a06118c18b828c0161144e565b93505060c06118d28b828c01611581565b92505060e06118e38b828c0161144e565b9150509295985092959890939650565b5f6060820190506119065f8301866114b2565b61191360208301856114b2565b61192060408301846114b2565b949350505050565b5f82825260208201905092915050565b7f496e76616c6964207265736572766573000000000000000000000000000000005f82015250565b5f61196c601083611928565b915061197782611938565b602082019050919050565b5f6020820190508181035f83015261199981611960565b9050919050565b7f4e487b71000000000000000000000000000000000000000000000000000000005f52601160045260245ffd5b5f6119d78261142f565b91506119e28361142f565b92508282026119f08161142f565b91508282048414831517611a0757611a066119a0565b5b5092915050565b5f611a188261142f565b9150611a238361142f565b9250828201905080821115611a3b57611a3a6119a0565b5b92915050565b7f4e487b71000000000000000000000000000000000000000000000000000000005f52601260045260245ffd5b5f611a788261142f565b9150611a838361142f565b925082611a9357611a92611a41565b5b828204905092915050565b7f45787069726564000000000000000000000000000000000000000000000000005f82015250565b5f611ad2600783611928565b9150611add82611a9e565b602082019050919050565b5f6020820190508181035f830152611aff81611ac6565b9050919050565b7f4f6e6c7920322d746f6b656e207061746820737570706f7274656400000000005f82015250565b5f611b3a601b83611928565b9150611b4582611b06565b602082019050919050565b5f6020820190508181035f830152611b6781611b2e565b9050919050565b7f4e487b71000000000000000000000000000000000000000000000000000000005f52603260045260245ffd5b5f60208284031215611bb057611baf61137a565b5b5f611bbd84828501611581565b91505092915050565b7f496e73756666696369656e74206f7574707574000000000000000000000000005f82015250565b5f611bfa601383611928565b9150611c0582611bc6565b602082019050919050565b5f6020820190508181035f830152611c2781611bee565b9050919050565b7f4e487b71000000000000000000000000000000000000000000000000000000005f52604160045260245ffd5b7f4e6f2072657365727665730000000000000000000000000000000000000000005f82015250565b5f611c8f600b83611928565b9150611c9a82611c5b565b602082019050919050565b5f6020820190508181035f830152611cbc81611c83565b9050919050565b7f4e6f206c697175696469747900000000000000000000000000000000000000005f82015250565b5f611cf7600c83611928565b9150611d0282611cc3565b602082019050919050565b5f6020820190508181035f830152611d2481611ceb565b9050919050565b7f536c6970706167650000000000000000000000000000000000000000000000005f82015250565b5f611d5f600883611928565b9150611d6a82611d2b565b602082019050919050565b5f6020820190508181035f830152611d8c81611d53565b9050919050565b5f611d9d8261142f565b9150611da88361142f565b9250828203905081811115611dc057611dbf6119a0565b5b92915050565b5f611dd0826113e0565b9150611ddb836113e0565b925082820390506dffffffffffffffffffffffffffff811115611e0157611e006119a0565b5b92915050565b5f611e11826113e0565b9150611e1c836113e0565b925082820190506dffffffffffffffffffffffffffff811115611e4257611e416119a0565b5b92915050565b5f8160601b9050919050565b5f611e5e82611e48565b9050919050565b5f611e6f82611e54565b9050919050565b611e87611e828261155a565b611e65565b82525050565b5f611e988285611e76565b601482019150611ea88284611e76565b6014820191508190509392505050565b611ec18161155a565b82525050565b5f604082019050611eda5f830185611eb8565b611ee760208301846114b2565b9392505050565b7f496e73756666696369656e7420420000000000000000000000000000000000005f82015250565b5f611f22600e83611928565b9150611f2d82611eee565b602082019050919050565b5f6020820190508181035f830152611f4f81611f16565b9050919050565b7f496e73756666696369656e7420410000000000000000000000000000000000005f82015250565b5f611f8a600e83611928565b9150611f9582611f56565b602082019050919050565b5f6020820190508181035f830152611fb781611f7e565b9050919050565b5f606082019050611fd15f830186611eb8565b611fde6020830185611eb8565b611feb60408301846114b2565b949350505050565b5f6020820190506120065f830184611eb8565b9291505056fea2646970667358221220d5c5981ff7f4e4a2dff9b06db8dbc35c0ca45848e78e5fc82c8167a720ec43d664736f6c634300081e0033",
					"opcodes": "PUSH1 0x80 PUSH1 0x40 MSTORE CALLVALUE DUP1 ISZERO PUSH1 0xE JUMPI PUSH0 PUSH0 REVERT JUMPDEST POP PUSH2 0x2042 DUP1 PUSH2 0x1C PUSH0 CODECOPY PUSH0 RETURN INVALID PUSH1 0x80 PUSH1 0x40 MSTORE CALLVALUE DUP1 ISZERO PUSH2 0xF JUMPI PUSH0 PUSH0 REVERT JUMPDEST POP PUSH1 0x4 CALLDATASIZE LT PUSH2 0x85 JUMPI PUSH0 CALLDATALOAD PUSH1 0xE0 SHR DUP1 PUSH4 0xAC41865A GT PUSH2 0x59 JUMPI DUP1 PUSH4 0xAC41865A EQ PUSH2 0x14A JUMPI DUP1 PUSH4 0xBAA2ABDE EQ PUSH2 0x17A JUMPI DUP1 PUSH4 0xBB521A30 EQ PUSH2 0x1AB JUMPI DUP1 PUSH4 0xE8E33700 EQ PUSH2 0x1DB JUMPI PUSH2 0x85 JUMP JUMPDEST DUP1 PUSH3 0xBBF1E4 EQ PUSH2 0x89 JUMPI DUP1 PUSH4 0x54D50D4 EQ PUSH2 0xBA JUMPI DUP1 PUSH4 0x38ED1739 EQ PUSH2 0xEA JUMPI DUP1 PUSH4 0x54B7A8F7 EQ PUSH2 0x11A JUMPI JUMPDEST PUSH0 PUSH0 REVERT JUMPDEST PUSH2 0xA3 PUSH1 0x4 DUP1 CALLDATASIZE SUB DUP2 ADD SWAP1 PUSH2 0x9E SWAP2 SWAP1 PUSH2 0x13B5 JUMP JUMPDEST PUSH2 0x20D JUMP JUMPDEST PUSH1 0x40 MLOAD PUSH2 0xB1 SWAP3 SWAP2 SWAP1 PUSH2 0x1408 JUMP JUMPDEST PUSH1 0x40 MLOAD DUP1 SWAP2 SUB SWAP1 RETURN JUMPDEST PUSH2 0xD4 PUSH1 0x4 DUP1 CALLDATASIZE SUB DUP2 ADD SWAP1 PUSH2 0xCF SWAP2 SWAP1 PUSH2 0x1462 JUMP JUMPDEST PUSH2 0x25E JUMP JUMPDEST PUSH1 0x40 MLOAD PUSH2 0xE1 SWAP2 SWAP1 PUSH2 0x14C1 JUMP JUMPDEST PUSH1 0x40 MLOAD DUP1 SWAP2 SUB SWAP1 RETURN JUMPDEST PUSH2 0x104 PUSH1 0x4 DUP1 CALLDATASIZE SUB DUP2 ADD SWAP1 PUSH2 0xFF SWAP2 SWAP1 PUSH2 0x1595 JUMP JUMPDEST PUSH2 0x30B JUMP JUMPDEST PUSH1 0x40 MLOAD PUSH2 0x111 SWAP2 SWAP1 PUSH2 0x16E2 JUMP JUMPDEST PUSH1 0x40 MLOAD DUP1 SWAP2 SUB SWAP1 RETURN JUMPDEST PUSH2 0x134 PUSH1 0x4 DUP1 CALLDATASIZE SUB DUP2 ADD SWAP1 PUSH2 0x12F SWAP2 SWAP1 PUSH2 0x13B5 JUMP JUMPDEST PUSH2 0x4F1 JUMP JUMPDEST PUSH1 0x40 MLOAD PUSH2 0x141 SWAP2 SWAP1 PUSH2 0x14C1 JUMP JUMPDEST PUSH1 0x40 MLOAD DUP1 SWAP2 SUB SWAP1 RETURN JUMPDEST PUSH2 0x164 PUSH1 0x4 DUP1 CALLDATASIZE SUB DUP2 ADD SWAP1 PUSH2 0x15F SWAP2 SWAP1 PUSH2 0x1702 JUMP JUMPDEST PUSH2 0x506 JUMP JUMPDEST PUSH1 0x40 MLOAD PUSH2 0x171 SWAP2 SWAP1 PUSH2 0x14C1 JUMP JUMPDEST PUSH1 0x40 MLOAD DUP1 SWAP2 SUB SWAP1 RETURN JUMPDEST PUSH2 0x194 PUSH1 0x4 DUP1 CALLDATASIZE SUB DUP2 ADD SWAP1 PUSH2 0x18F SWAP2 SWAP1 PUSH2 0x1740 JUMP JUMPDEST PUSH2 0x640 JUMP JUMPDEST PUSH1 0x40 MLOAD PUSH2 0x1A2 SWAP3 SWAP2 SWAP1 PUSH2 0x17DD JUMP JUMPDEST PUSH1 0x40 MLOAD DUP1 SWAP2 SUB SWAP1 RETURN JUMPDEST PUSH2 0x1C5 PUSH1 0x4 DUP1 CALLDATASIZE SUB DUP2 ADD SWAP1 PUSH2 0x1C0 SWAP2 SWAP1 PUSH2 0x1804 JUMP JUMPDEST PUSH2 0x97F JUMP JUMPDEST PUSH1 0x40 MLOAD PUSH2 0x1D2 SWAP2 SWAP1 PUSH2 0x14C1 JUMP JUMPDEST PUSH1 0x40 MLOAD DUP1 SWAP2 SUB SWAP1 RETURN JUMPDEST PUSH2 0x1F5 PUSH1 0x4 DUP1 CALLDATASIZE SUB DUP2 ADD SWAP1 PUSH2 0x1F0 SWAP2 SWAP1 PUSH2 0x1842 JUMP JUMPDEST PUSH2 0x99F JUMP JUMPDEST PUSH1 0x40 MLOAD PUSH2 0x204 SWAP4 SWAP3 SWAP2 SWAP1 PUSH2 0x18F3 JUMP JUMPDEST PUSH1 0x40 MLOAD DUP1 SWAP2 SUB SWAP1 RETURN JUMPDEST PUSH0 PUSH1 0x20 MSTORE DUP1 PUSH0 MSTORE PUSH1 0x40 PUSH0 KECCAK256 PUSH0 SWAP2 POP SWAP1 POP DUP1 PUSH0 ADD PUSH0 SWAP1 SLOAD SWAP1 PUSH2 0x100 EXP SWAP1 DIV PUSH14 0xFFFFFFFFFFFFFFFFFFFFFFFFFFFF AND SWAP1 DUP1 PUSH0 ADD PUSH1 0xE SWAP1 SLOAD SWAP1 PUSH2 0x100 EXP SWAP1 DIV PUSH14 0xFFFFFFFFFFFFFFFFFFFFFFFFFFFF AND SWAP1 POP DUP3 JUMP JUMPDEST PUSH0 PUSH0 DUP5 GT DUP1 ISZERO PUSH2 0x26D JUMPI POP PUSH0 DUP4 GT JUMPDEST DUP1 ISZERO PUSH2 0x278 JUMPI POP PUSH0 DUP3 GT JUMPDEST PUSH2 0x2B7 JUMPI PUSH1 0x40 MLOAD PUSH32 0x8C379A000000000000000000000000000000000000000000000000000000000 DUP2 MSTORE PUSH1 0x4 ADD PUSH2 0x2AE SWAP1 PUSH2 0x1982 JUMP JUMPDEST PUSH1 0x40 MLOAD DUP1 SWAP2 SUB SWAP1 REVERT JUMPDEST PUSH0 PUSH2 0x3E5 DUP6 PUSH2 0x2C6 SWAP2 SWAP1 PUSH2 0x19CD JUMP JUMPDEST SWAP1 POP PUSH0 DUP4 DUP3 PUSH2 0x2D5 SWAP2 SWAP1 PUSH2 0x19CD JUMP JUMPDEST SWAP1 POP PUSH0 DUP3 PUSH2 0x3E8 DUP8 PUSH2 0x2E7 SWAP2 SWAP1 PUSH2 0x19CD JUMP JUMPDEST PUSH2 0x2F1 SWAP2 SWAP1 PUSH2 0x1A0E JUMP JUMPDEST SWAP1 POP DUP1 DUP3 PUSH2 0x2FF SWAP2 SWAP1 PUSH2 0x1A6E JUMP JUMPDEST SWAP4 POP POP POP POP SWAP4 SWAP3 POP POP POP JUMP JUMPDEST PUSH1 0x60 DUP2 TIMESTAMP GT ISZERO PUSH2 0x350 JUMPI PUSH1 0x40 MLOAD PUSH32 0x8C379A000000000000000000000000000000000000000000000000000000000 DUP2 MSTORE PUSH1 0x4 ADD PUSH2 0x347 SWAP1 PUSH2 0x1AE8 JUMP JUMPDEST PUSH1 0x40 MLOAD DUP1 SWAP2 SUB SWAP1 REVERT JUMPDEST PUSH1 0x2 DUP6 DUP6 SWAP1 POP EQ PUSH2 0x396 JUMPI PUSH1 0x40 MLOAD PUSH32 0x8C379A000000000000000000000000000000000000000000000000000000000 DUP2 MSTORE PUSH1 0x4 ADD PUSH2 0x38D SWAP1 PUSH2 0x1B50 JUMP JUMPDEST PUSH1 0x40 MLOAD DUP1 SWAP2 SUB SWAP1 REVERT JUMPDEST PUSH0 DUP6 DUP6 PUSH0 DUP2 DUP2 LT PUSH2 0x3AA JUMPI PUSH2 0x3A9 PUSH2 0x1B6E JUMP JUMPDEST JUMPDEST SWAP1 POP PUSH1 0x20 MUL ADD PUSH1 0x20 DUP2 ADD SWAP1 PUSH2 0x3BF SWAP2 SWAP1 PUSH2 0x1B9B JUMP JUMPDEST SWAP1 POP PUSH0 DUP7 DUP7 PUSH1 0x1 DUP2 DUP2 LT PUSH2 0x3D6 JUMPI PUSH2 0x3D5 PUSH2 0x1B6E JUMP JUMPDEST JUMPDEST SWAP1 POP PUSH1 0x20 MUL ADD PUSH1 0x20 DUP2 ADD SWAP1 PUSH2 0x3EB SWAP2 SWAP1 PUSH2 0x1B9B JUMP JUMPDEST SWAP1 POP PUSH0 PUSH2 0x3F9 DUP11 DUP5 DUP5 PUSH2 0xA7F JUMP JUMPDEST SWAP1 POP DUP9 DUP2 LT ISZERO PUSH2 0x43E JUMPI PUSH1 0x40 MLOAD PUSH32 0x8C379A000000000000000000000000000000000000000000000000000000000 DUP2 MSTORE PUSH1 0x4 ADD PUSH2 0x435 SWAP1 PUSH2 0x1C10 JUMP JUMPDEST PUSH1 0x40 MLOAD DUP1 SWAP2 SUB SWAP1 REVERT JUMPDEST PUSH2 0x44B DUP4 DUP4 DUP13 DUP5 DUP11 PUSH2 0xB59 JUMP JUMPDEST PUSH2 0x457 DUP4 DUP4 DUP13 DUP5 PUSH2 0xBB8 JUMP JUMPDEST PUSH1 0x2 PUSH8 0xFFFFFFFFFFFFFFFF DUP2 GT ISZERO PUSH2 0x472 JUMPI PUSH2 0x471 PUSH2 0x1C2E JUMP JUMPDEST JUMPDEST PUSH1 0x40 MLOAD SWAP1 DUP1 DUP3 MSTORE DUP1 PUSH1 0x20 MUL PUSH1 0x20 ADD DUP3 ADD PUSH1 0x40 MSTORE DUP1 ISZERO PUSH2 0x4A0 JUMPI DUP2 PUSH1 0x20 ADD PUSH1 0x20 DUP3 MUL DUP1 CALLDATASIZE DUP4 CALLDATACOPY DUP1 DUP3 ADD SWAP2 POP POP SWAP1 POP JUMPDEST POP SWAP4 POP DUP10 DUP5 PUSH0 DUP2 MLOAD DUP2 LT PUSH2 0x4B7 JUMPI PUSH2 0x4B6 PUSH2 0x1B6E JUMP JUMPDEST JUMPDEST PUSH1 0x20 MUL PUSH1 0x20 ADD ADD DUP2 DUP2 MSTORE POP POP DUP1 DUP5 PUSH1 0x1 DUP2 MLOAD DUP2 LT PUSH2 0x4D8 JUMPI PUSH2 0x4D7 PUSH2 0x1B6E JUMP JUMPDEST JUMPDEST PUSH1 0x20 MUL PUSH1 0x20 ADD ADD DUP2 DUP2 MSTORE POP POP POP POP POP SWAP7 SWAP6 POP POP POP POP POP POP JUMP JUMPDEST PUSH1 0x1 PUSH1 0x20 MSTORE DUP1 PUSH0 MSTORE PUSH1 0x40 PUSH0 KECCAK256 PUSH0 SWAP2 POP SWAP1 POP SLOAD DUP2 JUMP JUMPDEST PUSH0 PUSH0 PUSH2 0x512 DUP5 DUP5 PUSH2 0xD90 JUMP JUMPDEST SWAP1 POP PUSH0 PUSH0 PUSH0 DUP4 DUP2 MSTORE PUSH1 0x20 ADD SWAP1 DUP2 MSTORE PUSH1 0x20 ADD PUSH0 KECCAK256 PUSH1 0x40 MLOAD DUP1 PUSH1 0x40 ADD PUSH1 0x40 MSTORE SWAP1 DUP2 PUSH0 DUP3 ADD PUSH0 SWAP1 SLOAD SWAP1 PUSH2 0x100 EXP SWAP1 DIV PUSH14 0xFFFFFFFFFFFFFFFFFFFFFFFFFFFF AND PUSH14 0xFFFFFFFFFFFFFFFFFFFFFFFFFFFF AND PUSH14 0xFFFFFFFFFFFFFFFFFFFFFFFFFFFF AND DUP2 MSTORE PUSH1 0x20 ADD PUSH0 DUP3 ADD PUSH1 0xE SWAP1 SLOAD SWAP1 PUSH2 0x100 EXP SWAP1 DIV PUSH14 0xFFFFFFFFFFFFFFFFFFFFFFFFFFFF AND PUSH14 0xFFFFFFFFFFFFFFFFFFFFFFFFFFFF AND PUSH14 0xFFFFFFFFFFFFFFFFFFFFFFFFFFFF AND DUP2 MSTORE POP POP SWAP1 POP PUSH0 PUSH0 PUSH2 0x5C4 DUP8 DUP8 DUP6 PUSH2 0xE36 JUMP JUMPDEST SWAP2 POP SWAP2 POP PUSH0 DUP3 GT DUP1 ISZERO PUSH2 0x5D6 JUMPI POP PUSH0 DUP2 GT JUMPDEST PUSH2 0x615 JUMPI PUSH1 0x40 MLOAD PUSH32 0x8C379A000000000000000000000000000000000000000000000000000000000 DUP2 MSTORE PUSH1 0x4 ADD PUSH2 0x60C SWAP1 PUSH2 0x1CA5 JUMP JUMPDEST PUSH1 0x40 MLOAD DUP1 SWAP2 SUB SWAP1 REVERT JUMPDEST DUP2 PUSH8 0xDE0B6B3A7640000 DUP3 PUSH2 0x62A SWAP2 SWAP1 PUSH2 0x19CD JUMP JUMPDEST PUSH2 0x634 SWAP2 SWAP1 PUSH2 0x1A6E JUMP JUMPDEST SWAP5 POP POP POP POP POP SWAP3 SWAP2 POP POP JUMP JUMPDEST PUSH0 PUSH0 DUP3 TIMESTAMP GT ISZERO PUSH2 0x685 JUMPI PUSH1 0x40 MLOAD PUSH32 0x8C379A000000000000000000000000000000000000000000000000000000000 DUP2 MSTORE PUSH1 0x4 ADD PUSH2 0x67C SWAP1 PUSH2 0x1AE8 JUMP JUMPDEST PUSH1 0x40 MLOAD DUP1 SWAP2 SUB SWAP1 REVERT JUMPDEST PUSH0 PUSH2 0x690 DUP11 DUP11 PUSH2 0xD90 JUMP JUMPDEST SWAP1 POP PUSH0 PUSH0 PUSH0 DUP4 DUP2 MSTORE PUSH1 0x20 ADD SWAP1 DUP2 MSTORE PUSH1 0x20 ADD PUSH0 KECCAK256 SWAP1 POP PUSH0 PUSH1 0x1 PUSH0 DUP5 DUP2 MSTORE PUSH1 0x20 ADD SWAP1 DUP2 MSTORE PUSH1 0x20 ADD PUSH0 KECCAK256 SLOAD SWAP1 POP PUSH0 DUP2 GT PUSH2 0x6FC JUMPI PUSH1 0x40 MLOAD PUSH32 0x8C379A000000000000000000000000000000000000000000000000000000000 DUP2 MSTORE PUSH1 0x4 ADD PUSH2 0x6F3 SWAP1 PUSH2 0x1D0D JUMP JUMPDEST PUSH1 0x40 MLOAD DUP1 SWAP2 SUB SWAP1 REVERT JUMPDEST DUP1 DUP11 DUP4 PUSH0 ADD PUSH0 SWAP1 SLOAD SWAP1 PUSH2 0x100 EXP SWAP1 DIV PUSH14 0xFFFFFFFFFFFFFFFFFFFFFFFFFFFF AND PUSH14 0xFFFFFFFFFFFFFFFFFFFFFFFFFFFF AND PUSH2 0x735 SWAP2 SWAP1 PUSH2 0x19CD JUMP JUMPDEST PUSH2 0x73F SWAP2 SWAP1 PUSH2 0x1A6E JUMP JUMPDEST SWAP5 POP DUP1 DUP11 DUP4 PUSH0 ADD PUSH1 0xE SWAP1 SLOAD SWAP1 PUSH2 0x100 EXP SWAP1 DIV PUSH14 0xFFFFFFFFFFFFFFFFFFFFFFFFFFFF AND PUSH14 0xFFFFFFFFFFFFFFFFFFFFFFFFFFFF AND PUSH2 0x77B SWAP2 SWAP1 PUSH2 0x19CD JUMP JUMPDEST PUSH2 0x785 SWAP2 SWAP1 PUSH2 0x1A6E JUMP JUMPDEST SWAP4 POP DUP9 DUP6 LT ISZERO DUP1 ISZERO PUSH2 0x797 JUMPI POP DUP8 DUP5 LT ISZERO JUMPDEST PUSH2 0x7D6 JUMPI PUSH1 0x40 MLOAD PUSH32 0x8C379A000000000000000000000000000000000000000000000000000000000 DUP2 MSTORE PUSH1 0x4 ADD PUSH2 0x7CD SWAP1 PUSH2 0x1D75 JUMP JUMPDEST PUSH1 0x40 MLOAD DUP1 SWAP2 SUB SWAP1 REVERT JUMPDEST DUP10 PUSH1 0x2 PUSH0 DUP6 DUP2 MSTORE PUSH1 0x20 ADD SWAP1 DUP2 MSTORE PUSH1 0x20 ADD PUSH0 KECCAK256 PUSH0 CALLER PUSH20 0xFFFFFFFFFFFFFFFFFFFFFFFFFFFFFFFFFFFFFFFF AND PUSH20 0xFFFFFFFFFFFFFFFFFFFFFFFFFFFFFFFFFFFFFFFF AND DUP2 MSTORE PUSH1 0x20 ADD SWAP1 DUP2 MSTORE PUSH1 0x20 ADD PUSH0 KECCAK256 PUSH0 DUP3 DUP3 SLOAD PUSH2 0x831 SWAP2 SWAP1 PUSH2 0x1D93 JUMP JUMPDEST SWAP3 POP POP DUP2 SWAP1 SSTORE POP DUP10 PUSH1 0x1 PUSH0 DUP6 DUP2 MSTORE PUSH1 0x20 ADD SWAP1 DUP2 MSTORE PUSH1 0x20 ADD PUSH0 KECCAK256 PUSH0 DUP3 DUP3 SLOAD PUSH2 0x858 SWAP2 SWAP1 PUSH2 0x1D93 JUMP JUMPDEST SWAP3 POP POP DUP2 SWAP1 SSTORE POP DUP5 DUP3 PUSH0 ADD PUSH0 DUP3 DUP3 DUP3 SWAP1 SLOAD SWAP1 PUSH2 0x100 EXP SWAP1 DIV PUSH14 0xFFFFFFFFFFFFFFFFFFFFFFFFFFFF AND PUSH2 0x88A SWAP2 SWAP1 PUSH2 0x1DC6 JUMP JUMPDEST SWAP3 POP PUSH2 0x100 EXP DUP2 SLOAD DUP2 PUSH14 0xFFFFFFFFFFFFFFFFFFFFFFFFFFFF MUL NOT AND SWAP1 DUP4 PUSH14 0xFFFFFFFFFFFFFFFFFFFFFFFFFFFF AND MUL OR SWAP1 SSTORE POP DUP4 DUP3 PUSH0 ADD PUSH1 0xE DUP3 DUP3 DUP3 SWAP1 SLOAD SWAP1 PUSH2 0x100 EXP SWAP1 DIV PUSH14 0xFFFFFFFFFFFFFFFFFFFFFFFFFFFF AND PUSH2 0x8E8 SWAP2 SWAP1 PUSH2 0x1DC6 JUMP JUMPDEST SWAP3 POP PUSH2 0x100 EXP DUP2 SLOAD DUP2 PUSH14 0xFFFFFFFFFFFFFFFFFFFFFFFFFFFF MUL NOT AND SWAP1 DUP4 PUSH14 0xFFFFFFFFFFFFFFFFFFFFFFFFFFFF AND MUL OR SWAP1 SSTORE POP PUSH2 0x945 DUP8 DUP7 DUP15 PUSH20 0xFFFFFFFFFFFFFFFFFFFFFFFFFFFFFFFFFFFFFFFF AND PUSH2 0xEB5 SWAP1 SWAP3 SWAP2 SWAP1 PUSH4 0xFFFFFFFF AND JUMP JUMPDEST PUSH2 0x970 DUP8 DUP6 DUP14 PUSH20 0xFFFFFFFFFFFFFFFFFFFFFFFFFFFFFFFFFFFFFFFF AND PUSH2 0xEB5 SWAP1 SWAP3 SWAP2 SWAP1 PUSH4 0xFFFFFFFF AND JUMP JUMPDEST POP POP POP SWAP8 POP SWAP8 SWAP6 POP POP POP POP POP POP JUMP JUMPDEST PUSH1 0x2 PUSH1 0x20 MSTORE DUP2 PUSH0 MSTORE PUSH1 0x40 PUSH0 KECCAK256 PUSH1 0x20 MSTORE DUP1 PUSH0 MSTORE PUSH1 0x40 PUSH0 KECCAK256 PUSH0 SWAP2 POP SWAP2 POP POP SLOAD DUP2 JUMP JUMPDEST PUSH0 PUSH0 PUSH0 DUP4 TIMESTAMP GT ISZERO PUSH2 0x9E5 JUMPI PUSH1 0x40 MLOAD PUSH32 0x8C379A000000000000000000000000000000000000000000000000000000000 DUP2 MSTORE PUSH1 0x4 ADD PUSH2 0x9DC SWAP1 PUSH2 0x1AE8 JUMP JUMPDEST PUSH1 0x40 MLOAD DUP1 SWAP2 SUB SWAP1 REVERT JUMPDEST PUSH0 PUSH2 0x9F0 DUP13 DUP13 PUSH2 0xD90 JUMP JUMPDEST SWAP1 POP PUSH0 PUSH0 PUSH0 DUP4 DUP2 MSTORE PUSH1 0x20 ADD SWAP1 DUP2 MSTORE PUSH1 0x20 ADD PUSH0 KECCAK256 SWAP1 POP PUSH2 0xA4C DUP2 PUSH0 ADD PUSH0 SWAP1 SLOAD SWAP1 PUSH2 0x100 EXP SWAP1 DIV PUSH14 0xFFFFFFFFFFFFFFFFFFFFFFFFFFFF AND DUP3 PUSH0 ADD PUSH1 0xE SWAP1 SLOAD SWAP1 PUSH2 0x100 EXP SWAP1 DIV PUSH14 0xFFFFFFFFFFFFFFFFFFFFFFFFFFFF AND DUP14 DUP14 DUP14 DUP14 PUSH2 0xF34 JUMP JUMPDEST DUP1 SWAP6 POP DUP2 SWAP7 POP POP POP PUSH2 0xA60 DUP14 DUP14 DUP8 DUP8 PUSH2 0x10A1 JUMP JUMPDEST PUSH2 0xA6D DUP3 DUP7 DUP7 DUP11 DUP6 PUSH2 0x1101 JUMP JUMPDEST SWAP3 POP POP POP SWAP9 POP SWAP9 POP SWAP9 SWAP6 POP POP POP POP POP POP JUMP JUMPDEST PUSH0 PUSH0 PUSH2 0xA8B DUP5 DUP5 PUSH2 0xD90 JUMP JUMPDEST SWAP1 POP PUSH0 PUSH0 PUSH0 DUP4 DUP2 MSTORE PUSH1 0x20 ADD SWAP1 DUP2 MSTORE PUSH1 0x20 ADD PUSH0 KECCAK256 PUSH1 0x40 MLOAD DUP1 PUSH1 0x40 ADD PUSH1 0x40 MSTORE SWAP1 DUP2 PUSH0 DUP3 ADD PUSH0 SWAP1 SLOAD SWAP1 PUSH2 0x100 EXP SWAP1 DIV PUSH14 0xFFFFFFFFFFFFFFFFFFFFFFFFFFFF AND PUSH14 0xFFFFFFFFFFFFFFFFFFFFFFFFFFFF AND PUSH14 0xFFFFFFFFFFFFFFFFFFFFFFFFFFFF AND DUP2 MSTORE PUSH1 0x20 ADD PUSH0 DUP3 ADD PUSH1 0xE SWAP1 SLOAD SWAP1 PUSH2 0x100 EXP SWAP1 DIV PUSH14 0xFFFFFFFFFFFFFFFFFFFFFFFFFFFF AND PUSH14 0xFFFFFFFFFFFFFFFFFFFFFFFFFFFF AND PUSH14 0xFFFFFFFFFFFFFFFFFFFFFFFFFFFF AND DUP2 MSTORE POP POP SWAP1 POP PUSH0 PUSH0 PUSH2 0xB3D DUP8 DUP8 DUP6 PUSH2 0xE36 JUMP JUMPDEST SWAP2 POP SWAP2 POP PUSH2 0xB4C DUP9 DUP4 DUP4 PUSH2 0x25E JUMP JUMPDEST SWAP5 POP POP POP POP POP SWAP4 SWAP3 POP POP POP JUMP JUMPDEST PUSH2 0xB86 CALLER ADDRESS DUP6 DUP9 PUSH20 0xFFFFFFFFFFFFFFFFFFFFFFFFFFFFFFFFFFFFFFFF AND PUSH2 0x125D SWAP1 SWAP4 SWAP3 SWAP2 SWAP1 PUSH4 0xFFFFFFFF AND JUMP JUMPDEST PUSH2 0xBB1 DUP2 DUP4 DUP7 PUSH20 0xFFFFFFFFFFFFFFFFFFFFFFFFFFFFFFFFFFFFFFFF AND PUSH2 0xEB5 SWAP1 SWAP3 SWAP2 SWAP1 PUSH4 0xFFFFFFFF AND JUMP JUMPDEST POP POP POP POP POP JUMP JUMPDEST PUSH0 PUSH2 0xBC3 DUP6 DUP6 PUSH2 0xD90 JUMP JUMPDEST SWAP1 POP PUSH0 PUSH0 PUSH0 DUP4 DUP2 MSTORE PUSH1 0x20 ADD SWAP1 DUP2 MSTORE PUSH1 0x20 ADD PUSH0 KECCAK256 SWAP1 POP DUP5 PUSH20 0xFFFFFFFFFFFFFFFFFFFFFFFFFFFFFFFFFFFFFFFF AND DUP7 PUSH20 0xFFFFFFFFFFFFFFFFFFFFFFFFFFFFFFFFFFFFFFFF AND LT ISZERO PUSH2 0xCCC JUMPI DUP4 DUP2 PUSH0 ADD PUSH0 DUP3 DUP3 DUP3 SWAP1 SLOAD SWAP1 PUSH2 0x100 EXP SWAP1 DIV PUSH14 0xFFFFFFFFFFFFFFFFFFFFFFFFFFFF AND PUSH2 0xC37 SWAP2 SWAP1 PUSH2 0x1E07 JUMP JUMPDEST SWAP3 POP PUSH2 0x100 EXP DUP2 SLOAD DUP2 PUSH14 0xFFFFFFFFFFFFFFFFFFFFFFFFFFFF MUL NOT AND SWAP1 DUP4 PUSH14 0xFFFFFFFFFFFFFFFFFFFFFFFFFFFF AND MUL OR SWAP1 SSTORE POP DUP3 DUP2 PUSH0 ADD PUSH1 0xE DUP3 DUP3 DUP3 SWAP1 SLOAD SWAP1 PUSH2 0x100 EXP SWAP1 DIV PUSH14 0xFFFFFFFFFFFFFFFFFFFFFFFFFFFF AND PUSH2 0xC95 SWAP2 SWAP1 PUSH2 0x1DC6 JUMP JUMPDEST SWAP3 POP PUSH2 0x100 EXP DUP2 SLOAD DUP2 PUSH14 0xFFFFFFFFFFFFFFFFFFFFFFFFFFFF MUL NOT AND SWAP1 DUP4 PUSH14 0xFFFFFFFFFFFFFFFFFFFFFFFFFFFF AND MUL OR SWAP1 SSTORE POP PUSH2 0xD88 JUMP JUMPDEST DUP4 DUP2 PUSH0 ADD PUSH1 0xE DUP3 DUP3 DUP3 SWAP1 SLOAD SWAP1 PUSH2 0x100 EXP SWAP1 DIV PUSH14 0xFFFFFFFFFFFFFFFFFFFFFFFFFFFF AND PUSH2 0xCF8 SWAP2 SWAP1 PUSH2 0x1E07 JUMP JUMPDEST SWAP3 POP PUSH2 0x100 EXP DUP2 SLOAD DUP2 PUSH14 0xFFFFFFFFFFFFFFFFFFFFFFFFFFFF MUL NOT AND SWAP1 DUP4 PUSH14 0xFFFFFFFFFFFFFFFFFFFFFFFFFFFF AND MUL OR SWAP1 SSTORE POP DUP3 DUP2 PUSH0 ADD PUSH0 DUP3 DUP3 DUP3 SWAP1 SLOAD SWAP1 PUSH2 0x100 EXP SWAP1 DIV PUSH14 0xFFFFFFFFFFFFFFFFFFFFFFFFFFFF AND PUSH2 0xD55 SWAP2 SWAP1 PUSH2 0x1DC6 JUMP JUMPDEST SWAP3 POP PUSH2 0x100 EXP DUP2 SLOAD DUP2 PUSH14 0xFFFFFFFFFFFFFFFFFFFFFFFFFFFF MUL NOT AND SWAP1 DUP4 PUSH14 0xFFFFFFFFFFFFFFFFFFFFFFFFFFFF AND MUL OR SWAP1 SSTORE POP JUMPDEST POP POP POP POP POP POP JUMP JUMPDEST PUSH0 DUP2 PUSH20 0xFFFFFFFFFFFFFFFFFFFFFFFFFFFFFFFFFFFFFFFF AND DUP4 PUSH20 0xFFFFFFFFFFFFFFFFFFFFFFFFFFFFFFFFFFFFFFFF AND LT PUSH2 0xDCA JUMPI DUP2 PUSH2 0xDCC JUMP JUMPDEST DUP3 JUMPDEST DUP3 PUSH20 0xFFFFFFFFFFFFFFFFFFFFFFFFFFFFFFFFFFFFFFFF AND DUP5 PUSH20 0xFFFFFFFFFFFFFFFFFFFFFFFFFFFFFFFFFFFFFFFF AND LT PUSH2 0xE05 JUMPI DUP4 PUSH2 0xE07 JUMP JUMPDEST DUP3 JUMPDEST PUSH1 0x40 MLOAD PUSH1 0x20 ADD PUSH2 0xE18 SWAP3 SWAP2 SWAP1 PUSH2 0x1E8D JUMP JUMPDEST PUSH1 0x40 MLOAD PUSH1 0x20 DUP2 DUP4 SUB SUB DUP2 MSTORE SWAP1 PUSH1 0x40 MSTORE DUP1 MLOAD SWAP1 PUSH1 0x20 ADD KECCAK256 SWAP1 POP SWAP3 SWAP2 POP POP JUMP JUMPDEST PUSH0 PUSH0 DUP4 PUSH20 0xFFFFFFFFFFFFFFFFFFFFFFFFFFFFFFFFFFFFFFFF AND DUP6 PUSH20 0xFFFFFFFFFFFFFFFFFFFFFFFFFFFFFFFFFFFFFFFF AND LT PUSH2 0xE79 JUMPI DUP3 PUSH1 0x20 ADD MLOAD DUP4 PUSH0 ADD MLOAD PUSH2 0xE83 JUMP JUMPDEST DUP3 PUSH0 ADD MLOAD DUP4 PUSH1 0x20 ADD MLOAD JUMPDEST DUP2 PUSH14 0xFFFFFFFFFFFFFFFFFFFFFFFFFFFF AND SWAP2 POP DUP1 PUSH14 0xFFFFFFFFFFFFFFFFFFFFFFFFFFFF AND SWAP1 POP SWAP2 POP SWAP2 POP SWAP4 POP SWAP4 SWAP2 POP POP JUMP JUMPDEST PUSH2 0xF2F DUP4 DUP5 PUSH20 0xFFFFFFFFFFFFFFFFFFFFFFFFFFFFFFFFFFFFFFFF AND PUSH4 0xA9059CBB DUP6 DUP6 PUSH1 0x40 MLOAD PUSH1 0x24 ADD PUSH2 0xEE8 SWAP3 SWAP2 SWAP1 PUSH2 0x1EC7 JUMP JUMPDEST PUSH1 0x40 MLOAD PUSH1 0x20 DUP2 DUP4 SUB SUB DUP2 MSTORE SWAP1 PUSH1 0x40 MSTORE SWAP2 POP PUSH1 0xE0 SHL PUSH1 0x20 DUP3 ADD DUP1 MLOAD PUSH28 0xFFFFFFFFFFFFFFFFFFFFFFFFFFFFFFFFFFFFFFFFFFFFFFFFFFFFFFFF DUP4 DUP2 DUP4 AND OR DUP4 MSTORE POP POP POP POP PUSH2 0x12DF JUMP JUMPDEST POP POP POP JUMP JUMPDEST PUSH0 PUSH0 PUSH0 DUP9 PUSH14 0xFFFFFFFFFFFFFFFFFFFFFFFFFFFF AND EQ DUP1 ISZERO PUSH2 0xF64 JUMPI POP PUSH0 DUP8 PUSH14 0xFFFFFFFFFFFFFFFFFFFFFFFFFFFF AND EQ JUMPDEST ISZERO PUSH2 0xF78 JUMPI DUP6 DUP6 DUP1 SWAP3 POP DUP2 SWAP4 POP POP POP PUSH2 0x1096 JUMP JUMPDEST PUSH0 DUP9 PUSH14 0xFFFFFFFFFFFFFFFFFFFFFFFFFFFF AND DUP9 PUSH14 0xFFFFFFFFFFFFFFFFFFFFFFFFFFFF AND DUP9 PUSH2 0xFA6 SWAP2 SWAP1 PUSH2 0x19CD JUMP JUMPDEST PUSH2 0xFB0 SWAP2 SWAP1 PUSH2 0x1A6E JUMP JUMPDEST SWAP1 POP DUP6 DUP2 GT PUSH2 0x100B JUMPI DUP4 DUP2 LT ISZERO PUSH2 0xFFC JUMPI PUSH1 0x40 MLOAD PUSH32 0x8C379A000000000000000000000000000000000000000000000000000000000 DUP2 MSTORE PUSH1 0x4 ADD PUSH2 0xFF3 SWAP1 PUSH2 0x1F38 JUMP JUMPDEST PUSH1 0x40 MLOAD DUP1 SWAP2 SUB SWAP1 REVERT JUMPDEST DUP7 DUP2 DUP1 SWAP4 POP DUP2 SWAP5 POP POP POP PUSH2 0x1094 JUMP JUMPDEST PUSH0 DUP9 PUSH14 0xFFFFFFFFFFFFFFFFFFFFFFFFFFFF AND DUP11 PUSH14 0xFFFFFFFFFFFFFFFFFFFFFFFFFFFF AND DUP9 PUSH2 0x1039 SWAP2 SWAP1 PUSH2 0x19CD JUMP JUMPDEST PUSH2 0x1043 SWAP2 SWAP1 PUSH2 0x1A6E JUMP JUMPDEST SWAP1 POP DUP6 DUP2 LT ISZERO PUSH2 0x1088 JUMPI PUSH1 0x40 MLOAD PUSH32 0x8C379A000000000000000000000000000000000000000000000000000000000 DUP2 MSTORE PUSH1 0x4 ADD PUSH2 0x107F SWAP1 PUSH2 0x1FA0 JUMP JUMPDEST PUSH1 0x40 MLOAD DUP1 SWAP2 SUB SWAP1 REVERT JUMPDEST DUP1 DUP8 DUP1 SWAP5 POP DUP2 SWAP6 POP POP POP POP JUMPDEST POP JUMPDEST SWAP7 POP SWAP7 SWAP5 POP POP POP POP POP JUMP JUMPDEST PUSH2 0x10CE CALLER ADDRESS DUP5 DUP8 PUSH20 0xFFFFFFFFFFFFFFFFFFFFFFFFFFFFFFFFFFFFFFFF AND PUSH2 0x125D SWAP1 SWAP4 SWAP3 SWAP2 SWAP1 PUSH4 0xFFFFFFFF AND JUMP JUMPDEST PUSH2 0x10FB CALLER ADDRESS DUP4 DUP7 PUSH20 0xFFFFFFFFFFFFFFFFFFFFFFFFFFFFFFFFFFFFFFFF AND PUSH2 0x125D SWAP1 SWAP4 SWAP3 SWAP2 SWAP1 PUSH4 0xFFFFFFFF AND JUMP JUMPDEST POP POP POP POP JUMP JUMPDEST PUSH0 DUP4 DUP6 PUSH2 0x110E SWAP2 SWAP1 PUSH2 0x1A0E JUMP JUMPDEST SWAP1 POP DUP1 PUSH1 0x1 PUSH0 DUP9 DUP2 MSTORE PUSH1 0x20 ADD SWAP1 DUP2 MSTORE PUSH1 0x20 ADD PUSH0 KECCAK256 PUSH0 DUP3 DUP3 SLOAD PUSH2 0x1130 SWAP2 SWAP1 PUSH2 0x1A0E JUMP JUMPDEST SWAP3 POP POP DUP2 SWAP1 SSTORE POP DUP1 PUSH1 0x2 PUSH0 DUP9 DUP2 MSTORE PUSH1 0x20 ADD SWAP1 DUP2 MSTORE PUSH1 0x20 ADD PUSH0 KECCAK256 PUSH0 DUP6 PUSH20 0xFFFFFFFFFFFFFFFFFFFFFFFFFFFFFFFFFFFFFFFF AND PUSH20 0xFFFFFFFFFFFFFFFFFFFFFFFFFFFFFFFFFFFFFFFF AND DUP2 MSTORE PUSH1 0x20 ADD SWAP1 DUP2 MSTORE PUSH1 0x20 ADD PUSH0 KECCAK256 PUSH0 DUP3 DUP3 SLOAD PUSH2 0x1192 SWAP2 SWAP1 PUSH2 0x1A0E JUMP JUMPDEST SWAP3 POP POP DUP2 SWAP1 SSTORE POP DUP5 DUP3 PUSH0 ADD PUSH0 DUP3 DUP3 DUP3 SWAP1 SLOAD SWAP1 PUSH2 0x100 EXP SWAP1 DIV PUSH14 0xFFFFFFFFFFFFFFFFFFFFFFFFFFFF AND PUSH2 0x11C4 SWAP2 SWAP1 PUSH2 0x1E07 JUMP JUMPDEST SWAP3 POP PUSH2 0x100 EXP DUP2 SLOAD DUP2 PUSH14 0xFFFFFFFFFFFFFFFFFFFFFFFFFFFF MUL NOT AND SWAP1 DUP4 PUSH14 0xFFFFFFFFFFFFFFFFFFFFFFFFFFFF AND MUL OR SWAP1 SSTORE POP DUP4 DUP3 PUSH0 ADD PUSH1 0xE DUP3 DUP3 DUP3 SWAP1 SLOAD SWAP1 PUSH2 0x100 EXP SWAP1 DIV PUSH14 0xFFFFFFFFFFFFFFFFFFFFFFFFFFFF AND PUSH2 0x1222 SWAP2 SWAP1 PUSH2 0x1E07 JUMP JUMPDEST SWAP3 POP PUSH2 0x100 EXP DUP2 SLOAD DUP2 PUSH14 0xFFFFFFFFFFFFFFFFFFFFFFFFFFFF MUL NOT AND SWAP1 DUP4 PUSH14 0xFFFFFFFFFFFFFFFFFFFFFFFFFFFF AND MUL OR SWAP1 SSTORE POP SWAP6 SWAP5 POP POP POP POP POP JUMP JUMPDEST PUSH2 0x12D9 DUP5 DUP6 PUSH20 0xFFFFFFFFFFFFFFFFFFFFFFFFFFFFFFFFFFFFFFFF AND PUSH4 0x23B872DD DUP7 DUP7 DUP7 PUSH1 0x40 MLOAD PUSH1 0x24 ADD PUSH2 0x1292 SWAP4 SWAP3 SWAP2 SWAP1 PUSH2 0x1FBE JUMP JUMPDEST PUSH1 0x40 MLOAD PUSH1 0x20 DUP2 DUP4 SUB SUB DUP2 MSTORE SWAP1 PUSH1 0x40 MSTORE SWAP2 POP PUSH1 0xE0 SHL PUSH1 0x20 DUP3 ADD DUP1 MLOAD PUSH28 0xFFFFFFFFFFFFFFFFFFFFFFFFFFFFFFFFFFFFFFFFFFFFFFFFFFFFFFFF DUP4 DUP2 DUP4 AND OR DUP4 MSTORE POP POP POP POP PUSH2 0x12DF JUMP JUMPDEST POP POP POP POP JUMP JUMPDEST PUSH0 PUSH0 PUSH1 0x20 PUSH0 DUP5 MLOAD PUSH1 0x20 DUP7 ADD PUSH0 DUP9 GAS CALL DUP1 PUSH2 0x12FE JUMPI PUSH1 0x40 MLOAD RETURNDATASIZE PUSH0 DUP3 RETURNDATACOPY RETURNDATASIZE DUP2 REVERT JUMPDEST RETURNDATASIZE SWAP3 POP PUSH0 MLOAD SWAP2 POP POP PUSH0 DUP3 EQ PUSH2 0x1317 JUMPI PUSH1 0x1 DUP2 EQ ISZERO PUSH2 0x1332 JUMP JUMPDEST PUSH0 DUP5 PUSH20 0xFFFFFFFFFFFFFFFFFFFFFFFFFFFFFFFFFFFFFFFF AND EXTCODESIZE EQ JUMPDEST ISZERO PUSH2 0x1374 JUMPI DUP4 PUSH1 0x40 MLOAD PUSH32 0x5274AFE700000000000000000000000000000000000000000000000000000000 DUP2 MSTORE PUSH1 0x4 ADD PUSH2 0x136B SWAP2 SWAP1 PUSH2 0x1FF3 JUMP JUMPDEST PUSH1 0x40 MLOAD DUP1 SWAP2 SUB SWAP1 REVERT JUMPDEST POP POP POP POP JUMP JUMPDEST PUSH0 PUSH0 REVERT JUMPDEST PUSH0 PUSH0 REVERT JUMPDEST PUSH0 DUP2 SWAP1 POP SWAP2 SWAP1 POP JUMP JUMPDEST PUSH2 0x1394 DUP2 PUSH2 0x1382 JUMP JUMPDEST DUP2 EQ PUSH2 0x139E JUMPI PUSH0 PUSH0 REVERT JUMPDEST POP JUMP JUMPDEST PUSH0 DUP2 CALLDATALOAD SWAP1 POP PUSH2 0x13AF DUP2 PUSH2 0x138B JUMP JUMPDEST SWAP3 SWAP2 POP POP JUMP JUMPDEST PUSH0 PUSH1 0x20 DUP3 DUP5 SUB SLT ISZERO PUSH2 0x13CA JUMPI PUSH2 0x13C9 PUSH2 0x137A JUMP JUMPDEST JUMPDEST PUSH0 PUSH2 0x13D7 DUP5 DUP3 DUP6 ADD PUSH2 0x13A1 JUMP JUMPDEST SWAP2 POP POP SWAP3 SWAP2 POP POP JUMP JUMPDEST PUSH0 PUSH14 0xFFFFFFFFFFFFFFFFFFFFFFFFFFFF DUP3 AND SWAP1 POP SWAP2 SWAP1 POP JUMP JUMPDEST PUSH2 0x1402 DUP2 PUSH2 0x13E0 JUMP JUMPDEST DUP3 MSTORE POP POP JUMP JUMPDEST PUSH0 PUSH1 0x40 DUP3 ADD SWAP1 POP PUSH2 0x141B PUSH0 DUP4 ADD DUP6 PUSH2 0x13F9 JUMP JUMPDEST PUSH2 0x1428 PUSH1 0x20 DUP4 ADD DUP5 PUSH2 0x13F9 JUMP JUMPDEST SWAP4 SWAP3 POP POP POP JUMP JUMPDEST PUSH0 DUP2 SWAP1 POP SWAP2 SWAP1 POP JUMP JUMPDEST PUSH2 0x1441 DUP2 PUSH2 0x142F JUMP JUMPDEST DUP2 EQ PUSH2 0x144B JUMPI PUSH0 PUSH0 REVERT JUMPDEST POP JUMP JUMPDEST PUSH0 DUP2 CALLDATALOAD SWAP1 POP PUSH2 0x145C DUP2 PUSH2 0x1438 JUMP JUMPDEST SWAP3 SWAP2 POP POP JUMP JUMPDEST PUSH0 PUSH0 PUSH0 PUSH1 0x60 DUP5 DUP7 SUB SLT ISZERO PUSH2 0x1479 JUMPI PUSH2 0x1478 PUSH2 0x137A JUMP JUMPDEST JUMPDEST PUSH0 PUSH2 0x1486 DUP7 DUP3 DUP8 ADD PUSH2 0x144E JUMP JUMPDEST SWAP4 POP POP PUSH1 0x20 PUSH2 0x1497 DUP7 DUP3 DUP8 ADD PUSH2 0x144E JUMP JUMPDEST SWAP3 POP POP PUSH1 0x40 PUSH2 0x14A8 DUP7 DUP3 DUP8 ADD PUSH2 0x144E JUMP JUMPDEST SWAP2 POP POP SWAP3 POP SWAP3 POP SWAP3 JUMP JUMPDEST PUSH2 0x14BB DUP2 PUSH2 0x142F JUMP JUMPDEST DUP3 MSTORE POP POP JUMP JUMPDEST PUSH0 PUSH1 0x20 DUP3 ADD SWAP1 POP PUSH2 0x14D4 PUSH0 DUP4 ADD DUP5 PUSH2 0x14B2 JUMP JUMPDEST SWAP3 SWAP2 POP POP JUMP JUMPDEST PUSH0 PUSH0 REVERT JUMPDEST PUSH0 PUSH0 REVERT JUMPDEST PUSH0 PUSH0 REVERT JUMPDEST PUSH0 PUSH0 DUP4 PUSH1 0x1F DUP5 ADD SLT PUSH2 0x14FB JUMPI PUSH2 0x14FA PUSH2 0x14DA JUMP JUMPDEST JUMPDEST DUP3 CALLDATALOAD SWAP1 POP PUSH8 0xFFFFFFFFFFFFFFFF DUP2 GT ISZERO PUSH2 0x1518 JUMPI PUSH2 0x1517 PUSH2 0x14DE JUMP JUMPDEST JUMPDEST PUSH1 0x20 DUP4 ADD SWAP2 POP DUP4 PUSH1 0x20 DUP3 MUL DUP4 ADD GT ISZERO PUSH2 0x1534 JUMPI PUSH2 0x1533 PUSH2 0x14E2 JUMP JUMPDEST JUMPDEST SWAP3 POP SWAP3 SWAP1 POP JUMP JUMPDEST PUSH0 PUSH20 0xFFFFFFFFFFFFFFFFFFFFFFFFFFFFFFFFFFFFFFFF DUP3 AND SWAP1 POP SWAP2 SWAP1 POP JUMP JUMPDEST PUSH0 PUSH2 0x1564 DUP3 PUSH2 0x153B JUMP JUMPDEST SWAP1 POP SWAP2 SWAP1 POP JUMP JUMPDEST PUSH2 0x1574 DUP2 PUSH2 0x155A JUMP JUMPDEST DUP2 EQ PUSH2 0x157E JUMPI PUSH0 PUSH0 REVERT JUMPDEST POP JUMP JUMPDEST PUSH0 DUP2 CALLDATALOAD SWAP1 POP PUSH2 0x158F DUP2 PUSH2 0x156B JUMP JUMPDEST SWAP3 SWAP2 POP POP JUMP JUMPDEST PUSH0 PUSH0 PUSH0 PUSH0 PUSH0 PUSH0 PUSH1 0xA0 DUP8 DUP10 SUB SLT ISZERO PUSH2 0x15AF JUMPI PUSH2 0x15AE PUSH2 0x137A JUMP JUMPDEST JUMPDEST PUSH0 PUSH2 0x15BC DUP10 DUP3 DUP11 ADD PUSH2 0x144E JUMP JUMPDEST SWAP7 POP POP PUSH1 0x20 PUSH2 0x15CD DUP10 DUP3 DUP11 ADD PUSH2 0x144E JUMP JUMPDEST SWAP6 POP POP PUSH1 0x40 DUP8 ADD CALLDATALOAD PUSH8 0xFFFFFFFFFFFFFFFF DUP2 GT ISZERO PUSH2 0x15EE JUMPI PUSH2 0x15ED PUSH2 0x137E JUMP JUMPDEST JUMPDEST PUSH2 0x15FA DUP10 DUP3 DUP11 ADD PUSH2 0x14E6 JUMP JUMPDEST SWAP5 POP SWAP5 POP POP PUSH1 0x60 PUSH2 0x160D DUP10 DUP3 DUP11 ADD PUSH2 0x1581 JUMP JUMPDEST SWAP3 POP POP PUSH1 0x80 PUSH2 0x161E DUP10 DUP3 DUP11 ADD PUSH2 0x144E JUMP JUMPDEST SWAP2 POP POP SWAP3 SWAP6 POP SWAP3 SWAP6 POP SWAP3 SWAP6 JUMP JUMPDEST PUSH0 DUP2 MLOAD SWAP1 POP SWAP2 SWAP1 POP JUMP JUMPDEST PUSH0 DUP3 DUP3 MSTORE PUSH1 0x20 DUP3 ADD SWAP1 POP SWAP3 SWAP2 POP POP JUMP JUMPDEST PUSH0 DUP2 SWAP1 POP PUSH1 0x20 DUP3 ADD SWAP1 POP SWAP2 SWAP1 POP JUMP JUMPDEST PUSH2 0x165D DUP2 PUSH2 0x142F JUMP JUMPDEST DUP3 MSTORE POP POP JUMP JUMPDEST PUSH0 PUSH2 0x166E DUP4 DUP4 PUSH2 0x1654 JUMP JUMPDEST PUSH1 0x20 DUP4 ADD SWAP1 POP SWAP3 SWAP2 POP POP JUMP JUMPDEST PUSH0 PUSH1 0x20 DUP3 ADD SWAP1 POP SWAP2 SWAP1 POP JUMP JUMPDEST PUSH0 PUSH2 0x1690 DUP3 PUSH2 0x162B JUMP JUMPDEST PUSH2 0x169A DUP2 DUP6 PUSH2 0x1635 JUMP JUMPDEST SWAP4 POP PUSH2 0x16A5 DUP4 PUSH2 0x1645 JUMP JUMPDEST DUP1 PUSH0 JUMPDEST DUP4 DUP2 LT ISZERO PUSH2 0x16D5 JUMPI DUP2 MLOAD PUSH2 0x16BC DUP9 DUP3 PUSH2 0x1663 JUMP JUMPDEST SWAP8 POP PUSH2 0x16C7 DUP4 PUSH2 0x167A JUMP JUMPDEST SWAP3 POP POP PUSH1 0x1 DUP2 ADD SWAP1 POP PUSH2 0x16A8 JUMP JUMPDEST POP DUP6 SWAP4 POP POP POP POP SWAP3 SWAP2 POP POP JUMP JUMPDEST PUSH0 PUSH1 0x20 DUP3 ADD SWAP1 POP DUP2 DUP2 SUB PUSH0 DUP4 ADD MSTORE PUSH2 0x16FA DUP2 DUP5 PUSH2 0x1686 JUMP JUMPDEST SWAP1 POP SWAP3 SWAP2 POP POP JUMP JUMPDEST PUSH0 PUSH0 PUSH1 0x40 DUP4 DUP6 SUB SLT ISZERO PUSH2 0x1718 JUMPI PUSH2 0x1717 PUSH2 0x137A JUMP JUMPDEST JUMPDEST PUSH0 PUSH2 0x1725 DUP6 DUP3 DUP7 ADD PUSH2 0x1581 JUMP JUMPDEST SWAP3 POP POP PUSH1 0x20 PUSH2 0x1736 DUP6 DUP3 DUP7 ADD PUSH2 0x1581 JUMP JUMPDEST SWAP2 POP POP SWAP3 POP SWAP3 SWAP1 POP JUMP JUMPDEST PUSH0 PUSH0 PUSH0 PUSH0 PUSH0 PUSH0 PUSH0 PUSH1 0xE0 DUP9 DUP11 SUB SLT ISZERO PUSH2 0x175B JUMPI PUSH2 0x175A PUSH2 0x137A JUMP JUMPDEST JUMPDEST PUSH0 PUSH2 0x1768 DUP11 DUP3 DUP12 ADD PUSH2 0x1581 JUMP JUMPDEST SWAP8 POP POP PUSH1 0x20 PUSH2 0x1779 DUP11 DUP3 DUP12 ADD PUSH2 0x1581 JUMP JUMPDEST SWAP7 POP POP PUSH1 0x40 PUSH2 0x178A DUP11 DUP3 DUP12 ADD PUSH2 0x144E JUMP JUMPDEST SWAP6 POP POP PUSH1 0x60 PUSH2 0x179B DUP11 DUP3 DUP12 ADD PUSH2 0x144E JUMP JUMPDEST SWAP5 POP POP PUSH1 0x80 PUSH2 0x17AC DUP11 DUP3 DUP12 ADD PUSH2 0x144E JUMP JUMPDEST SWAP4 POP POP PUSH1 0xA0 PUSH2 0x17BD DUP11 DUP3 DUP12 ADD PUSH2 0x1581 JUMP JUMPDEST SWAP3 POP POP PUSH1 0xC0 PUSH2 0x17CE DUP11 DUP3 DUP12 ADD PUSH2 0x144E JUMP JUMPDEST SWAP2 POP POP SWAP3 SWAP6 SWAP9 SWAP2 SWAP5 SWAP8 POP SWAP3 SWAP6 POP JUMP JUMPDEST PUSH0 PUSH1 0x40 DUP3 ADD SWAP1 POP PUSH2 0x17F0 PUSH0 DUP4 ADD DUP6 PUSH2 0x14B2 JUMP JUMPDEST PUSH2 0x17FD PUSH1 0x20 DUP4 ADD DUP5 PUSH2 0x14B2 JUMP JUMPDEST SWAP4 SWAP3 POP POP POP JUMP JUMPDEST PUSH0 PUSH0 PUSH1 0x40 DUP4 DUP6 SUB SLT ISZERO PUSH2 0x181A JUMPI PUSH2 0x1819 PUSH2 0x137A JUMP JUMPDEST JUMPDEST PUSH0 PUSH2 0x1827 DUP6 DUP3 DUP7 ADD PUSH2 0x13A1 JUMP JUMPDEST SWAP3 POP POP PUSH1 0x20 PUSH2 0x1838 DUP6 DUP3 DUP7 ADD PUSH2 0x1581 JUMP JUMPDEST SWAP2 POP POP SWAP3 POP SWAP3 SWAP1 POP JUMP JUMPDEST PUSH0 PUSH0 PUSH0 PUSH0 PUSH0 PUSH0 PUSH0 PUSH0 PUSH2 0x100 DUP10 DUP12 SUB SLT ISZERO PUSH2 0x185F JUMPI PUSH2 0x185E PUSH2 0x137A JUMP JUMPDEST JUMPDEST PUSH0 PUSH2 0x186C DUP12 DUP3 DUP13 ADD PUSH2 0x1581 JUMP JUMPDEST SWAP9 POP POP PUSH1 0x20 PUSH2 0x187D DUP12 DUP3 DUP13 ADD PUSH2 0x1581 JUMP JUMPDEST SWAP8 POP POP PUSH1 0x40 PUSH2 0x188E DUP12 DUP3 DUP13 ADD PUSH2 0x144E JUMP JUMPDEST SWAP7 POP POP PUSH1 0x60 PUSH2 0x189F DUP12 DUP3 DUP13 ADD PUSH2 0x144E JUMP JUMPDEST SWAP6 POP POP PUSH1 0x80 PUSH2 0x18B0 DUP12 DUP3 DUP13 ADD PUSH2 0x144E JUMP JUMPDEST SWAP5 POP POP PUSH1 0xA0 PUSH2 0x18C1 DUP12 DUP3 DUP13 ADD PUSH2 0x144E JUMP JUMPDEST SWAP4 POP POP PUSH1 0xC0 PUSH2 0x18D2 DUP12 DUP3 DUP13 ADD PUSH2 0x1581 JUMP JUMPDEST SWAP3 POP POP PUSH1 0xE0 PUSH2 0x18E3 DUP12 DUP3 DUP13 ADD PUSH2 0x144E JUMP JUMPDEST SWAP2 POP POP SWAP3 SWAP6 SWAP9 POP SWAP3 SWAP6 SWAP9 SWAP1 SWAP4 SWAP7 POP JUMP JUMPDEST PUSH0 PUSH1 0x60 DUP3 ADD SWAP1 POP PUSH2 0x1906 PUSH0 DUP4 ADD DUP7 PUSH2 0x14B2 JUMP JUMPDEST PUSH2 0x1913 PUSH1 0x20 DUP4 ADD DUP6 PUSH2 0x14B2 JUMP JUMPDEST PUSH2 0x1920 PUSH1 0x40 DUP4 ADD DUP5 PUSH2 0x14B2 JUMP JUMPDEST SWAP5 SWAP4 POP POP POP POP JUMP JUMPDEST PUSH0 DUP3 DUP3 MSTORE PUSH1 0x20 DUP3 ADD SWAP1 POP SWAP3 SWAP2 POP POP JUMP JUMPDEST PUSH32 0x496E76616C696420726573657276657300000000000000000000000000000000 PUSH0 DUP3 ADD MSTORE POP JUMP JUMPDEST PUSH0 PUSH2 0x196C PUSH1 0x10 DUP4 PUSH2 0x1928 JUMP JUMPDEST SWAP2 POP PUSH2 0x1977 DUP3 PUSH2 0x1938 JUMP JUMPDEST PUSH1 0x20 DUP3 ADD SWAP1 POP SWAP2 SWAP1 POP JUMP JUMPDEST PUSH0 PUSH1 0x20 DUP3 ADD SWAP1 POP DUP2 DUP2 SUB PUSH0 DUP4 ADD MSTORE PUSH2 0x1999 DUP2 PUSH2 0x1960 JUMP JUMPDEST SWAP1 POP SWAP2 SWAP1 POP JUMP JUMPDEST PUSH32 0x4E487B7100000000000000000000000000000000000000000000000000000000 PUSH0 MSTORE PUSH1 0x11 PUSH1 0x4 MSTORE PUSH1 0x24 PUSH0 REVERT JUMPDEST PUSH0 PUSH2 0x19D7 DUP3 PUSH2 0x142F JUMP JUMPDEST SWAP2 POP PUSH2 0x19E2 DUP4 PUSH2 0x142F JUMP JUMPDEST SWAP3 POP DUP3 DUP3 MUL PUSH2 0x19F0 DUP2 PUSH2 0x142F JUMP JUMPDEST SWAP2 POP DUP3 DUP3 DIV DUP5 EQ DUP4 ISZERO OR PUSH2 0x1A07 JUMPI PUSH2 0x1A06 PUSH2 0x19A0 JUMP JUMPDEST JUMPDEST POP SWAP3 SWAP2 POP POP JUMP JUMPDEST PUSH0 PUSH2 0x1A18 DUP3 PUSH2 0x142F JUMP JUMPDEST SWAP2 POP PUSH2 0x1A23 DUP4 PUSH2 0x142F JUMP JUMPDEST SWAP3 POP DUP3 DUP3 ADD SWAP1 POP DUP1 DUP3 GT ISZERO PUSH2 0x1A3B JUMPI PUSH2 0x1A3A PUSH2 0x19A0 JUMP JUMPDEST JUMPDEST SWAP3 SWAP2 POP POP JUMP JUMPDEST PUSH32 0x4E487B7100000000000000000000000000000000000000000000000000000000 PUSH0 MSTORE PUSH1 0x12 PUSH1 0x4 MSTORE PUSH1 0x24 PUSH0 REVERT JUMPDEST PUSH0 PUSH2 0x1A78 DUP3 PUSH2 0x142F JUMP JUMPDEST SWAP2 POP PUSH2 0x1A83 DUP4 PUSH2 0x142F JUMP JUMPDEST SWAP3 POP DUP3 PUSH2 0x1A93 JUMPI PUSH2 0x1A92 PUSH2 0x1A41 JUMP JUMPDEST JUMPDEST DUP3 DUP3 DIV SWAP1 POP SWAP3 SWAP2 POP POP JUMP JUMPDEST PUSH32 0x4578706972656400000000000000000000000000000000000000000000000000 PUSH0 DUP3 ADD MSTORE POP JUMP JUMPDEST PUSH0 PUSH2 0x1AD2 PUSH1 0x7 DUP4 PUSH2 0x1928 JUMP JUMPDEST SWAP2 POP PUSH2 0x1ADD DUP3 PUSH2 0x1A9E JUMP JUMPDEST PUSH1 0x20 DUP3 ADD SWAP1 POP SWAP2 SWAP1 POP JUMP JUMPDEST PUSH0 PUSH1 0x20 DUP3 ADD SWAP1 POP DUP2 DUP2 SUB PUSH0 DUP4 ADD MSTORE PUSH2 0x1AFF DUP2 PUSH2 0x1AC6 JUMP JUMPDEST SWAP1 POP SWAP2 SWAP1 POP JUMP JUMPDEST PUSH32 0x4F6E6C7920322D746F6B656E207061746820737570706F727465640000000000 PUSH0 DUP3 ADD MSTORE POP JUMP JUMPDEST PUSH0 PUSH2 0x1B3A PUSH1 0x1B DUP4 PUSH2 0x1928 JUMP JUMPDEST SWAP2 POP PUSH2 0x1B45 DUP3 PUSH2 0x1B06 JUMP JUMPDEST PUSH1 0x20 DUP3 ADD SWAP1 POP SWAP2 SWAP1 POP JUMP JUMPDEST PUSH0 PUSH1 0x20 DUP3 ADD SWAP1 POP DUP2 DUP2 SUB PUSH0 DUP4 ADD MSTORE PUSH2 0x1B67 DUP2 PUSH2 0x1B2E JUMP JUMPDEST SWAP1 POP SWAP2 SWAP1 POP JUMP JUMPDEST PUSH32 0x4E487B7100000000000000000000000000000000000000000000000000000000 PUSH0 MSTORE PUSH1 0x32 PUSH1 0x4 MSTORE PUSH1 0x24 PUSH0 REVERT JUMPDEST PUSH0 PUSH1 0x20 DUP3 DUP5 SUB SLT ISZERO PUSH2 0x1BB0 JUMPI PUSH2 0x1BAF PUSH2 0x137A JUMP JUMPDEST JUMPDEST PUSH0 PUSH2 0x1BBD DUP5 DUP3 DUP6 ADD PUSH2 0x1581 JUMP JUMPDEST SWAP2 POP POP SWAP3 SWAP2 POP POP JUMP JUMPDEST PUSH32 0x496E73756666696369656E74206F757470757400000000000000000000000000 PUSH0 DUP3 ADD MSTORE POP JUMP JUMPDEST PUSH0 PUSH2 0x1BFA PUSH1 0x13 DUP4 PUSH2 0x1928 JUMP JUMPDEST SWAP2 POP PUSH2 0x1C05 DUP3 PUSH2 0x1BC6 JUMP JUMPDEST PUSH1 0x20 DUP3 ADD SWAP1 POP SWAP2 SWAP1 POP JUMP JUMPDEST PUSH0 PUSH1 0x20 DUP3 ADD SWAP1 POP DUP2 DUP2 SUB PUSH0 DUP4 ADD MSTORE PUSH2 0x1C27 DUP2 PUSH2 0x1BEE JUMP JUMPDEST SWAP1 POP SWAP2 SWAP1 POP JUMP JUMPDEST PUSH32 0x4E487B7100000000000000000000000000000000000000000000000000000000 PUSH0 MSTORE PUSH1 0x41 PUSH1 0x4 MSTORE PUSH1 0x24 PUSH0 REVERT JUMPDEST PUSH32 0x4E6F207265736572766573000000000000000000000000000000000000000000 PUSH0 DUP3 ADD MSTORE POP JUMP JUMPDEST PUSH0 PUSH2 0x1C8F PUSH1 0xB DUP4 PUSH2 0x1928 JUMP JUMPDEST SWAP2 POP PUSH2 0x1C9A DUP3 PUSH2 0x1C5B JUMP JUMPDEST PUSH1 0x20 DUP3 ADD SWAP1 POP SWAP2 SWAP1 POP JUMP JUMPDEST PUSH0 PUSH1 0x20 DUP3 ADD SWAP1 POP DUP2 DUP2 SUB PUSH0 DUP4 ADD MSTORE PUSH2 0x1CBC DUP2 PUSH2 0x1C83 JUMP JUMPDEST SWAP1 POP SWAP2 SWAP1 POP JUMP JUMPDEST PUSH32 0x4E6F206C69717569646974790000000000000000000000000000000000000000 PUSH0 DUP3 ADD MSTORE POP JUMP JUMPDEST PUSH0 PUSH2 0x1CF7 PUSH1 0xC DUP4 PUSH2 0x1928 JUMP JUMPDEST SWAP2 POP PUSH2 0x1D02 DUP3 PUSH2 0x1CC3 JUMP JUMPDEST PUSH1 0x20 DUP3 ADD SWAP1 POP SWAP2 SWAP1 POP JUMP JUMPDEST PUSH0 PUSH1 0x20 DUP3 ADD SWAP1 POP DUP2 DUP2 SUB PUSH0 DUP4 ADD MSTORE PUSH2 0x1D24 DUP2 PUSH2 0x1CEB JUMP JUMPDEST SWAP1 POP SWAP2 SWAP1 POP JUMP JUMPDEST PUSH32 0x536C697070616765000000000000000000000000000000000000000000000000 PUSH0 DUP3 ADD MSTORE POP JUMP JUMPDEST PUSH0 PUSH2 0x1D5F PUSH1 0x8 DUP4 PUSH2 0x1928 JUMP JUMPDEST SWAP2 POP PUSH2 0x1D6A DUP3 PUSH2 0x1D2B JUMP JUMPDEST PUSH1 0x20 DUP3 ADD SWAP1 POP SWAP2 SWAP1 POP JUMP JUMPDEST PUSH0 PUSH1 0x20 DUP3 ADD SWAP1 POP DUP2 DUP2 SUB PUSH0 DUP4 ADD MSTORE PUSH2 0x1D8C DUP2 PUSH2 0x1D53 JUMP JUMPDEST SWAP1 POP SWAP2 SWAP1 POP JUMP JUMPDEST PUSH0 PUSH2 0x1D9D DUP3 PUSH2 0x142F JUMP JUMPDEST SWAP2 POP PUSH2 0x1DA8 DUP4 PUSH2 0x142F JUMP JUMPDEST SWAP3 POP DUP3 DUP3 SUB SWAP1 POP DUP2 DUP2 GT ISZERO PUSH2 0x1DC0 JUMPI PUSH2 0x1DBF PUSH2 0x19A0 JUMP JUMPDEST JUMPDEST SWAP3 SWAP2 POP POP JUMP JUMPDEST PUSH0 PUSH2 0x1DD0 DUP3 PUSH2 0x13E0 JUMP JUMPDEST SWAP2 POP PUSH2 0x1DDB DUP4 PUSH2 0x13E0 JUMP JUMPDEST SWAP3 POP DUP3 DUP3 SUB SWAP1 POP PUSH14 0xFFFFFFFFFFFFFFFFFFFFFFFFFFFF DUP2 GT ISZERO PUSH2 0x1E01 JUMPI PUSH2 0x1E00 PUSH2 0x19A0 JUMP JUMPDEST JUMPDEST SWAP3 SWAP2 POP POP JUMP JUMPDEST PUSH0 PUSH2 0x1E11 DUP3 PUSH2 0x13E0 JUMP JUMPDEST SWAP2 POP PUSH2 0x1E1C DUP4 PUSH2 0x13E0 JUMP JUMPDEST SWAP3 POP DUP3 DUP3 ADD SWAP1 POP PUSH14 0xFFFFFFFFFFFFFFFFFFFFFFFFFFFF DUP2 GT ISZERO PUSH2 0x1E42 JUMPI PUSH2 0x1E41 PUSH2 0x19A0 JUMP JUMPDEST JUMPDEST SWAP3 SWAP2 POP POP JUMP JUMPDEST PUSH0 DUP2 PUSH1 0x60 SHL SWAP1 POP SWAP2 SWAP1 POP JUMP JUMPDEST PUSH0 PUSH2 0x1E5E DUP3 PUSH2 0x1E48 JUMP JUMPDEST SWAP1 POP SWAP2 SWAP1 POP JUMP JUMPDEST PUSH0 PUSH2 0x1E6F DUP3 PUSH2 0x1E54 JUMP JUMPDEST SWAP1 POP SWAP2 SWAP1 POP JUMP JUMPDEST PUSH2 0x1E87 PUSH2 0x1E82 DUP3 PUSH2 0x155A JUMP JUMPDEST PUSH2 0x1E65 JUMP JUMPDEST DUP3 MSTORE POP POP JUMP JUMPDEST PUSH0 PUSH2 0x1E98 DUP3 DUP6 PUSH2 0x1E76 JUMP JUMPDEST PUSH1 0x14 DUP3 ADD SWAP2 POP PUSH2 0x1EA8 DUP3 DUP5 PUSH2 0x1E76 JUMP JUMPDEST PUSH1 0x14 DUP3 ADD SWAP2 POP DUP2 SWAP1 POP SWAP4 SWAP3 POP POP POP JUMP JUMPDEST PUSH2 0x1EC1 DUP2 PUSH2 0x155A JUMP JUMPDEST DUP3 MSTORE POP POP JUMP JUMPDEST PUSH0 PUSH1 0x40 DUP3 ADD SWAP1 POP PUSH2 0x1EDA PUSH0 DUP4 ADD DUP6 PUSH2 0x1EB8 JUMP JUMPDEST PUSH2 0x1EE7 PUSH1 0x20 DUP4 ADD DUP5 PUSH2 0x14B2 JUMP JUMPDEST SWAP4 SWAP3 POP POP POP JUMP JUMPDEST PUSH32 0x496E73756666696369656E742042000000000000000000000000000000000000 PUSH0 DUP3 ADD MSTORE POP JUMP JUMPDEST PUSH0 PUSH2 0x1F22 PUSH1 0xE DUP4 PUSH2 0x1928 JUMP JUMPDEST SWAP2 POP PUSH2 0x1F2D DUP3 PUSH2 0x1EEE JUMP JUMPDEST PUSH1 0x20 DUP3 ADD SWAP1 POP SWAP2 SWAP1 POP JUMP JUMPDEST PUSH0 PUSH1 0x20 DUP3 ADD SWAP1 POP DUP2 DUP2 SUB PUSH0 DUP4 ADD MSTORE PUSH2 0x1F4F DUP2 PUSH2 0x1F16 JUMP JUMPDEST SWAP1 POP SWAP2 SWAP1 POP JUMP JUMPDEST PUSH32 0x496E73756666696369656E742041000000000000000000000000000000000000 PUSH0 DUP3 ADD MSTORE POP JUMP JUMPDEST PUSH0 PUSH2 0x1F8A PUSH1 0xE DUP4 PUSH2 0x1928 JUMP JUMPDEST SWAP2 POP PUSH2 0x1F95 DUP3 PUSH2 0x1F56 JUMP JUMPDEST PUSH1 0x20 DUP3 ADD SWAP1 POP SWAP2 SWAP1 POP JUMP JUMPDEST PUSH0 PUSH1 0x20 DUP3 ADD SWAP1 POP DUP2 DUP2 SUB PUSH0 DUP4 ADD MSTORE PUSH2 0x1FB7 DUP2 PUSH2 0x1F7E JUMP JUMPDEST SWAP1 POP SWAP2 SWAP1 POP JUMP JUMPDEST PUSH0 PUSH1 0x60 DUP3 ADD SWAP1 POP PUSH2 0x1FD1 PUSH0 DUP4 ADD DUP7 PUSH2 0x1EB8 JUMP JUMPDEST PUSH2 0x1FDE PUSH1 0x20 DUP4 ADD DUP6 PUSH2 0x1EB8 JUMP JUMPDEST PUSH2 0x1FEB PUSH1 0x40 DUP4 ADD DUP5 PUSH2 0x14B2 JUMP JUMPDEST SWAP5 SWAP4 POP POP POP POP JUMP JUMPDEST PUSH0 PUSH1 0x20 DUP3 ADD SWAP1 POP PUSH2 0x2006 PUSH0 DUP4 ADD DUP5 PUSH2 0x1EB8 JUMP JUMPDEST SWAP3 SWAP2 POP POP JUMP INVALID LOG2 PUSH5 0x6970667358 0x22 SLT KECCAK256 0xD5 0xC5 SWAP9 0x1F 0xF7 DELEGATECALL RETF LOG2 0xDF EXTDELEGATECALL 0xB0 PUSH14 0xB8DBC35C0CA45848E78E5FC82C81 PUSH8 0xA720EC43D664736F PUSH13 0x634300081E0033000000000000 "
				},
				"gasEstimates": {
					"creation": {
						"codeDepositCost": "1651600",
						"executionCost": "1734",
						"totalCost": "1653334"
					},
					"external": {
						"addLiquidity(address,address,uint256,uint256,uint256,uint256,address,uint256)": "infinite",
						"getAmountOut(uint256,uint256,uint256)": "infinite",
						"getPrice(address,address)": "infinite",
						"liquidityBalance(bytes32,address)": "3077",
						"removeLiquidity(address,address,uint256,uint256,uint256,address,uint256)": "infinite",
						"reserves(bytes32)": "infinite",
						"swapExactTokensForTokens(uint256,uint256,address[],address,uint256)": "infinite",
						"totalLiquidity(bytes32)": "2821"
					},
					"internal": {
						"_calculateLiquidityAmounts(uint112,uint112,uint256,uint256,uint256,uint256)": "infinite",
						"_calculateSwapOutput(uint256,address,address)": "infinite",
						"_getPairHash(address,address)": "infinite",
						"_getSortedReserves(address,address,struct SimpleSwap.Reserve memory)": "infinite",
						"_mintLiquidityAndUpdateReserves(bytes32,uint256,uint256,address,struct SimpleSwap.Reserve storage pointer)": "infinite",
						"_performAddLiquidityTransfers(address,address,uint256,uint256)": "infinite",
						"_performSwapTransfers(address,address,uint256,uint256,address)": "infinite",
						"_updateReservesAfterSwap(address,address,uint256,uint256)": "infinite"
					}
				},
				"methodIdentifiers": {
					"addLiquidity(address,address,uint256,uint256,uint256,uint256,address,uint256)": "e8e33700",
					"getAmountOut(uint256,uint256,uint256)": "054d50d4",
					"getPrice(address,address)": "ac41865a",
					"liquidityBalance(bytes32,address)": "bb521a30",
					"removeLiquidity(address,address,uint256,uint256,uint256,address,uint256)": "baa2abde",
					"reserves(bytes32)": "00bbf1e4",
					"swapExactTokensForTokens(uint256,uint256,address[],address,uint256)": "38ed1739",
					"totalLiquidity(bytes32)": "54b7a8f7"
				}
			},
			"storageLayout": {
				"storage": [
					{
						"astId": 664,
						"contract": "contracts/SimpleSwap.sol:SimpleSwap",
						"label": "reserves",
						"offset": 0,
						"slot": "0",
						"type": "t_mapping(t_bytes32,t_struct(Reserve)658_storage)"
					},
					{
						"astId": 669,
						"contract": "contracts/SimpleSwap.sol:SimpleSwap",
						"label": "totalLiquidity",
						"offset": 0,
						"slot": "1",
						"type": "t_mapping(t_bytes32,t_uint256)"
					},
					{
						"astId": 676,
						"contract": "contracts/SimpleSwap.sol:SimpleSwap",
						"label": "liquidityBalance",
						"offset": 0,
						"slot": "2",
						"type": "t_mapping(t_bytes32,t_mapping(t_address,t_uint256))"
					}
				],
				"types": {
					"t_address": {
						"encoding": "inplace",
						"label": "address",
						"numberOfBytes": "20"
					},
					"t_bytes32": {
						"encoding": "inplace",
						"label": "bytes32",
						"numberOfBytes": "32"
					},
					"t_mapping(t_address,t_uint256)": {
						"encoding": "mapping",
						"key": "t_address",
						"label": "mapping(address => uint256)",
						"numberOfBytes": "32",
						"value": "t_uint256"
					},
					"t_mapping(t_bytes32,t_mapping(t_address,t_uint256))": {
						"encoding": "mapping",
						"key": "t_bytes32",
						"label": "mapping(bytes32 => mapping(address => uint256))",
						"numberOfBytes": "32",
						"value": "t_mapping(t_address,t_uint256)"
					},
					"t_mapping(t_bytes32,t_struct(Reserve)658_storage)": {
						"encoding": "mapping",
						"key": "t_bytes32",
						"label": "mapping(bytes32 => struct SimpleSwap.Reserve)",
						"numberOfBytes": "32",
						"value": "t_struct(Reserve)658_storage"
					},
					"t_mapping(t_bytes32,t_uint256)": {
						"encoding": "mapping",
						"key": "t_bytes32",
						"label": "mapping(bytes32 => uint256)",
						"numberOfBytes": "32",
						"value": "t_uint256"
					},
					"t_struct(Reserve)658_storage": {
						"encoding": "inplace",
						"label": "struct SimpleSwap.Reserve",
						"members": [
							{
								"astId": 655,
								"contract": "contracts/SimpleSwap.sol:SimpleSwap",
								"label": "reserveA",
								"offset": 0,
								"slot": "0",
								"type": "t_uint112"
							},
							{
								"astId": 657,
								"contract": "contracts/SimpleSwap.sol:SimpleSwap",
								"label": "reserveB",
								"offset": 14,
								"slot": "0",
								"type": "t_uint112"
							}
						],
						"numberOfBytes": "32"
					},
					"t_uint112": {
						"encoding": "inplace",
						"label": "uint112",
						"numberOfBytes": "14"
					},
					"t_uint256": {
						"encoding": "inplace",
						"label": "uint256",
						"numberOfBytes": "32"
					}
				}
			},
			"userdoc": {
				"kind": "user",
				"methods": {
					"addLiquidity(address,address,uint256,uint256,uint256,uint256,address,uint256)": {
						"notice": "Adds liquidity to a token pair pool"
					},
					"getAmountOut(uint256,uint256,uint256)": {
						"notice": "Calculates output tokens for a given input using Uniswap formula"
					},
					"getPrice(address,address)": {
						"notice": "Returns the price of tokenB in terms of tokenA"
					},
					"removeLiquidity(address,address,uint256,uint256,uint256,address,uint256)": {
						"notice": "Removes liquidity and returns tokens to the user"
					},
					"swapExactTokensForTokens(uint256,uint256,address[],address,uint256)": {
						"notice": "Swaps exact amountIn of tokenIn for tokenOut"
					}
				},
				"notice": "This contract allows users to add/remove liquidity, swap tokens, fetch price and calculate output amounts.",
				"version": 1
			}
		}
	}
}