{
	"data": {
		"bytecode": {
			"linkReferences": {},
			"object": "6080604052348015600e575f5ffd5b506120428061001c5f395ff3fe608060405234801561000f575f5ffd5b5060043610610085575f3560e01c8063ac41865a11610059578063ac41865a1461014a578063baa2abde1461017a578063bb521a30146101ab578063e8e33700146101db57610085565b8062bbf1e414610089578063054d50d4146100ba57806338ed1739146100ea57806354b7a8f71461011a575b5f5ffd5b6100a3600480360381019061009e91906113b5565b61020d565b6040516100b1929190611408565b60405180910390f35b6100d460048036038101906100cf9190611462565b61025e565b6040516100e191906114c1565b60405180910390f35b61010460048036038101906100ff9190611595565b61030b565b60405161011191906116e2565b60405180910390f35b610134600480360381019061012f91906113b5565b6104f1565b60405161014191906114c1565b60405180910390f35b610164600480360381019061015f9190611702565b610506565b60405161017191906114c1565b60405180910390f35b610194600480360381019061018f9190611740565b610640565b6040516101a29291906117dd565b60405180910390f35b6101c560048036038101906101c09190611804565b61097f565b6040516101d291906114c1565b60405180910390f35b6101f560048036038101906101f09190611842565b61099f565b604051610204939291906118f3565b60405180910390f35b5f602052805f5260405f205f91509050805f015f9054906101000a90046dffffffffffffffffffffffffffff1690805f01600e9054906101000a90046dffffffffffffffffffffffffffff16905082565b5f5f8411801561026d57505f83115b801561027857505f82115b6102b7576040517f08c379a00000000000000000000000000000000000000000000000000000000081526004016102ae90611982565b60405180910390fd5b5f6103e5856102c691906119cd565b90505f83826102d591906119cd565b90505f826103e8876102e791906119cd565b6102f19190611a0e565b905080826102ff9190611a6e565b93505050509392505050565b606081421115610350576040517f08c379a000000000000000000000000000000000000000000000000000000000815260040161034790611ae8565b60405180910390fd5b60028585905014610396576040517f08c379a000000000000000000000000000000000000000000000000000000000815260040161038d90611b50565b60405180910390fd5b5f85855f8181106103aa576103a9611b6e565b5b90506020020160208101906103bf9190611b9b565b90505f868660018181106103d6576103d5611b6e565b5b90506020020160208101906103eb9190611b9b565b90505f6103f98a8484610a7f565b90508881101561043e576040517f08c379a000000000000000000000000000000000000000000000000000000000815260040161043590611c10565b60405180910390fd5b61044b83838c848a610b59565b61045783838c84610bb8565b600267ffffffffffffffff81111561047257610471611c2e565b5b6040519080825280602002602001820160405280156104a05781602001602082028036833780820191505090505b50935089845f815181106104b7576104b6611b6e565b5b60200260200101818152505080846001815181106104d8576104d7611b6e565b5b6020026020010181815250505050509695505050505050565b6001602052805f5260405f205f915090505481565b5f5f6105128484610d90565b90505f5f5f8381526020019081526020015f206040518060400160405290815f82015f9054906101000a90046dffffffffffffffffffffffffffff166dffffffffffffffffffffffffffff166dffffffffffffffffffffffffffff1681526020015f8201600e9054906101000a90046dffffffffffffffffffffffffffff166dffffffffffffffffffffffffffff166dffffffffffffffffffffffffffff168152505090505f5f6105c4878785610e36565b915091505f821180156105d657505f81115b610615576040517f08c379a000000000000000000000000000000000000000000000000000000000815260040161060c90611ca5565b60405180910390fd5b81670de0b6b3a76400008261062a91906119cd565b6106349190611a6e565b94505050505092915050565b5f5f82421115610685576040517f08c379a000000000000000000000000000000000000000000000000000000000815260040161067c90611ae8565b60405180910390fd5b5f6106908a8a610d90565b90505f5f5f8381526020019081526020015f2090505f60015f8481526020019081526020015f205490505f81116106fc576040517f08c379a00000000000000000000000000000000000000000000000000000000081526004016106f390611d0d565b60405180910390fd5b808a835f015f9054906101000a90046dffffffffffffffffffffffffffff166dffffffffffffffffffffffffffff1661073591906119cd565b61073f9190611a6e565b9450808a835f01600e9054906101000a90046dffffffffffffffffffffffffffff166dffffffffffffffffffffffffffff1661077b91906119cd565b6107859190611a6e565b93508885101580156107975750878410155b6107d6576040517f08c379a00000000000000000000000000000000000000000000000000000000081526004016107cd90611d75565b60405180910390fd5b8960025f8581526020019081526020015f205f3373ffffffffffffffffffffffffffffffffffffffff1673ffffffffffffffffffffffffffffffffffffffff1681526020019081526020015f205f8282546108319190611d93565b925050819055508960015f8581526020019081526020015f205f8282546108589190611d93565b9250508190555084825f015f8282829054906101000a90046dffffffffffffffffffffffffffff1661088a9190611dc6565b92506101000a8154816dffffffffffffffffffffffffffff02191690836dffffffffffffffffffffffffffff16021790555083825f01600e8282829054906101000a90046dffffffffffffffffffffffffffff166108e89190611dc6565b92506101000a8154816dffffffffffffffffffffffffffff02191690836dffffffffffffffffffffffffffff16021790555061094587868e73ffffffffffffffffffffffffffffffffffffffff16610eb59092919063ffffffff16565b61097087858d73ffffffffffffffffffffffffffffffffffffffff16610eb59092919063ffffffff16565b50505097509795505050505050565b6002602052815f5260405f20602052805f5260405f205f91509150505481565b5f5f5f834211156109e5576040517f08c379a00000000000000000000000000000000000000000000000000000000081526004016109dc90611ae8565b60405180910390fd5b5f6109f08c8c610d90565b90505f5f5f8381526020019081526020015f209050610a4c815f015f9054906101000a90046dffffffffffffffffffffffffffff16825f01600e9054906101000a90046dffffffffffffffffffffffffffff168d8d8d8d610f34565b8095508196505050610a608d8d87876110a1565b610a6d8286868a85611101565b92505050985098509895505050505050565b5f5f610a8b8484610d90565b90505f5f5f8381526020019081526020015f206040518060400160405290815f82015f9054906101000a90046dffffffffffffffffffffffffffff166dffffffffffffffffffffffffffff166dffffffffffffffffffffffffffff1681526020015f8201600e9054906101000a90046dffffffffffffffffffffffffffff166dffffffffffffffffffffffffffff166dffffffffffffffffffffffffffff168152505090505f5f610b3d878785610e36565b91509150610b4c88838361025e565b9450505050509392505050565b610b863330858873ffffffffffffffffffffffffffffffffffffffff1661125d909392919063ffffffff16565b610bb181838673ffffffffffffffffffffffffffffffffffffffff16610eb59092919063ffffffff16565b5050505050565b5f610bc38585610d90565b90505f5f5f8381526020019081526020015f2090508473ffffffffffffffffffffffffffffffffffffffff168673ffffffffffffffffffffffffffffffffffffffff161015610ccc5783815f015f8282829054906101000a90046dffffffffffffffffffffffffffff16610c379190611e07565b92506101000a8154816dffffffffffffffffffffffffffff02191690836dffffffffffffffffffffffffffff16021790555082815f01600e8282829054906101000a90046dffffffffffffffffffffffffffff16610c959190611dc6565b92506101000a8154816dffffffffffffffffffffffffffff02191690836dffffffffffffffffffffffffffff160217905550610d88565b83815f01600e8282829054906101000a90046dffffffffffffffffffffffffffff16610cf89190611e07565b92506101000a8154816dffffffffffffffffffffffffffff02191690836dffffffffffffffffffffffffffff16021790555082815f015f8282829054906101000a90046dffffffffffffffffffffffffffff16610d559190611dc6565b92506101000a8154816dffffffffffffffffffffffffffff02191690836dffffffffffffffffffffffffffff1602179055505b505050505050565b5f8173ffffffffffffffffffffffffffffffffffffffff168373ffffffffffffffffffffffffffffffffffffffff1610610dca5781610dcc565b825b8273ffffffffffffffffffffffffffffffffffffffff168473ffffffffffffffffffffffffffffffffffffffff1610610e055783610e07565b825b604051602001610e18929190611e8d565b60405160208183030381529060405280519060200120905092915050565b5f5f8373ffffffffffffffffffffffffffffffffffffffff168573ffffffffffffffffffffffffffffffffffffffff1610610e79578260200151835f0151610e83565b825f015183602001515b816dffffffffffffffffffffffffffff169150806dffffffffffffffffffffffffffff16905091509150935093915050565b610f2f838473ffffffffffffffffffffffffffffffffffffffff1663a9059cbb8585604051602401610ee8929190611ec7565b604051602081830303815290604052915060e01b6020820180517bffffffffffffffffffffffffffffffffffffffffffffffffffffffff83818316178352505050506112df565b505050565b5f5f5f886dffffffffffffffffffffffffffff16148015610f6457505f876dffffffffffffffffffffffffffff16145b15610f785785858092508193505050611096565b5f886dffffffffffffffffffffffffffff16886dffffffffffffffffffffffffffff1688610fa691906119cd565b610fb09190611a6e565b905085811161100b5783811015610ffc576040517f08c379a0000000000000000000000000000000000000000000000000000000008152600401610ff390611f38565b60405180910390fd5b86818093508194505050611094565b5f886dffffffffffffffffffffffffffff168a6dffffffffffffffffffffffffffff168861103991906119cd565b6110439190611a6e565b905085811015611088576040517f08c379a000000000000000000000000000000000000000000000000000000000815260040161107f90611fa0565b60405180910390fd5b80878094508195505050505b505b965096945050505050565b6110ce3330848773ffffffffffffffffffffffffffffffffffffffff1661125d909392919063ffffffff16565b6110fb3330838673ffffffffffffffffffffffffffffffffffffffff1661125d909392919063ffffffff16565b50505050565b5f838561110e9190611a0e565b90508060015f8881526020019081526020015f205f8282546111309190611a0e565b925050819055508060025f8881526020019081526020015f205f8573ffffffffffffffffffffffffffffffffffffffff1673ffffffffffffffffffffffffffffffffffffffff1681526020019081526020015f205f8282546111929190611a0e565b9250508190555084825f015f8282829054906101000a90046dffffffffffffffffffffffffffff166111c49190611e07565b92506101000a8154816dffffffffffffffffffffffffffff02191690836dffffffffffffffffffffffffffff16021790555083825f01600e8282829054906101000a90046dffffffffffffffffffffffffffff166112229190611e07565b92506101000a8154816dffffffffffffffffffffffffffff02191690836dffffffffffffffffffffffffffff16021790555095945050505050565b6112d9848573ffffffffffffffffffffffffffffffffffffffff166323b872dd86868660405160240161129293929190611fbe565b604051602081830303815290604052915060e01b6020820180517bffffffffffffffffffffffffffffffffffffffffffffffffffffffff83818316178352505050506112df565b50505050565b5f5f60205f8451602086015f885af1806112fe576040513d5f823e3d81fd5b3d92505f519150505f8214611317576001811415611332565b5f8473ffffffffffffffffffffffffffffffffffffffff163b145b1561137457836040517f5274afe700000000000000000000000000000000000000000000000000000000815260040161136b9190611ff3565b60405180910390fd5b50505050565b5f5ffd5b5f5ffd5b5f819050919050565b61139481611382565b811461139e575f5ffd5b50565b5f813590506113af8161138b565b92915050565b5f602082840312156113ca576113c961137a565b5b5f6113d7848285016113a1565b91505092915050565b5f6dffffffffffffffffffffffffffff82169050919050565b611402816113e0565b82525050565b5f60408201905061141b5f8301856113f9565b61142860208301846113f9565b9392505050565b5f819050919050565b6114418161142f565b811461144b575f5ffd5b50565b5f8135905061145c81611438565b92915050565b5f5f5f606084860312156114795761147861137a565b5b5f6114868682870161144e565b93505060206114978682870161144e565b92505060406114a88682870161144e565b9150509250925092565b6114bb8161142f565b82525050565b5f6020820190506114d45f8301846114b2565b92915050565b5f5ffd5b5f5ffd5b5f5ffd5b5f5f83601f8401126114fb576114fa6114da565b5b8235905067ffffffffffffffff811115611518576115176114de565b5b602083019150836020820283011115611534576115336114e2565b5b9250929050565b5f73ffffffffffffffffffffffffffffffffffffffff82169050919050565b5f6115648261153b565b9050919050565b6115748161155a565b811461157e575f5ffd5b50565b5f8135905061158f8161156b565b92915050565b5f5f5f5f5f5f60a087890312156115af576115ae61137a565b5b5f6115bc89828a0161144e565b96505060206115cd89828a0161144e565b955050604087013567ffffffffffffffff8111156115ee576115ed61137e565b5b6115fa89828a016114e6565b9450945050606061160d89828a01611581565b925050608061161e89828a0161144e565b9150509295509295509295565b5f81519050919050565b5f82825260208201905092915050565b5f819050602082019050919050565b61165d8161142f565b82525050565b5f61166e8383611654565b60208301905092915050565b5f602082019050919050565b5f6116908261162b565b61169a8185611635565b93506116a583611645565b805f5b838110156116d55781516116bc8882611663565b97506116c78361167a565b9250506001810190506116a8565b5085935050505092915050565b5f6020820190508181035f8301526116fa8184611686565b905092915050565b5f5f604083850312156117185761171761137a565b5b5f61172585828601611581565b925050602061173685828601611581565b9150509250929050565b5f5f5f5f5f5f5f60e0888a03121561175b5761175a61137a565b5b5f6117688a828b01611581565b97505060206117798a828b01611581565b965050604061178a8a828b0161144e565b955050606061179b8a828b0161144e565b94505060806117ac8a828b0161144e565b93505060a06117bd8a828b01611581565b92505060c06117ce8a828b0161144e565b91505092959891949750929550565b5f6040820190506117f05f8301856114b2565b6117fd60208301846114b2565b9392505050565b5f5f6040838503121561181a5761181961137a565b5b5f611827858286016113a1565b925050602061183885828601611581565b9150509250929050565b5f5f5f5f5f5f5f5f610100898b03121561185f5761185e61137a565b5b5f61186c8b828c01611581565b985050602061187d8b828c01611581565b975050604061188e8b828c0161144e565b965050606061189f8b828c0161144e565b95505060806118b08b828c0161144e565b94505060a06118c18b828c0161144e565b93505060c06118d28b828c01611581565b92505060e06118e38b828c0161144e565b9150509295985092959890939650565b5f6060820190506119065f8301866114b2565b61191360208301856114b2565b61192060408301846114b2565b949350505050565b5f82825260208201905092915050565b7f496e76616c6964207265736572766573000000000000000000000000000000005f82015250565b5f61196c601083611928565b915061197782611938565b602082019050919050565b5f6020820190508181035f83015261199981611960565b9050919050565b7f4e487b71000000000000000000000000000000000000000000000000000000005f52601160045260245ffd5b5f6119d78261142f565b91506119e28361142f565b92508282026119f08161142f565b91508282048414831517611a0757611a066119a0565b5b5092915050565b5f611a188261142f565b9150611a238361142f565b9250828201905080821115611a3b57611a3a6119a0565b5b92915050565b7f4e487b71000000000000000000000000000000000000000000000000000000005f52601260045260245ffd5b5f611a788261142f565b9150611a838361142f565b925082611a9357611a92611a41565b5b828204905092915050565b7f45787069726564000000000000000000000000000000000000000000000000005f82015250565b5f611ad2600783611928565b9150611add82611a9e565b602082019050919050565b5f6020820190508181035f830152611aff81611ac6565b9050919050565b7f4f6e6c7920322d746f6b656e207061746820737570706f7274656400000000005f82015250565b5f611b3a601b83611928565b9150611b4582611b06565b602082019050919050565b5f6020820190508181035f830152611b6781611b2e565b9050919050565b7f4e487b71000000000000000000000000000000000000000000000000000000005f52603260045260245ffd5b5f60208284031215611bb057611baf61137a565b5b5f611bbd84828501611581565b91505092915050565b7f496e73756666696369656e74206f7574707574000000000000000000000000005f82015250565b5f611bfa601383611928565b9150611c0582611bc6565b602082019050919050565b5f6020820190508181035f830152611c2781611bee565b9050919050565b7f4e487b71000000000000000000000000000000000000000000000000000000005f52604160045260245ffd5b7f4e6f2072657365727665730000000000000000000000000000000000000000005f82015250565b5f611c8f600b83611928565b9150611c9a82611c5b565b602082019050919050565b5f6020820190508181035f830152611cbc81611c83565b9050919050565b7f4e6f206c697175696469747900000000000000000000000000000000000000005f82015250565b5f611cf7600c83611928565b9150611d0282611cc3565b602082019050919050565b5f6020820190508181035f830152611d2481611ceb565b9050919050565b7f536c6970706167650000000000000000000000000000000000000000000000005f82015250565b5f611d5f600883611928565b9150611d6a82611d2b565b602082019050919050565b5f6020820190508181035f830152611d8c81611d53565b9050919050565b5f611d9d8261142f565b9150611da88361142f565b9250828203905081811115611dc057611dbf6119a0565b5b92915050565b5f611dd0826113e0565b9150611ddb836113e0565b925082820390506dffffffffffffffffffffffffffff811115611e0157611e006119a0565b5b92915050565b5f611e11826113e0565b9150611e1c836113e0565b925082820190506dffffffffffffffffffffffffffff811115611e4257611e416119a0565b5b92915050565b5f8160601b9050919050565b5f611e5e82611e48565b9050919050565b5f611e6f82611e54565b9050919050565b611e87611e828261155a565b611e65565b82525050565b5f611e988285611e76565b601482019150611ea88284611e76565b6014820191508190509392505050565b611ec18161155a565b82525050565b5f604082019050611eda5f830185611eb8565b611ee760208301846114b2565b9392505050565b7f496e73756666696369656e7420420000000000000000000000000000000000005f82015250565b5f611f22600e83611928565b9150611f2d82611eee565b602082019050919050565b5f6020820190508181035f830152611f4f81611f16565b9050919050565b7f496e73756666696369656e7420410000000000000000000000000000000000005f82015250565b5f611f8a600e83611928565b9150611f9582611f56565b602082019050919050565b5f6020820190508181035f830152611fb781611f7e565b9050919050565b5f606082019050611fd15f830186611eb8565b611fde6020830185611eb8565b611feb60408301846114b2565b949350505050565b5f6020820190506120065f830184611eb8565b9291505056fea2646970667358221220d5c5981ff7f4e4a2dff9b06db8dbc35c0ca45848e78e5fc82c8167a720ec43d664736f6c634300081e0033",
			"opcodes": "PUSH1 0x80 PUSH1 0x40 MSTORE CALLVALUE DUP1 ISZERO PUSH1 0xE JUMPI PUSH0 PUSH0 REVERT JUMPDEST POP PUSH2 0x2042 DUP1 PUSH2 0x1C PUSH0 CODECOPY PUSH0 RETURN INVALID PUSH1 0x80 PUSH1 0x40 MSTORE CALLVALUE DUP1 ISZERO PUSH2 0xF JUMPI PUSH0 PUSH0 REVERT JUMPDEST POP PUSH1 0x4 CALLDATASIZE LT PUSH2 0x85 JUMPI PUSH0 CALLDATALOAD PUSH1 0xE0 SHR DUP1 PUSH4 0xAC41865A GT PUSH2 0x59 JUMPI DUP1 PUSH4 0xAC41865A EQ PUSH2 0x14A JUMPI DUP1 PUSH4 0xBAA2ABDE EQ PUSH2 0x17A JUMPI DUP1 PUSH4 0xBB521A30 EQ PUSH2 0x1AB JUMPI DUP1 PUSH4 0xE8E33700 EQ PUSH2 0x1DB JUMPI PUSH2 0x85 JUMP JUMPDEST DUP1 PUSH3 0xBBF1E4 EQ PUSH2 0x89 JUMPI DUP1 PUSH4 0x54D50D4 EQ PUSH2 0xBA JUMPI DUP1 PUSH4 0x38ED1739 EQ PUSH2 0xEA JUMPI DUP1 PUSH4 0x54B7A8F7 EQ PUSH2 0x11A JUMPI JUMPDEST PUSH0 PUSH0 REVERT JUMPDEST PUSH2 0xA3 PUSH1 0x4 DUP1 CALLDATASIZE SUB DUP2 ADD SWAP1 PUSH2 0x9E SWAP2 SWAP1 PUSH2 0x13B5 JUMP JUMPDEST PUSH2 0x20D JUMP JUMPDEST PUSH1 0x40 MLOAD PUSH2 0xB1 SWAP3 SWAP2 SWAP1 PUSH2 0x1408 JUMP JUMPDEST PUSH1 0x40 MLOAD DUP1 SWAP2 SUB SWAP1 RETURN JUMPDEST PUSH2 0xD4 PUSH1 0x4 DUP1 CALLDATASIZE SUB DUP2 ADD SWAP1 PUSH2 0xCF SWAP2 SWAP1 PUSH2 0x1462 JUMP JUMPDEST PUSH2 0x25E JUMP JUMPDEST PUSH1 0x40 MLOAD PUSH2 0xE1 SWAP2 SWAP1 PUSH2 0x14C1 JUMP JUMPDEST PUSH1 0x40 MLOAD DUP1 SWAP2 SUB SWAP1 RETURN JUMPDEST PUSH2 0x104 PUSH1 0x4 DUP1 CALLDATASIZE SUB DUP2 ADD SWAP1 PUSH2 0xFF SWAP2 SWAP1 PUSH2 0x1595 JUMP JUMPDEST PUSH2 0x30B JUMP JUMPDEST PUSH1 0x40 MLOAD PUSH2 0x111 SWAP2 SWAP1 PUSH2 0x16E2 JUMP JUMPDEST PUSH1 0x40 MLOAD DUP1 SWAP2 SUB SWAP1 RETURN JUMPDEST PUSH2 0x134 PUSH1 0x4 DUP1 CALLDATASIZE SUB DUP2 ADD SWAP1 PUSH2 0x12F SWAP2 SWAP1 PUSH2 0x13B5 JUMP JUMPDEST PUSH2 0x4F1 JUMP JUMPDEST PUSH1 0x40 MLOAD PUSH2 0x141 SWAP2 SWAP1 PUSH2 0x14C1 JUMP JUMPDEST PUSH1 0x40 MLOAD DUP1 SWAP2 SUB SWAP1 RETURN JUMPDEST PUSH2 0x164 PUSH1 0x4 DUP1 CALLDATASIZE SUB DUP2 ADD SWAP1 PUSH2 0x15F SWAP2 SWAP1 PUSH2 0x1702 JUMP JUMPDEST PUSH2 0x506 JUMP JUMPDEST PUSH1 0x40 MLOAD PUSH2 0x171 SWAP2 SWAP1 PUSH2 0x14C1 JUMP JUMPDEST PUSH1 0x40 MLOAD DUP1 SWAP2 SUB SWAP1 RETURN JUMPDEST PUSH2 0x194 PUSH1 0x4 DUP1 CALLDATASIZE SUB DUP2 ADD SWAP1 PUSH2 0x18F SWAP2 SWAP1 PUSH2 0x1740 JUMP JUMPDEST PUSH2 0x640 JUMP JUMPDEST PUSH1 0x40 MLOAD PUSH2 0x1A2 SWAP3 SWAP2 SWAP1 PUSH2 0x17DD JUMP JUMPDEST PUSH1 0x40 MLOAD DUP1 SWAP2 SUB SWAP1 RETURN JUMPDEST PUSH2 0x1C5 PUSH1 0x4 DUP1 CALLDATASIZE SUB DUP2 ADD SWAP1 PUSH2 0x1C0 SWAP2 SWAP1 PUSH2 0x1804 JUMP JUMPDEST PUSH2 0x97F JUMP JUMPDEST PUSH1 0x40 MLOAD PUSH2 0x1D2 SWAP2 SWAP1 PUSH2 0x14C1 JUMP JUMPDEST PUSH1 0x40 MLOAD DUP1 SWAP2 SUB SWAP1 RETURN JUMPDEST PUSH2 0x1F5 PUSH1 0x4 DUP1 CALLDATASIZE SUB DUP2 ADD SWAP1 PUSH2 0x1F0 SWAP2 SWAP1 PUSH2 0x1842 JUMP JUMPDEST PUSH2 0x99F JUMP JUMPDEST PUSH1 0x40 MLOAD PUSH2 0x204 SWAP4 SWAP3 SWAP2 SWAP1 PUSH2 0x18F3 JUMP JUMPDEST PUSH1 0x40 MLOAD DUP1 SWAP2 SUB SWAP1 RETURN JUMPDEST PUSH0 PUSH1 0x20 MSTORE DUP1 PUSH0 MSTORE PUSH1 0x40 PUSH0 KECCAK256 PUSH0 SWAP2 POP SWAP1 POP DUP1 PUSH0 ADD PUSH0 SWAP1 SLOAD SWAP1 PUSH2 0x100 EXP SWAP1 DIV PUSH14 0xFFFFFFFFFFFFFFFFFFFFFFFFFFFF AND SWAP1 DUP1 PUSH0 ADD PUSH1 0xE SWAP1 SLOAD SWAP1 PUSH2 0x100 EXP SWAP1 DIV PUSH14 0xFFFFFFFFFFFFFFFFFFFFFFFFFFFF AND SWAP1 POP DUP3 JUMP JUMPDEST PUSH0 PUSH0 DUP5 GT DUP1 ISZERO PUSH2 0x26D JUMPI POP PUSH0 DUP4 GT JUMPDEST DUP1 ISZERO PUSH2 0x278 JUMPI POP PUSH0 DUP3 GT JUMPDEST PUSH2 0x2B7 JUMPI PUSH1 0x40 MLOAD PUSH32 0x8C379A000000000000000000000000000000000000000000000000000000000 DUP2 MSTORE PUSH1 0x4 ADD PUSH2 0x2AE SWAP1 PUSH2 0x1982 JUMP JUMPDEST PUSH1 0x40 MLOAD DUP1 SWAP2 SUB SWAP1 REVERT JUMPDEST PUSH0 PUSH2 0x3E5 DUP6 PUSH2 0x2C6 SWAP2 SWAP1 PUSH2 0x19CD JUMP JUMPDEST SWAP1 POP PUSH0 DUP4 DUP3 PUSH2 0x2D5 SWAP2 SWAP1 PUSH2 0x19CD JUMP JUMPDEST SWAP1 POP PUSH0 DUP3 PUSH2 0x3E8 DUP8 PUSH2 0x2E7 SWAP2 SWAP1 PUSH2 0x19CD JUMP JUMPDEST PUSH2 0x2F1 SWAP2 SWAP1 PUSH2 0x1A0E JUMP JUMPDEST SWAP1 POP DUP1 DUP3 PUSH2 0x2FF SWAP2 SWAP1 PUSH2 0x1A6E JUMP JUMPDEST SWAP4 POP POP POP POP SWAP4 SWAP3 POP POP POP JUMP JUMPDEST PUSH1 0x60 DUP2 TIMESTAMP GT ISZERO PUSH2 0x350 JUMPI PUSH1 0x40 MLOAD PUSH32 0x8C379A000000000000000000000000000000000000000000000000000000000 DUP2 MSTORE PUSH1 0x4 ADD PUSH2 0x347 SWAP1 PUSH2 0x1AE8 JUMP JUMPDEST PUSH1 0x40 MLOAD DUP1 SWAP2 SUB SWAP1 REVERT JUMPDEST PUSH1 0x2 DUP6 DUP6 SWAP1 POP EQ PUSH2 0x396 JUMPI PUSH1 0x40 MLOAD PUSH32 0x8C379A000000000000000000000000000000000000000000000000000000000 DUP2 MSTORE PUSH1 0x4 ADD PUSH2 0x38D SWAP1 PUSH2 0x1B50 JUMP JUMPDEST PUSH1 0x40 MLOAD DUP1 SWAP2 SUB SWAP1 REVERT JUMPDEST PUSH0 DUP6 DUP6 PUSH0 DUP2 DUP2 LT PUSH2 0x3AA JUMPI PUSH2 0x3A9 PUSH2 0x1B6E JUMP JUMPDEST JUMPDEST SWAP1 POP PUSH1 0x20 MUL ADD PUSH1 0x20 DUP2 ADD SWAP1 PUSH2 0x3BF SWAP2 SWAP1 PUSH2 0x1B9B JUMP JUMPDEST SWAP1 POP PUSH0 DUP7 DUP7 PUSH1 0x1 DUP2 DUP2 LT PUSH2 0x3D6 JUMPI PUSH2 0x3D5 PUSH2 0x1B6E JUMP JUMPDEST JUMPDEST SWAP1 POP PUSH1 0x20 MUL ADD PUSH1 0x20 DUP2 ADD SWAP1 PUSH2 0x3EB SWAP2 SWAP1 PUSH2 0x1B9B JUMP JUMPDEST SWAP1 POP PUSH0 PUSH2 0x3F9 DUP11 DUP5 DUP5 PUSH2 0xA7F JUMP JUMPDEST SWAP1 POP DUP9 DUP2 LT ISZERO PUSH2 0x43E JUMPI PUSH1 0x40 MLOAD PUSH32 0x8C379A000000000000000000000000000000000000000000000000000000000 DUP2 MSTORE PUSH1 0x4 ADD PUSH2 0x435 SWAP1 PUSH2 0x1C10 JUMP JUMPDEST PUSH1 0x40 MLOAD DUP1 SWAP2 SUB SWAP1 REVERT JUMPDEST PUSH2 0x44B DUP4 DUP4 DUP13 DUP5 DUP11 PUSH2 0xB59 JUMP JUMPDEST PUSH2 0x457 DUP4 DUP4 DUP13 DUP5 PUSH2 0xBB8 JUMP JUMPDEST PUSH1 0x2 PUSH8 0xFFFFFFFFFFFFFFFF DUP2 GT ISZERO PUSH2 0x472 JUMPI PUSH2 0x471 PUSH2 0x1C2E JUMP JUMPDEST JUMPDEST PUSH1 0x40 MLOAD SWAP1 DUP1 DUP3 MSTORE DUP1 PUSH1 0x20 MUL PUSH1 0x20 ADD DUP3 ADD PUSH1 0x40 MSTORE DUP1 ISZERO PUSH2 0x4A0 JUMPI DUP2 PUSH1 0x20 ADD PUSH1 0x20 DUP3 MUL DUP1 CALLDATASIZE DUP4 CALLDATACOPY DUP1 DUP3 ADD SWAP2 POP POP SWAP1 POP JUMPDEST POP SWAP4 POP DUP10 DUP5 PUSH0 DUP2 MLOAD DUP2 LT PUSH2 0x4B7 JUMPI PUSH2 0x4B6 PUSH2 0x1B6E JUMP JUMPDEST JUMPDEST PUSH1 0x20 MUL PUSH1 0x20 ADD ADD DUP2 DUP2 MSTORE POP POP DUP1 DUP5 PUSH1 0x1 DUP2 MLOAD DUP2 LT PUSH2 0x4D8 JUMPI PUSH2 0x4D7 PUSH2 0x1B6E JUMP JUMPDEST JUMPDEST PUSH1 0x20 MUL PUSH1 0x20 ADD ADD DUP2 DUP2 MSTORE POP POP POP POP POP SWAP7 SWAP6 POP POP POP POP POP POP JUMP JUMPDEST PUSH1 0x1 PUSH1 0x20 MSTORE DUP1 PUSH0 MSTORE PUSH1 0x40 PUSH0 KECCAK256 PUSH0 SWAP2 POP SWAP1 POP SLOAD DUP2 JUMP JUMPDEST PUSH0 PUSH0 PUSH2 0x512 DUP5 DUP5 PUSH2 0xD90 JUMP JUMPDEST SWAP1 POP PUSH0 PUSH0 PUSH0 DUP4 DUP2 MSTORE PUSH1 0x20 ADD SWAP1 DUP2 MSTORE PUSH1 0x20 ADD PUSH0 KECCAK256 PUSH1 0x40 MLOAD DUP1 PUSH1 0x40 ADD PUSH1 0x40 MSTORE SWAP1 DUP2 PUSH0 DUP3 ADD PUSH0 SWAP1 SLOAD SWAP1 PUSH2 0x100 EXP SWAP1 DIV PUSH14 0xFFFFFFFFFFFFFFFFFFFFFFFFFFFF AND PUSH14 0xFFFFFFFFFFFFFFFFFFFFFFFFFFFF AND PUSH14 0xFFFFFFFFFFFFFFFFFFFFFFFFFFFF AND DUP2 MSTORE PUSH1 0x20 ADD PUSH0 DUP3 ADD PUSH1 0xE SWAP1 SLOAD SWAP1 PUSH2 0x100 EXP SWAP1 DIV PUSH14 0xFFFFFFFFFFFFFFFFFFFFFFFFFFFF AND PUSH14 0xFFFFFFFFFFFFFFFFFFFFFFFFFFFF AND PUSH14 0xFFFFFFFFFFFFFFFFFFFFFFFFFFFF AND DUP2 MSTORE POP POP SWAP1 POP PUSH0 PUSH0 PUSH2 0x5C4 DUP8 DUP8 DUP6 PUSH2 0xE36 JUMP JUMPDEST SWAP2 POP SWAP2 POP PUSH0 DUP3 GT DUP1 ISZERO PUSH2 0x5D6 JUMPI POP PUSH0 DUP2 GT JUMPDEST PUSH2 0x615 JUMPI PUSH1 0x40 MLOAD PUSH32 0x8C379A000000000000000000000000000000000000000000000000000000000 DUP2 MSTORE PUSH1 0x4 ADD PUSH2 0x60C SWAP1 PUSH2 0x1CA5 JUMP JUMPDEST PUSH1 0x40 MLOAD DUP1 SWAP2 SUB SWAP1 REVERT JUMPDEST DUP2 PUSH8 0xDE0B6B3A7640000 DUP3 PUSH2 0x62A SWAP2 SWAP1 PUSH2 0x19CD JUMP JUMPDEST PUSH2 0x634 SWAP2 SWAP1 PUSH2 0x1A6E JUMP JUMPDEST SWAP5 POP POP POP POP POP SWAP3 SWAP2 POP POP JUMP JUMPDEST PUSH0 PUSH0 DUP3 TIMESTAMP GT ISZERO PUSH2 0x685 JUMPI PUSH1 0x40 MLOAD PUSH32 0x8C379A000000000000000000000000000000000000000000000000000000000 DUP2 MSTORE PUSH1 0x4 ADD PUSH2 0x67C SWAP1 PUSH2 0x1AE8 JUMP JUMPDEST PUSH1 0x40 MLOAD DUP1 SWAP2 SUB SWAP1 REVERT JUMPDEST PUSH0 PUSH2 0x690 DUP11 DUP11 PUSH2 0xD90 JUMP JUMPDEST SWAP1 POP PUSH0 PUSH0 PUSH0 DUP4 DUP2 MSTORE PUSH1 0x20 ADD SWAP1 DUP2 MSTORE PUSH1 0x20 ADD PUSH0 KECCAK256 SWAP1 POP PUSH0 PUSH1 0x1 PUSH0 DUP5 DUP2 MSTORE PUSH1 0x20 ADD SWAP1 DUP2 MSTORE PUSH1 0x20 ADD PUSH0 KECCAK256 SLOAD SWAP1 POP PUSH0 DUP2 GT PUSH2 0x6FC JUMPI PUSH1 0x40 MLOAD PUSH32 0x8C379A000000000000000000000000000000000000000000000000000000000 DUP2 MSTORE PUSH1 0x4 ADD PUSH2 0x6F3 SWAP1 PUSH2 0x1D0D JUMP JUMPDEST PUSH1 0x40 MLOAD DUP1 SWAP2 SUB SWAP1 REVERT JUMPDEST DUP1 DUP11 DUP4 PUSH0 ADD PUSH0 SWAP1 SLOAD SWAP1 PUSH2 0x100 EXP SWAP1 DIV PUSH14 0xFFFFFFFFFFFFFFFFFFFFFFFFFFFF AND PUSH14 0xFFFFFFFFFFFFFFFFFFFFFFFFFFFF AND PUSH2 0x735 SWAP2 SWAP1 PUSH2 0x19CD JUMP JUMPDEST PUSH2 0x73F SWAP2 SWAP1 PUSH2 0x1A6E JUMP JUMPDEST SWAP5 POP DUP1 DUP11 DUP4 PUSH0 ADD PUSH1 0xE SWAP1 SLOAD SWAP1 PUSH2 0x100 EXP SWAP1 DIV PUSH14 0xFFFFFFFFFFFFFFFFFFFFFFFFFFFF AND PUSH14 0xFFFFFFFFFFFFFFFFFFFFFFFFFFFF AND PUSH2 0x77B SWAP2 SWAP1 PUSH2 0x19CD JUMP JUMPDEST PUSH2 0x785 SWAP2 SWAP1 PUSH2 0x1A6E JUMP JUMPDEST SWAP4 POP DUP9 DUP6 LT ISZERO DUP1 ISZERO PUSH2 0x797 JUMPI POP DUP8 DUP5 LT ISZERO JUMPDEST PUSH2 0x7D6 JUMPI PUSH1 0x40 MLOAD PUSH32 0x8C379A000000000000000000000000000000000000000000000000000000000 DUP2 MSTORE PUSH1 0x4 ADD PUSH2 0x7CD SWAP1 PUSH2 0x1D75 JUMP JUMPDEST PUSH1 0x40 MLOAD DUP1 SWAP2 SUB SWAP1 REVERT JUMPDEST DUP10 PUSH1 0x2 PUSH0 DUP6 DUP2 MSTORE PUSH1 0x20 ADD SWAP1 DUP2 MSTORE PUSH1 0x20 ADD PUSH0 KECCAK256 PUSH0 CALLER PUSH20 0xFFFFFFFFFFFFFFFFFFFFFFFFFFFFFFFFFFFFFFFF AND PUSH20 0xFFFFFFFFFFFFFFFFFFFFFFFFFFFFFFFFFFFFFFFF AND DUP2 MSTORE PUSH1 0x20 ADD SWAP1 DUP2 MSTORE PUSH1 0x20 ADD PUSH0 KECCAK256 PUSH0 DUP3 DUP3 SLOAD PUSH2 0x831 SWAP2 SWAP1 PUSH2 0x1D93 JUMP JUMPDEST SWAP3 POP POP DUP2 SWAP1 SSTORE POP DUP10 PUSH1 0x1 PUSH0 DUP6 DUP2 MSTORE PUSH1 0x20 ADD SWAP1 DUP2 MSTORE PUSH1 0x20 ADD PUSH0 KECCAK256 PUSH0 DUP3 DUP3 SLOAD PUSH2 0x858 SWAP2 SWAP1 PUSH2 0x1D93 JUMP JUMPDEST SWAP3 POP POP DUP2 SWAP1 SSTORE POP DUP5 DUP3 PUSH0 ADD PUSH0 DUP3 DUP3 DUP3 SWAP1 SLOAD SWAP1 PUSH2 0x100 EXP SWAP1 DIV PUSH14 0xFFFFFFFFFFFFFFFFFFFFFFFFFFFF AND PUSH2 0x88A SWAP2 SWAP1 PUSH2 0x1DC6 JUMP JUMPDEST SWAP3 POP PUSH2 0x100 EXP DUP2 SLOAD DUP2 PUSH14 0xFFFFFFFFFFFFFFFFFFFFFFFFFFFF MUL NOT AND SWAP1 DUP4 PUSH14 0xFFFFFFFFFFFFFFFFFFFFFFFFFFFF AND MUL OR SWAP1 SSTORE POP DUP4 DUP3 PUSH0 ADD PUSH1 0xE DUP3 DUP3 DUP3 SWAP1 SLOAD SWAP1 PUSH2 0x100 EXP SWAP1 DIV PUSH14 0xFFFFFFFFFFFFFFFFFFFFFFFFFFFF AND PUSH2 0x8E8 SWAP2 SWAP1 PUSH2 0x1DC6 JUMP JUMPDEST SWAP3 POP PUSH2 0x100 EXP DUP2 SLOAD DUP2 PUSH14 0xFFFFFFFFFFFFFFFFFFFFFFFFFFFF MUL NOT AND SWAP1 DUP4 PUSH14 0xFFFFFFFFFFFFFFFFFFFFFFFFFFFF AND MUL OR SWAP1 SSTORE POP PUSH2 0x945 DUP8 DUP7 DUP15 PUSH20 0xFFFFFFFFFFFFFFFFFFFFFFFFFFFFFFFFFFFFFFFF AND PUSH2 0xEB5 SWAP1 SWAP3 SWAP2 SWAP1 PUSH4 0xFFFFFFFF AND JUMP JUMPDEST PUSH2 0x970 DUP8 DUP6 DUP14 PUSH20 0xFFFFFFFFFFFFFFFFFFFFFFFFFFFFFFFFFFFFFFFF AND PUSH2 0xEB5 SWAP1 SWAP3 SWAP2 SWAP1 PUSH4 0xFFFFFFFF AND JUMP JUMPDEST POP POP POP SWAP8 POP SWAP8 SWAP6 POP POP POP POP POP POP JUMP JUMPDEST PUSH1 0x2 PUSH1 0x20 MSTORE DUP2 PUSH0 MSTORE PUSH1 0x40 PUSH0 KECCAK256 PUSH1 0x20 MSTORE DUP1 PUSH0 MSTORE PUSH1 0x40 PUSH0 KECCAK256 PUSH0 SWAP2 POP SWAP2 POP POP SLOAD DUP2 JUMP JUMPDEST PUSH0 PUSH0 PUSH0 DUP4 TIMESTAMP GT ISZERO PUSH2 0x9E5 JUMPI PUSH1 0x40 MLOAD PUSH32 0x8C379A000000000000000000000000000000000000000000000000000000000 DUP2 MSTORE PUSH1 0x4 ADD PUSH2 0x9DC SWAP1 PUSH2 0x1AE8 JUMP JUMPDEST PUSH1 0x40 MLOAD DUP1 SWAP2 SUB SWAP1 REVERT JUMPDEST PUSH0 PUSH2 0x9F0 DUP13 DUP13 PUSH2 0xD90 JUMP JUMPDEST SWAP1 POP PUSH0 PUSH0 PUSH0 DUP4 DUP2 MSTORE PUSH1 0x20 ADD SWAP1 DUP2 MSTORE PUSH1 0x20 ADD PUSH0 KECCAK256 SWAP1 POP PUSH2 0xA4C DUP2 PUSH0 ADD PUSH0 SWAP1 SLOAD SWAP1 PUSH2 0x100 EXP SWAP1 DIV PUSH14 0xFFFFFFFFFFFFFFFFFFFFFFFFFFFF AND DUP3 PUSH0 ADD PUSH1 0xE SWAP1 SLOAD SWAP1 PUSH2 0x100 EXP SWAP1 DIV PUSH14 0xFFFFFFFFFFFFFFFFFFFFFFFFFFFF AND DUP14 DUP14 DUP14 DUP14 PUSH2 0xF34 JUMP JUMPDEST DUP1 SWAP6 POP DUP2 SWAP7 POP POP POP PUSH2 0xA60 DUP14 DUP14 DUP8 DUP8 PUSH2 0x10A1 JUMP JUMPDEST PUSH2 0xA6D DUP3 DUP7 DUP7 DUP11 DUP6 PUSH2 0x1101 JUMP JUMPDEST SWAP3 POP POP POP SWAP9 POP SWAP9 POP SWAP9 SWAP6 POP POP POP POP POP POP JUMP JUMPDEST PUSH0 PUSH0 PUSH2 0xA8B DUP5 DUP5 PUSH2 0xD90 JUMP JUMPDEST SWAP1 POP PUSH0 PUSH0 PUSH0 DUP4 DUP2 MSTORE PUSH1 0x20 ADD SWAP1 DUP2 MSTORE PUSH1 0x20 ADD PUSH0 KECCAK256 PUSH1 0x40 MLOAD DUP1 PUSH1 0x40 ADD PUSH1 0x40 MSTORE SWAP1 DUP2 PUSH0 DUP3 ADD PUSH0 SWAP1 SLOAD SWAP1 PUSH2 0x100 EXP SWAP1 DIV PUSH14 0xFFFFFFFFFFFFFFFFFFFFFFFFFFFF AND PUSH14 0xFFFFFFFFFFFFFFFFFFFFFFFFFFFF AND PUSH14 0xFFFFFFFFFFFFFFFFFFFFFFFFFFFF AND DUP2 MSTORE PUSH1 0x20 ADD PUSH0 DUP3 ADD PUSH1 0xE SWAP1 SLOAD SWAP1 PUSH2 0x100 EXP SWAP1 DIV PUSH14 0xFFFFFFFFFFFFFFFFFFFFFFFFFFFF AND PUSH14 0xFFFFFFFFFFFFFFFFFFFFFFFFFFFF AND PUSH14 0xFFFFFFFFFFFFFFFFFFFFFFFFFFFF AND DUP2 MSTORE POP POP SWAP1 POP PUSH0 PUSH0 PUSH2 0xB3D DUP8 DUP8 DUP6 PUSH2 0xE36 JUMP JUMPDEST SWAP2 POP SWAP2 POP PUSH2 0xB4C DUP9 DUP4 DUP4 PUSH2 0x25E JUMP JUMPDEST SWAP5 POP POP POP POP POP SWAP4 SWAP3 POP POP POP JUMP JUMPDEST PUSH2 0xB86 CALLER ADDRESS DUP6 DUP9 PUSH20 0xFFFFFFFFFFFFFFFFFFFFFFFFFFFFFFFFFFFFFFFF AND PUSH2 0x125D SWAP1 SWAP4 SWAP3 SWAP2 SWAP1 PUSH4 0xFFFFFFFF AND JUMP JUMPDEST PUSH2 0xBB1 DUP2 DUP4 DUP7 PUSH20 0xFFFFFFFFFFFFFFFFFFFFFFFFFFFFFFFFFFFFFFFF AND PUSH2 0xEB5 SWAP1 SWAP3 SWAP2 SWAP1 PUSH4 0xFFFFFFFF AND JUMP JUMPDEST POP POP POP POP POP JUMP JUMPDEST PUSH0 PUSH2 0xBC3 DUP6 DUP6 PUSH2 0xD90 JUMP JUMPDEST SWAP1 POP PUSH0 PUSH0 PUSH0 DUP4 DUP2 MSTORE PUSH1 0x20 ADD SWAP1 DUP2 MSTORE PUSH1 0x20 ADD PUSH0 KECCAK256 SWAP1 POP DUP5 PUSH20 0xFFFFFFFFFFFFFFFFFFFFFFFFFFFFFFFFFFFFFFFF AND DUP7 PUSH20 0xFFFFFFFFFFFFFFFFFFFFFFFFFFFFFFFFFFFFFFFF AND LT ISZERO PUSH2 0xCCC JUMPI DUP4 DUP2 PUSH0 ADD PUSH0 DUP3 DUP3 DUP3 SWAP1 SLOAD SWAP1 PUSH2 0x100 EXP SWAP1 DIV PUSH14 0xFFFFFFFFFFFFFFFFFFFFFFFFFFFF AND PUSH2 0xC37 SWAP2 SWAP1 PUSH2 0x1E07 JUMP JUMPDEST SWAP3 POP PUSH2 0x100 EXP DUP2 SLOAD DUP2 PUSH14 0xFFFFFFFFFFFFFFFFFFFFFFFFFFFF MUL NOT AND SWAP1 DUP4 PUSH14 0xFFFFFFFFFFFFFFFFFFFFFFFFFFFF AND MUL OR SWAP1 SSTORE POP DUP3 DUP2 PUSH0 ADD PUSH1 0xE DUP3 DUP3 DUP3 SWAP1 SLOAD SWAP1 PUSH2 0x100 EXP SWAP1 DIV PUSH14 0xFFFFFFFFFFFFFFFFFFFFFFFFFFFF AND PUSH2 0xC95 SWAP2 SWAP1 PUSH2 0x1DC6 JUMP JUMPDEST SWAP3 POP PUSH2 0x100 EXP DUP2 SLOAD DUP2 PUSH14 0xFFFFFFFFFFFFFFFFFFFFFFFFFFFF MUL NOT AND SWAP1 DUP4 PUSH14 0xFFFFFFFFFFFFFFFFFFFFFFFFFFFF AND MUL OR SWAP1 SSTORE POP PUSH2 0xD88 JUMP JUMPDEST DUP4 DUP2 PUSH0 ADD PUSH1 0xE DUP3 DUP3 DUP3 SWAP1 SLOAD SWAP1 PUSH2 0x100 EXP SWAP1 DIV PUSH14 0xFFFFFFFFFFFFFFFFFFFFFFFFFFFF AND PUSH2 0xCF8 SWAP2 SWAP1 PUSH2 0x1E07 JUMP JUMPDEST SWAP3 POP PUSH2 0x100 EXP DUP2 SLOAD DUP2 PUSH14 0xFFFFFFFFFFFFFFFFFFFFFFFFFFFF MUL NOT AND SWAP1 DUP4 PUSH14 0xFFFFFFFFFFFFFFFFFFFFFFFFFFFF AND MUL OR SWAP1 SSTORE POP DUP3 DUP2 PUSH0 ADD PUSH0 DUP3 DUP3 DUP3 SWAP1 SLOAD SWAP1 PUSH2 0x100 EXP SWAP1 DIV PUSH14 0xFFFFFFFFFFFFFFFFFFFFFFFFFFFF AND PUSH2 0xD55 SWAP2 SWAP1 PUSH2 0x1DC6 JUMP JUMPDEST SWAP3 POP PUSH2 0x100 EXP DUP2 SLOAD DUP2 PUSH14 0xFFFFFFFFFFFFFFFFFFFFFFFFFFFF MUL NOT AND SWAP1 DUP4 PUSH14 0xFFFFFFFFFFFFFFFFFFFFFFFFFFFF AND MUL OR SWAP1 SSTORE POP JUMPDEST POP POP POP POP POP POP JUMP JUMPDEST PUSH0 DUP2 PUSH20 0xFFFFFFFFFFFFFFFFFFFFFFFFFFFFFFFFFFFFFFFF AND DUP4 PUSH20 0xFFFFFFFFFFFFFFFFFFFFFFFFFFFFFFFFFFFFFFFF AND LT PUSH2 0xDCA JUMPI DUP2 PUSH2 0xDCC JUMP JUMPDEST DUP3 JUMPDEST DUP3 PUSH20 0xFFFFFFFFFFFFFFFFFFFFFFFFFFFFFFFFFFFFFFFF AND DUP5 PUSH20 0xFFFFFFFFFFFFFFFFFFFFFFFFFFFFFFFFFFFFFFFF AND LT PUSH2 0xE05 JUMPI DUP4 PUSH2 0xE07 JUMP JUMPDEST DUP3 JUMPDEST PUSH1 0x40 MLOAD PUSH1 0x20 ADD PUSH2 0xE18 SWAP3 SWAP2 SWAP1 PUSH2 0x1E8D JUMP JUMPDEST PUSH1 0x40 MLOAD PUSH1 0x20 DUP2 DUP4 SUB SUB DUP2 MSTORE SWAP1 PUSH1 0x40 MSTORE DUP1 MLOAD SWAP1 PUSH1 0x20 ADD KECCAK256 SWAP1 POP SWAP3 SWAP2 POP POP JUMP JUMPDEST PUSH0 PUSH0 DUP4 PUSH20 0xFFFFFFFFFFFFFFFFFFFFFFFFFFFFFFFFFFFFFFFF AND DUP6 PUSH20 0xFFFFFFFFFFFFFFFFFFFFFFFFFFFFFFFFFFFFFFFF AND LT PUSH2 0xE79 JUMPI DUP3 PUSH1 0x20 ADD MLOAD DUP4 PUSH0 ADD MLOAD PUSH2 0xE83 JUMP JUMPDEST DUP3 PUSH0 ADD MLOAD DUP4 PUSH1 0x20 ADD MLOAD JUMPDEST DUP2 PUSH14 0xFFFFFFFFFFFFFFFFFFFFFFFFFFFF AND SWAP2 POP DUP1 PUSH14 0xFFFFFFFFFFFFFFFFFFFFFFFFFFFF AND SWAP1 POP SWAP2 POP SWAP2 POP SWAP4 POP SWAP4 SWAP2 POP POP JUMP JUMPDEST PUSH2 0xF2F DUP4 DUP5 PUSH20 0xFFFFFFFFFFFFFFFFFFFFFFFFFFFFFFFFFFFFFFFF AND PUSH4 0xA9059CBB DUP6 DUP6 PUSH1 0x40 MLOAD PUSH1 0x24 ADD PUSH2 0xEE8 SWAP3 SWAP2 SWAP1 PUSH2 0x1EC7 JUMP JUMPDEST PUSH1 0x40 MLOAD PUSH1 0x20 DUP2 DUP4 SUB SUB DUP2 MSTORE SWAP1 PUSH1 0x40 MSTORE SWAP2 POP PUSH1 0xE0 SHL PUSH1 0x20 DUP3 ADD DUP1 MLOAD PUSH28 0xFFFFFFFFFFFFFFFFFFFFFFFFFFFFFFFFFFFFFFFFFFFFFFFFFFFFFFFF DUP4 DUP2 DUP4 AND OR DUP4 MSTORE POP POP POP POP PUSH2 0x12DF JUMP JUMPDEST POP POP POP JUMP JUMPDEST PUSH0 PUSH0 PUSH0 DUP9 PUSH14 0xFFFFFFFFFFFFFFFFFFFFFFFFFFFF AND EQ DUP1 ISZERO PUSH2 0xF64 JUMPI POP PUSH0 DUP8 PUSH14 0xFFFFFFFFFFFFFFFFFFFFFFFFFFFF AND EQ JUMPDEST ISZERO PUSH2 0xF78 JUMPI DUP6 DUP6 DUP1 SWAP3 POP DUP2 SWAP4 POP POP POP PUSH2 0x1096 JUMP JUMPDEST PUSH0 DUP9 PUSH14 0xFFFFFFFFFFFFFFFFFFFFFFFFFFFF AND DUP9 PUSH14 0xFFFFFFFFFFFFFFFFFFFFFFFFFFFF AND DUP9 PUSH2 0xFA6 SWAP2 SWAP1 PUSH2 0x19CD JUMP JUMPDEST PUSH2 0xFB0 SWAP2 SWAP1 PUSH2 0x1A6E JUMP JUMPDEST SWAP1 POP DUP6 DUP2 GT PUSH2 0x100B JUMPI DUP4 DUP2 LT ISZERO PUSH2 0xFFC JUMPI PUSH1 0x40 MLOAD PUSH32 0x8C379A000000000000000000000000000000000000000000000000000000000 DUP2 MSTORE PUSH1 0x4 ADD PUSH2 0xFF3 SWAP1 PUSH2 0x1F38 JUMP JUMPDEST PUSH1 0x40 MLOAD DUP1 SWAP2 SUB SWAP1 REVERT JUMPDEST DUP7 DUP2 DUP1 SWAP4 POP DUP2 SWAP5 POP POP POP PUSH2 0x1094 JUMP JUMPDEST PUSH0 DUP9 PUSH14 0xFFFFFFFFFFFFFFFFFFFFFFFFFFFF AND DUP11 PUSH14 0xFFFFFFFFFFFFFFFFFFFFFFFFFFFF AND DUP9 PUSH2 0x1039 SWAP2 SWAP1 PUSH2 0x19CD JUMP JUMPDEST PUSH2 0x1043 SWAP2 SWAP1 PUSH2 0x1A6E JUMP JUMPDEST SWAP1 POP DUP6 DUP2 LT ISZERO PUSH2 0x1088 JUMPI PUSH1 0x40 MLOAD PUSH32 0x8C379A000000000000000000000000000000000000000000000000000000000 DUP2 MSTORE PUSH1 0x4 ADD PUSH2 0x107F SWAP1 PUSH2 0x1FA0 JUMP JUMPDEST PUSH1 0x40 MLOAD DUP1 SWAP2 SUB SWAP1 REVERT JUMPDEST DUP1 DUP8 DUP1 SWAP5 POP DUP2 SWAP6 POP POP POP POP JUMPDEST POP JUMPDEST SWAP7 POP SWAP7 SWAP5 POP POP POP POP POP JUMP JUMPDEST PUSH2 0x10CE CALLER ADDRESS DUP5 DUP8 PUSH20 0xFFFFFFFFFFFFFFFFFFFFFFFFFFFFFFFFFFFFFFFF AND PUSH2 0x125D SWAP1 SWAP4 SWAP3 SWAP2 SWAP1 PUSH4 0xFFFFFFFF AND JUMP JUMPDEST PUSH2 0x10FB CALLER ADDRESS DUP4 DUP7 PUSH20 0xFFFFFFFFFFFFFFFFFFFFFFFFFFFFFFFFFFFFFFFF AND PUSH2 0x125D SWAP1 SWAP4 SWAP3 SWAP2 SWAP1 PUSH4 0xFFFFFFFF AND JUMP JUMPDEST POP POP POP POP JUMP JUMPDEST PUSH0 DUP4 DUP6 PUSH2 0x110E SWAP2 SWAP1 PUSH2 0x1A0E JUMP JUMPDEST SWAP1 POP DUP1 PUSH1 0x1 PUSH0 DUP9 DUP2 MSTORE PUSH1 0x20 ADD SWAP1 DUP2 MSTORE PUSH1 0x20 ADD PUSH0 KECCAK256 PUSH0 DUP3 DUP3 SLOAD PUSH2 0x1130 SWAP2 SWAP1 PUSH2 0x1A0E JUMP JUMPDEST SWAP3 POP POP DUP2 SWAP1 SSTORE POP DUP1 PUSH1 0x2 PUSH0 DUP9 DUP2 MSTORE PUSH1 0x20 ADD SWAP1 DUP2 MSTORE PUSH1 0x20 ADD PUSH0 KECCAK256 PUSH0 DUP6 PUSH20 0xFFFFFFFFFFFFFFFFFFFFFFFFFFFFFFFFFFFFFFFF AND PUSH20 0xFFFFFFFFFFFFFFFFFFFFFFFFFFFFFFFFFFFFFFFF AND DUP2 MSTORE PUSH1 0x20 ADD SWAP1 DUP2 MSTORE PUSH1 0x20 ADD PUSH0 KECCAK256 PUSH0 DUP3 DUP3 SLOAD PUSH2 0x1192 SWAP2 SWAP1 PUSH2 0x1A0E JUMP JUMPDEST SWAP3 POP POP DUP2 SWAP1 SSTORE POP DUP5 DUP3 PUSH0 ADD PUSH0 DUP3 DUP3 DUP3 SWAP1 SLOAD SWAP1 PUSH2 0x100 EXP SWAP1 DIV PUSH14 0xFFFFFFFFFFFFFFFFFFFFFFFFFFFF AND PUSH2 0x11C4 SWAP2 SWAP1 PUSH2 0x1E07 JUMP JUMPDEST SWAP3 POP PUSH2 0x100 EXP DUP2 SLOAD DUP2 PUSH14 0xFFFFFFFFFFFFFFFFFFFFFFFFFFFF MUL NOT AND SWAP1 DUP4 PUSH14 0xFFFFFFFFFFFFFFFFFFFFFFFFFFFF AND MUL OR SWAP1 SSTORE POP DUP4 DUP3 PUSH0 ADD PUSH1 0xE DUP3 DUP3 DUP3 SWAP1 SLOAD SWAP1 PUSH2 0x100 EXP SWAP1 DIV PUSH14 0xFFFFFFFFFFFFFFFFFFFFFFFFFFFF AND PUSH2 0x1222 SWAP2 SWAP1 PUSH2 0x1E07 JUMP JUMPDEST SWAP3 POP PUSH2 0x100 EXP DUP2 SLOAD DUP2 PUSH14 0xFFFFFFFFFFFFFFFFFFFFFFFFFFFF MUL NOT AND SWAP1 DUP4 PUSH14 0xFFFFFFFFFFFFFFFFFFFFFFFFFFFF AND MUL OR SWAP1 SSTORE POP SWAP6 SWAP5 POP POP POP POP POP JUMP JUMPDEST PUSH2 0x12D9 DUP5 DUP6 PUSH20 0xFFFFFFFFFFFFFFFFFFFFFFFFFFFFFFFFFFFFFFFF AND PUSH4 0x23B872DD DUP7 DUP7 DUP7 PUSH1 0x40 MLOAD PUSH1 0x24 ADD PUSH2 0x1292 SWAP4 SWAP3 SWAP2 SWAP1 PUSH2 0x1FBE JUMP JUMPDEST PUSH1 0x40 MLOAD PUSH1 0x20 DUP2 DUP4 SUB SUB DUP2 MSTORE SWAP1 PUSH1 0x40 MSTORE SWAP2 POP PUSH1 0xE0 SHL PUSH1 0x20 DUP3 ADD DUP1 MLOAD PUSH28 0xFFFFFFFFFFFFFFFFFFFFFFFFFFFFFFFFFFFFFFFFFFFFFFFFFFFFFFFF DUP4 DUP2 DUP4 AND OR DUP4 MSTORE POP POP POP POP PUSH2 0x12DF JUMP JUMPDEST POP POP POP POP JUMP JUMPDEST PUSH0 PUSH0 PUSH1 0x20 PUSH0 DUP5 MLOAD PUSH1 0x20 DUP7 ADD PUSH0 DUP9 GAS CALL DUP1 PUSH2 0x12FE JUMPI PUSH1 0x40 MLOAD RETURNDATASIZE PUSH0 DUP3 RETURNDATACOPY RETURNDATASIZE DUP2 REVERT JUMPDEST RETURNDATASIZE SWAP3 POP PUSH0 MLOAD SWAP2 POP POP PUSH0 DUP3 EQ PUSH2 0x1317 JUMPI PUSH1 0x1 DUP2 EQ ISZERO PUSH2 0x1332 JUMP JUMPDEST PUSH0 DUP5 PUSH20 0xFFFFFFFFFFFFFFFFFFFFFFFFFFFFFFFFFFFFFFFF AND EXTCODESIZE EQ JUMPDEST ISZERO PUSH2 0x1374 JUMPI DUP4 PUSH1 0x40 MLOAD PUSH32 0x5274AFE700000000000000000000000000000000000000000000000000000000 DUP2 MSTORE PUSH1 0x4 ADD PUSH2 0x136B SWAP2 SWAP1 PUSH2 0x1FF3 JUMP JUMPDEST PUSH1 0x40 MLOAD DUP1 SWAP2 SUB SWAP1 REVERT JUMPDEST POP POP POP POP JUMP JUMPDEST PUSH0 PUSH0 REVERT JUMPDEST PUSH0 PUSH0 REVERT JUMPDEST PUSH0 DUP2 SWAP1 POP SWAP2 SWAP1 POP JUMP JUMPDEST PUSH2 0x1394 DUP2 PUSH2 0x1382 JUMP JUMPDEST DUP2 EQ PUSH2 0x139E JUMPI PUSH0 PUSH0 REVERT JUMPDEST POP JUMP JUMPDEST PUSH0 DUP2 CALLDATALOAD SWAP1 POP PUSH2 0x13AF DUP2 PUSH2 0x138B JUMP JUMPDEST SWAP3 SWAP2 POP POP JUMP JUMPDEST PUSH0 PUSH1 0x20 DUP3 DUP5 SUB SLT ISZERO PUSH2 0x13CA JUMPI PUSH2 0x13C9 PUSH2 0x137A JUMP JUMPDEST JUMPDEST PUSH0 PUSH2 0x13D7 DUP5 DUP3 DUP6 ADD PUSH2 0x13A1 JUMP JUMPDEST SWAP2 POP POP SWAP3 SWAP2 POP POP JUMP JUMPDEST PUSH0 PUSH14 0xFFFFFFFFFFFFFFFFFFFFFFFFFFFF DUP3 AND SWAP1 POP SWAP2 SWAP1 POP JUMP JUMPDEST PUSH2 0x1402 DUP2 PUSH2 0x13E0 JUMP JUMPDEST DUP3 MSTORE POP POP JUMP JUMPDEST PUSH0 PUSH1 0x40 DUP3 ADD SWAP1 POP PUSH2 0x141B PUSH0 DUP4 ADD DUP6 PUSH2 0x13F9 JUMP JUMPDEST PUSH2 0x1428 PUSH1 0x20 DUP4 ADD DUP5 PUSH2 0x13F9 JUMP JUMPDEST SWAP4 SWAP3 POP POP POP JUMP JUMPDEST PUSH0 DUP2 SWAP1 POP SWAP2 SWAP1 POP JUMP JUMPDEST PUSH2 0x1441 DUP2 PUSH2 0x142F JUMP JUMPDEST DUP2 EQ PUSH2 0x144B JUMPI PUSH0 PUSH0 REVERT JUMPDEST POP JUMP JUMPDEST PUSH0 DUP2 CALLDATALOAD SWAP1 POP PUSH2 0x145C DUP2 PUSH2 0x1438 JUMP JUMPDEST SWAP3 SWAP2 POP POP JUMP JUMPDEST PUSH0 PUSH0 PUSH0 PUSH1 0x60 DUP5 DUP7 SUB SLT ISZERO PUSH2 0x1479 JUMPI PUSH2 0x1478 PUSH2 0x137A JUMP JUMPDEST JUMPDEST PUSH0 PUSH2 0x1486 DUP7 DUP3 DUP8 ADD PUSH2 0x144E JUMP JUMPDEST SWAP4 POP POP PUSH1 0x20 PUSH2 0x1497 DUP7 DUP3 DUP8 ADD PUSH2 0x144E JUMP JUMPDEST SWAP3 POP POP PUSH1 0x40 PUSH2 0x14A8 DUP7 DUP3 DUP8 ADD PUSH2 0x144E JUMP JUMPDEST SWAP2 POP POP SWAP3 POP SWAP3 POP SWAP3 JUMP JUMPDEST PUSH2 0x14BB DUP2 PUSH2 0x142F JUMP JUMPDEST DUP3 MSTORE POP POP JUMP JUMPDEST PUSH0 PUSH1 0x20 DUP3 ADD SWAP1 POP PUSH2 0x14D4 PUSH0 DUP4 ADD DUP5 PUSH2 0x14B2 JUMP JUMPDEST SWAP3 SWAP2 POP POP JUMP JUMPDEST PUSH0 PUSH0 REVERT JUMPDEST PUSH0 PUSH0 REVERT JUMPDEST PUSH0 PUSH0 REVERT JUMPDEST PUSH0 PUSH0 DUP4 PUSH1 0x1F DUP5 ADD SLT PUSH2 0x14FB JUMPI PUSH2 0x14FA PUSH2 0x14DA JUMP JUMPDEST JUMPDEST DUP3 CALLDATALOAD SWAP1 POP PUSH8 0xFFFFFFFFFFFFFFFF DUP2 GT ISZERO PUSH2 0x1518 JUMPI PUSH2 0x1517 PUSH2 0x14DE JUMP JUMPDEST JUMPDEST PUSH1 0x20 DUP4 ADD SWAP2 POP DUP4 PUSH1 0x20 DUP3 MUL DUP4 ADD GT ISZERO PUSH2 0x1534 JUMPI PUSH2 0x1533 PUSH2 0x14E2 JUMP JUMPDEST JUMPDEST SWAP3 POP SWAP3 SWAP1 POP JUMP JUMPDEST PUSH0 PUSH20 0xFFFFFFFFFFFFFFFFFFFFFFFFFFFFFFFFFFFFFFFF DUP3 AND SWAP1 POP SWAP2 SWAP1 POP JUMP JUMPDEST PUSH0 PUSH2 0x1564 DUP3 PUSH2 0x153B JUMP JUMPDEST SWAP1 POP SWAP2 SWAP1 POP JUMP JUMPDEST PUSH2 0x1574 DUP2 PUSH2 0x155A JUMP JUMPDEST DUP2 EQ PUSH2 0x157E JUMPI PUSH0 PUSH0 REVERT JUMPDEST POP JUMP JUMPDEST PUSH0 DUP2 CALLDATALOAD SWAP1 POP PUSH2 0x158F DUP2 PUSH2 0x156B JUMP JUMPDEST SWAP3 SWAP2 POP POP JUMP JUMPDEST PUSH0 PUSH0 PUSH0 PUSH0 PUSH0 PUSH0 PUSH1 0xA0 DUP8 DUP10 SUB SLT ISZERO PUSH2 0x15AF JUMPI PUSH2 0x15AE PUSH2 0x137A JUMP JUMPDEST JUMPDEST PUSH0 PUSH2 0x15BC DUP10 DUP3 DUP11 ADD PUSH2 0x144E JUMP JUMPDEST SWAP7 POP POP PUSH1 0x20 PUSH2 0x15CD DUP10 DUP3 DUP11 ADD PUSH2 0x144E JUMP JUMPDEST SWAP6 POP POP PUSH1 0x40 DUP8 ADD CALLDATALOAD PUSH8 0xFFFFFFFFFFFFFFFF DUP2 GT ISZERO PUSH2 0x15EE JUMPI PUSH2 0x15ED PUSH2 0x137E JUMP JUMPDEST JUMPDEST PUSH2 0x15FA DUP10 DUP3 DUP11 ADD PUSH2 0x14E6 JUMP JUMPDEST SWAP5 POP SWAP5 POP POP PUSH1 0x60 PUSH2 0x160D DUP10 DUP3 DUP11 ADD PUSH2 0x1581 JUMP JUMPDEST SWAP3 POP POP PUSH1 0x80 PUSH2 0x161E DUP10 DUP3 DUP11 ADD PUSH2 0x144E JUMP JUMPDEST SWAP2 POP POP SWAP3 SWAP6 POP SWAP3 SWAP6 POP SWAP3 SWAP6 JUMP JUMPDEST PUSH0 DUP2 MLOAD SWAP1 POP SWAP2 SWAP1 POP JUMP JUMPDEST PUSH0 DUP3 DUP3 MSTORE PUSH1 0x20 DUP3 ADD SWAP1 POP SWAP3 SWAP2 POP POP JUMP JUMPDEST PUSH0 DUP2 SWAP1 POP PUSH1 0x20 DUP3 ADD SWAP1 POP SWAP2 SWAP1 POP JUMP JUMPDEST PUSH2 0x165D DUP2 PUSH2 0x142F JUMP JUMPDEST DUP3 MSTORE POP POP JUMP JUMPDEST PUSH0 PUSH2 0x166E DUP4 DUP4 PUSH2 0x1654 JUMP JUMPDEST PUSH1 0x20 DUP4 ADD SWAP1 POP SWAP3 SWAP2 POP POP JUMP JUMPDEST PUSH0 PUSH1 0x20 DUP3 ADD SWAP1 POP SWAP2 SWAP1 POP JUMP JUMPDEST PUSH0 PUSH2 0x1690 DUP3 PUSH2 0x162B JUMP JUMPDEST PUSH2 0x169A DUP2 DUP6 PUSH2 0x1635 JUMP JUMPDEST SWAP4 POP PUSH2 0x16A5 DUP4 PUSH2 0x1645 JUMP JUMPDEST DUP1 PUSH0 JUMPDEST DUP4 DUP2 LT ISZERO PUSH2 0x16D5 JUMPI DUP2 MLOAD PUSH2 0x16BC DUP9 DUP3 PUSH2 0x1663 JUMP JUMPDEST SWAP8 POP PUSH2 0x16C7 DUP4 PUSH2 0x167A JUMP JUMPDEST SWAP3 POP POP PUSH1 0x1 DUP2 ADD SWAP1 POP PUSH2 0x16A8 JUMP JUMPDEST POP DUP6 SWAP4 POP POP POP POP SWAP3 SWAP2 POP POP JUMP JUMPDEST PUSH0 PUSH1 0x20 DUP3 ADD SWAP1 POP DUP2 DUP2 SUB PUSH0 DUP4 ADD MSTORE PUSH2 0x16FA DUP2 DUP5 PUSH2 0x1686 JUMP JUMPDEST SWAP1 POP SWAP3 SWAP2 POP POP JUMP JUMPDEST PUSH0 PUSH0 PUSH1 0x40 DUP4 DUP6 SUB SLT ISZERO PUSH2 0x1718 JUMPI PUSH2 0x1717 PUSH2 0x137A JUMP JUMPDEST JUMPDEST PUSH0 PUSH2 0x1725 DUP6 DUP3 DUP7 ADD PUSH2 0x1581 JUMP JUMPDEST SWAP3 POP POP PUSH1 0x20 PUSH2 0x1736 DUP6 DUP3 DUP7 ADD PUSH2 0x1581 JUMP JUMPDEST SWAP2 POP POP SWAP3 POP SWAP3 SWAP1 POP JUMP JUMPDEST PUSH0 PUSH0 PUSH0 PUSH0 PUSH0 PUSH0 PUSH0 PUSH1 0xE0 DUP9 DUP11 SUB SLT ISZERO PUSH2 0x175B JUMPI PUSH2 0x175A PUSH2 0x137A JUMP JUMPDEST JUMPDEST PUSH0 PUSH2 0x1768 DUP11 DUP3 DUP12 ADD PUSH2 0x1581 JUMP JUMPDEST SWAP8 POP POP PUSH1 0x20 PUSH2 0x1779 DUP11 DUP3 DUP12 ADD PUSH2 0x1581 JUMP JUMPDEST SWAP7 POP POP PUSH1 0x40 PUSH2 0x178A DUP11 DUP3 DUP12 ADD PUSH2 0x144E JUMP JUMPDEST SWAP6 POP POP PUSH1 0x60 PUSH2 0x179B DUP11 DUP3 DUP12 ADD PUSH2 0x144E JUMP JUMPDEST SWAP5 POP POP PUSH1 0x80 PUSH2 0x17AC DUP11 DUP3 DUP12 ADD PUSH2 0x144E JUMP JUMPDEST SWAP4 POP POP PUSH1 0xA0 PUSH2 0x17BD DUP11 DUP3 DUP12 ADD PUSH2 0x1581 JUMP JUMPDEST SWAP3 POP POP PUSH1 0xC0 PUSH2 0x17CE DUP11 DUP3 DUP12 ADD PUSH2 0x144E JUMP JUMPDEST SWAP2 POP POP SWAP3 SWAP6 SWAP9 SWAP2 SWAP5 SWAP8 POP SWAP3 SWAP6 POP JUMP JUMPDEST PUSH0 PUSH1 0x40 DUP3 ADD SWAP1 POP PUSH2 0x17F0 PUSH0 DUP4 ADD DUP6 PUSH2 0x14B2 JUMP JUMPDEST PUSH2 0x17FD PUSH1 0x20 DUP4 ADD DUP5 PUSH2 0x14B2 JUMP JUMPDEST SWAP4 SWAP3 POP POP POP JUMP JUMPDEST PUSH0 PUSH0 PUSH1 0x40 DUP4 DUP6 SUB SLT ISZERO PUSH2 0x181A JUMPI PUSH2 0x1819 PUSH2 0x137A JUMP JUMPDEST JUMPDEST PUSH0 PUSH2 0x1827 DUP6 DUP3 DUP7 ADD PUSH2 0x13A1 JUMP JUMPDEST SWAP3 POP POP PUSH1 0x20 PUSH2 0x1838 DUP6 DUP3 DUP7 ADD PUSH2 0x1581 JUMP JUMPDEST SWAP2 POP POP SWAP3 POP SWAP3 SWAP1 POP JUMP JUMPDEST PUSH0 PUSH0 PUSH0 PUSH0 PUSH0 PUSH0 PUSH0 PUSH0 PUSH2 0x100 DUP10 DUP12 SUB SLT ISZERO PUSH2 0x185F JUMPI PUSH2 0x185E PUSH2 0x137A JUMP JUMPDEST JUMPDEST PUSH0 PUSH2 0x186C DUP12 DUP3 DUP13 ADD PUSH2 0x1581 JUMP JUMPDEST SWAP9 POP POP PUSH1 0x20 PUSH2 0x187D DUP12 DUP3 DUP13 ADD PUSH2 0x1581 JUMP JUMPDEST SWAP8 POP POP PUSH1 0x40 PUSH2 0x188E DUP12 DUP3 DUP13 ADD PUSH2 0x144E JUMP JUMPDEST SWAP7 POP POP PUSH1 0x60 PUSH2 0x189F DUP12 DUP3 DUP13 ADD PUSH2 0x144E JUMP JUMPDEST SWAP6 POP POP PUSH1 0x80 PUSH2 0x18B0 DUP12 DUP3 DUP13 ADD PUSH2 0x144E JUMP JUMPDEST SWAP5 POP POP PUSH1 0xA0 PUSH2 0x18C1 DUP12 DUP3 DUP13 ADD PUSH2 0x144E JUMP JUMPDEST SWAP4 POP POP PUSH1 0xC0 PUSH2 0x18D2 DUP12 DUP3 DUP13 ADD PUSH2 0x1581 JUMP JUMPDEST SWAP3 POP POP PUSH1 0xE0 PUSH2 0x18E3 DUP12 DUP3 DUP13 ADD PUSH2 0x144E JUMP JUMPDEST SWAP2 POP POP SWAP3 SWAP6 SWAP9 POP SWAP3 SWAP6 SWAP9 SWAP1 SWAP4 SWAP7 POP JUMP JUMPDEST PUSH0 PUSH1 0x60 DUP3 ADD SWAP1 POP PUSH2 0x1906 PUSH0 DUP4 ADD DUP7 PUSH2 0x14B2 JUMP JUMPDEST PUSH2 0x1913 PUSH1 0x20 DUP4 ADD DUP6 PUSH2 0x14B2 JUMP JUMPDEST PUSH2 0x1920 PUSH1 0x40 DUP4 ADD DUP5 PUSH2 0x14B2 JUMP JUMPDEST SWAP5 SWAP4 POP POP POP POP JUMP JUMPDEST PUSH0 DUP3 DUP3 MSTORE PUSH1 0x20 DUP3 ADD SWAP1 POP SWAP3 SWAP2 POP POP JUMP JUMPDEST PUSH32 0x496E76616C696420726573657276657300000000000000000000000000000000 PUSH0 DUP3 ADD MSTORE POP JUMP JUMPDEST PUSH0 PUSH2 0x196C PUSH1 0x10 DUP4 PUSH2 0x1928 JUMP JUMPDEST SWAP2 POP PUSH2 0x1977 DUP3 PUSH2 0x1938 JUMP JUMPDEST PUSH1 0x20 DUP3 ADD SWAP1 POP SWAP2 SWAP1 POP JUMP JUMPDEST PUSH0 PUSH1 0x20 DUP3 ADD SWAP1 POP DUP2 DUP2 SUB PUSH0 DUP4 ADD MSTORE PUSH2 0x1999 DUP2 PUSH2 0x1960 JUMP JUMPDEST SWAP1 POP SWAP2 SWAP1 POP JUMP JUMPDEST PUSH32 0x4E487B7100000000000000000000000000000000000000000000000000000000 PUSH0 MSTORE PUSH1 0x11 PUSH1 0x4 MSTORE PUSH1 0x24 PUSH0 REVERT JUMPDEST PUSH0 PUSH2 0x19D7 DUP3 PUSH2 0x142F JUMP JUMPDEST SWAP2 POP PUSH2 0x19E2 DUP4 PUSH2 0x142F JUMP JUMPDEST SWAP3 POP DUP3 DUP3 MUL PUSH2 0x19F0 DUP2 PUSH2 0x142F JUMP JUMPDEST SWAP2 POP DUP3 DUP3 DIV DUP5 EQ DUP4 ISZERO OR PUSH2 0x1A07 JUMPI PUSH2 0x1A06 PUSH2 0x19A0 JUMP JUMPDEST JUMPDEST POP SWAP3 SWAP2 POP POP JUMP JUMPDEST PUSH0 PUSH2 0x1A18 DUP3 PUSH2 0x142F JUMP JUMPDEST SWAP2 POP PUSH2 0x1A23 DUP4 PUSH2 0x142F JUMP JUMPDEST SWAP3 POP DUP3 DUP3 ADD SWAP1 POP DUP1 DUP3 GT ISZERO PUSH2 0x1A3B JUMPI PUSH2 0x1A3A PUSH2 0x19A0 JUMP JUMPDEST JUMPDEST SWAP3 SWAP2 POP POP JUMP JUMPDEST PUSH32 0x4E487B7100000000000000000000000000000000000000000000000000000000 PUSH0 MSTORE PUSH1 0x12 PUSH1 0x4 MSTORE PUSH1 0x24 PUSH0 REVERT JUMPDEST PUSH0 PUSH2 0x1A78 DUP3 PUSH2 0x142F JUMP JUMPDEST SWAP2 POP PUSH2 0x1A83 DUP4 PUSH2 0x142F JUMP JUMPDEST SWAP3 POP DUP3 PUSH2 0x1A93 JUMPI PUSH2 0x1A92 PUSH2 0x1A41 JUMP JUMPDEST JUMPDEST DUP3 DUP3 DIV SWAP1 POP SWAP3 SWAP2 POP POP JUMP JUMPDEST PUSH32 0x4578706972656400000000000000000000000000000000000000000000000000 PUSH0 DUP3 ADD MSTORE POP JUMP JUMPDEST PUSH0 PUSH2 0x1AD2 PUSH1 0x7 DUP4 PUSH2 0x1928 JUMP JUMPDEST SWAP2 POP PUSH2 0x1ADD DUP3 PUSH2 0x1A9E JUMP JUMPDEST PUSH1 0x20 DUP3 ADD SWAP1 POP SWAP2 SWAP1 POP JUMP JUMPDEST PUSH0 PUSH1 0x20 DUP3 ADD SWAP1 POP DUP2 DUP2 SUB PUSH0 DUP4 ADD MSTORE PUSH2 0x1AFF DUP2 PUSH2 0x1AC6 JUMP JUMPDEST SWAP1 POP SWAP2 SWAP1 POP JUMP JUMPDEST PUSH32 0x4F6E6C7920322D746F6B656E207061746820737570706F727465640000000000 PUSH0 DUP3 ADD MSTORE POP JUMP JUMPDEST PUSH0 PUSH2 0x1B3A PUSH1 0x1B DUP4 PUSH2 0x1928 JUMP JUMPDEST SWAP2 POP PUSH2 0x1B45 DUP3 PUSH2 0x1B06 JUMP JUMPDEST PUSH1 0x20 DUP3 ADD SWAP1 POP SWAP2 SWAP1 POP JUMP JUMPDEST PUSH0 PUSH1 0x20 DUP3 ADD SWAP1 POP DUP2 DUP2 SUB PUSH0 DUP4 ADD MSTORE PUSH2 0x1B67 DUP2 PUSH2 0x1B2E JUMP JUMPDEST SWAP1 POP SWAP2 SWAP1 POP JUMP JUMPDEST PUSH32 0x4E487B7100000000000000000000000000000000000000000000000000000000 PUSH0 MSTORE PUSH1 0x32 PUSH1 0x4 MSTORE PUSH1 0x24 PUSH0 REVERT JUMPDEST PUSH0 PUSH1 0x20 DUP3 DUP5 SUB SLT ISZERO PUSH2 0x1BB0 JUMPI PUSH2 0x1BAF PUSH2 0x137A JUMP JUMPDEST JUMPDEST PUSH0 PUSH2 0x1BBD DUP5 DUP3 DUP6 ADD PUSH2 0x1581 JUMP JUMPDEST SWAP2 POP POP SWAP3 SWAP2 POP POP JUMP JUMPDEST PUSH32 0x496E73756666696369656E74206F757470757400000000000000000000000000 PUSH0 DUP3 ADD MSTORE POP JUMP JUMPDEST PUSH0 PUSH2 0x1BFA PUSH1 0x13 DUP4 PUSH2 0x1928 JUMP JUMPDEST SWAP2 POP PUSH2 0x1C05 DUP3 PUSH2 0x1BC6 JUMP JUMPDEST PUSH1 0x20 DUP3 ADD SWAP1 POP SWAP2 SWAP1 POP JUMP JUMPDEST PUSH0 PUSH1 0x20 DUP3 ADD SWAP1 POP DUP2 DUP2 SUB PUSH0 DUP4 ADD MSTORE PUSH2 0x1C27 DUP2 PUSH2 0x1BEE JUMP JUMPDEST SWAP1 POP SWAP2 SWAP1 POP JUMP JUMPDEST PUSH32 0x4E487B7100000000000000000000000000000000000000000000000000000000 PUSH0 MSTORE PUSH1 0x41 PUSH1 0x4 MSTORE PUSH1 0x24 PUSH0 REVERT JUMPDEST PUSH32 0x4E6F207265736572766573000000000000000000000000000000000000000000 PUSH0 DUP3 ADD MSTORE POP JUMP JUMPDEST PUSH0 PUSH2 0x1C8F PUSH1 0xB DUP4 PUSH2 0x1928 JUMP JUMPDEST SWAP2 POP PUSH2 0x1C9A DUP3 PUSH2 0x1C5B JUMP JUMPDEST PUSH1 0x20 DUP3 ADD SWAP1 POP SWAP2 SWAP1 POP JUMP JUMPDEST PUSH0 PUSH1 0x20 DUP3 ADD SWAP1 POP DUP2 DUP2 SUB PUSH0 DUP4 ADD MSTORE PUSH2 0x1CBC DUP2 PUSH2 0x1C83 JUMP JUMPDEST SWAP1 POP SWAP2 SWAP1 POP JUMP JUMPDEST PUSH32 0x4E6F206C69717569646974790000000000000000000000000000000000000000 PUSH0 DUP3 ADD MSTORE POP JUMP JUMPDEST PUSH0 PUSH2 0x1CF7 PUSH1 0xC DUP4 PUSH2 0x1928 JUMP JUMPDEST SWAP2 POP PUSH2 0x1D02 DUP3 PUSH2 0x1CC3 JUMP JUMPDEST PUSH1 0x20 DUP3 ADD SWAP1 POP SWAP2 SWAP1 POP JUMP JUMPDEST PUSH0 PUSH1 0x20 DUP3 ADD SWAP1 POP DUP2 DUP2 SUB PUSH0 DUP4 ADD MSTORE PUSH2 0x1D24 DUP2 PUSH2 0x1CEB JUMP JUMPDEST SWAP1 POP SWAP2 SWAP1 POP JUMP JUMPDEST PUSH32 0x536C697070616765000000000000000000000000000000000000000000000000 PUSH0 DUP3 ADD MSTORE POP JUMP JUMPDEST PUSH0 PUSH2 0x1D5F PUSH1 0x8 DUP4 PUSH2 0x1928 JUMP JUMPDEST SWAP2 POP PUSH2 0x1D6A DUP3 PUSH2 0x1D2B JUMP JUMPDEST PUSH1 0x20 DUP3 ADD SWAP1 POP SWAP2 SWAP1 POP JUMP JUMPDEST PUSH0 PUSH1 0x20 DUP3 ADD SWAP1 POP DUP2 DUP2 SUB PUSH0 DUP4 ADD MSTORE PUSH2 0x1D8C DUP2 PUSH2 0x1D53 JUMP JUMPDEST SWAP1 POP SWAP2 SWAP1 POP JUMP JUMPDEST PUSH0 PUSH2 0x1D9D DUP3 PUSH2 0x142F JUMP JUMPDEST SWAP2 POP PUSH2 0x1DA8 DUP4 PUSH2 0x142F JUMP JUMPDEST SWAP3 POP DUP3 DUP3 SUB SWAP1 POP DUP2 DUP2 GT ISZERO PUSH2 0x1DC0 JUMPI PUSH2 0x1DBF PUSH2 0x19A0 JUMP JUMPDEST JUMPDEST SWAP3 SWAP2 POP POP JUMP JUMPDEST PUSH0 PUSH2 0x1DD0 DUP3 PUSH2 0x13E0 JUMP JUMPDEST SWAP2 POP PUSH2 0x1DDB DUP4 PUSH2 0x13E0 JUMP JUMPDEST SWAP3 POP DUP3 DUP3 SUB SWAP1 POP PUSH14 0xFFFFFFFFFFFFFFFFFFFFFFFFFFFF DUP2 GT ISZERO PUSH2 0x1E01 JUMPI PUSH2 0x1E00 PUSH2 0x19A0 JUMP JUMPDEST JUMPDEST SWAP3 SWAP2 POP POP JUMP JUMPDEST PUSH0 PUSH2 0x1E11 DUP3 PUSH2 0x13E0 JUMP JUMPDEST SWAP2 POP PUSH2 0x1E1C DUP4 PUSH2 0x13E0 JUMP JUMPDEST SWAP3 POP DUP3 DUP3 ADD SWAP1 POP PUSH14 0xFFFFFFFFFFFFFFFFFFFFFFFFFFFF DUP2 GT ISZERO PUSH2 0x1E42 JUMPI PUSH2 0x1E41 PUSH2 0x19A0 JUMP JUMPDEST JUMPDEST SWAP3 SWAP2 POP POP JUMP JUMPDEST PUSH0 DUP2 PUSH1 0x60 SHL SWAP1 POP SWAP2 SWAP1 POP JUMP JUMPDEST PUSH0 PUSH2 0x1E5E DUP3 PUSH2 0x1E48 JUMP JUMPDEST SWAP1 POP SWAP2 SWAP1 POP JUMP JUMPDEST PUSH0 PUSH2 0x1E6F DUP3 PUSH2 0x1E54 JUMP JUMPDEST SWAP1 POP SWAP2 SWAP1 POP JUMP JUMPDEST PUSH2 0x1E87 PUSH2 0x1E82 DUP3 PUSH2 0x155A JUMP JUMPDEST PUSH2 0x1E65 JUMP JUMPDEST DUP3 MSTORE POP POP JUMP JUMPDEST PUSH0 PUSH2 0x1E98 DUP3 DUP6 PUSH2 0x1E76 JUMP JUMPDEST PUSH1 0x14 DUP3 ADD SWAP2 POP PUSH2 0x1EA8 DUP3 DUP5 PUSH2 0x1E76 JUMP JUMPDEST PUSH1 0x14 DUP3 ADD SWAP2 POP DUP2 SWAP1 POP SWAP4 SWAP3 POP POP POP JUMP JUMPDEST PUSH2 0x1EC1 DUP2 PUSH2 0x155A JUMP JUMPDEST DUP3 MSTORE POP POP JUMP JUMPDEST PUSH0 PUSH1 0x40 DUP3 ADD SWAP1 POP PUSH2 0x1EDA PUSH0 DUP4 ADD DUP6 PUSH2 0x1EB8 JUMP JUMPDEST PUSH2 0x1EE7 PUSH1 0x20 DUP4 ADD DUP5 PUSH2 0x14B2 JUMP JUMPDEST SWAP4 SWAP3 POP POP POP JUMP JUMPDEST PUSH32 0x496E73756666696369656E742042000000000000000000000000000000000000 PUSH0 DUP3 ADD MSTORE POP JUMP JUMPDEST PUSH0 PUSH2 0x1F22 PUSH1 0xE DUP4 PUSH2 0x1928 JUMP JUMPDEST SWAP2 POP PUSH2 0x1F2D DUP3 PUSH2 0x1EEE JUMP JUMPDEST PUSH1 0x20 DUP3 ADD SWAP1 POP SWAP2 SWAP1 POP JUMP JUMPDEST PUSH0 PUSH1 0x20 DUP3 ADD SWAP1 POP DUP2 DUP2 SUB PUSH0 DUP4 ADD MSTORE PUSH2 0x1F4F DUP2 PUSH2 0x1F16 JUMP JUMPDEST SWAP1 POP SWAP2 SWAP1 POP JUMP JUMPDEST PUSH32 0x496E73756666696369656E742041000000000000000000000000000000000000 PUSH0 DUP3 ADD MSTORE POP JUMP JUMPDEST PUSH0 PUSH2 0x1F8A PUSH1 0xE DUP4 PUSH2 0x1928 JUMP JUMPDEST SWAP2 POP PUSH2 0x1F95 DUP3 PUSH2 0x1F56 JUMP JUMPDEST PUSH1 0x20 DUP3 ADD SWAP1 POP SWAP2 SWAP1 POP JUMP JUMPDEST PUSH0 PUSH1 0x20 DUP3 ADD SWAP1 POP DUP2 DUP2 SUB PUSH0 DUP4 ADD MSTORE PUSH2 0x1FB7 DUP2 PUSH2 0x1F7E JUMP JUMPDEST SWAP1 POP SWAP2 SWAP1 POP JUMP JUMPDEST PUSH0 PUSH1 0x60 DUP3 ADD SWAP1 POP PUSH2 0x1FD1 PUSH0 DUP4 ADD DUP7 PUSH2 0x1EB8 JUMP JUMPDEST PUSH2 0x1FDE PUSH1 0x20 DUP4 ADD DUP6 PUSH2 0x1EB8 JUMP JUMPDEST PUSH2 0x1FEB PUSH1 0x40 DUP4 ADD DUP5 PUSH2 0x14B2 JUMP JUMPDEST SWAP5 SWAP4 POP POP POP POP JUMP JUMPDEST PUSH0 PUSH1 0x20 DUP3 ADD SWAP1 POP PUSH2 0x2006 PUSH0 DUP4 ADD DUP5 PUSH2 0x1EB8 JUMP JUMPDEST SWAP3 SWAP2 POP POP JUMP INVALID LOG2 PUSH5 0x6970667358 0x22 SLT KECCAK256 0xD5 0xC5 SWAP9 0x1F 0xF7 DELEGATECALL RETF LOG2 0xDF EXTDELEGATECALL 0xB0 PUSH14 0xB8DBC35C0CA45848E78E5FC82C81 PUSH8 0xA720EC43D664736F PUSH13 0x634300081E0033000000000000 "
		},
		"gasEstimates": {
			"creation": {
				"codeDepositCost": "1651600",
				"executionCost": "1734",
				"totalCost": "1653334"
			},
			"external": {
				"addLiquidity(address,address,uint256,uint256,uint256,uint256,address,uint256)": "infinite",
				"getAmountOut(uint256,uint256,uint256)": "infinite",
				"getPrice(address,address)": "infinite",
				"liquidityBalance(bytes32,address)": "3077",
				"removeLiquidity(address,address,uint256,uint256,uint256,address,uint256)": "infinite",
				"reserves(bytes32)": "infinite",
				"swapExactTokensForTokens(uint256,uint256,address[],address,uint256)": "infinite",
				"totalLiquidity(bytes32)": "2821"
			},
			"internal": {
				"_calculateLiquidityAmounts(uint112,uint112,uint256,uint256,uint256,uint256)": "infinite",
				"_calculateSwapOutput(uint256,address,address)": "infinite",
				"_getPairHash(address,address)": "infinite",
				"_getSortedReserves(address,address,struct SimpleSwap.Reserve memory)": "infinite",
				"_mintLiquidityAndUpdateReserves(bytes32,uint256,uint256,address,struct SimpleSwap.Reserve storage pointer)": "infinite",
				"_performAddLiquidityTransfers(address,address,uint256,uint256)": "infinite",
				"_performSwapTransfers(address,address,uint256,uint256,address)": "infinite",
				"_updateReservesAfterSwap(address,address,uint256,uint256)": "infinite"
			}
		},
		"methodIdentifiers": {
			"addLiquidity(address,address,uint256,uint256,uint256,uint256,address,uint256)": "e8e33700",
			"getAmountOut(uint256,uint256,uint256)": "054d50d4",
			"getPrice(address,address)": "ac41865a",
			"liquidityBalance(bytes32,address)": "bb521a30",
			"removeLiquidity(address,address,uint256,uint256,uint256,address,uint256)": "baa2abde",
			"reserves(bytes32)": "00bbf1e4",
			"swapExactTokensForTokens(uint256,uint256,address[],address,uint256)": "38ed1739",
			"totalLiquidity(bytes32)": "54b7a8f7"
		}
	},
	"abi": [
		{
			"inputs": [
				{
					"internalType": "address",
					"name": "token",
					"type": "address"
				}
			],
			"name": "SafeERC20FailedOperation",
			"type": "error"
		},
		{
			"inputs": [
				{
					"internalType": "address",
					"name": "tokenA",
					"type": "address"
				},
				{
					"internalType": "address",
					"name": "tokenB",
					"type": "address"
				},
				{
					"internalType": "uint256",
					"name": "amountADesired",
					"type": "uint256"
				},
				{
					"internalType": "uint256",
					"name": "amountBDesired",
					"type": "uint256"
				},
				{
					"internalType": "uint256",
					"name": "amountAMin",
					"type": "uint256"
				},
				{
					"internalType": "uint256",
					"name": "amountBMin",
					"type": "uint256"
				},
				{
					"internalType": "address",
					"name": "to",
					"type": "address"
				},
				{
					"internalType": "uint256",
					"name": "deadline",
					"type": "uint256"
				}
			],
			"name": "addLiquidity",
			"outputs": [
				{
					"internalType": "uint256",
					"name": "amountA",
					"type": "uint256"
				},
				{
					"internalType": "uint256",
					"name": "amountB",
					"type": "uint256"
				},
				{
					"internalType": "uint256",
					"name": "liquidity",
					"type": "uint256"
				}
			],
			"stateMutability": "nonpayable",
			"type": "function"
		},
		{
			"inputs": [
				{
					"internalType": "uint256",
					"name": "amountIn",
					"type": "uint256"
				},
				{
					"internalType": "uint256",
					"name": "reserveIn",
					"type": "uint256"
				},
				{
					"internalType": "uint256",
					"name": "reserveOut",
					"type": "uint256"
				}
			],
			"name": "getAmountOut",
			"outputs": [
				{
					"internalType": "uint256",
					"name": "amountOut",
					"type": "uint256"
				}
			],
			"stateMutability": "pure",
			"type": "function"
		},
		{
			"inputs": [
				{
					"internalType": "address",
					"name": "tokenA",
					"type": "address"
				},
				{
					"internalType": "address",
					"name": "tokenB",
					"type": "address"
				}
			],
			"name": "getPrice",
			"outputs": [
				{
					"internalType": "uint256",
					"name": "price",
					"type": "uint256"
				}
			],
			"stateMutability": "view",
			"type": "function"
		},
		{
			"inputs": [
				{
					"internalType": "bytes32",
					"name": "",
					"type": "bytes32"
				},
				{
					"internalType": "address",
					"name": "",
					"type": "address"
				}
			],
			"name": "liquidityBalance",
			"outputs": [
				{
					"internalType": "uint256",
					"name": "",
					"type": "uint256"
				}
			],
			"stateMutability": "view",
			"type": "function"
		},
		{
			"inputs": [
				{
					"internalType": "address",
					"name": "tokenA",
					"type": "address"
				},
				{
					"internalType": "address",
					"name": "tokenB",
					"type": "address"
				},
				{
					"internalType": "uint256",
					"name": "liquidity",
					"type": "uint256"
				},
				{
					"internalType": "uint256",
					"name": "amountAMin",
					"type": "uint256"
				},
				{
					"internalType": "uint256",
					"name": "amountBMin",
					"type": "uint256"
				},
				{
					"internalType": "address",
					"name": "to",
					"type": "address"
				},
				{
					"internalType": "uint256",
					"name": "deadline",
					"type": "uint256"
				}
			],
			"name": "removeLiquidity",
			"outputs": [
				{
					"internalType": "uint256",
					"name": "amountA",
					"type": "uint256"
				},
				{
					"internalType": "uint256",
					"name": "amountB",
					"type": "uint256"
				}
			],
			"stateMutability": "nonpayable",
			"type": "function"
		},
		{
			"inputs": [
				{
					"internalType": "bytes32",
					"name": "",
					"type": "bytes32"
				}
			],
			"name": "reserves",
			"outputs": [
				{
					"internalType": "uint112",
					"name": "reserveA",
					"type": "uint112"
				},
				{
					"internalType": "uint112",
					"name": "reserveB",
					"type": "uint112"
				}
			],
			"stateMutability": "view",
			"type": "function"
		},
		{
			"inputs": [
				{
					"internalType": "uint256",
					"name": "amountIn",
					"type": "uint256"
				},
				{
					"internalType": "uint256",
					"name": "amountOutMin",
					"type": "uint256"
				},
				{
					"internalType": "address[]",
					"name": "path",
					"type": "address[]"
				},
				{
					"internalType": "address",
					"name": "to",
					"type": "address"
				},
				{
					"internalType": "uint256",
					"name": "deadline",
					"type": "uint256"
				}
			],
			"name": "swapExactTokensForTokens",
			"outputs": [
				{
					"internalType": "uint256[]",
					"name": "amounts",
					"type": "uint256[]"
				}
			],
			"stateMutability": "nonpayable",
			"type": "function"
		},
		{
			"inputs": [
				{
					"internalType": "bytes32",
					"name": "",
					"type": "bytes32"
				}
			],
			"name": "totalLiquidity",
			"outputs": [
				{
					"internalType": "uint256",
					"name": "",
					"type": "uint256"
				}
			],
			"stateMutability": "view",
			"type": "function"
		}
	]
}